{"abi":[{"type":"constructor","inputs":[{"name":"finalRootHash","type":"bytes32","internalType":"bytes32"},{"name":"_NotRevealedUri","type":"string","internalType":"string"}],"stateMutability":"nonpayable"},{"type":"function","name":"WhiteListMint","inputs":[{"name":"_merkleProof","type":"bytes32[]","internalType":"bytes32[]"},{"name":"chosenAmount","type":"uint256","internalType":"uint256"}],"outputs":[],"stateMutability":"nonpayable"},{"type":"function","name":"_baseURI1","inputs":[],"outputs":[{"name":"","type":"string","internalType":"string"}],"stateMutability":"view"},{"type":"function","name":"approve","inputs":[{"name":"to","type":"address","internalType":"address"},{"name":"tokenId","type":"uint256","internalType":"uint256"}],"outputs":[],"stateMutability":"nonpayable"},{"type":"function","name":"balanceOf","inputs":[{"name":"owner","type":"address","internalType":"address"}],"outputs":[{"name":"","type":"uint256","internalType":"uint256"}],"stateMutability":"view"},{"type":"function","name":"flipPauseMinting","inputs":[],"outputs":[],"stateMutability":"nonpayable"},{"type":"function","name":"getApproved","inputs":[{"name":"tokenId","type":"uint256","internalType":"uint256"}],"outputs":[{"name":"","type":"address","internalType":"address"}],"stateMutability":"view"},{"type":"function","name":"isApprovedForAll","inputs":[{"name":"owner","type":"address","internalType":"address"},{"name":"operator","type":"address","internalType":"address"}],"outputs":[{"name":"","type":"bool","internalType":"bool"}],"stateMutability":"view"},{"type":"function","name":"isPaused","inputs":[],"outputs":[{"name":"","type":"bool","internalType":"bool"}],"stateMutability":"view"},{"type":"function","name":"maxsupply","inputs":[],"outputs":[{"name":"","type":"uint256","internalType":"uint256"}],"stateMutability":"view"},{"type":"function","name":"mintReservedTokens","inputs":[{"name":"quantity","type":"uint256","internalType":"uint256"}],"outputs":[],"stateMutability":"nonpayable"},{"type":"function","name":"name","inputs":[],"outputs":[{"name":"","type":"string","internalType":"string"}],"stateMutability":"view"},{"type":"function","name":"notRevealedUri","inputs":[],"outputs":[{"name":"","type":"string","internalType":"string"}],"stateMutability":"view"},{"type":"function","name":"owner","inputs":[],"outputs":[{"name":"","type":"address","internalType":"address"}],"stateMutability":"view"},{"type":"function","name":"ownerOf","inputs":[{"name":"tokenId","type":"uint256","internalType":"uint256"}],"outputs":[{"name":"","type":"address","internalType":"address"}],"stateMutability":"view"},{"type":"function","name":"renounceOwnership","inputs":[],"outputs":[],"stateMutability":"nonpayable"},{"type":"function","name":"reserve","inputs":[],"outputs":[{"name":"","type":"uint256","internalType":"uint256"}],"stateMutability":"view"},{"type":"function","name":"reveal","inputs":[],"outputs":[],"stateMutability":"nonpayable"},{"type":"function","name":"revealed","inputs":[],"outputs":[{"name":"","type":"bool","internalType":"bool"}],"stateMutability":"view"},{"type":"function","name":"safeTransferFrom","inputs":[{"name":"from","type":"address","internalType":"address"},{"name":"to","type":"address","internalType":"address"},{"name":"tokenId","type":"uint256","internalType":"uint256"}],"outputs":[],"stateMutability":"nonpayable"},{"type":"function","name":"safeTransferFrom","inputs":[{"name":"from","type":"address","internalType":"address"},{"name":"to","type":"address","internalType":"address"},{"name":"tokenId","type":"uint256","internalType":"uint256"},{"name":"_data","type":"bytes","internalType":"bytes"}],"outputs":[],"stateMutability":"nonpayable"},{"type":"function","name":"setApprovalForAll","inputs":[{"name":"operator","type":"address","internalType":"address"},{"name":"approved","type":"bool","internalType":"bool"}],"outputs":[],"stateMutability":"nonpayable"},{"type":"function","name":"setBaseURI","inputs":[{"name":"_newBaseURI","type":"string","internalType":"string"}],"outputs":[],"stateMutability":"nonpayable"},{"type":"function","name":"setNotRevealedURI","inputs":[{"name":"_notRevealedURI","type":"string","internalType":"string"}],"outputs":[],"stateMutability":"nonpayable"},{"type":"function","name":"setReserve","inputs":[{"name":"_reserve","type":"uint256","internalType":"uint256"}],"outputs":[],"stateMutability":"nonpayable"},{"type":"function","name":"setRootHash","inputs":[{"name":"_updatedRootHash","type":"bytes32","internalType":"bytes32"}],"outputs":[],"stateMutability":"nonpayable"},{"type":"function","name":"supportsInterface","inputs":[{"name":"interfaceId","type":"bytes4","internalType":"bytes4"}],"outputs":[{"name":"","type":"bool","internalType":"bool"}],"stateMutability":"view"},{"type":"function","name":"symbol","inputs":[],"outputs":[{"name":"","type":"string","internalType":"string"}],"stateMutability":"view"},{"type":"function","name":"tokenByIndex","inputs":[{"name":"index","type":"uint256","internalType":"uint256"}],"outputs":[{"name":"","type":"uint256","internalType":"uint256"}],"stateMutability":"view"},{"type":"function","name":"tokenOfOwnerByIndex","inputs":[{"name":"owner","type":"address","internalType":"address"},{"name":"index","type":"uint256","internalType":"uint256"}],"outputs":[{"name":"a","type":"uint256","internalType":"uint256"}],"stateMutability":"view"},{"type":"function","name":"tokenURI","inputs":[{"name":"tokenId","type":"uint256","internalType":"uint256"}],"outputs":[{"name":"","type":"string","internalType":"string"}],"stateMutability":"view"},{"type":"function","name":"totalSupply","inputs":[],"outputs":[{"name":"","type":"uint256","internalType":"uint256"}],"stateMutability":"view"},{"type":"function","name":"transferFrom","inputs":[{"name":"from","type":"address","internalType":"address"},{"name":"to","type":"address","internalType":"address"},{"name":"tokenId","type":"uint256","internalType":"uint256"}],"outputs":[],"stateMutability":"nonpayable"},{"type":"function","name":"transferOwnership","inputs":[{"name":"newOwner","type":"address","internalType":"address"}],"outputs":[],"stateMutability":"nonpayable"},{"type":"function","name":"withdraw","inputs":[],"outputs":[],"stateMutability":"nonpayable"},{"type":"event","name":"Approval","inputs":[{"name":"owner","type":"address","indexed":true,"internalType":"address"},{"name":"approved","type":"address","indexed":true,"internalType":"address"},{"name":"tokenId","type":"uint256","indexed":true,"internalType":"uint256"}],"anonymous":false},{"type":"event","name":"ApprovalForAll","inputs":[{"name":"owner","type":"address","indexed":true,"internalType":"address"},{"name":"operator","type":"address","indexed":true,"internalType":"address"},{"name":"approved","type":"bool","indexed":false,"internalType":"bool"}],"anonymous":false},{"type":"event","name":"OwnershipTransferred","inputs":[{"name":"previousOwner","type":"address","indexed":true,"internalType":"address"},{"name":"newOwner","type":"address","indexed":true,"internalType":"address"}],"anonymous":false},{"type":"event","name":"Transfer","inputs":[{"name":"from","type":"address","indexed":true,"internalType":"address"},{"name":"to","type":"address","indexed":true,"internalType":"address"},{"name":"tokenId","type":"uint256","indexed":true,"internalType":"uint256"}],"anonymous":false},{"type":"error","name":"ApprovalCallerNotOwnerNorApproved","inputs":[]},{"type":"error","name":"ApprovalQueryForNonexistentToken","inputs":[]},{"type":"error","name":"ApprovalToCurrentOwner","inputs":[]},{"type":"error","name":"ApproveToCaller","inputs":[]},{"type":"error","name":"BalanceQueryForZeroAddress","inputs":[]},{"type":"error","name":"MintToZeroAddress","inputs":[]},{"type":"error","name":"MintedQueryForZeroAddress","inputs":[]},{"type":"error","name":"OwnerIndexOutOfBounds","inputs":[]},{"type":"error","name":"OwnerQueryForNonexistentToken","inputs":[]},{"type":"error","name":"TokenIndexOutOfBounds","inputs":[]},{"type":"error","name":"TransferCallerNotOwnerNorApproved","inputs":[]},{"type":"error","name":"TransferFromIncorrectOwner","inputs":[]},{"type":"error","name":"TransferToNonERC721ReceiverImplementer","inputs":[]},{"type":"error","name":"TransferToZeroAddress","inputs":[]},{"type":"error","name":"UnableDetermineTokenOwner","inputs":[]}],"bytecode":{"object":"0x60806040526104c560085560646009556001600a60006101000a81548160ff0219169083151502179055506000600d60006101000a81548160ff0219169083151502179055503480156200005257600080fd5b506040516200459038038062004590833981810160405281019062000078919062000440565b6040518060400160405280600f81526020017f42616420477579732062792052504600000000000000000000000000000000008152506040518060400160405280600581526020017f42475250460000000000000000000000000000000000000000000000000000008152508160019080519060200190620000fc929190620002fb565b50806002908051906020019062000115929190620002fb565b505050620001386200012c6200015860201b60201c565b6200016060201b60201c565b81600c8190555062000150816200022660201b60201c565b5050620006d1565b600033905090565b6000600760009054906101000a900473ffffffffffffffffffffffffffffffffffffffff16905081600760006101000a81548173ffffffffffffffffffffffffffffffffffffffff021916908373ffffffffffffffffffffffffffffffffffffffff1602179055508173ffffffffffffffffffffffffffffffffffffffff168173ffffffffffffffffffffffffffffffffffffffff167f8be0079c531659141344cd1fd0a4f28419497f9722a3daafe3b4186f6b6457e060405160405180910390a35050565b620002366200015860201b60201c565b73ffffffffffffffffffffffffffffffffffffffff166200025c620002d160201b60201c565b73ffffffffffffffffffffffffffffffffffffffff1614620002b5576040517f08c379a0000000000000000000000000000000000000000000000000000000008152600401620002ac90620004cd565b60405180910390fd5b80600e9080519060200190620002cd929190620002fb565b5050565b6000600760009054906101000a900473ffffffffffffffffffffffffffffffffffffffff16905090565b82805462000309906200059f565b90600052602060002090601f0160209004810192826200032d576000855562000379565b82601f106200034857805160ff191683800117855562000379565b8280016001018555821562000379579182015b82811115620003785782518255916020019190600101906200035b565b5b5090506200038891906200038c565b5090565b5b80821115620003a75760008160009055506001016200038d565b5090565b6000620003c2620003bc8462000518565b620004ef565b905082815260208101848484011115620003e157620003e06200066e565b5b620003ee84828562000569565b509392505050565b6000815190506200040781620006b7565b92915050565b600082601f83011262000425576200042462000669565b5b815162000437848260208601620003ab565b91505092915050565b600080604083850312156200045a576200045962000678565b5b60006200046a85828601620003f6565b925050602083015167ffffffffffffffff8111156200048e576200048d62000673565b5b6200049c858286016200040d565b9150509250929050565b6000620004b56020836200054e565b9150620004c2826200068e565b602082019050919050565b60006020820190508181036000830152620004e881620004a6565b9050919050565b6000620004fb6200050e565b9050620005098282620005d5565b919050565b6000604051905090565b600067ffffffffffffffff8211156200053657620005356200063a565b5b62000541826200067d565b9050602081019050919050565b600082825260208201905092915050565b6000819050919050565b60005b83811015620005895780820151818401526020810190506200056c565b8381111562000599576000848401525b50505050565b60006002820490506001821680620005b857607f821691505b60208210811415620005cf57620005ce6200060b565b5b50919050565b620005e0826200067d565b810181811067ffffffffffffffff821117156200060257620006016200063a565b5b80604052505050565b7f4e487b7100000000000000000000000000000000000000000000000000000000600052602260045260246000fd5b7f4e487b7100000000000000000000000000000000000000000000000000000000600052604160045260246000fd5b600080fd5b600080fd5b600080fd5b600080fd5b6000601f19601f8301169050919050565b7f4f776e61626c653a2063616c6c6572206973206e6f7420746865206f776e6572600082015250565b620006c2816200055f565b8114620006ce57600080fd5b50565b613eaf80620006e16000396000f3fe608060405234801561001057600080fd5b50600436106102065760003560e01c806355f804b31161011a578063a475b5dd116100ad578063cd3293de1161007c578063cd3293de1461058d578063e985e9c5146105ab578063f2c4ce1e146105db578063f2fde38b146105f7578063fb4a9be01461061357610206565b8063a475b5dd14610519578063b187bd2614610523578063b88d4fde14610541578063c87b56dd1461055d57610206565b80637d5cb4e5116100e95780637d5cb4e5146104a55780638da5cb5b146104c157806395d89b41146104df578063a22cb465146104fd57610206565b806355f804b31461041f5780636352211e1461043b57806370a082311461046b578063715018a61461049b57610206565b806323b872dd1161019d5780634256dbe31161016c5780634256dbe31461037b57806342842e0e146103975780634b6406d1146103b35780634f6ccce7146103d1578063518302271461040157610206565b806323b872dd146103095780632d7eae66146103255780632f745c59146103415780633ccfd60b1461037157610206565b80630917c4e1116101d95780630917c4e1146102a7578063095ea7b3146102b157806311e0f063146102cd57806318160ddd146102eb57610206565b806301ffc9a71461020b57806306fdde031461023b578063081812fc14610259578063081c8c4414610289575b600080fd5b6102256004803603810190610220919061318e565b61062f565b6040516102329190613577565b60405180910390f35b610243610779565b6040516102509190613592565b60405180910390f35b610273600480360381019061026e9190613231565b61080b565b6040516102809190613510565b60405180910390f35b610291610887565b60405161029e9190613592565b60405180910390f35b6102af610915565b005b6102cb60048036038101906102c691906130c1565b6109bd565b005b6102d5610ac8565b6040516102e29190613592565b60405180910390f35b6102f3610b56565b60405161030091906136f4565b60405180910390f35b610323600480360381019061031e9190612fab565b610b5f565b005b61033f600480360381019061033a9190613161565b610b6f565b005b61035b600480360381019061035691906130c1565b610bf5565b60405161036891906136f4565b60405180910390f35b610379610db6565b005b61039560048036038101906103909190613231565b610e81565b005b6103b160048036038101906103ac9190612fab565b610f4c565b005b6103bb610f6c565b6040516103c891906136f4565b60405180910390f35b6103eb60048036038101906103e69190613231565b610f72565b6040516103f891906136f4565b60405180910390f35b610409610fbc565b6040516104169190613577565b60405180910390f35b610439600480360381019061043491906131e8565b610fcf565b005b61045560048036038101906104509190613231565b611065565b6040516104629190613510565b60405180910390f35b61048560048036038101906104809190612f3e565b61107b565b60405161049291906136f4565b60405180910390f35b6104a361115b565b005b6104bf60048036038101906104ba9190613231565b6111e3565b005b6104c96112ca565b6040516104d69190613510565b60405180910390f35b6104e76112f4565b6040516104f49190613592565b60405180910390f35b61051760048036038101906105129190613081565b611386565b005b6105216114fe565b005b61052b6115a6565b6040516105389190613577565b60405180910390f35b61055b60048036038101906105569190612ffe565b6115b9565b005b61057760048036038101906105729190613231565b61160c565b6040516105849190613592565b60405180910390f35b610595611762565b6040516105a291906136f4565b60405180910390f35b6105c560048036038101906105c09190612f6b565b611768565b6040516105d29190613577565b60405180910390f35b6105f560048036038101906105f091906131e8565b6117fc565b005b610611600480360381019061060c9190612f3e565b611892565b005b61062d60048036038101906106289190613101565b61198a565b005b60007f80ac58cd000000000000000000000000000000000000000000000000000000007bffffffffffffffffffffffffffffffffffffffffffffffffffffffff1916827bffffffffffffffffffffffffffffffffffffffffffffffffffffffff191614806106fa57507f5b5e139f000000000000000000000000000000000000000000000000000000007bffffffffffffffffffffffffffffffffffffffffffffffffffffffff1916827bffffffffffffffffffffffffffffffffffffffffffffffffffffffff1916145b8061076257507f780e9d63000000000000000000000000000000000000000000000000000000007bffffffffffffffffffffffffffffffffffffffffffffffffffffffff1916827bffffffffffffffffffffffffffffffffffffffffffffffffffffffff1916145b80610772575061077182611b9a565b5b9050919050565b60606001805461078890613954565b80601f01602080910402602001604051908101604052809291908181526020018280546107b490613954565b80156108015780601f106107d657610100808354040283529160200191610801565b820191906000526020600020905b8154815290600101906020018083116107e457829003601f168201915b5050505050905090565b600061081682611c04565b61084c576040517fcf4700e400000000000000000000000000000000000000000000000000000000815260040160405180910390fd5b6005600083815260200190815260200160002060009054906101000a900473ffffffffffffffffffffffffffffffffffffffff169050919050565b600e805461089490613954565b80601f01602080910402602001604051908101604052809291908181526020018280546108c090613954565b801561090d5780601f106108e25761010080835404028352916020019161090d565b820191906000526020600020905b8154815290600101906020018083116108f057829003601f168201915b505050505081565b61091d611c11565b73ffffffffffffffffffffffffffffffffffffffff1661093b6112ca565b73ffffffffffffffffffffffffffffffffffffffff1614610991576040517f08c379a000000000000000000000000000000000000000000000000000000000815260040161098890613614565b60405180910390fd5b600a60009054906101000a900460ff1615600a60006101000a81548160ff021916908315150217905550565b60006109c882611065565b90508073ffffffffffffffffffffffffffffffffffffffff168373ffffffffffffffffffffffffffffffffffffffff161415610a30576040517f943f7b8c00000000000000000000000000000000000000000000000000000000815260040160405180910390fd5b8073ffffffffffffffffffffffffffffffffffffffff16610a4f611c11565b73ffffffffffffffffffffffffffffffffffffffff1614158015610a815750610a7f81610a7a611c11565b611768565b155b15610ab8576040517fcfb3b94200000000000000000000000000000000000000000000000000000000815260040160405180910390fd5b610ac3838383611c19565b505050565b600b8054610ad590613954565b80601f0160208091040260200160405190810160405280929190818152602001828054610b0190613954565b8015610b4e5780601f10610b2357610100808354040283529160200191610b4e565b820191906000526020600020905b815481529060010190602001808311610b3157829003601f168201915b505050505081565b60008054905090565b610b6a838383611ccb565b505050565b610b77611c11565b73ffffffffffffffffffffffffffffffffffffffff16610b956112ca565b73ffffffffffffffffffffffffffffffffffffffff1614610beb576040517f08c379a0000000000000000000000000000000000000000000000000000000008152600401610be290613614565b60405180910390fd5b80600c8190555050565b6000610c008361107b565b8210610c38576040517f0ddac30e00000000000000000000000000000000000000000000000000000000815260040160405180910390fd5b6000610c42610b56565b905060008060005b83811015610d9c576000600360008381526020019081526020016000206040518060400160405290816000820160009054906101000a900473ffffffffffffffffffffffffffffffffffffffff1673ffffffffffffffffffffffffffffffffffffffff1673ffffffffffffffffffffffffffffffffffffffff1681526020016000820160149054906101000a900467ffffffffffffffff1667ffffffffffffffff1667ffffffffffffffff16815250509050600073ffffffffffffffffffffffffffffffffffffffff16816000015173ffffffffffffffffffffffffffffffffffffffff1614610d3c57806000015192505b8773ffffffffffffffffffffffffffffffffffffffff168373ffffffffffffffffffffffffffffffffffffffff161415610d8e5786841415610d85578195505050505050610db0565b83806001019450505b508080600101915050610c4a565b506000610dac57610dab613a55565b5b5050505b92915050565b610dbe611c11565b73ffffffffffffffffffffffffffffffffffffffff16610ddc6112ca565b73ffffffffffffffffffffffffffffffffffffffff1614610e32576040517f08c379a0000000000000000000000000000000000000000000000000000000008152600401610e2990613614565b60405180910390fd5b60004790503373ffffffffffffffffffffffffffffffffffffffff166108fc829081150290604051600060405180830381858888f19350505050158015610e7d573d6000803e3d6000fd5b5050565b610e89611c11565b73ffffffffffffffffffffffffffffffffffffffff16610ea76112ca565b73ffffffffffffffffffffffffffffffffffffffff1614610efd576040517f08c379a0000000000000000000000000000000000000000000000000000000008152600401610ef490613614565b60405180910390fd5b600854811115610f42576040517f08c379a0000000000000000000000000000000000000000000000000000000008152600401610f39906135f4565b60405180910390fd5b8060098190555050565b610f67838383604051806020016040528060008152506115b9565b505050565b60085481565b6000610f7c610b56565b8210610fb4576040517fa723001c00000000000000000000000000000000000000000000000000000000815260040160405180910390fd5b819050919050565b600d60009054906101000a900460ff1681565b610fd7611c11565b73ffffffffffffffffffffffffffffffffffffffff16610ff56112ca565b73ffffffffffffffffffffffffffffffffffffffff161461104b576040517f08c379a000000000000000000000000000000000000000000000000000000000815260040161104290613614565b60405180910390fd5b80600b9080519060200190611061929190612cad565b5050565b6000611070826121e3565b600001519050919050565b60008073ffffffffffffffffffffffffffffffffffffffff168273ffffffffffffffffffffffffffffffffffffffff1614156110e3576040517f8f4eb60400000000000000000000000000000000000000000000000000000000815260040160405180910390fd5b600460008373ffffffffffffffffffffffffffffffffffffffff1673ffffffffffffffffffffffffffffffffffffffff16815260200190815260200160002060000160009054906101000a90046fffffffffffffffffffffffffffffffff166fffffffffffffffffffffffffffffffff169050919050565b611163611c11565b73ffffffffffffffffffffffffffffffffffffffff166111816112ca565b73ffffffffffffffffffffffffffffffffffffffff16146111d7576040517f08c379a00000000000000000000000000000000000000000000000000000000081526004016111ce90613614565b60405180910390fd5b6111e1600061236b565b565b6111eb611c11565b73ffffffffffffffffffffffffffffffffffffffff166112096112ca565b73ffffffffffffffffffffffffffffffffffffffff161461125f576040517f08c379a000000000000000000000000000000000000000000000000000000000815260040161125690613614565b60405180910390fd5b6009548111156112a4576040517f08c379a000000000000000000000000000000000000000000000000000000000815260040161129b90613654565b60405180910390fd5b80600960008282546112b69190613860565b925050819055506112c73382612431565b50565b6000600760009054906101000a900473ffffffffffffffffffffffffffffffffffffffff16905090565b60606002805461130390613954565b80601f016020809104026020016040519081016040528092919081815260200182805461132f90613954565b801561137c5780601f106113515761010080835404028352916020019161137c565b820191906000526020600020905b81548152906001019060200180831161135f57829003601f168201915b5050505050905090565b61138e611c11565b73ffffffffffffffffffffffffffffffffffffffff168273ffffffffffffffffffffffffffffffffffffffff1614156113f3576040517fb06307db00000000000000000000000000000000000000000000000000000000815260040160405180910390fd5b8060066000611400611c11565b73ffffffffffffffffffffffffffffffffffffffff1673ffffffffffffffffffffffffffffffffffffffff16815260200190815260200160002060008473ffffffffffffffffffffffffffffffffffffffff1673ffffffffffffffffffffffffffffffffffffffff16815260200190815260200160002060006101000a81548160ff0219169083151502179055508173ffffffffffffffffffffffffffffffffffffffff166114ad611c11565b73ffffffffffffffffffffffffffffffffffffffff167f17307eab39ab6107e8899845ad3d59bd9653f200f220920489ca2b5937696c31836040516114f29190613577565b60405180910390a35050565b611506611c11565b73ffffffffffffffffffffffffffffffffffffffff166115246112ca565b73ffffffffffffffffffffffffffffffffffffffff161461157a576040517f08c379a000000000000000000000000000000000000000000000000000000000815260040161157190613614565b60405180910390fd5b600d60009054906101000a900460ff1615600d60006101000a81548160ff021916908315150217905550565b600a60009054906101000a900460ff1681565b6115c4848484611ccb565b6115d08484848461244f565b611606576040517fd1a57ed600000000000000000000000000000000000000000000000000000000815260040160405180910390fd5b50505050565b606061161782611c04565b611656576040517f08c379a000000000000000000000000000000000000000000000000000000000815260040161164d90613634565b60405180910390fd5b60001515600d60009054906101000a900460ff161515141561170457600e805461167f90613954565b80601f01602080910402602001604051908101604052809291908181526020018280546116ab90613954565b80156116f85780601f106116cd576101008083540402835291602001916116f8565b820191906000526020600020905b8154815290600101906020018083116116db57829003601f168201915b5050505050905061175d565b600061170e6125dd565b9050600081511161172e5760405180602001604052806000815250611759565b806117388461266f565b6040516020016117499291906134e1565b6040516020818303038152906040525b9150505b919050565b60095481565b6000600660008473ffffffffffffffffffffffffffffffffffffffff1673ffffffffffffffffffffffffffffffffffffffff16815260200190815260200160002060008373ffffffffffffffffffffffffffffffffffffffff1673ffffffffffffffffffffffffffffffffffffffff16815260200190815260200160002060009054906101000a900460ff16905092915050565b611804611c11565b73ffffffffffffffffffffffffffffffffffffffff166118226112ca565b73ffffffffffffffffffffffffffffffffffffffff1614611878576040517f08c379a000000000000000000000000000000000000000000000000000000000815260040161186f90613614565b60405180910390fd5b80600e908051906020019061188e929190612cad565b5050565b61189a611c11565b73ffffffffffffffffffffffffffffffffffffffff166118b86112ca565b73ffffffffffffffffffffffffffffffffffffffff161461190e576040517f08c379a000000000000000000000000000000000000000000000000000000000815260040161190590613614565b60405180910390fd5b600073ffffffffffffffffffffffffffffffffffffffff168173ffffffffffffffffffffffffffffffffffffffff16141561197e576040517f08c379a0000000000000000000000000000000000000000000000000000000008152600401611975906135b4565b60405180910390fd5b6119878161236b565b50565b6001611995336127d0565b106119d5576040517f08c379a00000000000000000000000000000000000000000000000000000000081526004016119cc90613674565b60405180910390fd5b60001515600a60009054906101000a900460ff16151514611a2b576040517f08c379a0000000000000000000000000000000000000000000000000000000008152600401611a2290613694565b60405180910390fd5b60008111611a6e576040517f08c379a0000000000000000000000000000000000000000000000000000000008152600401611a65906135d4565b60405180910390fd5b600954600854611a7e9190613860565b81611a87610b56565b611a9191906137d9565b1115611ad2576040517f08c379a0000000000000000000000000000000000000000000000000000000008152600401611ac9906136b4565b60405180910390fd5b600033604051602001611ae591906134c6565b604051602081830303815290604052805190602001209050611b4b848480806020026020016040519081016040528093929190818152602001838360200280828437600081840152601f19601f82011690508083019250505050505050600c54836128b0565b611b8a576040517f08c379a0000000000000000000000000000000000000000000000000000000008152600401611b81906136d4565b60405180910390fd5b611b943383612431565b50505050565b60007f01ffc9a7000000000000000000000000000000000000000000000000000000007bffffffffffffffffffffffffffffffffffffffffffffffffffffffff1916827bffffffffffffffffffffffffffffffffffffffffffffffffffffffff1916149050919050565b6000805482109050919050565b600033905090565b826005600084815260200190815260200160002060006101000a81548173ffffffffffffffffffffffffffffffffffffffff021916908373ffffffffffffffffffffffffffffffffffffffff160217905550818373ffffffffffffffffffffffffffffffffffffffff168273ffffffffffffffffffffffffffffffffffffffff167f8c5be1e5ebec7d5bd14f71427d1e84f3dd0314c0f7b2291e5b200ac8c7c3b92560405160405180910390a4505050565b6000611cd6826121e3565b90506000816000015173ffffffffffffffffffffffffffffffffffffffff16611cfd611c11565b73ffffffffffffffffffffffffffffffffffffffff161480611d595750611d22611c11565b73ffffffffffffffffffffffffffffffffffffffff16611d418461080b565b73ffffffffffffffffffffffffffffffffffffffff16145b80611d755750611d748260000151611d6f611c11565b611768565b5b905080611dae576040517f59c896be00000000000000000000000000000000000000000000000000000000815260040160405180910390fd5b8473ffffffffffffffffffffffffffffffffffffffff16826000015173ffffffffffffffffffffffffffffffffffffffff1614611e17576040517fa114810000000000000000000000000000000000000000000000000000000000815260040160405180910390fd5b600073ffffffffffffffffffffffffffffffffffffffff168473ffffffffffffffffffffffffffffffffffffffff161415611e7e576040517fea553b3400000000000000000000000000000000000000000000000000000000815260040160405180910390fd5b611e8e6000848460000151611c19565b6001600460008773ffffffffffffffffffffffffffffffffffffffff1673ffffffffffffffffffffffffffffffffffffffff16815260200190815260200160002060000160008282829054906101000a90046fffffffffffffffffffffffffffffffff160392506101000a8154816fffffffffffffffffffffffffffffffff02191690836fffffffffffffffffffffffffffffffff1602179055506001600460008673ffffffffffffffffffffffffffffffffffffffff1673ffffffffffffffffffffffffffffffffffffffff16815260200190815260200160002060000160008282829054906101000a90046fffffffffffffffffffffffffffffffff160192506101000a8154816fffffffffffffffffffffffffffffffff02191690836fffffffffffffffffffffffffffffffff160217905550836003600085815260200190815260200160002060000160006101000a81548173ffffffffffffffffffffffffffffffffffffffff021916908373ffffffffffffffffffffffffffffffffffffffff160217905550426003600085815260200190815260200160002060000160146101000a81548167ffffffffffffffff021916908367ffffffffffffffff1602179055506000600184019050600073ffffffffffffffffffffffffffffffffffffffff166003600083815260200190815260200160002060000160009054906101000a900473ffffffffffffffffffffffffffffffffffffffff1673ffffffffffffffffffffffffffffffffffffffff161415612173576120d281611c04565b156121725782600001516003600083815260200190815260200160002060000160006101000a81548173ffffffffffffffffffffffffffffffffffffffff021916908373ffffffffffffffffffffffffffffffffffffffff16021790555082602001516003600083815260200190815260200160002060000160146101000a81548167ffffffffffffffff021916908367ffffffffffffffff1602179055505b5b50828473ffffffffffffffffffffffffffffffffffffffff168673ffffffffffffffffffffffffffffffffffffffff167fddf252ad1be2c89b69c2b068fc378daa952ba7f163c4a11628f55a4df523b3ef60405160405180910390a46121dc85858560016128c7565b5050505050565b6121eb612d33565b6121f482611c04565b61222a576040517fdf2d9b4200000000000000000000000000000000000000000000000000000000815260040160405180910390fd5b60008290505b60008110612333576000600360008381526020019081526020016000206040518060400160405290816000820160009054906101000a900473ffffffffffffffffffffffffffffffffffffffff1673ffffffffffffffffffffffffffffffffffffffff1673ffffffffffffffffffffffffffffffffffffffff1681526020016000820160149054906101000a900467ffffffffffffffff1667ffffffffffffffff1667ffffffffffffffff16815250509050600073ffffffffffffffffffffffffffffffffffffffff16816000015173ffffffffffffffffffffffffffffffffffffffff1614612324578092505050612366565b50808060019003915050612230565b506040517fe7c0edfb00000000000000000000000000000000000000000000000000000000815260040160405180910390fd5b919050565b6000600760009054906101000a900473ffffffffffffffffffffffffffffffffffffffff16905081600760006101000a81548173ffffffffffffffffffffffffffffffffffffffff021916908373ffffffffffffffffffffffffffffffffffffffff1602179055508173ffffffffffffffffffffffffffffffffffffffff168173ffffffffffffffffffffffffffffffffffffffff167f8be0079c531659141344cd1fd0a4f28419497f9722a3daafe3b4186f6b6457e060405160405180910390a35050565b61244b8282604051806020016040528060008152506128cd565b5050565b60006124708473ffffffffffffffffffffffffffffffffffffffff166128df565b156125d0578373ffffffffffffffffffffffffffffffffffffffff1663150b7a02612499611c11565b8786866040518563ffffffff1660e01b81526004016124bb949392919061352b565b602060405180830381600087803b1580156124d557600080fd5b505af192505050801561250657506040513d601f19601f8201168201806040525081019061250391906131bb565b60015b612580573d8060008114612536576040519150601f19603f3d011682016040523d82523d6000602084013e61253b565b606091505b50600081511415612578576040517fd1a57ed600000000000000000000000000000000000000000000000000000000815260040160405180910390fd5b805181602001fd5b63150b7a0260e01b7bffffffffffffffffffffffffffffffffffffffffffffffffffffffff1916817bffffffffffffffffffffffffffffffffffffffffffffffffffffffff1916149150506125d5565b600190505b949350505050565b6060600b80546125ec90613954565b80601f016020809104026020016040519081016040528092919081815260200182805461261890613954565b80156126655780601f1061263a57610100808354040283529160200191612665565b820191906000526020600020905b81548152906001019060200180831161264857829003601f168201915b5050505050905090565b606060008214156126b7576040518060400160405280600181526020017f300000000000000000000000000000000000000000000000000000000000000081525090506127cb565b600082905060005b600082146126e95780806126d2906139b7565b915050600a826126e2919061382f565b91506126bf565b60008167ffffffffffffffff81111561270557612704613b40565b5b6040519080825280601f01601f1916602001820160405280156127375781602001600182028036833780820191505090505b5090505b600085146127c4576001826127509190613860565b9150600a8561275f9190613a24565b603061276b91906137d9565b60f81b81838151811061278157612780613b11565b5b60200101907effffffffffffffffffffffffffffffffffffffffffffffffffffffffffffff1916908160001a905350600a856127bd919061382f565b945061273b565b8093505050505b919050565b60008073ffffffffffffffffffffffffffffffffffffffff168273ffffffffffffffffffffffffffffffffffffffff161415612838576040517f35ebb31900000000000000000000000000000000000000000000000000000000815260040160405180910390fd5b600460008373ffffffffffffffffffffffffffffffffffffffff1673ffffffffffffffffffffffffffffffffffffffff16815260200190815260200160002060000160109054906101000a90046fffffffffffffffffffffffffffffffff166fffffffffffffffffffffffffffffffff169050919050565b6000826128bd8584612902565b1490509392505050565b50505050565b6128da8383836001612977565b505050565b6000808273ffffffffffffffffffffffffffffffffffffffff163b119050919050565b60008082905060005b845181101561296c57600085828151811061292957612928613b11565b5b6020026020010151905080831161294b576129448382612c96565b9250612958565b6129558184612c96565b92505b508080612964906139b7565b91505061290b565b508091505092915050565b600080549050600073ffffffffffffffffffffffffffffffffffffffff168573ffffffffffffffffffffffffffffffffffffffff1614156129e4576040517f2e07630000000000000000000000000000000000000000000000000000000000815260040160405180910390fd5b83600460008773ffffffffffffffffffffffffffffffffffffffff1673ffffffffffffffffffffffffffffffffffffffff16815260200190815260200160002060000160008282829054906101000a90046fffffffffffffffffffffffffffffffff160192506101000a8154816fffffffffffffffffffffffffffffffff02191690836fffffffffffffffffffffffffffffffff16021790555083600460008773ffffffffffffffffffffffffffffffffffffffff1673ffffffffffffffffffffffffffffffffffffffff16815260200190815260200160002060000160108282829054906101000a90046fffffffffffffffffffffffffffffffff160192506101000a8154816fffffffffffffffffffffffffffffffff02191690836fffffffffffffffffffffffffffffffff160217905550846003600083815260200190815260200160002060000160006101000a81548173ffffffffffffffffffffffffffffffffffffffff021916908373ffffffffffffffffffffffffffffffffffffffff160217905550426003600083815260200190815260200160002060000160146101000a81548167ffffffffffffffff021916908367ffffffffffffffff160217905550600081905060005b85811015612c7957818773ffffffffffffffffffffffffffffffffffffffff16600073ffffffffffffffffffffffffffffffffffffffff167fddf252ad1be2c89b69c2b068fc378daa952ba7f163c4a11628f55a4df523b3ef60405160405180910390a4838015612c2d5750612c2b600088848861244f565b155b15612c64576040517fd1a57ed600000000000000000000000000000000000000000000000000000000815260040160405180910390fd5b81806001019250508080600101915050612bb2565b508060008190555050612c8f60008683876128c7565b5050505050565b600082600052816020526040600020905092915050565b828054612cb990613954565b90600052602060002090601f016020900481019282612cdb5760008555612d22565b82601f10612cf457805160ff1916838001178555612d22565b82800160010185558215612d22579182015b82811115612d21578251825591602001919060010190612d06565b5b509050612d2f9190612d6d565b5090565b6040518060400160405280600073ffffffffffffffffffffffffffffffffffffffff168152602001600067ffffffffffffffff1681525090565b5b80821115612d86576000816000905550600101612d6e565b5090565b6000612d9d612d9884613734565b61370f565b905082815260208101848484011115612db957612db8613b7e565b5b612dc4848285613912565b509392505050565b6000612ddf612dda84613765565b61370f565b905082815260208101848484011115612dfb57612dfa613b7e565b5b612e06848285613912565b509392505050565b600081359050612e1d81613e06565b92915050565b60008083601f840112612e3957612e38613b74565b5b8235905067ffffffffffffffff811115612e5657612e55613b6f565b5b602083019150836020820283011115612e7257612e71613b79565b5b9250929050565b600081359050612e8881613e1d565b92915050565b600081359050612e9d81613e34565b92915050565b600081359050612eb281613e4b565b92915050565b600081519050612ec781613e4b565b92915050565b600082601f830112612ee257612ee1613b74565b5b8135612ef2848260208601612d8a565b91505092915050565b600082601f830112612f1057612f0f613b74565b5b8135612f20848260208601612dcc565b91505092915050565b600081359050612f3881613e62565b92915050565b600060208284031215612f5457612f53613b88565b5b6000612f6284828501612e0e565b91505092915050565b60008060408385031215612f8257612f81613b88565b5b6000612f9085828601612e0e565b9250506020612fa185828601612e0e565b9150509250929050565b600080600060608486031215612fc457612fc3613b88565b5b6000612fd286828701612e0e565b9350506020612fe386828701612e0e565b9250506040612ff486828701612f29565b9150509250925092565b6000806000806080858703121561301857613017613b88565b5b600061302687828801612e0e565b945050602061303787828801612e0e565b935050604061304887828801612f29565b925050606085013567ffffffffffffffff81111561306957613068613b83565b5b61307587828801612ecd565b91505092959194509250565b6000806040838503121561309857613097613b88565b5b60006130a685828601612e0e565b92505060206130b785828601612e79565b9150509250929050565b600080604083850312156130d8576130d7613b88565b5b60006130e685828601612e0e565b92505060206130f785828601612f29565b9150509250929050565b60008060006040848603121561311a57613119613b88565b5b600084013567ffffffffffffffff81111561313857613137613b83565b5b61314486828701612e23565b9350935050602061315786828701612f29565b9150509250925092565b60006020828403121561317757613176613b88565b5b600061318584828501612e8e565b91505092915050565b6000602082840312156131a4576131a3613b88565b5b60006131b284828501612ea3565b91505092915050565b6000602082840312156131d1576131d0613b88565b5b60006131df84828501612eb8565b91505092915050565b6000602082840312156131fe576131fd613b88565b5b600082013567ffffffffffffffff81111561321c5761321b613b83565b5b61322884828501612efb565b91505092915050565b60006020828403121561324757613246613b88565b5b600061325584828501612f29565b91505092915050565b61326781613894565b82525050565b61327e61327982613894565b613a00565b82525050565b61328d816138a6565b82525050565b600061329e82613796565b6132a881856137ac565b93506132b8818560208601613921565b6132c181613b8d565b840191505092915050565b60006132d7826137a1565b6132e181856137bd565b93506132f1818560208601613921565b6132fa81613b8d565b840191505092915050565b6000613310826137a1565b61331a81856137ce565b935061332a818560208601613921565b80840191505092915050565b60006133436026836137bd565b915061334e82613bab565b604082019050919050565b60006133666033836137bd565b915061337182613bfa565b604082019050919050565b60006133896014836137bd565b915061339482613c49565b602082019050919050565b60006133ac6005836137ce565b91506133b782613c72565b600582019050919050565b60006133cf6020836137bd565b91506133da82613c9b565b602082019050919050565b60006133f2602f836137bd565b91506133fd82613cc4565b604082019050919050565b60006134156023836137bd565b915061342082613d13565b604082019050919050565b6000613438600f836137bd565b915061344382613d62565b602082019050919050565b600061345b600f836137bd565b915061346682613d8b565b602082019050919050565b600061347e601b836137bd565b915061348982613db4565b602082019050919050565b60006134a1600d836137bd565b91506134ac82613ddd565b602082019050919050565b6134c081613908565b82525050565b60006134d2828461326d565b60148201915081905092915050565b60006134ed8285613305565b91506134f98284613305565b91506135048261339f565b91508190509392505050565b6000602082019050613525600083018461325e565b92915050565b6000608082019050613540600083018761325e565b61354d602083018661325e565b61355a60408301856134b7565b818103606083015261356c8184613293565b905095945050505050565b600060208201905061358c6000830184613284565b92915050565b600060208201905081810360008301526135ac81846132cc565b905092915050565b600060208201905081810360008301526135cd81613336565b9050919050565b600060208201905081810360008301526135ed81613359565b9050919050565b6000602082019050818103600083015261360d8161337c565b9050919050565b6000602082019050818103600083015261362d816133c2565b9050919050565b6000602082019050818103600083015261364d816133e5565b9050919050565b6000602082019050818103600083015261366d81613408565b9050919050565b6000602082019050818103600083015261368d8161342b565b9050919050565b600060208201905081810360008301526136ad8161344e565b9050919050565b600060208201905081810360008301526136cd81613471565b9050919050565b600060208201905081810360008301526136ed81613494565b9050919050565b600060208201905061370960008301846134b7565b92915050565b600061371961372a565b90506137258282613986565b919050565b6000604051905090565b600067ffffffffffffffff82111561374f5761374e613b40565b5b61375882613b8d565b9050602081019050919050565b600067ffffffffffffffff8211156137805761377f613b40565b5b61378982613b8d565b9050602081019050919050565b600081519050919050565b600081519050919050565b600082825260208201905092915050565b600082825260208201905092915050565b600081905092915050565b60006137e482613908565b91506137ef83613908565b9250827fffffffffffffffffffffffffffffffffffffffffffffffffffffffffffffffff0382111561382457613823613a84565b5b828201905092915050565b600061383a82613908565b915061384583613908565b92508261385557613854613ab3565b5b828204905092915050565b600061386b82613908565b915061387683613908565b92508282101561388957613888613a84565b5b828203905092915050565b600061389f826138e8565b9050919050565b60008115159050919050565b6000819050919050565b60007fffffffff0000000000000000000000000000000000000000000000000000000082169050919050565b600073ffffffffffffffffffffffffffffffffffffffff82169050919050565b6000819050919050565b82818337600083830152505050565b60005b8381101561393f578082015181840152602081019050613924565b8381111561394e576000848401525b50505050565b6000600282049050600182168061396c57607f821691505b602082108114156139805761397f613ae2565b5b50919050565b61398f82613b8d565b810181811067ffffffffffffffff821117156139ae576139ad613b40565b5b80604052505050565b60006139c282613908565b91507fffffffffffffffffffffffffffffffffffffffffffffffffffffffffffffffff8214156139f5576139f4613a84565b5b600182019050919050565b6000613a0b82613a12565b9050919050565b6000613a1d82613b9e565b9050919050565b6000613a2f82613908565b9150613a3a83613908565b925082613a4a57613a49613ab3565b5b828206905092915050565b7f4e487b7100000000000000000000000000000000000000000000000000000000600052600160045260246000fd5b7f4e487b7100000000000000000000000000000000000000000000000000000000600052601160045260246000fd5b7f4e487b7100000000000000000000000000000000000000000000000000000000600052601260045260246000fd5b7f4e487b7100000000000000000000000000000000000000000000000000000000600052602260045260246000fd5b7f4e487b7100000000000000000000000000000000000000000000000000000000600052603260045260246000fd5b7f4e487b7100000000000000000000000000000000000000000000000000000000600052604160045260246000fd5b600080fd5b600080fd5b600080fd5b600080fd5b600080fd5b600080fd5b6000601f19601f8301169050919050565b60008160601b9050919050565b7f4f776e61626c653a206e6577206f776e657220697320746865207a65726f206160008201527f6464726573730000000000000000000000000000000000000000000000000000602082015250565b7f4e756d626572204f6620546f6b656e732043616e204e6f74204265204c65737360008201527f205468616e204f7220457175616c20546f203000000000000000000000000000602082015250565b7f746865207175616e746974792065786365656473000000000000000000000000600082015250565b7f2e6a736f6e000000000000000000000000000000000000000000000000000000600082015250565b7f4f776e61626c653a2063616c6c6572206973206e6f7420746865206f776e6572600082015250565b7f4552433732314d657461646174613a2055524920717565727920666f72206e6f60008201527f6e6578697374656e7420746f6b656e0000000000000000000000000000000000602082015250565b7f416c6c207265736572766520746f6b656e7320686176652062656e65206d696e60008201527f7465640000000000000000000000000000000000000000000000000000000000602082015250565b7f416c726561647920436c61696d65640000000000000000000000000000000000600082015250565b7f7475726e206f6e206d696e74696e670000000000000000000000000000000000600082015250565b7f616c6c20746f6b656e732068617665206265656e206d696e7465640000000000600082015250565b7f496e76616c69642050726f6f6600000000000000000000000000000000000000600082015250565b613e0f81613894565b8114613e1a57600080fd5b50565b613e26816138a6565b8114613e3157600080fd5b50565b613e3d816138b2565b8114613e4857600080fd5b50565b613e54816138bc565b8114613e5f57600080fd5b50565b613e6b81613908565b8114613e7657600080fd5b5056fea2646970667358221220c20f51b82ca580ed9db0633bfb29a6f33e5340a99792b063faa7bf84aadcde7864736f6c63430008070033","linkReferences":{}},"methodIdentifiers":{"WhiteListMint(bytes32[],uint256)":"fb4a9be0","_baseURI1()":"11e0f063","approve(address,uint256)":"095ea7b3","balanceOf(address)":"70a08231","flipPauseMinting()":"0917c4e1","getApproved(uint256)":"081812fc","isApprovedForAll(address,address)":"e985e9c5","isPaused()":"b187bd26","maxsupply()":"4b6406d1","mintReservedTokens(uint256)":"7d5cb4e5","name()":"06fdde03","notRevealedUri()":"081c8c44","owner()":"8da5cb5b","ownerOf(uint256)":"6352211e","renounceOwnership()":"715018a6","reserve()":"cd3293de","reveal()":"a475b5dd","revealed()":"51830227","safeTransferFrom(address,address,uint256)":"42842e0e","safeTransferFrom(address,address,uint256,bytes)":"b88d4fde","setApprovalForAll(address,bool)":"a22cb465","setBaseURI(string)":"55f804b3","setNotRevealedURI(string)":"f2c4ce1e","setReserve(uint256)":"4256dbe3","setRootHash(bytes32)":"2d7eae66","supportsInterface(bytes4)":"01ffc9a7","symbol()":"95d89b41","tokenByIndex(uint256)":"4f6ccce7","tokenOfOwnerByIndex(address,uint256)":"2f745c59","tokenURI(uint256)":"c87b56dd","totalSupply()":"18160ddd","transferFrom(address,address,uint256)":"23b872dd","transferOwnership(address)":"f2fde38b","withdraw()":"3ccfd60b"},"storageLayout":{"storage":[{"astId":769,"contract":"src/Contract.sol:Bad_Guys_by_RPF","label":"_currentIndex","offset":0,"slot":"0","type":"t_uint256"},{"astId":771,"contract":"src/Contract.sol:Bad_Guys_by_RPF","label":"_name","offset":0,"slot":"1","type":"t_string_storage"},{"astId":773,"contract":"src/Contract.sol:Bad_Guys_by_RPF","label":"_symbol","offset":0,"slot":"2","type":"t_string_storage"},{"astId":778,"contract":"src/Contract.sol:Bad_Guys_by_RPF","label":"_ownerships","offset":0,"slot":"3","type":"t_mapping(t_uint256,t_struct(TokenOwnership)762_storage)"},{"astId":783,"contract":"src/Contract.sol:Bad_Guys_by_RPF","label":"_addressData","offset":0,"slot":"4","type":"t_mapping(t_address,t_struct(AddressData)767_storage)"},{"astId":787,"contract":"src/Contract.sol:Bad_Guys_by_RPF","label":"_tokenApprovals","offset":0,"slot":"5","type":"t_mapping(t_uint256,t_address)"},{"astId":793,"contract":"src/Contract.sol:Bad_Guys_by_RPF","label":"_operatorApprovals","offset":0,"slot":"6","type":"t_mapping(t_address,t_mapping(t_address,t_bool))"},{"astId":1786,"contract":"src/Contract.sol:Bad_Guys_by_RPF","label":"_owner","offset":0,"slot":"7","type":"t_address"},{"astId":2003,"contract":"src/Contract.sol:Bad_Guys_by_RPF","label":"maxsupply","offset":0,"slot":"8","type":"t_uint256"},{"astId":2006,"contract":"src/Contract.sol:Bad_Guys_by_RPF","label":"reserve","offset":0,"slot":"9","type":"t_uint256"},{"astId":2009,"contract":"src/Contract.sol:Bad_Guys_by_RPF","label":"isPaused","offset":0,"slot":"10","type":"t_bool"},{"astId":2011,"contract":"src/Contract.sol:Bad_Guys_by_RPF","label":"_baseURI1","offset":0,"slot":"11","type":"t_string_storage"},{"astId":2013,"contract":"src/Contract.sol:Bad_Guys_by_RPF","label":"rootHash","offset":0,"slot":"12","type":"t_bytes32"},{"astId":2016,"contract":"src/Contract.sol:Bad_Guys_by_RPF","label":"revealed","offset":0,"slot":"13","type":"t_bool"},{"astId":2018,"contract":"src/Contract.sol:Bad_Guys_by_RPF","label":"notRevealedUri","offset":0,"slot":"14","type":"t_string_storage"}],"types":{"t_address":{"encoding":"inplace","label":"address","numberOfBytes":"20"},"t_bool":{"encoding":"inplace","label":"bool","numberOfBytes":"1"},"t_bytes32":{"encoding":"inplace","label":"bytes32","numberOfBytes":"32"},"t_mapping(t_address,t_bool)":{"encoding":"mapping","key":"t_address","label":"mapping(address => bool)","numberOfBytes":"32","value":"t_bool"},"t_mapping(t_address,t_mapping(t_address,t_bool))":{"encoding":"mapping","key":"t_address","label":"mapping(address => mapping(address => bool))","numberOfBytes":"32","value":"t_mapping(t_address,t_bool)"},"t_mapping(t_address,t_struct(AddressData)767_storage)":{"encoding":"mapping","key":"t_address","label":"mapping(address => struct ERC721A.AddressData)","numberOfBytes":"32","value":"t_struct(AddressData)767_storage"},"t_mapping(t_uint256,t_address)":{"encoding":"mapping","key":"t_uint256","label":"mapping(uint256 => address)","numberOfBytes":"32","value":"t_address"},"t_mapping(t_uint256,t_struct(TokenOwnership)762_storage)":{"encoding":"mapping","key":"t_uint256","label":"mapping(uint256 => struct ERC721A.TokenOwnership)","numberOfBytes":"32","value":"t_struct(TokenOwnership)762_storage"},"t_string_storage":{"encoding":"bytes","label":"string","numberOfBytes":"32"},"t_struct(AddressData)767_storage":{"encoding":"inplace","label":"struct ERC721A.AddressData","numberOfBytes":"32","members":[{"astId":764,"contract":"src/Contract.sol:Bad_Guys_by_RPF","label":"balance","offset":0,"slot":"0","type":"t_uint128"},{"astId":766,"contract":"src/Contract.sol:Bad_Guys_by_RPF","label":"numberMinted","offset":16,"slot":"0","type":"t_uint128"}]},"t_struct(TokenOwnership)762_storage":{"encoding":"inplace","label":"struct ERC721A.TokenOwnership","numberOfBytes":"32","members":[{"astId":759,"contract":"src/Contract.sol:Bad_Guys_by_RPF","label":"addr","offset":0,"slot":"0","type":"t_address"},{"astId":761,"contract":"src/Contract.sol:Bad_Guys_by_RPF","label":"startTimestamp","offset":20,"slot":"0","type":"t_uint64"}]},"t_uint128":{"encoding":"inplace","label":"uint128","numberOfBytes":"16"},"t_uint256":{"encoding":"inplace","label":"uint256","numberOfBytes":"32"},"t_uint64":{"encoding":"inplace","label":"uint64","numberOfBytes":"8"}}},"id":0}