{"abi":[{"type":"function","name":"acceptAdmin","inputs":[],"outputs":[],"stateMutability":"nonpayable"},{"type":"function","name":"addCollateral","inputs":[{"name":"_collection","type":"address","internalType":"address"},{"name":"_collateralFactor","type":"uint256","internalType":"uint256"},{"name":"_liquidateFactor","type":"uint256","internalType":"uint256"},{"name":"_pools","type":"address[]","internalType":"address[]"}],"outputs":[],"stateMutability":"nonpayable"},{"type":"function","name":"addExp","inputs":[{"name":"a","type":"uint256","internalType":"uint256"},{"name":"b","type":"uint256","internalType":"uint256"}],"outputs":[{"name":"result","type":"uint256","internalType":"uint256"}],"stateMutability":"pure"},{"type":"function","name":"addPool","inputs":[{"name":"xToken","type":"address","internalType":"address"},{"name":"_borrowCap","type":"uint256","internalType":"uint256"},{"name":"_supplyCap","type":"uint256","internalType":"uint256"}],"outputs":[],"stateMutability":"nonpayable"},{"type":"function","name":"admin","inputs":[],"outputs":[{"name":"","type":"address","internalType":"address"}],"stateMutability":"view"},{"type":"function","name":"borrowAllowed","inputs":[{"name":"xToken","type":"address","internalType":"address"},{"name":"orderId","type":"uint256","internalType":"uint256"},{"name":"borrower","type":"address","internalType":"address"},{"name":"borrowAmount","type":"uint256","internalType":"uint256"}],"outputs":[],"stateMutability":"nonpayable"},{"type":"function","name":"borrowVerify","inputs":[{"name":"orderId","type":"uint256","internalType":"uint256"},{"name":"xToken","type":"address","internalType":"address"},{"name":"borrower","type":"address","internalType":"address"}],"outputs":[],"stateMutability":"nonpayable"},{"type":"function","name":"collateralStates","inputs":[{"name":"","type":"address","internalType":"address"}],"outputs":[{"name":"isListed","type":"bool","internalType":"bool"},{"name":"collateralFactor","type":"uint256","internalType":"uint256"},{"name":"liquidateFactor","type":"uint256","internalType":"uint256"},{"name":"isSupportAllPools","type":"bool","internalType":"bool"}],"stateMutability":"view"},{"type":"function","name":"divExp","inputs":[{"name":"a","type":"uint256","internalType":"uint256"},{"name":"b","type":"uint256","internalType":"uint256"}],"outputs":[{"name":"","type":"uint256","internalType":"uint256"}],"stateMutability":"pure"},{"type":"function","name":"divScalar","inputs":[{"name":"a","type":"uint256","internalType":"uint256"},{"name":"scalar","type":"uint256","internalType":"uint256"}],"outputs":[{"name":"","type":"uint256","internalType":"uint256"}],"stateMutability":"pure"},{"type":"function","name":"divScalarByExp","inputs":[{"name":"scalar","type":"uint256","internalType":"uint256"},{"name":"divisor","type":"uint256","internalType":"uint256"}],"outputs":[{"name":"","type":"uint256","internalType":"uint256"}],"stateMutability":"pure"},{"type":"function","name":"divScalarByExpTruncate","inputs":[{"name":"scalar","type":"uint256","internalType":"uint256"},{"name":"divisor","type":"uint256","internalType":"uint256"}],"outputs":[{"name":"","type":"uint256","internalType":"uint256"}],"stateMutability":"pure"},{"type":"function","name":"getCollateralStateSupportPools","inputs":[{"name":"collection","type":"address","internalType":"address"},{"name":"xToken","type":"address","internalType":"address"}],"outputs":[{"name":"","type":"bool","internalType":"bool"}],"stateMutability":"view"},{"type":"function","name":"getDiv","inputs":[{"name":"num","type":"uint256","internalType":"uint256"},{"name":"denom","type":"uint256","internalType":"uint256"}],"outputs":[{"name":"rational","type":"uint256","internalType":"uint256"}],"stateMutability":"pure"},{"type":"function","name":"getExp","inputs":[{"name":"num","type":"uint256","internalType":"uint256"},{"name":"denom","type":"uint256","internalType":"uint256"}],"outputs":[{"name":"rational","type":"uint256","internalType":"uint256"}],"stateMutability":"pure"},{"type":"function","name":"getOrderBorrowBalanceCurrent","inputs":[{"name":"orderId","type":"uint256","internalType":"uint256"}],"outputs":[{"name":"","type":"uint256","internalType":"uint256"}],"stateMutability":"nonpayable"},{"type":"function","name":"initialize","inputs":[{"name":"_liquidityMining","type":"address","internalType":"contract ILiquidityMining"}],"outputs":[],"stateMutability":"nonpayable"},{"type":"function","name":"liquidateBorrowAllowed","inputs":[{"name":"xToken","type":"address","internalType":"address"},{"name":"orderId","type":"uint256","internalType":"uint256"},{"name":"borrower","type":"address","internalType":"address"},{"name":"liquidator","type":"address","internalType":"address"}],"outputs":[],"stateMutability":"view"},{"type":"function","name":"liquidateBorrowVerify","inputs":[{"name":"xToken","type":"address","internalType":"address"},{"name":"orderId","type":"uint256","internalType":"uint256"},{"name":"borrower","type":"address","internalType":"address"},{"name":"liquidator","type":"address","internalType":"address"},{"name":"repayAmount","type":"uint256","internalType":"uint256"}],"outputs":[],"stateMutability":"nonpayable"},{"type":"function","name":"liquidityMining","inputs":[],"outputs":[{"name":"","type":"address","internalType":"contract ILiquidityMining"}],"stateMutability":"view"},{"type":"function","name":"mintAllowed","inputs":[{"name":"xToken","type":"address","internalType":"address"},{"name":"minter","type":"address","internalType":"address"},{"name":"mintAmount","type":"uint256","internalType":"uint256"}],"outputs":[],"stateMutability":"view"},{"type":"function","name":"mintVerify","inputs":[{"name":"xToken","type":"address","internalType":"address"},{"name":"account","type":"address","internalType":"address"}],"outputs":[],"stateMutability":"nonpayable"},{"type":"function","name":"mulExp","inputs":[{"name":"a","type":"uint256","internalType":"uint256"},{"name":"b","type":"uint256","internalType":"uint256"}],"outputs":[{"name":"","type":"uint256","internalType":"uint256"}],"stateMutability":"pure"},{"type":"function","name":"mulExp3","inputs":[{"name":"a","type":"uint256","internalType":"uint256"},{"name":"b","type":"uint256","internalType":"uint256"},{"name":"c","type":"uint256","internalType":"uint256"}],"outputs":[{"name":"","type":"uint256","internalType":"uint256"}],"stateMutability":"pure"},{"type":"function","name":"mulScalar","inputs":[{"name":"a","type":"uint256","internalType":"uint256"},{"name":"scalar","type":"uint256","internalType":"uint256"}],"outputs":[{"name":"scaled","type":"uint256","internalType":"uint256"}],"stateMutability":"pure"},{"type":"function","name":"mulScalarTruncate","inputs":[{"name":"a","type":"uint256","internalType":"uint256"},{"name":"scalar","type":"uint256","internalType":"uint256"}],"outputs":[{"name":"","type":"uint256","internalType":"uint256"}],"stateMutability":"pure"},{"type":"function","name":"mulScalarTruncateAddUInt","inputs":[{"name":"a","type":"uint256","internalType":"uint256"},{"name":"scalar","type":"uint256","internalType":"uint256"},{"name":"addend","type":"uint256","internalType":"uint256"}],"outputs":[{"name":"","type":"uint256","internalType":"uint256"}],"stateMutability":"pure"},{"type":"function","name":"oracle","inputs":[],"outputs":[{"name":"","type":"address","internalType":"contract IOracle"}],"stateMutability":"view"},{"type":"function","name":"orderDebtStates","inputs":[{"name":"","type":"uint256","internalType":"uint256"}],"outputs":[{"name":"","type":"address","internalType":"address"}],"stateMutability":"view"},{"type":"function","name":"pendingAdmin","inputs":[],"outputs":[{"name":"","type":"address","internalType":"address"}],"stateMutability":"view"},{"type":"function","name":"poolStates","inputs":[{"name":"","type":"address","internalType":"address"}],"outputs":[{"name":"isListed","type":"bool","internalType":"bool"},{"name":"borrowCap","type":"uint256","internalType":"uint256"},{"name":"supplyCap","type":"uint256","internalType":"uint256"}],"stateMutability":"view"},{"type":"function","name":"redeemAllowed","inputs":[{"name":"xToken","type":"address","internalType":"address"},{"name":"redeemer","type":"address","internalType":"address"},{"name":"redeemTokens","type":"uint256","internalType":"uint256"},{"name":"redeemAmount","type":"uint256","internalType":"uint256"}],"outputs":[],"stateMutability":"view"},{"type":"function","name":"redeemVerify","inputs":[{"name":"xToken","type":"address","internalType":"address"},{"name":"redeemer","type":"address","internalType":"address"}],"outputs":[],"stateMutability":"nonpayable"},{"type":"function","name":"repayBorrowAllowed","inputs":[{"name":"xToken","type":"address","internalType":"address"},{"name":"orderId","type":"uint256","internalType":"uint256"},{"name":"borrower","type":"address","internalType":"address"},{"name":"payer","type":"address","internalType":"address"},{"name":"repayAmount","type":"uint256","internalType":"uint256"}],"outputs":[],"stateMutability":"view"},{"type":"function","name":"repayBorrowAndClaimVerify","inputs":[{"name":"xToken","type":"address","internalType":"address"},{"name":"orderId","type":"uint256","internalType":"uint256"}],"outputs":[],"stateMutability":"nonpayable"},{"type":"function","name":"repayBorrowVerify","inputs":[{"name":"xToken","type":"address","internalType":"address"},{"name":"orderId","type":"uint256","internalType":"uint256"},{"name":"borrower","type":"address","internalType":"address"},{"name":"payer","type":"address","internalType":"address"},{"name":"repayAmount","type":"uint256","internalType":"uint256"}],"outputs":[],"stateMutability":"nonpayable"},{"type":"function","name":"setCollateralState","inputs":[{"name":"_collection","type":"address","internalType":"address"},{"name":"_collateralFactor","type":"uint256","internalType":"uint256"},{"name":"_liquidateFactor","type":"uint256","internalType":"uint256"}],"outputs":[],"stateMutability":"nonpayable"},{"type":"function","name":"setCollateralSupportPools","inputs":[{"name":"_collection","type":"address","internalType":"address"},{"name":"_pools","type":"address[]","internalType":"address[]"}],"outputs":[],"stateMutability":"nonpayable"},{"type":"function","name":"setLiquidityMining","inputs":[{"name":"_liquidityMining","type":"address","internalType":"contract ILiquidityMining"}],"outputs":[],"stateMutability":"nonpayable"},{"type":"function","name":"setOracle","inputs":[{"name":"_oracle","type":"address","internalType":"address"}],"outputs":[],"stateMutability":"nonpayable"},{"type":"function","name":"setPause","inputs":[{"name":"xToken","type":"address","internalType":"address"},{"name":"index","type":"uint256","internalType":"uint256"},{"name":"isPause","type":"bool","internalType":"bool"}],"outputs":[],"stateMutability":"nonpayable"},{"type":"function","name":"setPendingAdmin","inputs":[{"name":"newPendingAdmin","type":"address","internalType":"address"}],"outputs":[],"stateMutability":"nonpayable"},{"type":"function","name":"setXNFT","inputs":[{"name":"_xNFT","type":"address","internalType":"address"}],"outputs":[],"stateMutability":"nonpayable"},{"type":"function","name":"subExp","inputs":[{"name":"a","type":"uint256","internalType":"uint256"},{"name":"b","type":"uint256","internalType":"uint256"}],"outputs":[{"name":"result","type":"uint256","internalType":"uint256"}],"stateMutability":"pure"},{"type":"function","name":"transferAllowed","inputs":[{"name":"xToken","type":"address","internalType":"address"},{"name":"src","type":"address","internalType":"address"},{"name":"dst","type":"address","internalType":"address"},{"name":"transferTokens","type":"uint256","internalType":"uint256"}],"outputs":[],"stateMutability":"view"},{"type":"function","name":"transferVerify","inputs":[{"name":"xToken","type":"address","internalType":"address"},{"name":"src","type":"address","internalType":"address"},{"name":"dst","type":"address","internalType":"address"}],"outputs":[],"stateMutability":"nonpayable"},{"type":"function","name":"truncate","inputs":[{"name":"exp","type":"uint256","internalType":"uint256"}],"outputs":[{"name":"","type":"uint256","internalType":"uint256"}],"stateMutability":"pure"},{"type":"function","name":"xNFT","inputs":[],"outputs":[{"name":"","type":"address","internalType":"contract IXNFT"}],"stateMutability":"view"},{"type":"function","name":"xTokenPausedMap","inputs":[{"name":"","type":"address","internalType":"address"},{"name":"","type":"uint256","internalType":"uint256"}],"outputs":[{"name":"","type":"bool","internalType":"bool"}],"stateMutability":"view"}],"bytecode":{"object":"0x608060405234801561001057600080fd5b50613433806100206000396000f3fe608060405234801561001057600080fd5b50600436106102bb5760003560e01c80637b94aaac11610182578063b663a229116100e9578063d17267ae116100a2578063de5222841161007c578063de522284146106c6578063ed9ab69014610717578063f19d6dac1461072a578063f851a44014610758576102bb565b8063d17267ae1461068d578063d6079cc6146106a0578063de32abd1146106b3576102bb565b8063b663a2291461062e578063ba9316b714610415578063bdcdc25814610641578063c0ec45fc14610654578063c4d66de814610667578063ce603aad1461067a576102bb565b80638f63a4821161013b5780638f63a4821461057f5780639a3702a914610592578063a197b0ba146105a5578063af13fe93146105f5578063b4ab15e714610608578063b507f9f91461061b576102bb565b80637b94aaac1461050d5780637dc0d1d014610520578063834523091461053357806385b2d535146105465780638de46362146105595780638e8d53f11461056c576102bb565b80634dd18bf51161022657806361086e43116101df57806361086e431461044e5780636208fc41146104ae578063778c610a146104c157806377fc7c85146104d45780637aac8017146104e75780637adbf973146104fa576102bb565b80634dd18bf5146103dc5780634ef4c3e1146103ef5780634f070492146104025780635293ff31146104155780635300efd5146104285780635eb492331461043b576102bb565b80632985fa31116102785780632985fa31146103465780632f8832d614610367578063396a98cf1461037a5780633b2972911461038d5780634147da13146103b65780634751b79c146103c9576102bb565b80630e18b681146102c0578063100aff8b146102ca57806317ccd7ee146102fa578063206878a41461030d5780632389df0a146103205780632678224714610333575b600080fd5b6102c861076b565b005b6005546102dd906001600160a01b031681565b6040516001600160a01b0390911681526020015b60405180910390f35b6102c8610308366004612fc3565b6107f1565b6102c861031b366004612c66565b6108c7565b6102c861032e366004612c9e565b610913565b6001546102dd906001600160a01b031681565b610359610354366004613137565b61096e565b6040519081526020016102f1565b6102c8610375366004612db0565b610981565b610359610388366004613137565b610a0a565b6102dd61039b3660046130bd565b6004602052600090815260409020546001600160a01b031681565b6103596103c4366004613137565b610a16565b6103596103d7366004613137565b610a22565b6102c86103ea366004612c66565b610a34565b6102c86103fd366004612d70565b610a80565b6102c8610410366004612c66565b610c85565b610359610423366004613137565b610cd1565b6102c8610436366004612c9e565b610cef565b6102c86104493660046130ed565b610d44565b61048a61045c366004612c66565b6003602081905260009182526040909120805460018201546002830154929093015460ff9182169392911684565b604080519415158552602085019390935291830152151560608201526080016102f1565b6103596104bc366004613158565b610e53565b6102c86104cf366004612efc565b610e7e565b6102c86104e2366004612cd6565b610f51565b6102c86104f5366004612eaa565b610f6e565b6102c8610508366004612c66565b61132b565b61035961051b3660046130bd565b611377565b6006546102dd906001600160a01b031681565b6102c8610541366004612df5565b611393565b6007546102dd906001600160a01b031681565b610359610567366004613158565b61150d565b6102c861057a366004612f8d565b61152a565b6102c861058d366004612f56565b611589565b6102c86105a0366004612e48565b611a12565b6105e56105b3366004612c9e565b6001600160a01b0391821660009081526003602090815260408083209390941682526004909201909152205460ff1690565b60405190151581526020016102f1565b6103596106033660046130bd565b611b0d565b610359610616366004613137565b611bb1565b610359610629366004613137565b611bc9565b6102c861063c366004612efc565b611bd5565b6102c861064f366004612d20565b611d0e565b6102c8610662366004612efc565b611d46565b6102c8610675366004612c66565b611ebe565b610359610688366004613137565b611faa565b6102c861069b366004612fc3565b611fcb565b6103596106ae366004613137565b6120cf565b6103596106c1366004613137565b6120dc565b6106fa6106d4366004612c66565b600260208190526000918252604090912080546001820154919092015460ff9092169183565b6040805193151584526020840192909252908201526060016102f1565b6102c8610725366004612ff7565b612118565b6105e5610738366004612e48565b600860209081526000928352604080842090915290825290205460ff1681565b6000546102dd906001600160a01b031681565b6001546001600160a01b031633146107ca5760405162461bcd60e51b815260206004820152601f60248201527f6f6e6c792070656e64696e672061646d696e20636f756c64206163636570740060448201526064015b60405180910390fd5b60018054600080546001600160a01b03199081166001600160a01b03841617909155169055565b6000546001600160a01b0316331461081b5760405162461bcd60e51b81526004016107c190613314565b6001600160a01b03831660009081526002602052604090205460ff16156108755760405162461bcd60e51b815260206004820152600e60248201526d1c1bdbdb081a185cc8185919195960921b60448201526064016107c1565b60408051606081018252600180825260208083019586528284019485526001600160a01b03969096166000908152600296879052929092209051815460ff191690151517815592519083015551910155565b6000546001600160a01b031633146108f15760405162461bcd60e51b81526004016107c190613314565b600780546001600160a01b0319166001600160a01b0392909216919091179055565b6001600160a01b0382166000908152600860209081526040808320600280855292529091205483919060ff161561095c5760405162461bcd60e51b81526004016107c19061328d565b61096884846000612316565b50505050565b600061097a83836123f0565b9392505050565b6001600160a01b0384166000908152600860209081526040808320600280855292529091205485919060ff16156109ca5760405162461bcd60e51b81526004016107c19061328d565b6001600160a01b03861660009081526002602052604090205460ff16610a025760405162461bcd60e51b81526004016107c1906131d6565b505050505050565b600061097a838361246f565b600061097a83836124b1565b600061097a8383612510565b92915050565b6000546001600160a01b03163314610a5e5760405162461bcd60e51b81526004016107c190613314565b600180546001600160a01b0319166001600160a01b0392909216919091179055565b6001600160a01b0383166000908152600860209081526040808320600180855292529091205484919060ff1615610ac95760405162461bcd60e51b81526004016107c19061328d565b6001600160a01b03851660009081526002602052604090205460ff16610b015760405162461bcd60e51b81526004016107c1906131d6565b6001600160a01b038516600090815260026020819052604090912001548015610a02576000866001600160a01b03166318160ddd6040518163ffffffff1660e01b815260040160206040518083038186803b158015610b5f57600080fd5b505afa158015610b73573d6000803e3d6000fd5b505050506040513d601f19601f82011682018060405250810190610b9791906130d5565b90506000876001600160a01b031663182df0f56040518163ffffffff1660e01b815260040160206040518083038186803b158015610bd457600080fd5b505afa158015610be8573d6000803e3d6000fd5b505050506040513d601f19601f82011682018060405250810190610c0c91906130d5565b90506000610c1a8284611bb1565b90506000610c2882896124b1565b9050848110610c795760405162461bcd60e51b815260206004820152601960248201527f6d61726b657420737570706c792063617020726561636865640000000000000060448201526064016107c1565b50505050505050505050565b6000546001600160a01b03163314610caf5760405162461bcd60e51b81526004016107c190613314565b600580546001600160a01b0319166001600160a01b0392909216919091179055565b600061097a82610ce985670de0b6b3a76400006123f0565b90612510565b6001600160a01b0382166000908152600860209081526040808320600180855292529091205483919060ff1615610d385760405162461bcd60e51b81526004016107c19061328d565b61096884846001612316565b6001600160a01b0382166000908152600860209081526040808320600380855292529091205483919060ff1615610d8d5760405162461bcd60e51b81526004016107c19061328d565b6000858152600460205260409020546001600160a01b03858116911614610dc65760405162461bcd60e51b81526004016107c190613256565b604051631b35e7b760e31b8152600481018690526000906001600160a01b0386169063d9af3db890602401602060405180830381600087803b158015610e0b57600080fd5b505af1158015610e1f573d6000803e3d6000fd5b505050506040513d601f19601f82011682018060405250810190610e4391906130d5565b9050610a02868686846001612552565b600080610e60858561096e565b9050610e7583610e6f83611377565b906124b1565b95945050505050565b6001600160a01b0385166000908152600860209081526040808320600480855292529091205486919060ff1615610ec75760405162461bcd60e51b81526004016107c19061328d565b6001600160a01b03871660009081526002602052604090205460ff16610eff5760405162461bcd60e51b81526004016107c1906131d6565b6000610f0b87876125f3565b6000888152600460205260409020549091506001600160a01b03898116911614610f475760405162461bcd60e51b81526004016107c190613256565b5050505050505050565b610f5d83836000612316565b610f6983826001612316565b505050565b6001600160a01b0384166000908152600860209081526040808320600580855292529091205485919060ff1615610fb75760405162461bcd60e51b81526004016107c19061328d565b6001600160a01b03861660009081526002602052604090205460ff16610fef5760405162461bcd60e51b81526004016107c1906131d6565b610ff985856125f3565b50600554604051637263cd2560e11b8152600481018790526000916001600160a01b03169063e4c79a4a9060240160606040518083038186803b15801561103f57600080fd5b505afa158015611053573d6000803e3d6000fd5b505050506040513d601f19601f820116820180604052508101906110779190612e73565b50506000878152600460205260409020549091506001600160a01b038881169116146110b55760405162461bcd60e51b81526004016107c190613256565b600080600660009054906101000a90046001600160a01b03166001600160a01b031663ac41865a848b6001600160a01b0316636f307dc36040518163ffffffff1660e01b815260040160206040518083038186803b15801561111657600080fd5b505afa15801561112a573d6000803e3d6000fd5b505050506040513d601f19601f8201168201806040525081019061114e9190612c82565b6040516001600160e01b031960e085901b1681526001600160a01b03928316600482015291166024820152604401604080518083038186803b15801561119357600080fd5b505afa1580156111a7573d6000803e3d6000fd5b505050506040513d601f19601f820116820180604052508101906111cb9190613113565b915091506000821180156111dc5750805b61121d5760405162461bcd60e51b81526020600482015260126024820152711c1c9a58d9481a5cc81b9bdd081d985b1a5960721b60448201526064016107c1565b604051634dbd05d560e01b8152600481018990526000906001600160a01b038b1690634dbd05d59060240160206040518083038186803b15801561126057600080fd5b505afa158015611274573d6000803e3d6000fd5b505050506040513d601f19601f8201168201806040525081019061129891906130d5565b6001600160a01b038516600090815260036020526040812060020154919250906112c3908590611bb1565b905080821161131e5760405162461bcd60e51b815260206004820152602160248201527f6f7264657220646f6e27742065786365656420626f72726f772062616c616e636044820152606560f81b60648201526084016107c1565b5050505050505050505050565b6000546001600160a01b031633146113555760405162461bcd60e51b81526004016107c190613314565b600680546001600160a01b0319166001600160a01b0392909216919091179055565b600061138b82670de0b6b3a7640000612510565b90505b919050565b6000546001600160a01b031633146113bd5760405162461bcd60e51b81526004016107c190613314565b6001600160a01b03831660009081526003602052604090205460ff166114205760405162461bcd60e51b815260206004820152601860248201527718dbdb1b1958dd1a5bdb881a185cc81b9bdd08185919195960421b60448201526064016107c1565b80611451576001600160a01b038316600090815260036020819052604090912001805460ff19166001179055610f69565b6001600160a01b0383166000908152600360208190526040822001805460ff191690555b81811015610968576001600160a01b03841660009081526003602052604081206001916004909101908585858181106114be57634e487b7160e01b600052603260045260246000fd5b90506020020160208101906114d39190612c66565b6001600160a01b031681526020810191909152604001600020805460ff191691151591909117905580611505816133a6565b915050611475565b600061152261151c85856120dc565b836120dc565b949350505050565b6000546001600160a01b031633146115545760405162461bcd60e51b81526004016107c190613314565b6001600160a01b0392909216600090815260086020908152604080832093835292905220805460ff1916911515919091179055565b6001600160a01b0384166000908152600860209081526040808320600380855292529091205485919060ff16156115d25760405162461bcd60e51b81526004016107c19061328d565b6115de86868686612811565b61161f5760405162461bcd60e51b8152602060048201526012602482015271189bdc9c9bddc81b9bdd08185b1b1bddd95960721b60448201526064016107c1565b600554604051637263cd2560e11b8152600481018790526000916001600160a01b03169063e4c79a4a9060240160606040518083038186803b15801561166457600080fd5b505afa158015611678573d6000803e3d6000fd5b505050506040513d601f19601f8201168201806040525081019061169c9190612e73565b50509050600060036000836001600160a01b03166001600160a01b03168152602001908152602001600020905060006004600089815260200190815260200160002060009054906101000a90046001600160a01b03169050600080600660009054906101000a90046001600160a01b03166001600160a01b031663ac41865a868d6001600160a01b0316636f307dc36040518163ffffffff1660e01b815260040160206040518083038186803b15801561175557600080fd5b505afa158015611769573d6000803e3d6000fd5b505050506040513d601f19601f8201168201806040525081019061178d9190612c82565b6040516001600160e01b031960e085901b1681526001600160a01b03928316600482015291166024820152604401604080518083038186803b1580156117d257600080fd5b505afa1580156117e6573d6000803e3d6000fd5b505050506040513d601f19601f8201168201806040525081019061180a9190613113565b6001600160a01b038d1660009081526002602052604090206001015491935091501561191b57600260008c6001600160a01b03166001600160a01b03168152602001908152602001600020600101546118ce898d6001600160a01b03166347bd37186040518163ffffffff1660e01b815260040160206040518083038186803b15801561189657600080fd5b505afa1580156118aa573d6000803e3d6000fd5b505050506040513d601f19601f82011682018060405250810190610e6f91906130d5565b1061191b5760405162461bcd60e51b815260206004820152601760248201527f706f6f6c20626f72726f7720636170207265616368656400000000000000000060448201526064016107c1565b600061192b838660010154611bb1565b9050886001600160a01b0385161561198657604051634dbd05d560e01b8152600481018d9052611983908b906001600160a01b03881690634dbd05d59060240160206040518083038186803b15801561189657600080fd5b90505b818111156119cd5760405162461bcd60e51b8152602060048201526014602482015273189bdc9c9bddc8185b5bdd5b9d08195e18d9595960621b60448201526064016107c1565b6001600160a01b038516611a035760008c815260046020526040902080546001600160a01b0319166001600160a01b038f161790555b50505050505050505050505050565b6001600160a01b0382166000908152600860209081526040808320600480855292529091205483919060ff1615611a5b5760405162461bcd60e51b81526004016107c19061328d565b6000838152600460205260409020546001600160a01b031615611ab25760405162461bcd60e51b815260206004820152600f60248201526e1859191c995cdcc81a5b9d985b1a59608a1b60448201526064016107c1565b6005546040516337b73d4d60e21b8152600481018590526001600160a01b039091169063dedcf534906024015b600060405180830381600087803b158015611af957600080fd5b505af1158015610f47573d6000803e3d6000fd5b6000818152600460205260408120546001600160a01b031680611b3457600091505061138e565b604051631b35e7b760e31b8152600481018490526000906001600160a01b0383169063d9af3db890602401602060405180830381600087803b158015611b7957600080fd5b505af1158015611b8d573d6000803e3d6000fd5b505050506040513d601f19601f8201168201806040525081019061152291906130d5565b600080611bbe848461096e565b905061152281611377565b600061097a8383610cd1565b6001600160a01b0385166000908152600860209081526040808320600480855292529091205486919060ff1615611c1e5760405162461bcd60e51b81526004016107c19061328d565b6000868152600460205260409020546001600160a01b03888116911614611c575760405162461bcd60e51b81526004016107c190613256565b604051631b35e7b760e31b8152600481018790526000906001600160a01b0389169063d9af3db890602401602060405180830381600087803b158015611c9c57600080fd5b505af1158015611cb0573d6000803e3d6000fd5b505050506040513d601f19601f82011682018060405250810190611cd491906130d5565b9050611ce4878988846000612552565b80610f4757505050600093845250506004602052506040902080546001600160a01b031916905550565b6001600160a01b03841660009081526002602052604090205460ff166109685760405162461bcd60e51b81526004016107c1906131d6565b6001600160a01b0385166000908152600860209081526040808320600580855292529091205486919060ff1615611d8f5760405162461bcd60e51b81526004016107c19061328d565b611d9986866125f3565b506000806000896001600160a01b031663c8e9f47d8a6040518263ffffffff1660e01b8152600401611dcd91815260200190565b60606040518083038186803b158015611de557600080fd5b505afa158015611df9573d6000803e3d6000fd5b505050506040513d601f19601f82011682018060405250810190611e1d919061307b565b925092509250828015611e3857506001600160a01b03821615155b15610c795760055460405163cd063eb960e01b81526001600160a01b038c81166004830152602482018c90528481166044830152606482018490529091169063cd063eb990608401600060405180830381600087803b158015611e9a57600080fd5b505af1158015611eae573d6000803e3d6000fd5b5050505050505050505050505050565b600954610100900460ff16611ed95760095460ff1615611edd565b303b155b611f405760405162461bcd60e51b815260206004820152602e60248201527f496e697469616c697a61626c653a20636f6e747261637420697320616c72656160448201526d191e481a5b9a5d1a585b1a5e995960921b60648201526084016107c1565b600954610100900460ff16158015611f6b576009805460ff1961ff0019909116610100171660011790555b60008054336001600160a01b031991821617909155600780549091166001600160a01b0384161790558015611fa6576009805461ff00191690555b5050565b600080611fbf670de0b6b3a7640000856123f0565b90506115228184610cd1565b6000546001600160a01b03163314611ff55760405162461bcd60e51b81526004016107c190613314565b6001600160a01b03831660009081526003602052604090205460ff166120585760405162461bcd60e51b815260206004820152601860248201527718dbdb1b1958dd1a5bdb881a185cc81b9bdd08185919195960421b60448201526064016107c1565b670de0b6b3a76400008211156120805760405162461bcd60e51b81526004016107c1906132b7565b670de0b6b3a76400008111156120a85760405162461bcd60e51b81526004016107c190613200565b6001600160a01b039092166000908152600360205260409020600181019190915560020155565b600080611bbe8484611faa565b6000806120e984846123f0565b9050600061210482610e6f6002670de0b6b3a7640000613350565b9050610e7581670de0b6b3a7640000612510565b6000546001600160a01b031633146121425760405162461bcd60e51b81526004016107c190613314565b6001600160a01b03851660009081526003602052604090205460ff16156121a25760405162461bcd60e51b815260206004820152601460248201527318dbdb1b1958dd1a5bdb881a185cc8185919195960621b60448201526064016107c1565b670de0b6b3a76400008411156121ca5760405162461bcd60e51b81526004016107c1906132b7565b670de0b6b3a76400008311156121f25760405162461bcd60e51b81526004016107c190613200565b6001600160a01b0385166000908152600360205260409020805460ff191660019081178255810185905560020183905580612253576001600160a01b038516600090815260036020819052604090912001805460ff1916600117905561230f565b6001600160a01b0385166000908152600360208190526040822001805460ff191690555b81811015610a02576001600160a01b03861660009081526003602052604081206001916004909101908585858181106122c057634e487b7160e01b600052603260045260246000fd5b90506020020160208101906122d59190612c66565b6001600160a01b031681526020810191909152604001600020805460ff191691151591909117905580612307816133a6565b915050612277565b5050505050565b6040516370a0823160e01b81526001600160a01b038381166004830152600091908516906370a082319060240160206040518083038186803b15801561235b57600080fd5b505afa15801561236f573d6000803e3d6000fd5b505050506040513d601f19601f8201168201806040525081019061239391906130d5565b6007549091506001600160a01b0316156109685760075460405163d3acd6c360e01b81526001600160a01b03868116600483015260248201849052858116604483015284151560648301529091169063d3acd6c390608401611adf565b6000826123ff57506000610a2e565b600061240b8385613370565b9050826124188583613350565b1461097a5760405162461bcd60e51b815260206004820152602160248201527f536166654d6174683a206d756c7469706c69636174696f6e206f766572666c6f6044820152607760f81b60648201526084016107c1565b600061097a83836040518060400160405280601e81526020017f536166654d6174683a207375627472616374696f6e206f766572666c6f770000815250612bbe565b6000806124be8385613338565b90508381101561097a5760405162461bcd60e51b815260206004820152601b60248201527f536166654d6174683a206164646974696f6e206f766572666c6f77000000000060448201526064016107c1565b600061097a83836040518060400160405280601a81526020017f536166654d6174683a206469766973696f6e206279207a65726f000000000000815250612bef565b600061255e86856125f3565b6007549091506001600160a01b031615610a0257600754604051633972623960e01b81526001600160a01b03878116600483015283811660248301526044820186905286811660648301526084820189905284151560a48301529091169063397262399060c401600060405180830381600087803b1580156125df57600080fd5b505af1158015610c79573d6000803e3d6000fd5b600554604051637263cd2560e11b815260048101849052600091829182916001600160a01b03169063e4c79a4a9060240160606040518083038186803b15801561263c57600080fd5b505afa158015612650573d6000803e3d6000fd5b505050506040513d601f19601f820116820180604052508101906126749190612e73565b919350909150506001600160a01b0382161580159061269b57506001600160a01b03811615155b6126d95760405162461bcd60e51b815260206004820152600f60248201526e1bdc99195c881b9bdd08195e1a5cdd608a1b60448201526064016107c1565b836001600160a01b0316816001600160a01b03161461273a5760405162461bcd60e51b815260206004820152601d60248201527f626f72726f77657220646f6e277420686f6c6420746865206f7264657200000060448201526064016107c1565b60055460405163fe1b7ed560e01b8152600481018790526000916001600160a01b03169063fe1b7ed59060240160206040518083038186803b15801561277f57600080fd5b505afa158015612793573d6000803e3d6000fd5b505050506040513d601f19601f820116820180604052508101906127b7919061305f565b905080156128075760405162461bcd60e51b815260206004820152601960248201527f6f7264657220686173206265656e206c6971756964617465640000000000000060448201526064016107c1565b5090949350505050565b6001600160a01b03841660009081526002602052604081205460ff166128495760405162461bcd60e51b81526004016107c1906131d6565b61285384846125f3565b50600554604051637263cd2560e11b8152600481018690526000916001600160a01b03169063e4c79a4a9060240160606040518083038186803b15801561289957600080fd5b505afa1580156128ad573d6000803e3d6000fd5b505050506040513d601f19601f820116820180604052508101906128d19190612e73565b50506001600160a01b038116600090815260036020526040902080549192509060ff166129375760405162461bcd60e51b815260206004820152601460248201527318dbdb1b1958dd1a5bdb881b9bdd08195e1a5cdd60621b60448201526064016107c1565b6001600160a01b038716600090815260048201602052604090205460ff16806129645750600381015460ff165b6129bb5760405162461bcd60e51b815260206004820152602260248201527f636f6c6c656374696f6e20646f6e277420737570706f7274207468697320706f6044820152611bdb60f21b60648201526084016107c1565b6000868152600460205260409020546001600160a01b03168015806129f15750876001600160a01b0316816001600160a01b0316145b612a495760405162461bcd60e51b8152602060048201526024808201527f6f6e6c7920737570706f727420626f72726f77696e67206f66206f6e6520785460448201526337b5b2b760e11b60648201526084016107c1565b600080600660009054906101000a90046001600160a01b03166001600160a01b031663ac41865a868c6001600160a01b0316636f307dc36040518163ffffffff1660e01b815260040160206040518083038186803b158015612aaa57600080fd5b505afa158015612abe573d6000803e3d6000fd5b505050506040513d601f19601f82011682018060405250810190612ae29190612c82565b6040516001600160e01b031960e085901b1681526001600160a01b03928316600482015291166024820152604401604080518083038186803b158015612b2757600080fd5b505afa158015612b3b573d6000803e3d6000fd5b505050506040513d601f19601f82011682018060405250810190612b5f9190613113565b91509150600082118015612b705750805b612bb15760405162461bcd60e51b81526020600482015260126024820152711c1c9a58d9481a5cc81b9bdd081d985b1a5960721b60448201526064016107c1565b5050505050949350505050565b60008184841115612be25760405162461bcd60e51b81526004016107c19190613183565b506000610e75848661338f565b60008183612c105760405162461bcd60e51b81526004016107c19190613183565b506000610e758486613350565b60008083601f840112612c2e578182fd5b50813567ffffffffffffffff811115612c45578182fd5b6020830191508360208083028501011115612c5f57600080fd5b9250929050565b600060208284031215612c77578081fd5b813561097a816133d7565b600060208284031215612c93578081fd5b815161097a816133d7565b60008060408385031215612cb0578081fd5b8235612cbb816133d7565b91506020830135612ccb816133d7565b809150509250929050565b600080600060608486031215612cea578081fd5b8335612cf5816133d7565b92506020840135612d05816133d7565b91506040840135612d15816133d7565b809150509250925092565b60008060008060808587031215612d35578081fd5b8435612d40816133d7565b93506020850135612d50816133d7565b92506040850135612d60816133d7565b9396929550929360600135925050565b600080600060608486031215612d84578283fd5b8335612d8f816133d7565b92506020840135612d9f816133d7565b929592945050506040919091013590565b60008060008060808587031215612dc5578384fd5b8435612dd0816133d7565b93506020850135612de0816133d7565b93969395505050506040820135916060013590565b600080600060408486031215612e09578283fd5b8335612e14816133d7565b9250602084013567ffffffffffffffff811115612e2f578283fd5b612e3b86828701612c1d565b9497909650939450505050565b60008060408385031215612e5a578182fd5b8235612e65816133d7565b946020939093013593505050565b600080600060608486031215612e87578283fd5b8351612e92816133d7565b602085015160408601519194509250612d15816133d7565b60008060008060808587031215612ebf578384fd5b8435612eca816133d7565b9350602085013592506040850135612ee1816133d7565b91506060850135612ef1816133d7565b939692955090935050565b600080600080600060a08688031215612f13578283fd5b8535612f1e816133d7565b9450602086013593506040860135612f35816133d7565b92506060860135612f45816133d7565b949793965091946080013592915050565b60008060008060808587031215612f6b578182fd5b8435612f76816133d7565b9350602085013592506040850135612d60816133d7565b600080600060608486031215612fa1578081fd5b8335612fac816133d7565b9250602084013591506040840135612d15816133ef565b600080600060608486031215612fd7578081fd5b8335612fe2816133d7565b95602085013595506040909401359392505050565b60008060008060006080868803121561300e578283fd5b8535613019816133d7565b94506020860135935060408601359250606086013567ffffffffffffffff811115613042578182fd5b61304e88828901612c1d565b969995985093965092949392505050565b600060208284031215613070578081fd5b815161097a816133ef565b60008060006060848603121561308f578081fd5b835161309a816133ef565b60208501519093506130ab816133d7565b80925050604084015190509250925092565b6000602082840312156130ce578081fd5b5035919050565b6000602082840312156130e6578081fd5b5051919050565b600080600060608486031215613101578081fd5b833592506020840135612d05816133d7565b60008060408385031215613125578182fd5b825191506020830151612ccb816133ef565b60008060408385031215613149578182fd5b50508035926020909101359150565b60008060006060848603121561316c578081fd5b505081359360208301359350604090920135919050565b6000602080835283518082850152825b818110156131af57858101830151858201604001528201613193565b818111156131c05783604083870101525b50601f01601f1916929092016040019392505050565b60208082526010908201526f1d1bdad95b881b9bdd081b1a5cdd195960821b604082015260600190565b60208082526036908201527f205f6c6971756964617465466163746f722069732067726561746572207468616040820152750dc409892a2aa928882a88abe8c8286a89ea4be9a82b60531b606082015260800190565b60208082526017908201527f636f6c6c61746572616c206465627420696e76616c6964000000000000000000604082015260600190565b60208082526010908201526f14185d5cd8589b194e881c185d5cd95960821b604082015260600190565b60208082526037908201527f5f636f6c6c61746572616c466163746f7220697320677265617465722074686160408201527f6e20434f4c4c41544552414c5f464143544f525f4d4158000000000000000000606082015260800190565b6020808252600a90820152690c2c8dad2dc40c2eae8d60b31b604082015260600190565b6000821982111561334b5761334b6133c1565b500190565b60008261336b57634e487b7160e01b81526012600452602481fd5b500490565b600081600019048311821515161561338a5761338a6133c1565b500290565b6000828210156133a1576133a16133c1565b500390565b60006000198214156133ba576133ba6133c1565b5060010190565b634e487b7160e01b600052601160045260246000fd5b6001600160a01b03811681146133ec57600080fd5b50565b80151581146133ec57600080fdfea264697066735822122052409368a5e6b11025adc5cb129474abb172842e1c839534585d3c61441be60a64736f6c63430008020033","linkReferences":{}},"methodIdentifiers":{"acceptAdmin()":"0e18b681","addCollateral(address,uint256,uint256,address[])":"ed9ab690","addExp(uint256,uint256)":"4147da13","addPool(address,uint256,uint256)":"17ccd7ee","admin()":"f851a440","borrowAllowed(address,uint256,address,uint256)":"8f63a482","borrowVerify(uint256,address,address)":"5eb49233","collateralStates(address)":"61086e43","divExp(uint256,uint256)":"b507f9f9","divScalar(uint256,uint256)":"4751b79c","divScalarByExp(uint256,uint256)":"ce603aad","divScalarByExpTruncate(uint256,uint256)":"d6079cc6","getCollateralStateSupportPools(address,address)":"a197b0ba","getDiv(uint256,uint256)":"5293ff31","getExp(uint256,uint256)":"ba9316b7","getOrderBorrowBalanceCurrent(uint256)":"af13fe93","initialize(address)":"c4d66de8","liquidateBorrowAllowed(address,uint256,address,address)":"7aac8017","liquidateBorrowVerify(address,uint256,address,address,uint256)":"c0ec45fc","liquidityMining()":"85b2d535","mintAllowed(address,address,uint256)":"4ef4c3e1","mintVerify(address,address)":"5300efd5","mulExp(uint256,uint256)":"de32abd1","mulExp3(uint256,uint256,uint256)":"8de46362","mulScalar(uint256,uint256)":"2985fa31","mulScalarTruncate(uint256,uint256)":"b4ab15e7","mulScalarTruncateAddUInt(uint256,uint256,uint256)":"6208fc41","oracle()":"7dc0d1d0","orderDebtStates(uint256)":"3b297291","pendingAdmin()":"26782247","poolStates(address)":"de522284","redeemAllowed(address,address,uint256,uint256)":"2f8832d6","redeemVerify(address,address)":"2389df0a","repayBorrowAllowed(address,uint256,address,address,uint256)":"778c610a","repayBorrowAndClaimVerify(address,uint256)":"9a3702a9","repayBorrowVerify(address,uint256,address,address,uint256)":"b663a229","setCollateralState(address,uint256,uint256)":"d17267ae","setCollateralSupportPools(address,address[])":"83452309","setLiquidityMining(address)":"206878a4","setOracle(address)":"7adbf973","setPause(address,uint256,bool)":"8e8d53f1","setPendingAdmin(address)":"4dd18bf5","setXNFT(address)":"4f070492","subExp(uint256,uint256)":"396a98cf","transferAllowed(address,address,address,uint256)":"bdcdc258","transferVerify(address,address,address)":"77fc7c85","truncate(uint256)":"7b94aaac","xNFT()":"100aff8b","xTokenPausedMap(address,uint256)":"f19d6dac"},"id":3}