{"abi":[{"type":"constructor","inputs":[],"stateMutability":"nonpayable"},{"type":"function","name":"allowance","inputs":[{"name":"owner","type":"address","internalType":"address"},{"name":"spender","type":"address","internalType":"address"}],"outputs":[{"name":"","type":"uint256","internalType":"uint256"}],"stateMutability":"view"},{"type":"function","name":"approve","inputs":[{"name":"spender","type":"address","internalType":"address"},{"name":"value","type":"uint256","internalType":"uint256"}],"outputs":[{"name":"","type":"bool","internalType":"bool"}],"stateMutability":"nonpayable"},{"type":"function","name":"balanceOf","inputs":[{"name":"account","type":"address","internalType":"address"},{"name":"id","type":"uint256","internalType":"uint256"}],"outputs":[{"name":"","type":"uint256","internalType":"uint256"}],"stateMutability":"view"},{"type":"function","name":"balanceOf","inputs":[{"name":"owner","type":"address","internalType":"address"},{"name":"start","type":"uint256","internalType":"uint256"},{"name":"stop","type":"uint256","internalType":"uint256"}],"outputs":[{"name":"","type":"uint256","internalType":"uint256"}],"stateMutability":"view"},{"type":"function","name":"balanceOf","inputs":[{"name":"owner","type":"address","internalType":"address"}],"outputs":[{"name":"","type":"uint256","internalType":"uint256"}],"stateMutability":"view"},{"type":"function","name":"balanceOfBatch","inputs":[{"name":"accounts","type":"address[]","internalType":"address[]"},{"name":"ids","type":"uint256[]","internalType":"uint256[]"}],"outputs":[{"name":"","type":"uint256[]","internalType":"uint256[]"}],"stateMutability":"view"},{"type":"function","name":"baseTokenURI","inputs":[],"outputs":[{"name":"","type":"string","internalType":"string"}],"stateMutability":"view"},{"type":"function","name":"dataURI","inputs":[],"outputs":[{"name":"","type":"string","internalType":"string"}],"stateMutability":"view"},{"type":"function","name":"decimalFactor","inputs":[],"outputs":[{"name":"","type":"uint256","internalType":"uint256"}],"stateMutability":"view"},{"type":"function","name":"decimals","inputs":[],"outputs":[{"name":"","type":"uint8","internalType":"uint8"}],"stateMutability":"view"},{"type":"function","name":"easyLaunch","inputs":[],"outputs":[{"name":"","type":"uint256","internalType":"uint256"}],"stateMutability":"view"},{"type":"function","name":"getApproved","inputs":[{"name":"","type":"uint256","internalType":"uint256"}],"outputs":[{"name":"","type":"address","internalType":"address"}],"stateMutability":"view"},{"type":"function","name":"isApprovedForAll","inputs":[{"name":"account","type":"address","internalType":"address"},{"name":"operator","type":"address","internalType":"address"}],"outputs":[{"name":"","type":"bool","internalType":"bool"}],"stateMutability":"view"},{"type":"function","name":"isOwnerOf","inputs":[{"name":"account","type":"address","internalType":"address"},{"name":"id","type":"uint256","internalType":"uint256"}],"outputs":[{"name":"","type":"bool","internalType":"bool"}],"stateMutability":"view"},{"type":"function","name":"maxWallet","inputs":[],"outputs":[{"name":"","type":"uint256","internalType":"uint256"}],"stateMutability":"view"},{"type":"function","name":"name","inputs":[],"outputs":[{"name":"","type":"string","internalType":"string"}],"stateMutability":"view"},{"type":"function","name":"owner","inputs":[],"outputs":[{"name":"","type":"address","internalType":"address"}],"stateMutability":"view"},{"type":"function","name":"renounceOwnership","inputs":[],"outputs":[],"stateMutability":"nonpayable"},{"type":"function","name":"safeBatchTransferFrom","inputs":[{"name":"from","type":"address","internalType":"address"},{"name":"to","type":"address","internalType":"address"},{"name":"ids","type":"uint256[]","internalType":"uint256[]"},{"name":"amounts","type":"uint256[]","internalType":"uint256[]"},{"name":"data","type":"bytes","internalType":"bytes"}],"outputs":[],"stateMutability":"nonpayable"},{"type":"function","name":"safeTransferFrom","inputs":[{"name":"from","type":"address","internalType":"address"},{"name":"to","type":"address","internalType":"address"},{"name":"id","type":"uint256","internalType":"uint256"},{"name":"amount","type":"uint256","internalType":"uint256"},{"name":"data","type":"bytes","internalType":"bytes"}],"outputs":[],"stateMutability":"nonpayable"},{"type":"function","name":"setApprovalForAll","inputs":[{"name":"operator","type":"address","internalType":"address"},{"name":"approved","type":"bool","internalType":"bool"}],"outputs":[],"stateMutability":"nonpayable"},{"type":"function","name":"setDataURI","inputs":[{"name":"_dataURI","type":"string","internalType":"string"}],"outputs":[],"stateMutability":"nonpayable"},{"type":"function","name":"setMaxWallet","inputs":[{"name":"percent","type":"uint256","internalType":"uint256"}],"outputs":[],"stateMutability":"nonpayable"},{"type":"function","name":"setTokenURI","inputs":[{"name":"_tokenURI","type":"string","internalType":"string"}],"outputs":[],"stateMutability":"nonpayable"},{"type":"function","name":"setURI","inputs":[{"name":"newuri","type":"string","internalType":"string"}],"outputs":[],"stateMutability":"nonpayable"},{"type":"function","name":"setWhitelist","inputs":[{"name":"target","type":"address","internalType":"address"},{"name":"state","type":"bool","internalType":"bool"}],"outputs":[],"stateMutability":"nonpayable"},{"type":"function","name":"supportsInterface","inputs":[{"name":"interfaceId","type":"bytes4","internalType":"bytes4"}],"outputs":[{"name":"","type":"bool","internalType":"bool"}],"stateMutability":"view"},{"type":"function","name":"symbol","inputs":[],"outputs":[{"name":"","type":"string","internalType":"string"}],"stateMutability":"view"},{"type":"function","name":"toggleDelay","inputs":[],"outputs":[],"stateMutability":"nonpayable"},{"type":"function","name":"tokenURI","inputs":[{"name":"id","type":"uint256","internalType":"uint256"}],"outputs":[{"name":"","type":"string","internalType":"string"}],"stateMutability":"view"},{"type":"function","name":"tokensOfOwner","inputs":[{"name":"owner","type":"address","internalType":"address"}],"outputs":[{"name":"","type":"uint256[]","internalType":"uint256[]"}],"stateMutability":"view"},{"type":"function","name":"tokensOfOwnerIn","inputs":[{"name":"owner","type":"address","internalType":"address"},{"name":"start","type":"uint256","internalType":"uint256"},{"name":"stop","type":"uint256","internalType":"uint256"}],"outputs":[{"name":"","type":"uint256[]","internalType":"uint256[]"}],"stateMutability":"view"},{"type":"function","name":"tokensPerNFT","inputs":[],"outputs":[{"name":"","type":"uint256","internalType":"uint256"}],"stateMutability":"view"},{"type":"function","name":"totalSupply","inputs":[],"outputs":[{"name":"","type":"uint256","internalType":"uint256"}],"stateMutability":"view"},{"type":"function","name":"transfer","inputs":[{"name":"to","type":"address","internalType":"address"},{"name":"value","type":"uint256","internalType":"uint256"}],"outputs":[{"name":"","type":"bool","internalType":"bool"}],"stateMutability":"nonpayable"},{"type":"function","name":"transferDelay","inputs":[],"outputs":[{"name":"","type":"bool","internalType":"bool"}],"stateMutability":"view"},{"type":"function","name":"transferFrom","inputs":[{"name":"from","type":"address","internalType":"address"},{"name":"to","type":"address","internalType":"address"},{"name":"value","type":"uint256","internalType":"uint256"}],"outputs":[{"name":"","type":"bool","internalType":"bool"}],"stateMutability":"nonpayable"},{"type":"function","name":"transferOwnership","inputs":[{"name":"newOwner","type":"address","internalType":"address"}],"outputs":[],"stateMutability":"nonpayable"},{"type":"function","name":"uri","inputs":[{"name":"id","type":"uint256","internalType":"uint256"}],"outputs":[{"name":"","type":"string","internalType":"string"}],"stateMutability":"view"},{"type":"function","name":"whitelist","inputs":[{"name":"","type":"address","internalType":"address"}],"outputs":[{"name":"","type":"bool","internalType":"bool"}],"stateMutability":"view"},{"type":"event","name":"Approval","inputs":[{"name":"owner","type":"address","indexed":true,"internalType":"address"},{"name":"spender","type":"address","indexed":true,"internalType":"address"},{"name":"value","type":"uint256","indexed":false,"internalType":"uint256"}],"anonymous":false},{"type":"event","name":"ApprovalForAll","inputs":[{"name":"account","type":"address","indexed":true,"internalType":"address"},{"name":"operator","type":"address","indexed":true,"internalType":"address"},{"name":"approved","type":"bool","indexed":false,"internalType":"bool"}],"anonymous":false},{"type":"event","name":"OwnershipTransferred","inputs":[{"name":"previousOwner","type":"address","indexed":true,"internalType":"address"},{"name":"newOwner","type":"address","indexed":true,"internalType":"address"}],"anonymous":false},{"type":"event","name":"Transfer","inputs":[{"name":"from","type":"address","indexed":true,"internalType":"address"},{"name":"to","type":"address","indexed":true,"internalType":"address"},{"name":"value","type":"uint256","indexed":false,"internalType":"uint256"}],"anonymous":false},{"type":"event","name":"TransferBatch","inputs":[{"name":"operator","type":"address","indexed":true,"internalType":"address"},{"name":"from","type":"address","indexed":true,"internalType":"address"},{"name":"to","type":"address","indexed":true,"internalType":"address"},{"name":"ids","type":"uint256[]","indexed":false,"internalType":"uint256[]"},{"name":"values","type":"uint256[]","indexed":false,"internalType":"uint256[]"}],"anonymous":false},{"type":"event","name":"TransferSingle","inputs":[{"name":"operator","type":"address","indexed":true,"internalType":"address"},{"name":"from","type":"address","indexed":true,"internalType":"address"},{"name":"to","type":"address","indexed":true,"internalType":"address"},{"name":"id","type":"uint256","indexed":false,"internalType":"uint256"},{"name":"value","type":"uint256","indexed":false,"internalType":"uint256"}],"anonymous":false},{"type":"event","name":"URI","inputs":[{"name":"value","type":"string","indexed":false,"internalType":"string"},{"name":"id","type":"uint256","indexed":true,"internalType":"uint256"}],"anonymous":false},{"type":"error","name":"ApprovalCallerNotOwnerNorApproved","inputs":[]},{"type":"error","name":"BalanceQueryForZeroAddress","inputs":[]},{"type":"error","name":"BurnFromNonOnwerAddress","inputs":[]},{"type":"error","name":"BurnFromZeroAddress","inputs":[]},{"type":"error","name":"ERC20InsufficientAllowance","inputs":[{"name":"spender","type":"address","internalType":"address"},{"name":"allowance","type":"uint256","internalType":"uint256"},{"name":"needed","type":"uint256","internalType":"uint256"}]},{"type":"error","name":"ERC20InsufficientBalance","inputs":[{"name":"sender","type":"address","internalType":"address"},{"name":"balance","type":"uint256","internalType":"uint256"},{"name":"needed","type":"uint256","internalType":"uint256"}]},{"type":"error","name":"ERC20InvalidApprover","inputs":[{"name":"approver","type":"address","internalType":"address"}]},{"type":"error","name":"ERC20InvalidReceiver","inputs":[{"name":"receiver","type":"address","internalType":"address"}]},{"type":"error","name":"ERC20InvalidSender","inputs":[{"name":"sender","type":"address","internalType":"address"}]},{"type":"error","name":"ERC20InvalidSpender","inputs":[{"name":"spender","type":"address","internalType":"address"}]},{"type":"error","name":"InputLengthMistmatch","inputs":[]},{"type":"error","name":"InvalidQueryRange","inputs":[]},{"type":"error","name":"MintToZeroAddress","inputs":[]},{"type":"error","name":"MintZeroQuantity","inputs":[]},{"type":"error","name":"OwnableInvalidOwner","inputs":[{"name":"owner","type":"address","internalType":"address"}]},{"type":"error","name":"OwnableUnauthorizedAccount","inputs":[{"name":"account","type":"address","internalType":"address"}]},{"type":"error","name":"TransferCallerNotOwnerNorApproved","inputs":[]},{"type":"error","name":"TransferFromIncorrectOwnerOrInvalidAmount","inputs":[]},{"type":"error","name":"TransferToNonERC1155ReceiverImplementer","inputs":[]},{"type":"error","name":"TransferToNonERC721ReceiverImplementer","inputs":[]},{"type":"error","name":"TransferToZeroAddress","inputs":[]}],"bytecode":{"object":"0x6101006040526001600b819055600f805460ff1916909117905534801562000025575f80fd5b5060408051602080820183525f82528251808401845260058082526426a4a722a960d91b82840181905285518087019096529085529184019190915290916012620186a0600133806200009157604051631e4fbdf760e01b81525f600482015260240160405180910390fd5b6200009c81620001e4565b50620000a88662000233565b60016004556008620000bb8682620002e3565b506009620000ca8582620002e3565b5060ff83166080819052620000e190600a620004be565b60c0819052620000f29082620004d5565b60e05260c051620001049083620004d5565b60a0819052335f818152600a60209081526040808320805460ff191660011790556006825280832085905551938452919290917fddf252ad1be2c89b69c2b068fc378daa952ba7f163c4a11628f55a4df523b3ef910160405180910390a35050505050506040518060400160405280601181526020017068747470733a2f2f692e6962622e636f2f60781b815250600c9081620001a29190620002e3565b506064620001b36012600a620004be565b620001c290620186a0620004d5565b620001cf906002620004d5565b620001db9190620004ef565b600e556200050f565b5f80546001600160a01b038381166001600160a01b0319831681178455604051919092169283917f8be0079c531659141344cd1fd0a4f28419497f9722a3daafe3b4186f6b6457e09190a35050565b6003620002418282620002e3565b5050565b634e487b7160e01b5f52604160045260245ffd5b600181811c908216806200026e57607f821691505b6020821081036200028d57634e487b7160e01b5f52602260045260245ffd5b50919050565b601f821115620002de57805f5260205f20601f840160051c81016020851015620002ba5750805b601f840160051c820191505b81811015620002db575f8155600101620002c6565b50505b505050565b81516001600160401b03811115620002ff57620002ff62000245565b620003178162000310845462000259565b8462000293565b602080601f8311600181146200034d575f8415620003355750858301515b5f19600386901b1c1916600185901b178555620003a7565b5f85815260208120601f198616915b828110156200037d578886015182559484019460019091019084016200035c565b50858210156200039b57878501515f19600388901b60f8161c191681555b505060018460011b0185555b505050505050565b634e487b7160e01b5f52601160045260245ffd5b600181815b808511156200040357815f1904821115620003e757620003e7620003af565b80851615620003f557918102915b93841c9390800290620003c8565b509250929050565b5f826200041b57506001620004b8565b816200042957505f620004b8565b81600181146200044257600281146200044d576200046d565b6001915050620004b8565b60ff841115620004615762000461620003af565b50506001821b620004b8565b5060208310610133831016604e8410600b841016171562000492575081810a620004b8565b6200049e8383620003c3565b805f1904821115620004b457620004b4620003af565b0290505b92915050565b5f620004ce60ff8416836200040b565b9392505050565b8082028115828204841417620004b857620004b8620003af565b5f826200050a57634e487b7160e01b5f52601260045260245ffd5b500490565b60805160a05160c05160e0516148896200057b5f395f81816104a601528181610c820152818161187901528181611f08015281816126a5015281816126dd015281816127e2015261280901525f6104e001525f81816103bf0152610f6a01525f61043201526148895ff3fe608060405234801561000f575f80fd5b50600436106102b6575f3560e01c806370a0823111610171578063c5b8f772116100d2578063e985e9c511610088578063f28ca1dd1161006e578063f28ca1dd146106bc578063f2fde38b146106c4578063f8b45b05146106d7575f80fd5b8063e985e9c514610661578063f242432a146106a9575f80fd5b8063d547cfb7116100b8578063d547cfb714610601578063dd62ed3e14610609578063e0df5b6f1461064e575f80fd5b8063c5b8f772146105db578063c87b56dd146105ee575f80fd5b806399a2557a11610127578063a014e6e21161010d578063a014e6e2146105ac578063a22cb465146105b5578063a9059cbb146105c8575f80fd5b806399a2557a146105775780639b19251a1461058a575f80fd5b80638462151c116101575780638462151c1461053f5780638da5cb5b1461055257806395d89b411461056f575f80fd5b806370a0823114610502578063715018a614610537575f80fd5b806323b872dd1161021b5780634eabf2c6116101d15780635afcc2f5116101b75780635afcc2f5146104a15780635d0044ca146104c85780636d6a6a4d146104db575f80fd5b80634eabf2c61461048657806353d6fd591461048e575f80fd5b80632eb2c2d6116102015780632eb2c2d61461041a578063313ce5671461042d5780634e1273f414610466575f80fd5b806323b872dd146103f45780632d760d5714610407575f80fd5b8063095ea7b3116102705780630e89341c116102565780630e89341c146103a757806318160ddd146103ba57806318d217c3146103e1575f80fd5b8063095ea7b3146103875780630a702e8d1461039a575f80fd5b806302fe5305116102a057806302fe53051461030357806306fdde0314610318578063081812fc1461032d575f80fd5b8062fdd58e146102ba57806301ffc9a7146102e0575b5f80fd5b6102cd6102c8366004613865565b6106e0565b6040519081526020015b60405180910390f35b6102f36102ee3660046138ba565b61077f565b60405190151581526020016102d7565b6103166103113660046139c6565b610945565b005b610320610959565b6040516102d79190613a76565b61036261033b366004613a88565b60056020525f908152604090205473ffffffffffffffffffffffffffffffffffffffff1681565b60405173ffffffffffffffffffffffffffffffffffffffff90911681526020016102d7565b6102f3610395366004613865565b6109e5565b600f546102f39060ff1681565b6103206103b5366004613a88565b610b00565b6102cd7f000000000000000000000000000000000000000000000000000000000000000081565b6103166103ef3660046139c6565b610b0b565b6102f3610402366004613a9f565b610b23565b6102cd610415366004613ad8565b610d16565b610316610428366004613bbc565b610d58565b6104547f000000000000000000000000000000000000000000000000000000000000000081565b60405160ff90911681526020016102d7565b610479610474366004613c5f565b610dcb565b6040516102d79190613d5e565b610316610ec3565b61031661049c366004613d7d565b610efd565b6102cd7f000000000000000000000000000000000000000000000000000000000000000081565b6103166104d6366004613a88565b610f5a565b6102cd7f000000000000000000000000000000000000000000000000000000000000000081565b6102cd610510366004613db2565b73ffffffffffffffffffffffffffffffffffffffff165f9081526006602052604090205490565b610316610f9e565b61047961054d366004613db2565b610fb1565b5f5473ffffffffffffffffffffffffffffffffffffffff16610362565b610320610fe2565b610479610585366004613ad8565b610fef565b6102f3610598366004613db2565b600a6020525f908152604090205460ff1681565b6102cd600b5481565b6103166105c3366004613d7d565b611142565b6102f36105d6366004613865565b61114d565b6102f36105e9366004613865565b61115c565b6103206105fc366004613a88565b61119e565b610320611545565b6102cd610617366004613dcb565b73ffffffffffffffffffffffffffffffffffffffff9182165f90815260076020908152604080832093909416825291909152205490565b61031661065c3660046139c6565b611552565b6102f361066f366004613dcb565b73ffffffffffffffffffffffffffffffffffffffff9182165f90815260026020908152604080832093909416825291909152205460ff1690565b6103166106b7366004613dfc565b611566565b6103206115da565b6103166106d2366004613db2565b6115e7565b6102cd600e5481565b5f73ffffffffffffffffffffffffffffffffffffffff831661072e576040517f8f4eb60400000000000000000000000000000000000000000000000000000000815260040160405180910390fd5b73ffffffffffffffffffffffffffffffffffffffff83165f908152600160208181526040808420600887901c85529091529091205460ff84161c161561077657506001610779565b505f5b92915050565b5f7fffffffff0000000000000000000000000000000000000000000000000000000082167fd9b67a2600000000000000000000000000000000000000000000000000000000148061081157507fffffffff0000000000000000000000000000000000000000000000000000000082167f0e89341c00000000000000000000000000000000000000000000000000000000145b8061085d57507fffffffff0000000000000000000000000000000000000000000000000000000082167fc5b8f77200000000000000000000000000000000000000000000000000000000145b806108a957507f80ac58cd000000000000000000000000000000000000000000000000000000007fffffffff000000000000000000000000000000000000000000000000000000008316145b806108f557507f5b5e139f000000000000000000000000000000000000000000000000000000007fffffffff000000000000000000000000000000000000000000000000000000008316145b8061077957507f01ffc9a7000000000000000000000000000000000000000000000000000000007fffffffff00000000000000000000000000000000000000000000000000000000831614610779565b61094d611647565b61095681611699565b50565b6008805461096690613e5c565b80601f016020809104026020016040519081016040528092919081815260200182805461099290613e5c565b80156109dd5780601f106109b4576101008083540402835291602001916109dd565b820191905f5260205f20905b8154815290600101906020018083116109c057829003601f168201915b505050505081565b5f336109f060045490565b831080156109fd57505f83115b15610aeb57610a0c818461115c565b610a5f576040517f96c6fd1e00000000000000000000000000000000000000000000000000000000815273ffffffffffffffffffffffffffffffffffffffff821660048201526024015b60405180910390fd5b5f8381526005602090815260409182902080547fffffffffffffffffffffffff00000000000000000000000000000000000000001673ffffffffffffffffffffffffffffffffffffffff8881169182179092559251868152908416917f8c5be1e5ebec7d5bd14f71427d1e84f3dd0314c0f7b2291e5b200ac8c7c3b925910160405180910390a3610af6565b610af68185856116a5565b5060019392505050565b60606107798261119e565b610b13611647565b600c610b1f8282613ef1565b5050565b5f610b2d60045490565b821015610cfe5773ffffffffffffffffffffffffffffffffffffffff84165f908152600160208181526040808420600887901c85529091529091205460ff84161c16610bbd576040517f94280d6200000000000000000000000000000000000000000000000000000000815273ffffffffffffffffffffffffffffffffffffffff85166004820152602401610a56565b3373ffffffffffffffffffffffffffffffffffffffff851614801590610c13575073ffffffffffffffffffffffffffffffffffffffff84165f90815260026020908152604080832033845290915290205460ff16155b8015610c4257505f8281526005602052604090205473ffffffffffffffffffffffffffffffffffffffff163314155b15610c7b576040517f94280d62000000000000000000000000000000000000000000000000000000008152336004820152602401610a56565b610ca784847f00000000000000000000000000000000000000000000000000000000000000005f6116b7565b5f82815260056020908152604080832080547fffffffffffffffffffffffff000000000000000000000000000000000000000016905580519182019052818152610cf991869186918691600191611767565b610af6565b610d098433846119ca565b610af684848460016116b7565b5f610d5083610d258185614036565b73ffffffffffffffffffffffffffffffffffffffff87165f9081526001602052604090209190611a91565b949350505050565b73ffffffffffffffffffffffffffffffffffffffff8516331480610d815750610d81853361066f565b610db7576040517f59c896be00000000000000000000000000000000000000000000000000000000815260040160405180910390fd5b610dc48585858585611d7a565b5050505050565b60608151835114610e08576040517f7801f4e900000000000000000000000000000000000000000000000000000000815260040160405180910390fd5b5f835167ffffffffffffffff811115610e2357610e236138d5565b604051908082528060200260200182016040528015610e4c578160200160208202803683370190505b5090505f5b8451811015610ebb57610e96858281518110610e6f57610e6f614049565b6020026020010151858381518110610e8957610e89614049565b60200260200101516106e0565b828281518110610ea857610ea8614049565b6020908102919091010152600101610e51565b509392505050565b610ecb611647565b600f80547fffffffffffffffffffffffffffffffffffffffffffffffffffffffffffffff00811660ff90911615179055565b610f05611647565b73ffffffffffffffffffffffffffffffffffffffff919091165f908152600a6020526040902080547fffffffffffffffffffffffffffffffffffffffffffffffffffffffffffffff0016911515919091179055565b610f62611647565b6064610f8e827f0000000000000000000000000000000000000000000000000000000000000000614076565b610f9891906140ba565b600e5550565b610fa6611647565b610faf5f61208a565b565b6060610fbb6120fe565b5f03610fd4575050604080515f81526020810190915290565b610779826001600454610fef565b6009805461096690613e5c565b606081831061102a576040517f32c1995a00000000000000000000000000000000000000000000000000000000815260040160405180910390fd5b600183101561103857600192505b5f61104260045490565b905080831115611050578092505b5f8385101561106b57611064868686610d16565b905061106e565b505f5b5f8167ffffffffffffffff811115611088576110886138d5565b6040519080825280602002602001820160405280156110b1578160200160208202803683370190505b5073ffffffffffffffffffffffffffffffffffffffff88165f90815260016020526040812091925087905b84811461113457600882901c5f9081526020849052604090205460ff83161c60011615611129578184828060010193508151811061111c5761111c614049565b6020026020010181815250505b8160010191506110dc565b509198975050505050505050565b610b1f338383612113565b5f33610af681858560016116b7565b73ffffffffffffffffffffffffffffffffffffffff82165f908152600160208181526040808420600886901c855290915282205460ff84161c165b9392505050565b60606111a960045490565b82106111e1576040517f7801f4e900000000000000000000000000000000000000000000000000000000815260040160405180910390fd5b5f6111eb83612265565b5111156111fb5761077982612265565b5f600d805461120990613e5c565b9050111561124357600d61121c836122f7565b60405160200161122d92919061415a565b6040516020818303038152906040529050919050565b5f8260405160200161125791815260200190565b6040516020818303038152906040528051906020012060f81c90506060806060603f8460ff1611611312576040518060400160405280601381526020017f475152685779462f4469616d6f6e642e6a70670000000000000000000000000081525092506040518060400160405280600781526020017f4469616d6f6e640000000000000000000000000000000000000000000000000081525091506040518060e0016040528060be81526020016146ce60be913990506114e0565b607f8460ff16116113ae576040518060400160405280601081526020017f6777644c6633662f476f6c642e6a70670000000000000000000000000000000081525092506040518060400160405280600481526020017f476f6c6400000000000000000000000000000000000000000000000000000000815250915060405180610100016040528060c8815260200161478c60c8913990506114e0565b60bf8460ff1611611449576040518060400160405280601281526020017f464a6d6472646d2f53696c7665722e6a7067000000000000000000000000000081525092506040518060400160405280600681526020017f53696c766572000000000000000000000000000000000000000000000000000081525091506040518060c00160405280608e8152602001614640608e913990506114e0565b60ff8460ff16116114e0576040518060400160405280601281526020017f594c47334a76632f42726f6e7a652e6a7067000000000000000000000000000081525092506040518060400160405280600681526020017f42726f6e7a65000000000000000000000000000000000000000000000000000081525091506040518060c00160405280608181526020016145bf6081913990505b5f6114ea876122f7565b82600c86604051602001611501949392919061417e565b6040516020818303038152906040529050808360405160200161152592919061426d565b60405160208183030381529060405295505050505050919050565b919050565b600d805461096690613e5c565b61155a611647565b600d610b1f8282613ef1565b73ffffffffffffffffffffffffffffffffffffffff851633148061158f575061158f853361066f565b156115a8576115a385858585856001611767565b610dc4565b6040517f59c896be00000000000000000000000000000000000000000000000000000000815260040160405180910390fd5b600c805461096690613e5c565b6115ef611647565b73ffffffffffffffffffffffffffffffffffffffff811661163e576040517f1e4fbdf70000000000000000000000000000000000000000000000000000000081525f6004820152602401610a56565b6109568161208a565b5f5473ffffffffffffffffffffffffffffffffffffffff163314610faf576040517f118cdaa7000000000000000000000000000000000000000000000000000000008152336004820152602401610a56565b6003610b1f8282613ef1565b6116b28383836001612428565b505050565b73ffffffffffffffffffffffffffffffffffffffff8416611706576040517f96c6fd1e0000000000000000000000000000000000000000000000000000000081525f6004820152602401610a56565b73ffffffffffffffffffffffffffffffffffffffff8316611755576040517fec442f050000000000000000000000000000000000000000000000000000000081525f6004820152602401610a56565b6117618484848461256d565b50505050565b73ffffffffffffffffffffffffffffffffffffffff85166117b4576040517fea553b3400000000000000000000000000000000000000000000000000000000815260040160405180910390fd5b335f6117bf86612864565b9050846001148015611808575073ffffffffffffffffffffffffffffffffffffffff88165f90815260016020818152604080842060088b901c85529091529091205460ff88161c165b156118a35773ffffffffffffffffffffffffffffffffffffffff8881165f90815260016020818152604080842060088c901c808652908352818520805460ff8e1686901b8019909116909155958d1685529282528084209284529190528120805490921790915561189e90899089907f0000000000000000000000000000000000000000000000000000000000000000906116b7565b6118d5565b6040517f37dbad3d00000000000000000000000000000000000000000000000000000000815260040160405180910390fd5b73ffffffffffffffffffffffffffffffffffffffff8781169089168682827fddf252ad1be2c89b69c2b068fc378daa952ba7f163c4a11628f55a4df523b3ef5f80a48873ffffffffffffffffffffffffffffffffffffffff168a73ffffffffffffffffffffffffffffffffffffffff168573ffffffffffffffffffffffffffffffffffffffff167fc3d58168c5ae7397731d063d5bbf3d657854427343f4c083240f7aacaa2d0f628b8b604051611996929190918252602082015260400190565b60405180910390a46119aa848b8b866128aa565b84156119be576119be848b8b8b8b8b612ad3565b50505050505050505050565b73ffffffffffffffffffffffffffffffffffffffff8381165f908152600760209081526040808320938616835292905220547fffffffffffffffffffffffffffffffffffffffffffffffffffffffffffffffff81146117615781811015611a83576040517ffb8f41b200000000000000000000000000000000000000000000000000000000815273ffffffffffffffffffffffffffffffffffffffff841660048201526024810182905260448101839052606401610a56565b61176184848484035f612428565b5f600883901c60ff841661010184820110611c89575f828152602087905260409020547f0f0f0f0f0f0f0f0f0f0f0f0f0f0f0f0f0f0f0f0f0f0f0f0f0f0f0f0f0f0f0f0f7f555555555555555555555555555555555555555555555555555555555555555591831c600181901c929092168203600281901c7f3333333333333333333333333333333333333333333333333333333333333333908116911601600481901c01167f01010101010101010101010101010101010101010101010101010101010101010260f81c7fffffffffffffffffffffffffffffffffffffffffffffffffffffffffffffffff90911460081b17930160ff811693925060018201915f9160081c015b808314611c87575f838152602088905260409020547f0f0f0f0f0f0f0f0f0f0f0f0f0f0f0f0f0f0f0f0f0f0f0f0f0f0f0f0f0f0f0f0f7f5555555555555555555555555555555555555555555555555555555555555555600183901c168203600281901c7f3333333333333333333333333333333333333333333333333333333333333333908116911601600481901c01167f01010101010101010101010101010101010101010101010101010101010101010260f81c7fffffffffffffffffffffffffffffffffffffffffffffffffffffffffffffffff90911460081b1784019350826001019250611b99565b505b5f828152602087905260409020547f0f0f0f0f0f0f0f0f0f0f0f0f0f0f0f0f0f0f0f0f0f0f0f0f0f0f0f0f0f0f0f0f7f555555555555555555555555555555555555555555555555555555555555555591831c6101008790031b600181901c929092168203600281901c7f3333333333333333333333333333333333333333333333333333333333333333908116911601600481901c01167f01010101010101010101010101010101010101010101010101010101010101010260f81c7fffffffffffffffffffffffffffffffffffffffffffffffffffffffffffffffff90911460081b1790920195945050505050565b8151835114611db5576040517f7801f4e900000000000000000000000000000000000000000000000000000000815260040160405180910390fd5b73ffffffffffffffffffffffffffffffffffffffff8416611e02576040517fea553b3400000000000000000000000000000000000000000000000000000000815260040160405180910390fd5b335f5b8451811015611efe575f858281518110611e2157611e21614049565b602002602001015190505f858381518110611e3e57611e3e614049565b60200260200101519050806001148015611e8f575073ffffffffffffffffffffffffffffffffffffffff89165f908152600160208181526040808420600887901c85529091529091205460ff84161c165b156118a3575073ffffffffffffffffffffffffffffffffffffffff8881165f908152600160208181526040808420600887901c808652908352818520805460ff90981685901b80199098169055948c168452828252808420948452939052919020805490921790915501611e05565b50611f37868686517f0000000000000000000000000000000000000000000000000000000000000000611f319190614076565b5f6116b7565b5f805f86516001611f48919061433d565b905073ffffffffffffffffffffffffffffffffffffffff8916915073ffffffffffffffffffffffffffffffffffffffff88169250602087015183837fddf252ad1be2c89b69c2b068fc378daa952ba7f163c4a11628f55a4df523b3ef5f80a460025b818114611fe6578060200288015184847fddf252ad1be2c89b69c2b068fc378daa952ba7f163c4a11628f55a4df523b3ef5f80a4600101611faa565b508773ffffffffffffffffffffffffffffffffffffffff168973ffffffffffffffffffffffffffffffffffffffff168573ffffffffffffffffffffffffffffffffffffffff167f4a39dc06d4c0dbc64b70af90fd698a233a518aa5d07e595d983b8c0526c8f7fb8a8a60405161205d929190614350565b60405180910390a4612071848a8a8a6128aa565b61207f848a8a8a8a8a612ef1565b505050505050505050565b5f805473ffffffffffffffffffffffffffffffffffffffff8381167fffffffffffffffffffffffff0000000000000000000000000000000000000000831681178455604051919092169283917f8be0079c531659141344cd1fd0a4f28419497f9722a3daafe3b4186f6b6457e09190a35050565b5f600160045461210e9190614036565b905090565b8173ffffffffffffffffffffffffffffffffffffffff168373ffffffffffffffffffffffffffffffffffffffff16036121ce576040517f08c379a000000000000000000000000000000000000000000000000000000000815260206004820152602960248201527f455243313135353a2073657474696e6720617070726f76616c2073746174757360448201527f20666f722073656c6600000000000000000000000000000000000000000000006064820152608401610a56565b73ffffffffffffffffffffffffffffffffffffffff8381165f8181526002602090815260408083209487168084529482529182902080547fffffffffffffffffffffffffffffffffffffffffffffffffffffffffffffff001686151590811790915591519182527f17307eab39ab6107e8899845ad3d59bd9653f200f220920489ca2b5937696c31910160405180910390a3505050565b60606003805461227490613e5c565b80601f01602080910402602001604051908101604052809291908181526020018280546122a090613e5c565b80156122eb5780601f106122c2576101008083540402835291602001916122eb565b820191905f5260205f20905b8154815290600101906020018083116122ce57829003601f168201915b50505050509050919050565b6060815f0361233957505060408051808201909152600181527f3000000000000000000000000000000000000000000000000000000000000000602082015290565b815f5b8115612362578061234c8161437d565b915061235b9050600a836140ba565b915061233c565b5f8167ffffffffffffffff81111561237c5761237c6138d5565b6040519080825280601f01601f1916602001820160405280156123a6576020820181803683370190505b5090505b8415610d50576123bb600183614036565b91506123c8600a866143b4565b6123d390603061433d565b60f81b8183815181106123e8576123e8614049565b60200101907effffffffffffffffffffffffffffffffffffffffffffffffffffffffffffff191690815f1a905350612421600a866140ba565b94506123aa565b73ffffffffffffffffffffffffffffffffffffffff8416612477576040517fe602df050000000000000000000000000000000000000000000000000000000081525f6004820152602401610a56565b73ffffffffffffffffffffffffffffffffffffffff83166124c6576040517f94280d620000000000000000000000000000000000000000000000000000000081525f6004820152602401610a56565b73ffffffffffffffffffffffffffffffffffffffff8085165f9081526007602090815260408083209387168352929052208290558015611761578273ffffffffffffffffffffffffffffffffffffffff168473ffffffffffffffffffffffffffffffffffffffff167f8c5be1e5ebec7d5bd14f71427d1e84f3dd0314c0f7b2291e5b200ac8c7c3b9258460405161255f91815260200190565b60405180910390a350505050565b73ffffffffffffffffffffffffffffffffffffffff8085165f90815260066020526040808220549286168252902054838210156125fc576040517fe450d38c00000000000000000000000000000000000000000000000000000000815273ffffffffffffffffffffffffffffffffffffffff871660048201526024810183905260448101859052606401610a56565b73ffffffffffffffffffffffffffffffffffffffff8087165f81815260066020526040808220888703905592881680825290839020848801905591517fddf252ad1be2c89b69c2b068fc378daa952ba7f163c4a11628f55a4df523b3ef906126679088815260200190565b60405180910390a3821561285c5773ffffffffffffffffffffffffffffffffffffffff86165f908152600a602052604090205460ff1680612720575f7f00000000000000000000000000000000000000000000000000000000000000006126ce8786614036565b6126d891906140ba565b6127027f0000000000000000000000000000000000000000000000000000000000000000866140ba565b61270c9190614036565b9050801561271e5761271e8882613047565b505b73ffffffffffffffffffffffffffffffffffffffff86165f908152600a602052604090205460ff1661285a57600b54600114801561275b5750805b801561278057505f5473ffffffffffffffffffffffffffffffffffffffff8881169116145b156127dc5773ffffffffffffffffffffffffffffffffffffffff86165f908152600a6020526040902080547fffffffffffffffffffffffffffffffffffffffffffffffffffffffffffffff001660011790556002600b5561285a565b5f6128077f0000000000000000000000000000000000000000000000000000000000000000846140ba565b7f0000000000000000000000000000000000000000000000000000000000000000612832888661433d565b61283c91906140ba565b6128469190614036565b90508015612858576119be87826133b9565b505b505b505050505050565b6040805160018082528183019092526060916020808301908036833701905050905081815f8151811061289957612899614049565b602002602001018181525050919050565b73ffffffffffffffffffffffffffffffffffffffff82165f908152600a602052604090205460ff16612ace57600e5473ffffffffffffffffffffffffffffffffffffffff83165f908152600660205260409020541115612966576040517f08c379a000000000000000000000000000000000000000000000000000000000815260206004820152601f60248201527f5472616e736665722065786365656473206d6178696d756d2077616c6c6574006044820152606401610a56565b600f5460ff1615612ace57325f908152601060205260409020544311612a0d576040517f08c379a0000000000000000000000000000000000000000000000000000000008152602060048201526024808201527f4f6e6c79206f6e65207472616e736665722070657220626c6f636b20616c6c6f60448201527f7765642e000000000000000000000000000000000000000000000000000000006064820152608401610a56565b325f90815260106020526040902043905573ffffffffffffffffffffffffffffffffffffffff82163b158015612a425750323b155b612ace576040517f08c379a000000000000000000000000000000000000000000000000000000000815260206004820152602560248201527f436f6e74726163742074726164696e672072657374726963746564206174206c60448201527f61756e63680000000000000000000000000000000000000000000000000000006064820152608401610a56565b611761565b73ffffffffffffffffffffffffffffffffffffffff84163b1561285c576040517f01ffc9a70000000000000000000000000000000000000000000000000000000081527fd9b67a2600000000000000000000000000000000000000000000000000000000600482015273ffffffffffffffffffffffffffffffffffffffff8516906301ffc9a790602401602060405180830381865afa158015612b78573d5f803e3d5ffd5b505050506040513d601f19601f82011682018060405250810190612b9c91906143c7565b15612d67576040517ff23a6e6100000000000000000000000000000000000000000000000000000000815273ffffffffffffffffffffffffffffffffffffffff85169063f23a6e6190612bfb90899089908890889088906004016143e2565b6020604051808303815f875af1925050508015612c53575060408051601f3d9081017fffffffffffffffffffffffffffffffffffffffffffffffffffffffffffffffe0168201909252612c5091810190614431565b60015b612ce657612c5f61444c565b806308c379a003612cb25750612c73614465565b80612c7e5750612cb4565b806040517f08c379a0000000000000000000000000000000000000000000000000000000008152600401610a569190613a76565b505b6040517f9c05499b00000000000000000000000000000000000000000000000000000000815260040160405180910390fd5b7fffffffff0000000000000000000000000000000000000000000000000000000081167ff23a6e610000000000000000000000000000000000000000000000000000000014612d61576040517f9c05499b00000000000000000000000000000000000000000000000000000000815260040160405180910390fd5b5061285c565b6040517f150b7a0200000000000000000000000000000000000000000000000000000000815273ffffffffffffffffffffffffffffffffffffffff85169063150b7a0290612dbf90899089908890879060040161450c565b6020604051808303815f875af1925050508015612e17575060408051601f3d9081017fffffffffffffffffffffffffffffffffffffffffffffffffffffffffffffffe0168201909252612e1491810190614431565b60015b612e7657612e2361444c565b806308c379a003612e425750612e37614465565b80612c7e5750612e44565b505b6040517fd1a57ed600000000000000000000000000000000000000000000000000000000815260040160405180910390fd5b7fffffffff0000000000000000000000000000000000000000000000000000000081167f150b7a02000000000000000000000000000000000000000000000000000000001461285a576040517fd1a57ed600000000000000000000000000000000000000000000000000000000815260040160405180910390fd5b73ffffffffffffffffffffffffffffffffffffffff84163b1561285c576040517fbc197c8100000000000000000000000000000000000000000000000000000000815273ffffffffffffffffffffffffffffffffffffffff85169063bc197c8190612f689089908990889088908890600401614554565b6020604051808303815f875af1925050508015612fc0575060408051601f3d9081017fffffffffffffffffffffffffffffffffffffffffffffffffffffffffffffffe0168201909252612fbd91810190614431565b60015b612fcc57612c5f61444c565b7fffffffff0000000000000000000000000000000000000000000000000000000081167fbc197c81000000000000000000000000000000000000000000000000000000001461285a576040517f9c05499b00000000000000000000000000000000000000000000000000000000815260040160405180910390fd5b73ffffffffffffffffffffffffffffffffffffffff8216613094576040517fb817eee700000000000000000000000000000000000000000000000000000000815260040160405180910390fd5b60045433905f8367ffffffffffffffff8111156130b3576130b36138d5565b6040519080825280602002602001820160405280156130dc578160200160208202803683370190505b5090505f8467ffffffffffffffff8111156130f9576130f96138d5565b604051908082528060200260200182016040528015613122578160200160208202803683370190505b5090505f5b858110156131ec57600183828151811061314357613143614049565b60209081029190910181019190915273ffffffffffffffffffffffffffffffffffffffff88165f90815260019091526040812061318090866136bf565b90508083838151811061319557613195614049565b60209081029190910181019190915273ffffffffffffffffffffffffffffffffffffffff89165f90815260018083526040808320600886901c8452909352919020805460ff841683901b1916905590945001613127565b505f806131fa87600161433d565b905073ffffffffffffffffffffffffffffffffffffffff8816915060208301515f837fddf252ad1be2c89b69c2b068fc378daa952ba7f163c4a11628f55a4df523b3ef5f80a460025b81811461327f57806020028401515f847fddf252ad1be2c89b69c2b068fc378daa952ba7f163c4a11628f55a4df523b3ef5f80a4600101613243565b508660010361332e575f73ffffffffffffffffffffffffffffffffffffffff168873ffffffffffffffffffffffffffffffffffffffff168773ffffffffffffffffffffffffffffffffffffffff167fc3d58168c5ae7397731d063d5bbf3d657854427343f4c083240f7aacaa2d0f62865f8151811061330057613300614049565b60200260200101516001604051613321929190918252602082015260400190565b60405180910390a46133ad565b5f73ffffffffffffffffffffffffffffffffffffffff168873ffffffffffffffffffffffffffffffffffffffff168773ffffffffffffffffffffffffffffffffffffffff167f4a39dc06d4c0dbc64b70af90fd698a233a518aa5d07e595d983b8c0526c8f7fb86886040516133a4929190614350565b60405180910390a45b61285886895f866128aa565b60608073ffffffffffffffffffffffffffffffffffffffff8416613409576040517f2e07630000000000000000000000000000000000000000000000000000000000815260040160405180910390fd5b825f03613442576040517fb562e8dd00000000000000000000000000000000000000000000000000000000815260040160405180910390fd5b338367ffffffffffffffff81111561345c5761345c6138d5565b604051908082528060200260200182016040528015613485578160200160208202803683370190505b5092508367ffffffffffffffff8111156134a1576134a16138d5565b6040519080825280602002602001820160405280156134ca578160200160208202803683370190505b5091505f6134d760045490565b905080857fffffffffffffffffffffffffffffffffffffffffffffffffffffffffffffffff031015613507575f80fd5b5f5b858110156135595780820185828151811061352657613526614049565b602002602001018181525050600184828151811061354657613546614049565b6020908102919091010152600101613509565b5073ffffffffffffffffffffffffffffffffffffffff86165f9081526001602052604090206135899082876137cc565b8460045f82825461359a919061433d565b909155505f9050806135ac878461433d565b905073ffffffffffffffffffffffffffffffffffffffff8816915082825f7fddf252ad1be2c89b69c2b068fc378daa952ba7f163c4a11628f55a4df523b3ef5f80a4600183015b8181146136295780835f7fddf252ad1be2c89b69c2b068fc378daa952ba7f163c4a11628f55a4df523b3ef5f80a46001016135f3565b508773ffffffffffffffffffffffffffffffffffffffff165f73ffffffffffffffffffffffffffffffffffffffff168573ffffffffffffffffffffffffffffffffffffffff167f4a39dc06d4c0dbc64b70af90fd698a233a518aa5d07e595d983b8c0526c8f7fb89896040516136a0929190614350565b60405180910390a46136b4845f8a896128aa565b505050509250929050565b600881901c5f818152602084905260409020547fffffffffffffffffffffffffffffffffffffffffffffffffffffffffffffffff919060ff84191690811b901c8115811761371e575b5081015f81815260409020548115811715613708575b80156137c4576137b5817f0706060506020504060203020504030106050205030304010505030400000000601f6f8421084210842108cc6318c6db6d54be831560081b6fffffffffffffffffffffffffffffffff851160071b1784811c67ffffffffffffffff1060061b1784811c63ffffffff1060051b1784811c61ffff1060041b1784811c60ff1060031b1793841c1c161a1790565b600883901b178481115f031792505b505092915050565b5f1960ff8316846020528360081c5f5261010183820110613828575f805160408220805485851b1790559390910160ff811693600181019160081c015b80821461382457815f528360405f2055600182019150613809565b505f525b60405f208284610100031c821b8154178155505050505050565b803573ffffffffffffffffffffffffffffffffffffffff81168114611540575f80fd5b5f8060408385031215613876575f80fd5b61387f83613842565b946020939093013593505050565b7fffffffff0000000000000000000000000000000000000000000000000000000081168114610956575f80fd5b5f602082840312156138ca575f80fd5b81356111978161388d565b7f4e487b71000000000000000000000000000000000000000000000000000000005f52604160045260245ffd5b7fffffffffffffffffffffffffffffffffffffffffffffffffffffffffffffffe0601f830116810181811067ffffffffffffffff82111715613946576139466138d5565b6040525050565b5f67ffffffffffffffff831115613966576139666138d5565b60405161399b60207fffffffffffffffffffffffffffffffffffffffffffffffffffffffffffffffe0601f8701160182613902565b8091508381528484840111156139af575f80fd5b838360208301375f60208583010152509392505050565b5f602082840312156139d6575f80fd5b813567ffffffffffffffff8111156139ec575f80fd5b8201601f810184136139fc575f80fd5b610d508482356020840161394d565b5f5b83811015613a25578181015183820152602001613a0d565b50505f910152565b5f8151808452613a44816020860160208601613a0b565b601f017fffffffffffffffffffffffffffffffffffffffffffffffffffffffffffffffe0169290920160200192915050565b602081525f6111976020830184613a2d565b5f60208284031215613a98575f80fd5b5035919050565b5f805f60608486031215613ab1575f80fd5b613aba84613842565b9250613ac860208501613842565b9150604084013590509250925092565b5f805f60608486031215613aea575f80fd5b613af384613842565b95602085013595506040909401359392505050565b5f67ffffffffffffffff821115613b2157613b216138d5565b5060051b60200190565b5f82601f830112613b3a575f80fd5b81356020613b4782613b08565b604051613b548282613902565b80915083815260208101915060208460051b870101935086841115613b77575f80fd5b602086015b84811015613b935780358352918301918301613b7c565b509695505050505050565b5f82601f830112613bad575f80fd5b6111978383356020850161394d565b5f805f805f60a08688031215613bd0575f80fd5b613bd986613842565b9450613be760208701613842565b9350604086013567ffffffffffffffff80821115613c03575f80fd5b613c0f89838a01613b2b565b94506060880135915080821115613c24575f80fd5b613c3089838a01613b2b565b93506080880135915080821115613c45575f80fd5b50613c5288828901613b9e565b9150509295509295909350565b5f8060408385031215613c70575f80fd5b823567ffffffffffffffff80821115613c87575f80fd5b818501915085601f830112613c9a575f80fd5b81356020613ca782613b08565b604051613cb48282613902565b83815260059390931b8501820192828101915089841115613cd3575f80fd5b948201945b83861015613cf857613ce986613842565b82529482019490820190613cd8565b96505086013592505080821115613d0d575f80fd5b50613d1a85828601613b2b565b9150509250929050565b5f815180845260208085019450602084015f5b83811015613d5357815187529582019590820190600101613d37565b509495945050505050565b602081525f6111976020830184613d24565b8015158114610956575f80fd5b5f8060408385031215613d8e575f80fd5b613d9783613842565b91506020830135613da781613d70565b809150509250929050565b5f60208284031215613dc2575f80fd5b61119782613842565b5f8060408385031215613ddc575f80fd5b613de583613842565b9150613df360208401613842565b90509250929050565b5f805f805f60a08688031215613e10575f80fd5b613e1986613842565b9450613e2760208701613842565b93506040860135925060608601359150608086013567ffffffffffffffff811115613e50575f80fd5b613c5288828901613b9e565b600181811c90821680613e7057607f821691505b602082108103613ea7577f4e487b71000000000000000000000000000000000000000000000000000000005f52602260045260245ffd5b50919050565b601f8211156116b257805f5260205f20601f840160051c81016020851015613ed25750805b601f840160051c820191505b81811015610dc4575f8155600101613ede565b815167ffffffffffffffff811115613f0b57613f0b6138d5565b613f1f81613f198454613e5c565b84613ead565b602080601f831160018114613f71575f8415613f3b5750858301515b7fffffffffffffffffffffffffffffffffffffffffffffffffffffffffffffffff600386901b1c1916600185901b17855561285c565b5f858152602081207fffffffffffffffffffffffffffffffffffffffffffffffffffffffffffffffe08616915b82811015613fbd57888601518255948401946001909101908401613f9e565b5085821015613ff957878501517fffffffffffffffffffffffffffffffffffffffffffffffffffffffffffffffff600388901b60f8161c191681555b5050505050600190811b01905550565b7f4e487b71000000000000000000000000000000000000000000000000000000005f52601160045260245ffd5b8181038181111561077957610779614009565b7f4e487b71000000000000000000000000000000000000000000000000000000005f52603260045260245ffd5b808202811582820484141761077957610779614009565b7f4e487b71000000000000000000000000000000000000000000000000000000005f52601260045260245ffd5b5f826140c8576140c861408d565b500490565b5f81546140d981613e5c565b600182811680156140f1576001811461412457614150565b7fffffffffffffffffffffffffffffffffffffffffffffffffffffffffffffff0084168752821515830287019450614150565b855f526020805f205f5b858110156141475781548a82015290840190820161412e565b50505082870194505b5050505092915050565b5f61416582856140cd565b8351614175818360208801613a0b565b01949350505050565b7f7b226e616d65223a20224d494e4552202300000000000000000000000000000081525f85516141b5816011850160208a01613a0b565b7f222c226465736372697074696f6e223a2200000000000000000000000000000060119184019182015285516141f2816022840160208a01613a0b565b7f222c2265787465726e616c5f75726c223a2268747470733a2f2f6d696e65722e602292909101918201527f6275696c64222c22696d616765223a2200000000000000000000000000000000604282015261425060528201866140cd565b90508351614262818360208801613a0b565b019695505050505050565b7f646174613a6170706c69636174696f6e2f6a736f6e3b757466382c000000000081525f83516142a481601b850160208801613a0b565b7f222c2261747472696275746573223a5b7b2274726169745f74797065223a2243601b918401918201527f6f6c6f72222c2276616c7565223a220000000000000000000000000000000000603b820152835161430781604a840160208801613a0b565b7f227d5d7d00000000000000000000000000000000000000000000000000000000604a9290910191820152604e01949350505050565b8082018082111561077957610779614009565b604081525f6143626040830185613d24565b82810360208401526143748185613d24565b95945050505050565b5f7fffffffffffffffffffffffffffffffffffffffffffffffffffffffffffffffff82036143ad576143ad614009565b5060010190565b5f826143c2576143c261408d565b500690565b5f602082840312156143d7575f80fd5b815161119781613d70565b5f73ffffffffffffffffffffffffffffffffffffffff808816835280871660208401525084604083015283606083015260a0608083015261442660a0830184613a2d565b979650505050505050565b5f60208284031215614441575f80fd5b81516111978161388d565b5f60033d11156144625760045f803e505f5160e01c5b90565b5f60443d10156144725790565b6040517ffffffffffffffffffffffffffffffffffffffffffffffffffffffffffffffffc803d016004833e81513d67ffffffffffffffff81602484011181841117156144c057505050505090565b82850191508151818111156144d85750505050505090565b843d87010160208285010111156144f25750505050505090565b61450160208286010187613902565b509095945050505050565b5f73ffffffffffffffffffffffffffffffffffffffff80871683528086166020840152508360408301526080606083015261454a6080830184613a2d565b9695505050505050565b5f73ffffffffffffffffffffffffffffffffffffffff808816835280871660208401525060a0604083015261458c60a0830186613d24565b828103606084015261459e8186613d24565b905082810360808401526145b28185613a2d565b9897505050505050505056fe456e747279206c6576656c204e46547320706f776572656420627920455243313135352e205468652073696c766572204e46547320617265206d696e6564206279206173706972696e6720636f6c6c6563746f727320616e64206d65746963756c6f75736c79206372616674656420666f72206163636573736962696c6974792e526566696e6564204e46547320706f776572656420627920455243313135352e205468652073696c766572204e46547320617265206d696e656420627920736561736f6e656420656e7468757369617374732c20616464696e6720616e206578747261206c61796572206f6620736f706869737469636174696f6e20746f20796f757220706f7274666f6c696f2e4c6567656e64617279204e46547320706f776572656420627920455243313135352e20546865204469616d6f6e64204e46547320617265206d65746963756c6f75736c79206d696e656420627920696e64757374727920656c6974657320616e642063726166746564207769746820756e706172616c6c656c656420707265636973696f6e2c20726570726573656e74696e6720746865207a656e697468206f66206c757875727920616e64206469676974616c2061727469737472792e50726573746967696f7573204e46547320706f776572656420627920455243313135352e2054686520676f6c64204e46547320617265206361726566756c6c79206d696e65642062792065787065727420636f6c6c6563746f727320616e64206d65746963756c6f75736c792063726166746564207769746820676f6c64656e20657863656c6c656e63652c2073796d626f6c697a696e67207468652070696e6e61636c65206f66206469676974616c2072617269747920616e64206578636c757369766974792ea2646970667358221220c6d42a0d11d5d3e572d35301087497d8a15032732e040073e6bc004b364d94ac64736f6c63430008180033","linkReferences":{}},"methodIdentifiers":{"allowance(address,address)":"dd62ed3e","approve(address,uint256)":"095ea7b3","balanceOf(address)":"70a08231","balanceOf(address,uint256)":"00fdd58e","balanceOf(address,uint256,uint256)":"2d760d57","balanceOfBatch(address[],uint256[])":"4e1273f4","baseTokenURI()":"d547cfb7","dataURI()":"f28ca1dd","decimalFactor()":"6d6a6a4d","decimals()":"313ce567","easyLaunch()":"a014e6e2","getApproved(uint256)":"081812fc","isApprovedForAll(address,address)":"e985e9c5","isOwnerOf(address,uint256)":"c5b8f772","maxWallet()":"f8b45b05","name()":"06fdde03","owner()":"8da5cb5b","renounceOwnership()":"715018a6","safeBatchTransferFrom(address,address,uint256[],uint256[],bytes)":"2eb2c2d6","safeTransferFrom(address,address,uint256,uint256,bytes)":"f242432a","setApprovalForAll(address,bool)":"a22cb465","setDataURI(string)":"18d217c3","setMaxWallet(uint256)":"5d0044ca","setTokenURI(string)":"e0df5b6f","setURI(string)":"02fe5305","setWhitelist(address,bool)":"53d6fd59","supportsInterface(bytes4)":"01ffc9a7","symbol()":"95d89b41","toggleDelay()":"4eabf2c6","tokenURI(uint256)":"c87b56dd","tokensOfOwner(address)":"8462151c","tokensOfOwnerIn(address,uint256,uint256)":"99a2557a","tokensPerNFT()":"5afcc2f5","totalSupply()":"18160ddd","transfer(address,uint256)":"a9059cbb","transferDelay()":"0a702e8d","transferFrom(address,address,uint256)":"23b872dd","transferOwnership(address)":"f2fde38b","uri(uint256)":"0e89341c","whitelist(address)":"9b19251a"},"storageLayout":{"storage":[{"astId":27,"contract":"src/Contract.sol:ERC_X","label":"_owner","offset":0,"slot":"0","type":"t_address"},{"astId":1614,"contract":"src/Contract.sol:ERC_X","label":"_owned","offset":0,"slot":"1","type":"t_mapping(t_address,t_struct(Bitmap)1288_storage)"},{"astId":1620,"contract":"src/Contract.sol:ERC_X","label":"_operatorApprovals","offset":0,"slot":"2","type":"t_mapping(t_address,t_mapping(t_address,t_bool))"},{"astId":1622,"contract":"src/Contract.sol:ERC_X","label":"_uri","offset":0,"slot":"3","type":"t_string_storage"},{"astId":1624,"contract":"src/Contract.sol:ERC_X","label":"_currentIndex","offset":0,"slot":"4","type":"t_uint256"},{"astId":1628,"contract":"src/Contract.sol:ERC_X","label":"getApproved","offset":0,"slot":"5","type":"t_mapping(t_uint256,t_address)"},{"astId":1632,"contract":"src/Contract.sol:ERC_X","label":"_balances","offset":0,"slot":"6","type":"t_mapping(t_address,t_uint256)"},{"astId":1638,"contract":"src/Contract.sol:ERC_X","label":"_allowances","offset":0,"slot":"7","type":"t_mapping(t_address,t_mapping(t_address,t_uint256))"},{"astId":1640,"contract":"src/Contract.sol:ERC_X","label":"name","offset":0,"slot":"8","type":"t_string_storage"},{"astId":1642,"contract":"src/Contract.sol:ERC_X","label":"symbol","offset":0,"slot":"9","type":"t_string_storage"},{"astId":1654,"contract":"src/Contract.sol:ERC_X","label":"whitelist","offset":0,"slot":"10","type":"t_mapping(t_address,t_bool)"},{"astId":1657,"contract":"src/Contract.sol:ERC_X","label":"easyLaunch","offset":0,"slot":"11","type":"t_uint256"},{"astId":3912,"contract":"src/Contract.sol:ERC_X","label":"dataURI","offset":0,"slot":"12","type":"t_string_storage"},{"astId":3914,"contract":"src/Contract.sol:ERC_X","label":"baseTokenURI","offset":0,"slot":"13","type":"t_string_storage"},{"astId":3931,"contract":"src/Contract.sol:ERC_X","label":"maxWallet","offset":0,"slot":"14","type":"t_uint256"},{"astId":3934,"contract":"src/Contract.sol:ERC_X","label":"transferDelay","offset":0,"slot":"15","type":"t_bool"},{"astId":3938,"contract":"src/Contract.sol:ERC_X","label":"delayTimer","offset":0,"slot":"16","type":"t_mapping(t_address,t_uint256)"}],"types":{"t_address":{"encoding":"inplace","label":"address","numberOfBytes":"20"},"t_bool":{"encoding":"inplace","label":"bool","numberOfBytes":"1"},"t_mapping(t_address,t_bool)":{"encoding":"mapping","key":"t_address","label":"mapping(address => bool)","numberOfBytes":"32","value":"t_bool"},"t_mapping(t_address,t_mapping(t_address,t_bool))":{"encoding":"mapping","key":"t_address","label":"mapping(address => mapping(address => bool))","numberOfBytes":"32","value":"t_mapping(t_address,t_bool)"},"t_mapping(t_address,t_mapping(t_address,t_uint256))":{"encoding":"mapping","key":"t_address","label":"mapping(address => mapping(address => uint256))","numberOfBytes":"32","value":"t_mapping(t_address,t_uint256)"},"t_mapping(t_address,t_struct(Bitmap)1288_storage)":{"encoding":"mapping","key":"t_address","label":"mapping(address => struct LibBitmap.Bitmap)","numberOfBytes":"32","value":"t_struct(Bitmap)1288_storage"},"t_mapping(t_address,t_uint256)":{"encoding":"mapping","key":"t_address","label":"mapping(address => uint256)","numberOfBytes":"32","value":"t_uint256"},"t_mapping(t_uint256,t_address)":{"encoding":"mapping","key":"t_uint256","label":"mapping(uint256 => address)","numberOfBytes":"32","value":"t_address"},"t_mapping(t_uint256,t_uint256)":{"encoding":"mapping","key":"t_uint256","label":"mapping(uint256 => uint256)","numberOfBytes":"32","value":"t_uint256"},"t_string_storage":{"encoding":"bytes","label":"string","numberOfBytes":"32"},"t_struct(Bitmap)1288_storage":{"encoding":"inplace","label":"struct LibBitmap.Bitmap","numberOfBytes":"32","members":[{"astId":1287,"contract":"src/Contract.sol:ERC_X","label":"map","offset":0,"slot":"0","type":"t_mapping(t_uint256,t_uint256)"}]},"t_uint256":{"encoding":"inplace","label":"uint256","numberOfBytes":"32"}}},"id":0}