{"abi":[{"type":"constructor","inputs":[{"name":"uri_","type":"string","internalType":"string"},{"name":"_name","type":"string","internalType":"string"},{"name":"_symbol","type":"string","internalType":"string"},{"name":"_decimals","type":"uint8","internalType":"uint8"},{"name":"_totalNativeSupply","type":"uint256","internalType":"uint256"},{"name":"_tokensPerNFT","type":"uint256","internalType":"uint256"}],"stateMutability":"nonpayable"},{"type":"function","name":"allowance","inputs":[{"name":"owner","type":"address","internalType":"address"},{"name":"spender","type":"address","internalType":"address"}],"outputs":[{"name":"","type":"uint256","internalType":"uint256"}],"stateMutability":"view"},{"type":"function","name":"approve","inputs":[{"name":"spender","type":"address","internalType":"address"},{"name":"value","type":"uint256","internalType":"uint256"}],"outputs":[{"name":"","type":"bool","internalType":"bool"}],"stateMutability":"nonpayable"},{"type":"function","name":"balanceOf","inputs":[{"name":"account","type":"address","internalType":"address"},{"name":"id","type":"uint256","internalType":"uint256"}],"outputs":[{"name":"","type":"uint256","internalType":"uint256"}],"stateMutability":"view"},{"type":"function","name":"balanceOf","inputs":[{"name":"owner","type":"address","internalType":"address"},{"name":"start","type":"uint256","internalType":"uint256"},{"name":"stop","type":"uint256","internalType":"uint256"}],"outputs":[{"name":"","type":"uint256","internalType":"uint256"}],"stateMutability":"view"},{"type":"function","name":"balanceOf","inputs":[{"name":"owner","type":"address","internalType":"address"}],"outputs":[{"name":"","type":"uint256","internalType":"uint256"}],"stateMutability":"view"},{"type":"function","name":"balanceOfBatch","inputs":[{"name":"accounts","type":"address[]","internalType":"address[]"},{"name":"ids","type":"uint256[]","internalType":"uint256[]"}],"outputs":[{"name":"","type":"uint256[]","internalType":"uint256[]"}],"stateMutability":"view"},{"type":"function","name":"decimalFactor","inputs":[],"outputs":[{"name":"","type":"uint256","internalType":"uint256"}],"stateMutability":"view"},{"type":"function","name":"decimals","inputs":[],"outputs":[{"name":"","type":"uint8","internalType":"uint8"}],"stateMutability":"view"},{"type":"function","name":"easyLaunch","inputs":[],"outputs":[{"name":"","type":"uint256","internalType":"uint256"}],"stateMutability":"view"},{"type":"function","name":"getApproved","inputs":[{"name":"","type":"uint256","internalType":"uint256"}],"outputs":[{"name":"","type":"address","internalType":"address"}],"stateMutability":"view"},{"type":"function","name":"isApprovedForAll","inputs":[{"name":"account","type":"address","internalType":"address"},{"name":"operator","type":"address","internalType":"address"}],"outputs":[{"name":"","type":"bool","internalType":"bool"}],"stateMutability":"view"},{"type":"function","name":"isOwnerOf","inputs":[{"name":"account","type":"address","internalType":"address"},{"name":"id","type":"uint256","internalType":"uint256"}],"outputs":[{"name":"","type":"bool","internalType":"bool"}],"stateMutability":"view"},{"type":"function","name":"name","inputs":[],"outputs":[{"name":"","type":"string","internalType":"string"}],"stateMutability":"view"},{"type":"function","name":"owner","inputs":[],"outputs":[{"name":"","type":"address","internalType":"address"}],"stateMutability":"view"},{"type":"function","name":"renounceOwnership","inputs":[],"outputs":[],"stateMutability":"nonpayable"},{"type":"function","name":"safeBatchTransferFrom","inputs":[{"name":"from","type":"address","internalType":"address"},{"name":"to","type":"address","internalType":"address"},{"name":"ids","type":"uint256[]","internalType":"uint256[]"},{"name":"amounts","type":"uint256[]","internalType":"uint256[]"},{"name":"data","type":"bytes","internalType":"bytes"}],"outputs":[],"stateMutability":"nonpayable"},{"type":"function","name":"safeTransferFrom","inputs":[{"name":"from","type":"address","internalType":"address"},{"name":"to","type":"address","internalType":"address"},{"name":"id","type":"uint256","internalType":"uint256"},{"name":"amount","type":"uint256","internalType":"uint256"},{"name":"data","type":"bytes","internalType":"bytes"}],"outputs":[],"stateMutability":"nonpayable"},{"type":"function","name":"setApprovalForAll","inputs":[{"name":"operator","type":"address","internalType":"address"},{"name":"approved","type":"bool","internalType":"bool"}],"outputs":[],"stateMutability":"nonpayable"},{"type":"function","name":"setWhitelist","inputs":[{"name":"target","type":"address","internalType":"address"},{"name":"state","type":"bool","internalType":"bool"}],"outputs":[],"stateMutability":"nonpayable"},{"type":"function","name":"supportsInterface","inputs":[{"name":"interfaceId","type":"bytes4","internalType":"bytes4"}],"outputs":[{"name":"","type":"bool","internalType":"bool"}],"stateMutability":"view"},{"type":"function","name":"symbol","inputs":[],"outputs":[{"name":"","type":"string","internalType":"string"}],"stateMutability":"view"},{"type":"function","name":"tokensOfOwner","inputs":[{"name":"owner","type":"address","internalType":"address"}],"outputs":[{"name":"","type":"uint256[]","internalType":"uint256[]"}],"stateMutability":"view"},{"type":"function","name":"tokensOfOwnerIn","inputs":[{"name":"owner","type":"address","internalType":"address"},{"name":"start","type":"uint256","internalType":"uint256"},{"name":"stop","type":"uint256","internalType":"uint256"}],"outputs":[{"name":"","type":"uint256[]","internalType":"uint256[]"}],"stateMutability":"view"},{"type":"function","name":"tokensPerNFT","inputs":[],"outputs":[{"name":"","type":"uint256","internalType":"uint256"}],"stateMutability":"view"},{"type":"function","name":"totalSupply","inputs":[],"outputs":[{"name":"","type":"uint256","internalType":"uint256"}],"stateMutability":"view"},{"type":"function","name":"transfer","inputs":[{"name":"to","type":"address","internalType":"address"},{"name":"value","type":"uint256","internalType":"uint256"}],"outputs":[{"name":"","type":"bool","internalType":"bool"}],"stateMutability":"nonpayable"},{"type":"function","name":"transferFrom","inputs":[{"name":"from","type":"address","internalType":"address"},{"name":"to","type":"address","internalType":"address"},{"name":"value","type":"uint256","internalType":"uint256"}],"outputs":[{"name":"","type":"bool","internalType":"bool"}],"stateMutability":"nonpayable"},{"type":"function","name":"transferOwnership","inputs":[{"name":"newOwner","type":"address","internalType":"address"}],"outputs":[],"stateMutability":"nonpayable"},{"type":"function","name":"uri","inputs":[{"name":"","type":"uint256","internalType":"uint256"}],"outputs":[{"name":"","type":"string","internalType":"string"}],"stateMutability":"view"},{"type":"function","name":"whitelist","inputs":[{"name":"","type":"address","internalType":"address"}],"outputs":[{"name":"","type":"bool","internalType":"bool"}],"stateMutability":"view"},{"type":"event","name":"Approval","inputs":[{"name":"owner","type":"address","indexed":true,"internalType":"address"},{"name":"spender","type":"address","indexed":true,"internalType":"address"},{"name":"value","type":"uint256","indexed":false,"internalType":"uint256"}],"anonymous":false},{"type":"event","name":"ApprovalForAll","inputs":[{"name":"account","type":"address","indexed":true,"internalType":"address"},{"name":"operator","type":"address","indexed":true,"internalType":"address"},{"name":"approved","type":"bool","indexed":false,"internalType":"bool"}],"anonymous":false},{"type":"event","name":"OwnershipTransferred","inputs":[{"name":"previousOwner","type":"address","indexed":true,"internalType":"address"},{"name":"newOwner","type":"address","indexed":true,"internalType":"address"}],"anonymous":false},{"type":"event","name":"Transfer","inputs":[{"name":"from","type":"address","indexed":true,"internalType":"address"},{"name":"to","type":"address","indexed":true,"internalType":"address"},{"name":"value","type":"uint256","indexed":false,"internalType":"uint256"}],"anonymous":false},{"type":"event","name":"TransferBatch","inputs":[{"name":"operator","type":"address","indexed":true,"internalType":"address"},{"name":"from","type":"address","indexed":true,"internalType":"address"},{"name":"to","type":"address","indexed":true,"internalType":"address"},{"name":"ids","type":"uint256[]","indexed":false,"internalType":"uint256[]"},{"name":"values","type":"uint256[]","indexed":false,"internalType":"uint256[]"}],"anonymous":false},{"type":"event","name":"TransferSingle","inputs":[{"name":"operator","type":"address","indexed":true,"internalType":"address"},{"name":"from","type":"address","indexed":true,"internalType":"address"},{"name":"to","type":"address","indexed":true,"internalType":"address"},{"name":"id","type":"uint256","indexed":false,"internalType":"uint256"},{"name":"value","type":"uint256","indexed":false,"internalType":"uint256"}],"anonymous":false},{"type":"event","name":"URI","inputs":[{"name":"value","type":"string","indexed":false,"internalType":"string"},{"name":"id","type":"uint256","indexed":true,"internalType":"uint256"}],"anonymous":false},{"type":"error","name":"ApprovalCallerNotOwnerNorApproved","inputs":[]},{"type":"error","name":"BalanceQueryForZeroAddress","inputs":[]},{"type":"error","name":"BurnFromNonOnwerAddress","inputs":[]},{"type":"error","name":"BurnFromZeroAddress","inputs":[]},{"type":"error","name":"ERC20InsufficientAllowance","inputs":[{"name":"spender","type":"address","internalType":"address"},{"name":"allowance","type":"uint256","internalType":"uint256"},{"name":"needed","type":"uint256","internalType":"uint256"}]},{"type":"error","name":"ERC20InsufficientBalance","inputs":[{"name":"sender","type":"address","internalType":"address"},{"name":"balance","type":"uint256","internalType":"uint256"},{"name":"needed","type":"uint256","internalType":"uint256"}]},{"type":"error","name":"ERC20InvalidApprover","inputs":[{"name":"approver","type":"address","internalType":"address"}]},{"type":"error","name":"ERC20InvalidReceiver","inputs":[{"name":"receiver","type":"address","internalType":"address"}]},{"type":"error","name":"ERC20InvalidSender","inputs":[{"name":"sender","type":"address","internalType":"address"}]},{"type":"error","name":"ERC20InvalidSpender","inputs":[{"name":"spender","type":"address","internalType":"address"}]},{"type":"error","name":"InputLengthMistmatch","inputs":[]},{"type":"error","name":"InvalidQueryRange","inputs":[]},{"type":"error","name":"MintToZeroAddress","inputs":[]},{"type":"error","name":"MintZeroQuantity","inputs":[]},{"type":"error","name":"OwnableInvalidOwner","inputs":[{"name":"owner","type":"address","internalType":"address"}]},{"type":"error","name":"OwnableUnauthorizedAccount","inputs":[{"name":"account","type":"address","internalType":"address"}]},{"type":"error","name":"TransferCallerNotOwnerNorApproved","inputs":[]},{"type":"error","name":"TransferFromIncorrectOwnerOrInvalidAmount","inputs":[]},{"type":"error","name":"TransferToNonERC1155ReceiverImplementer","inputs":[]},{"type":"error","name":"TransferToNonERC721ReceiverImplementer","inputs":[]},{"type":"error","name":"TransferToZeroAddress","inputs":[]}],"bytecode":{"object":"0x6101006040526001600b5534801562000016575f80fd5b5060405162003dfe38038062003dfe83398101604081905262000039916200025e565b33806200005f57604051631e4fbdf760e01b81525f600482015260240160405180910390fd5b6200006a816200013c565b5062000076866200018b565b600160045560086200008986826200039f565b5060096200009885826200039f565b5060ff83166080819052620000af90600a6200057a565b60c0819052620000c0908262000591565b60e05260c051620000d2908362000591565b60a0819052335f818152600a60209081526040808320805460ff191660011790556006825280832085905551938452919290917fddf252ad1be2c89b69c2b068fc378daa952ba7f163c4a11628f55a4df523b3ef910160405180910390a3505050505050620005ab565b5f80546001600160a01b038381166001600160a01b0319831681178455604051919092169283917f8be0079c531659141344cd1fd0a4f28419497f9722a3daafe3b4186f6b6457e09190a35050565b60036200019982826200039f565b5050565b634e487b7160e01b5f52604160045260245ffd5b5f82601f830112620001c1575f80fd5b81516001600160401b0380821115620001de57620001de6200019d565b604051601f8301601f19908116603f011681019082821181831017156200020957620002096200019d565b816040528381526020925086602085880101111562000226575f80fd5b5f91505b838210156200024957858201830151818301840152908201906200022a565b5f602085830101528094505050505092915050565b5f805f805f8060c0878903121562000274575f80fd5b86516001600160401b03808211156200028b575f80fd5b620002998a838b01620001b1565b97506020890151915080821115620002af575f80fd5b620002bd8a838b01620001b1565b96506040890151915080821115620002d3575f80fd5b50620002e289828a01620001b1565b945050606087015160ff81168114620002f9575f80fd5b809350506080870151915060a087015190509295509295509295565b600181811c908216806200032a57607f821691505b6020821081036200034957634e487b7160e01b5f52602260045260245ffd5b50919050565b601f8211156200039a57805f5260205f20601f840160051c81016020851015620003765750805b601f840160051c820191505b8181101562000397575f815560010162000382565b50505b505050565b81516001600160401b03811115620003bb57620003bb6200019d565b620003d381620003cc845462000315565b846200034f565b602080601f83116001811462000409575f8415620003f15750858301515b5f19600386901b1c1916600185901b17855562000463565b5f85815260208120601f198616915b82811015620004395788860151825594840194600190910190840162000418565b50858210156200045757878501515f19600388901b60f8161c191681555b505060018460011b0185555b505050505050565b634e487b7160e01b5f52601160045260245ffd5b600181815b80851115620004bf57815f1904821115620004a357620004a36200046b565b80851615620004b157918102915b93841c939080029062000484565b509250929050565b5f82620004d75750600162000574565b81620004e557505f62000574565b8160018114620004fe5760028114620005095762000529565b600191505062000574565b60ff8411156200051d576200051d6200046b565b50506001821b62000574565b5060208310610133831016604e8410600b84101617156200054e575081810a62000574565b6200055a83836200047f565b805f19048211156200057057620005706200046b565b0290505b92915050565b5f6200058a60ff841683620004c7565b9392505050565b80820281158282048414176200057457620005746200046b565b60805160a05160c05160e0516137ee620006105f395f818161038501528181610b6a015281816112b70152818161193a01528181611f5a01528181611f920152818161209701526120be01525f6103ac01525f6102b701525f61031901526137ee5ff3fe608060405234801561000f575f80fd5b50600436106101d0575f3560e01c806370a08231116100fe578063a014e6e21161009e578063dd62ed3e1161006e578063dd62ed3e146104ba578063e985e9c5146104ff578063f242432a14610547578063f2fde38b1461055a575f80fd5b8063a014e6e214610478578063a22cb46514610481578063a9059cbb14610494578063c5b8f772146104a7575f80fd5b80638da5cb5b116100d95780638da5cb5b1461041e57806395d89b411461043b57806399a2557a146104435780639b19251a14610456575f80fd5b806370a08231146103ce578063715018a6146104035780638462151c1461040b575f80fd5b806323b872dd116101745780634e1273f4116101445780634e1273f41461034d57806353d6fd591461036d5780635afcc2f5146103805780636d6a6a4d146103a7575f80fd5b806323b872dd146102d95780632d760d57146102ec5780632eb2c2d6146102ff578063313ce56714610314575f80fd5b8063081812fc116101af578063081812fc14610232578063095ea7b31461028c5780630e89341c1461029f57806318160ddd146102b2575f80fd5b8062fdd58e146101d457806301ffc9a7146101fa57806306fdde031461021d575b5f80fd5b6101e76101e2366004612ed5565b61056d565b6040519081526020015b60405180910390f35b61020d610208366004612f2a565b61060c565b60405190151581526020016101f1565b6102256107d2565b6040516101f19190612fa6565b610267610240366004612fb8565b60056020525f908152604090205473ffffffffffffffffffffffffffffffffffffffff1681565b60405173ffffffffffffffffffffffffffffffffffffffff90911681526020016101f1565b61020d61029a366004612ed5565b61085e565b6102256102ad366004612fb8565b610979565b6101e77f000000000000000000000000000000000000000000000000000000000000000081565b61020d6102e7366004612fcf565b610a0b565b6101e76102fa366004613008565b610bfe565b61031261030d3660046131d4565b610c40565b005b61033b7f000000000000000000000000000000000000000000000000000000000000000081565b60405160ff90911681526020016101f1565b61036061035b366004613277565b610cb3565b6040516101f19190613376565b61031261037b366004613395565b610dab565b6101e77f000000000000000000000000000000000000000000000000000000000000000081565b6101e77f000000000000000000000000000000000000000000000000000000000000000081565b6101e76103dc3660046133ca565b73ffffffffffffffffffffffffffffffffffffffff165f9081526006602052604090205490565b610312610e08565b6103606104193660046133ca565b610e1b565b5f5473ffffffffffffffffffffffffffffffffffffffff16610267565b610225610e4c565b610360610451366004613008565b610e59565b61020d6104643660046133ca565b600a6020525f908152604090205460ff1681565b6101e7600b5481565b61031261048f366004613395565b610fac565b61020d6104a2366004612ed5565b610fbb565b61020d6104b5366004612ed5565b610fca565b6101e76104c83660046133e3565b73ffffffffffffffffffffffffffffffffffffffff9182165f90815260076020908152604080832093909416825291909152205490565b61020d61050d3660046133e3565b73ffffffffffffffffffffffffffffffffffffffff9182165f90815260026020908152604080832093909416825291909152205460ff1690565b610312610555366004613414565b61100c565b6103126105683660046133ca565b611080565b5f73ffffffffffffffffffffffffffffffffffffffff83166105bb576040517f8f4eb60400000000000000000000000000000000000000000000000000000000815260040160405180910390fd5b73ffffffffffffffffffffffffffffffffffffffff83165f908152600160208181526040808420600887901c85529091529091205460ff84161c161561060357506001610606565b505f5b92915050565b5f7fffffffff0000000000000000000000000000000000000000000000000000000082167fd9b67a2600000000000000000000000000000000000000000000000000000000148061069e57507fffffffff0000000000000000000000000000000000000000000000000000000082167f0e89341c00000000000000000000000000000000000000000000000000000000145b806106ea57507fffffffff0000000000000000000000000000000000000000000000000000000082167fc5b8f77200000000000000000000000000000000000000000000000000000000145b8061073657507f80ac58cd000000000000000000000000000000000000000000000000000000007fffffffff000000000000000000000000000000000000000000000000000000008316145b8061078257507f5b5e139f000000000000000000000000000000000000000000000000000000007fffffffff000000000000000000000000000000000000000000000000000000008316145b8061060657507f01ffc9a7000000000000000000000000000000000000000000000000000000007fffffffff00000000000000000000000000000000000000000000000000000000831614610606565b600880546107df90613474565b80601f016020809104026020016040519081016040528092919081815260200182805461080b90613474565b80156108565780601f1061082d57610100808354040283529160200191610856565b820191905f5260205f20905b81548152906001019060200180831161083957829003601f168201915b505050505081565b5f3361086960045490565b8310801561087657505f83115b15610964576108858184610fca565b6108d8576040517f96c6fd1e00000000000000000000000000000000000000000000000000000000815273ffffffffffffffffffffffffffffffffffffffff821660048201526024015b60405180910390fd5b5f8381526005602090815260409182902080547fffffffffffffffffffffffff00000000000000000000000000000000000000001673ffffffffffffffffffffffffffffffffffffffff8881169182179092559251868152908416917f8c5be1e5ebec7d5bd14f71427d1e84f3dd0314c0f7b2291e5b200ac8c7c3b925910160405180910390a361096f565b61096f8185856110e3565b5060019392505050565b60606003805461098890613474565b80601f01602080910402602001604051908101604052809291908181526020018280546109b490613474565b80156109ff5780601f106109d6576101008083540402835291602001916109ff565b820191905f5260205f20905b8154815290600101906020018083116109e257829003601f168201915b50505050509050919050565b5f610a1560045490565b821015610be65773ffffffffffffffffffffffffffffffffffffffff84165f908152600160208181526040808420600887901c85529091529091205460ff84161c16610aa5576040517f94280d6200000000000000000000000000000000000000000000000000000000815273ffffffffffffffffffffffffffffffffffffffff851660048201526024016108cf565b3373ffffffffffffffffffffffffffffffffffffffff851614801590610afb575073ffffffffffffffffffffffffffffffffffffffff84165f90815260026020908152604080832033845290915290205460ff16155b8015610b2a57505f8281526005602052604090205473ffffffffffffffffffffffffffffffffffffffff163314155b15610b63576040517f94280d620000000000000000000000000000000000000000000000000000000081523360048201526024016108cf565b610b8f84847f00000000000000000000000000000000000000000000000000000000000000005f6110f5565b5f82815260056020908152604080832080547fffffffffffffffffffffffff000000000000000000000000000000000000000016905580519182019052818152610be1918691869186916001916111a5565b61096f565b610bf18433846113fc565b61096f84848460016110f5565b5f610c3883610c0d81856134f2565b73ffffffffffffffffffffffffffffffffffffffff87165f90815260016020526040902091906114c3565b949350505050565b73ffffffffffffffffffffffffffffffffffffffff8516331480610c695750610c69853361050d565b610c9f576040517f59c896be00000000000000000000000000000000000000000000000000000000815260040160405180910390fd5b610cac85858585856117ac565b5050505050565b60608151835114610cf0576040517f7801f4e900000000000000000000000000000000000000000000000000000000815260040160405180910390fd5b5f835167ffffffffffffffff811115610d0b57610d0b613038565b604051908082528060200260200182016040528015610d34578160200160208202803683370190505b5090505f5b8451811015610da357610d7e858281518110610d5757610d57613505565b6020026020010151858381518110610d7157610d71613505565b602002602001015161056d565b828281518110610d9057610d90613505565b6020908102919091010152600101610d39565b509392505050565b610db3611ab0565b73ffffffffffffffffffffffffffffffffffffffff919091165f908152600a6020526040902080547fffffffffffffffffffffffffffffffffffffffffffffffffffffffffffffff0016911515919091179055565b610e10611ab0565b610e195f611b02565b565b6060610e25611b76565b5f03610e3e575050604080515f81526020810190915290565b610606826001600454610e59565b600980546107df90613474565b6060818310610e94576040517f32c1995a00000000000000000000000000000000000000000000000000000000815260040160405180910390fd5b6001831015610ea257600192505b5f610eac60045490565b905080831115610eba578092505b5f83851015610ed557610ece868686610bfe565b9050610ed8565b505f5b5f8167ffffffffffffffff811115610ef257610ef2613038565b604051908082528060200260200182016040528015610f1b578160200160208202803683370190505b5073ffffffffffffffffffffffffffffffffffffffff88165f90815260016020526040812091925087905b848114610f9e57600882901c5f9081526020849052604090205460ff83161c60011615610f935781848280600101935081518110610f8657610f86613505565b6020026020010181815250505b816001019150610f46565b509198975050505050505050565b610fb7338383611b8b565b5050565b5f3361096f81858560016110f5565b73ffffffffffffffffffffffffffffffffffffffff82165f908152600160208181526040808420600886901c855290915282205460ff84161c165b9392505050565b73ffffffffffffffffffffffffffffffffffffffff85163314806110355750611035853361050d565b1561104e57611049858585858560016111a5565b610cac565b6040517f59c896be00000000000000000000000000000000000000000000000000000000815260040160405180910390fd5b611088611ab0565b73ffffffffffffffffffffffffffffffffffffffff81166110d7576040517f1e4fbdf70000000000000000000000000000000000000000000000000000000081525f60048201526024016108cf565b6110e081611b02565b50565b6110f08383836001611cdd565b505050565b73ffffffffffffffffffffffffffffffffffffffff8416611144576040517f96c6fd1e0000000000000000000000000000000000000000000000000000000081525f60048201526024016108cf565b73ffffffffffffffffffffffffffffffffffffffff8316611193576040517fec442f050000000000000000000000000000000000000000000000000000000081525f60048201526024016108cf565b61119f84848484611e22565b50505050565b73ffffffffffffffffffffffffffffffffffffffff85166111f2576040517fea553b3400000000000000000000000000000000000000000000000000000000815260040160405180910390fd5b335f6111fd86612119565b9050846001148015611246575073ffffffffffffffffffffffffffffffffffffffff88165f90815260016020818152604080842060088b901c85529091529091205460ff88161c165b156112e15773ffffffffffffffffffffffffffffffffffffffff8881165f90815260016020818152604080842060088c901c808652908352818520805460ff8e1686901b8019909116909155958d168552928252808420928452919052812080549092179091556112dc90899089907f0000000000000000000000000000000000000000000000000000000000000000906110f5565b611313565b6040517f37dbad3d00000000000000000000000000000000000000000000000000000000815260040160405180910390fd5b73ffffffffffffffffffffffffffffffffffffffff8781169089168682827fddf252ad1be2c89b69c2b068fc378daa952ba7f163c4a11628f55a4df523b3ef5f80a48873ffffffffffffffffffffffffffffffffffffffff168a73ffffffffffffffffffffffffffffffffffffffff168573ffffffffffffffffffffffffffffffffffffffff167fc3d58168c5ae7397731d063d5bbf3d657854427343f4c083240f7aacaa2d0f628b8b6040516113d4929190918252602082015260400190565b60405180910390a484156113f0576113f0848b8b8b8b8b61215f565b50505050505050505050565b73ffffffffffffffffffffffffffffffffffffffff8381165f908152600760209081526040808320938616835292905220547fffffffffffffffffffffffffffffffffffffffffffffffffffffffffffffffff811461119f57818110156114b5576040517ffb8f41b200000000000000000000000000000000000000000000000000000000815273ffffffffffffffffffffffffffffffffffffffff8416600482015260248101829052604481018390526064016108cf565b61119f84848484035f611cdd565b5f600883901c60ff8416610101848201106116bb575f828152602087905260409020547f0f0f0f0f0f0f0f0f0f0f0f0f0f0f0f0f0f0f0f0f0f0f0f0f0f0f0f0f0f0f0f0f7f555555555555555555555555555555555555555555555555555555555555555591831c600181901c929092168203600281901c7f3333333333333333333333333333333333333333333333333333333333333333908116911601600481901c01167f01010101010101010101010101010101010101010101010101010101010101010260f81c7fffffffffffffffffffffffffffffffffffffffffffffffffffffffffffffffff90911460081b17930160ff811693925060018201915f9160081c015b8083146116b9575f838152602088905260409020547f0f0f0f0f0f0f0f0f0f0f0f0f0f0f0f0f0f0f0f0f0f0f0f0f0f0f0f0f0f0f0f0f7f5555555555555555555555555555555555555555555555555555555555555555600183901c168203600281901c7f3333333333333333333333333333333333333333333333333333333333333333908116911601600481901c01167f01010101010101010101010101010101010101010101010101010101010101010260f81c7fffffffffffffffffffffffffffffffffffffffffffffffffffffffffffffffff90911460081b17840193508260010192506115cb565b505b5f828152602087905260409020547f0f0f0f0f0f0f0f0f0f0f0f0f0f0f0f0f0f0f0f0f0f0f0f0f0f0f0f0f0f0f0f0f7f555555555555555555555555555555555555555555555555555555555555555591831c6101008790031b600181901c929092168203600281901c7f3333333333333333333333333333333333333333333333333333333333333333908116911601600481901c01167f01010101010101010101010101010101010101010101010101010101010101010260f81c7fffffffffffffffffffffffffffffffffffffffffffffffffffffffffffffffff90911460081b1790920195945050505050565b81518351146117e7576040517f7801f4e900000000000000000000000000000000000000000000000000000000815260040160405180910390fd5b73ffffffffffffffffffffffffffffffffffffffff8416611834576040517fea553b3400000000000000000000000000000000000000000000000000000000815260040160405180910390fd5b335f5b8451811015611930575f85828151811061185357611853613505565b602002602001015190505f85838151811061187057611870613505565b602002602001015190508060011480156118c1575073ffffffffffffffffffffffffffffffffffffffff89165f908152600160208181526040808420600887901c85529091529091205460ff84161c165b156112e1575073ffffffffffffffffffffffffffffffffffffffff8881165f908152600160208181526040808420600887901c808652908352818520805460ff90981685901b80199098169055948c168452828252808420948452939052919020805490921790915501611837565b50611969868686517f00000000000000000000000000000000000000000000000000000000000000006119639190613532565b5f6110f5565b5f805f8651600161197a9190613549565b905073ffffffffffffffffffffffffffffffffffffffff8916915073ffffffffffffffffffffffffffffffffffffffff88169250602087015183837fddf252ad1be2c89b69c2b068fc378daa952ba7f163c4a11628f55a4df523b3ef5f80a460025b818114611a18578060200288015184847fddf252ad1be2c89b69c2b068fc378daa952ba7f163c4a11628f55a4df523b3ef5f80a46001016119dc565b508773ffffffffffffffffffffffffffffffffffffffff168973ffffffffffffffffffffffffffffffffffffffff168573ffffffffffffffffffffffffffffffffffffffff167f4a39dc06d4c0dbc64b70af90fd698a233a518aa5d07e595d983b8c0526c8f7fb8a8a604051611a8f92919061355c565b60405180910390a4611aa5848a8a8a8a8a61257d565b505050505050505050565b5f5473ffffffffffffffffffffffffffffffffffffffff163314610e19576040517f118cdaa70000000000000000000000000000000000000000000000000000000081523360048201526024016108cf565b5f805473ffffffffffffffffffffffffffffffffffffffff8381167fffffffffffffffffffffffff0000000000000000000000000000000000000000831681178455604051919092169283917f8be0079c531659141344cd1fd0a4f28419497f9722a3daafe3b4186f6b6457e09190a35050565b5f6001600454611b8691906134f2565b905090565b8173ffffffffffffffffffffffffffffffffffffffff168373ffffffffffffffffffffffffffffffffffffffff1603611c46576040517f08c379a000000000000000000000000000000000000000000000000000000000815260206004820152602960248201527f455243313135353a2073657474696e6720617070726f76616c2073746174757360448201527f20666f722073656c66000000000000000000000000000000000000000000000060648201526084016108cf565b73ffffffffffffffffffffffffffffffffffffffff8381165f8181526002602090815260408083209487168084529482529182902080547fffffffffffffffffffffffffffffffffffffffffffffffffffffffffffffff001686151590811790915591519182527f17307eab39ab6107e8899845ad3d59bd9653f200f220920489ca2b5937696c31910160405180910390a3505050565b73ffffffffffffffffffffffffffffffffffffffff8416611d2c576040517fe602df050000000000000000000000000000000000000000000000000000000081525f60048201526024016108cf565b73ffffffffffffffffffffffffffffffffffffffff8316611d7b576040517f94280d620000000000000000000000000000000000000000000000000000000081525f60048201526024016108cf565b73ffffffffffffffffffffffffffffffffffffffff8085165f908152600760209081526040808320938716835292905220829055801561119f578273ffffffffffffffffffffffffffffffffffffffff168473ffffffffffffffffffffffffffffffffffffffff167f8c5be1e5ebec7d5bd14f71427d1e84f3dd0314c0f7b2291e5b200ac8c7c3b92584604051611e1491815260200190565b60405180910390a350505050565b73ffffffffffffffffffffffffffffffffffffffff8085165f9081526006602052604080822054928616825290205483821015611eb1576040517fe450d38c00000000000000000000000000000000000000000000000000000000815273ffffffffffffffffffffffffffffffffffffffff8716600482015260248101839052604481018590526064016108cf565b73ffffffffffffffffffffffffffffffffffffffff8087165f81815260066020526040808220888703905592881680825290839020848801905591517fddf252ad1be2c89b69c2b068fc378daa952ba7f163c4a11628f55a4df523b3ef90611f1c9088815260200190565b60405180910390a382156121115773ffffffffffffffffffffffffffffffffffffffff86165f908152600a602052604090205460ff1680611fd5575f7f0000000000000000000000000000000000000000000000000000000000000000611f8387866134f2565b611f8d9190613589565b611fb77f000000000000000000000000000000000000000000000000000000000000000086613589565b611fc191906134f2565b90508015611fd357611fd388826126d3565b505b73ffffffffffffffffffffffffffffffffffffffff86165f908152600a602052604090205460ff1661210f57600b5460011480156120105750805b801561203557505f5473ffffffffffffffffffffffffffffffffffffffff8881169116145b156120915773ffffffffffffffffffffffffffffffffffffffff86165f908152600a6020526040902080547fffffffffffffffffffffffffffffffffffffffffffffffffffffffffffffff001660011790556002600b5561210f565b5f6120bc7f000000000000000000000000000000000000000000000000000000000000000084613589565b7f00000000000000000000000000000000000000000000000000000000000000006120e78886613549565b6120f19190613589565b6120fb91906134f2565b9050801561210d576113f08782612a30565b505b505b505050505050565b6040805160018082528183019092526060916020808301908036833701905050905081815f8151811061214e5761214e613505565b602002602001018181525050919050565b73ffffffffffffffffffffffffffffffffffffffff84163b15612111576040517f01ffc9a70000000000000000000000000000000000000000000000000000000081527fd9b67a2600000000000000000000000000000000000000000000000000000000600482015273ffffffffffffffffffffffffffffffffffffffff8516906301ffc9a790602401602060405180830381865afa158015612204573d5f803e3d5ffd5b505050506040513d601f19601f8201168201806040525081019061222891906135c1565b156123f3576040517ff23a6e6100000000000000000000000000000000000000000000000000000000815273ffffffffffffffffffffffffffffffffffffffff85169063f23a6e619061228790899089908890889088906004016135dc565b6020604051808303815f875af19250505080156122df575060408051601f3d9081017fffffffffffffffffffffffffffffffffffffffffffffffffffffffffffffffe01682019092526122dc9181019061362b565b60015b612372576122eb613646565b806308c379a00361233e57506122ff61365f565b8061230a5750612340565b806040517f08c379a00000000000000000000000000000000000000000000000000000000081526004016108cf9190612fa6565b505b6040517f9c05499b00000000000000000000000000000000000000000000000000000000815260040160405180910390fd5b7fffffffff0000000000000000000000000000000000000000000000000000000081167ff23a6e6100000000000000000000000000000000000000000000000000000000146123ed576040517f9c05499b00000000000000000000000000000000000000000000000000000000815260040160405180910390fd5b50612111565b6040517f150b7a0200000000000000000000000000000000000000000000000000000000815273ffffffffffffffffffffffffffffffffffffffff85169063150b7a029061244b908990899088908790600401613706565b6020604051808303815f875af19250505080156124a3575060408051601f3d9081017fffffffffffffffffffffffffffffffffffffffffffffffffffffffffffffffe01682019092526124a09181019061362b565b60015b612502576124af613646565b806308c379a0036124ce57506124c361365f565b8061230a57506124d0565b505b6040517fd1a57ed600000000000000000000000000000000000000000000000000000000815260040160405180910390fd5b7fffffffff0000000000000000000000000000000000000000000000000000000081167f150b7a02000000000000000000000000000000000000000000000000000000001461210f576040517fd1a57ed600000000000000000000000000000000000000000000000000000000815260040160405180910390fd5b73ffffffffffffffffffffffffffffffffffffffff84163b15612111576040517fbc197c8100000000000000000000000000000000000000000000000000000000815273ffffffffffffffffffffffffffffffffffffffff85169063bc197c81906125f4908990899088908890889060040161374e565b6020604051808303815f875af192505050801561264c575060408051601f3d9081017fffffffffffffffffffffffffffffffffffffffffffffffffffffffffffffffe01682019092526126499181019061362b565b60015b612658576122eb613646565b7fffffffff0000000000000000000000000000000000000000000000000000000081167fbc197c81000000000000000000000000000000000000000000000000000000001461210f576040517f9c05499b00000000000000000000000000000000000000000000000000000000815260040160405180910390fd5b73ffffffffffffffffffffffffffffffffffffffff8216612720576040517fb817eee700000000000000000000000000000000000000000000000000000000815260040160405180910390fd5b60045433905f8367ffffffffffffffff81111561273f5761273f613038565b604051908082528060200260200182016040528015612768578160200160208202803683370190505b5090505f8467ffffffffffffffff81111561278557612785613038565b6040519080825280602002602001820160405280156127ae578160200160208202803683370190505b5090505f5b858110156128785760018382815181106127cf576127cf613505565b60209081029190910181019190915273ffffffffffffffffffffffffffffffffffffffff88165f90815260019091526040812061280c9086612d2a565b90508083838151811061282157612821613505565b60209081029190910181019190915273ffffffffffffffffffffffffffffffffffffffff89165f90815260018083526040808320600886901c8452909352919020805460ff841683901b19169055909450016127b3565b505f80612886876001613549565b905073ffffffffffffffffffffffffffffffffffffffff8816915060208301515f837fddf252ad1be2c89b69c2b068fc378daa952ba7f163c4a11628f55a4df523b3ef5f80a460025b81811461290b57806020028401515f847fddf252ad1be2c89b69c2b068fc378daa952ba7f163c4a11628f55a4df523b3ef5f80a46001016128cf565b50866001036129ba575f73ffffffffffffffffffffffffffffffffffffffff168873ffffffffffffffffffffffffffffffffffffffff168773ffffffffffffffffffffffffffffffffffffffff167fc3d58168c5ae7397731d063d5bbf3d657854427343f4c083240f7aacaa2d0f62865f8151811061298c5761298c613505565b602002602001015160016040516129ad929190918252602082015260400190565b60405180910390a461210d565b5f73ffffffffffffffffffffffffffffffffffffffff168873ffffffffffffffffffffffffffffffffffffffff168773ffffffffffffffffffffffffffffffffffffffff167f4a39dc06d4c0dbc64b70af90fd698a233a518aa5d07e595d983b8c0526c8f7fb86886040516129ad92919061355c565b60608073ffffffffffffffffffffffffffffffffffffffff8416612a80576040517f2e07630000000000000000000000000000000000000000000000000000000000815260040160405180910390fd5b825f03612ab9576040517fb562e8dd00000000000000000000000000000000000000000000000000000000815260040160405180910390fd5b338367ffffffffffffffff811115612ad357612ad3613038565b604051908082528060200260200182016040528015612afc578160200160208202803683370190505b5092508367ffffffffffffffff811115612b1857612b18613038565b604051908082528060200260200182016040528015612b41578160200160208202803683370190505b5091505f612b4e60045490565b905080857fffffffffffffffffffffffffffffffffffffffffffffffffffffffffffffffff031015612b7e575f80fd5b5f5b85811015612bd057808201858281518110612b9d57612b9d613505565b6020026020010181815250506001848281518110612bbd57612bbd613505565b6020908102919091010152600101612b80565b5073ffffffffffffffffffffffffffffffffffffffff86165f908152600160205260409020612c00908287612e37565b8460045f828254612c119190613549565b909155505f905080612c238784613549565b905073ffffffffffffffffffffffffffffffffffffffff8816915082825f7fddf252ad1be2c89b69c2b068fc378daa952ba7f163c4a11628f55a4df523b3ef5f80a4600183015b818114612ca05780835f7fddf252ad1be2c89b69c2b068fc378daa952ba7f163c4a11628f55a4df523b3ef5f80a4600101612c6a565b508773ffffffffffffffffffffffffffffffffffffffff165f73ffffffffffffffffffffffffffffffffffffffff168573ffffffffffffffffffffffffffffffffffffffff167f4a39dc06d4c0dbc64b70af90fd698a233a518aa5d07e595d983b8c0526c8f7fb8989604051612d1792919061355c565b60405180910390a4505050509250929050565b600881901c5f818152602084905260409020547fffffffffffffffffffffffffffffffffffffffffffffffffffffffffffffffff919060ff84191690811b901c81158117612d89575b5081015f81815260409020548115811715612d73575b8015612e2f57612e20817f0706060506020504060203020504030106050205030304010505030400000000601f6f8421084210842108cc6318c6db6d54be831560081b6fffffffffffffffffffffffffffffffff851160071b1784811c67ffffffffffffffff1060061b1784811c63ffffffff1060051b1784811c61ffff1060041b1784811c60ff1060031b1793841c1c161a1790565b600883901b178481115f031792505b505092915050565b5f1960ff8316846020528360081c5f5261010183820110612e93575f805160408220805485851b1790559390910160ff811693600181019160081c015b808214612e8f57815f528360405f2055600182019150612e74565b505f525b60405f208284610100031c821b8154178155505050505050565b803573ffffffffffffffffffffffffffffffffffffffff81168114612ed0575f80fd5b919050565b5f8060408385031215612ee6575f80fd5b612eef83612ead565b946020939093013593505050565b7fffffffff00000000000000000000000000000000000000000000000000000000811681146110e0575f80fd5b5f60208284031215612f3a575f80fd5b813561100581612efd565b5f81518084525f5b81811015612f6957602081850181015186830182015201612f4d565b505f6020828601015260207fffffffffffffffffffffffffffffffffffffffffffffffffffffffffffffffe0601f83011685010191505092915050565b602081525f6110056020830184612f45565b5f60208284031215612fc8575f80fd5b5035919050565b5f805f60608486031215612fe1575f80fd5b612fea84612ead565b9250612ff860208501612ead565b9150604084013590509250925092565b5f805f6060848603121561301a575f80fd5b61302384612ead565b95602085013595506040909401359392505050565b7f4e487b71000000000000000000000000000000000000000000000000000000005f52604160045260245ffd5b7fffffffffffffffffffffffffffffffffffffffffffffffffffffffffffffffe0601f830116810181811067ffffffffffffffff821117156130a9576130a9613038565b6040525050565b5f67ffffffffffffffff8211156130c9576130c9613038565b5060051b60200190565b5f82601f8301126130e2575f80fd5b813560206130ef826130b0565b6040516130fc8282613065565b80915083815260208101915060208460051b87010193508684111561311f575f80fd5b602086015b8481101561313b5780358352918301918301613124565b509695505050505050565b5f82601f830112613155575f80fd5b813567ffffffffffffffff81111561316f5761316f613038565b6040516131a460207fffffffffffffffffffffffffffffffffffffffffffffffffffffffffffffffe0601f8501160182613065565b8181528460208386010111156131b8575f80fd5b816020850160208301375f918101602001919091529392505050565b5f805f805f60a086880312156131e8575f80fd5b6131f186612ead565b94506131ff60208701612ead565b9350604086013567ffffffffffffffff8082111561321b575f80fd5b61322789838a016130d3565b9450606088013591508082111561323c575f80fd5b61324889838a016130d3565b9350608088013591508082111561325d575f80fd5b5061326a88828901613146565b9150509295509295909350565b5f8060408385031215613288575f80fd5b823567ffffffffffffffff8082111561329f575f80fd5b818501915085601f8301126132b2575f80fd5b813560206132bf826130b0565b6040516132cc8282613065565b83815260059390931b85018201928281019150898411156132eb575f80fd5b948201945b838610156133105761330186612ead565b825294820194908201906132f0565b96505086013592505080821115613325575f80fd5b50613332858286016130d3565b9150509250929050565b5f815180845260208085019450602084015f5b8381101561336b5781518752958201959082019060010161334f565b509495945050505050565b602081525f611005602083018461333c565b80151581146110e0575f80fd5b5f80604083850312156133a6575f80fd5b6133af83612ead565b915060208301356133bf81613388565b809150509250929050565b5f602082840312156133da575f80fd5b61100582612ead565b5f80604083850312156133f4575f80fd5b6133fd83612ead565b915061340b60208401612ead565b90509250929050565b5f805f805f60a08688031215613428575f80fd5b61343186612ead565b945061343f60208701612ead565b93506040860135925060608601359150608086013567ffffffffffffffff811115613468575f80fd5b61326a88828901613146565b600181811c9082168061348857607f821691505b6020821081036134bf577f4e487b71000000000000000000000000000000000000000000000000000000005f52602260045260245ffd5b50919050565b7f4e487b71000000000000000000000000000000000000000000000000000000005f52601160045260245ffd5b81810381811115610606576106066134c5565b7f4e487b71000000000000000000000000000000000000000000000000000000005f52603260045260245ffd5b8082028115828204841417610606576106066134c5565b80820180821115610606576106066134c5565b604081525f61356e604083018561333c565b8281036020840152613580818561333c565b95945050505050565b5f826135bc577f4e487b71000000000000000000000000000000000000000000000000000000005f52601260045260245ffd5b500490565b5f602082840312156135d1575f80fd5b815161100581613388565b5f73ffffffffffffffffffffffffffffffffffffffff808816835280871660208401525084604083015283606083015260a0608083015261362060a0830184612f45565b979650505050505050565b5f6020828403121561363b575f80fd5b815161100581612efd565b5f60033d111561365c5760045f803e505f5160e01c5b90565b5f60443d101561366c5790565b6040517ffffffffffffffffffffffffffffffffffffffffffffffffffffffffffffffffc803d016004833e81513d67ffffffffffffffff81602484011181841117156136ba57505050505090565b82850191508151818111156136d25750505050505090565b843d87010160208285010111156136ec5750505050505090565b6136fb60208286010187613065565b509095945050505050565b5f73ffffffffffffffffffffffffffffffffffffffff8087168352808616602084015250836040830152608060608301526137446080830184612f45565b9695505050505050565b5f73ffffffffffffffffffffffffffffffffffffffff808816835280871660208401525060a0604083015261378660a083018661333c565b8281036060840152613798818661333c565b905082810360808401526137ac8185612f45565b9897505050505050505056fea2646970667358221220015c294e84122afe30c727f828fb2b9aa13af372c82fb6128d46e06de774050464736f6c63430008180033","linkReferences":{}},"methodIdentifiers":{"allowance(address,address)":"dd62ed3e","approve(address,uint256)":"095ea7b3","balanceOf(address)":"70a08231","balanceOf(address,uint256)":"00fdd58e","balanceOf(address,uint256,uint256)":"2d760d57","balanceOfBatch(address[],uint256[])":"4e1273f4","decimalFactor()":"6d6a6a4d","decimals()":"313ce567","easyLaunch()":"a014e6e2","getApproved(uint256)":"081812fc","isApprovedForAll(address,address)":"e985e9c5","isOwnerOf(address,uint256)":"c5b8f772","name()":"06fdde03","owner()":"8da5cb5b","renounceOwnership()":"715018a6","safeBatchTransferFrom(address,address,uint256[],uint256[],bytes)":"2eb2c2d6","safeTransferFrom(address,address,uint256,uint256,bytes)":"f242432a","setApprovalForAll(address,bool)":"a22cb465","setWhitelist(address,bool)":"53d6fd59","supportsInterface(bytes4)":"01ffc9a7","symbol()":"95d89b41","tokensOfOwner(address)":"8462151c","tokensOfOwnerIn(address,uint256,uint256)":"99a2557a","tokensPerNFT()":"5afcc2f5","totalSupply()":"18160ddd","transfer(address,uint256)":"a9059cbb","transferFrom(address,address,uint256)":"23b872dd","transferOwnership(address)":"f2fde38b","uri(uint256)":"0e89341c","whitelist(address)":"9b19251a"},"storageLayout":{"storage":[{"astId":27,"contract":"src/Contract.sol:ERCX","label":"_owner","offset":0,"slot":"0","type":"t_address"},{"astId":1614,"contract":"src/Contract.sol:ERCX","label":"_owned","offset":0,"slot":"1","type":"t_mapping(t_address,t_struct(Bitmap)1288_storage)"},{"astId":1620,"contract":"src/Contract.sol:ERCX","label":"_operatorApprovals","offset":0,"slot":"2","type":"t_mapping(t_address,t_mapping(t_address,t_bool))"},{"astId":1622,"contract":"src/Contract.sol:ERCX","label":"_uri","offset":0,"slot":"3","type":"t_string_storage"},{"astId":1624,"contract":"src/Contract.sol:ERCX","label":"_currentIndex","offset":0,"slot":"4","type":"t_uint256"},{"astId":1628,"contract":"src/Contract.sol:ERCX","label":"getApproved","offset":0,"slot":"5","type":"t_mapping(t_uint256,t_address)"},{"astId":1632,"contract":"src/Contract.sol:ERCX","label":"_balances","offset":0,"slot":"6","type":"t_mapping(t_address,t_uint256)"},{"astId":1638,"contract":"src/Contract.sol:ERCX","label":"_allowances","offset":0,"slot":"7","type":"t_mapping(t_address,t_mapping(t_address,t_uint256))"},{"astId":1640,"contract":"src/Contract.sol:ERCX","label":"name","offset":0,"slot":"8","type":"t_string_storage"},{"astId":1642,"contract":"src/Contract.sol:ERCX","label":"symbol","offset":0,"slot":"9","type":"t_string_storage"},{"astId":1654,"contract":"src/Contract.sol:ERCX","label":"whitelist","offset":0,"slot":"10","type":"t_mapping(t_address,t_bool)"},{"astId":1657,"contract":"src/Contract.sol:ERCX","label":"easyLaunch","offset":0,"slot":"11","type":"t_uint256"}],"types":{"t_address":{"encoding":"inplace","label":"address","numberOfBytes":"20"},"t_bool":{"encoding":"inplace","label":"bool","numberOfBytes":"1"},"t_mapping(t_address,t_bool)":{"encoding":"mapping","key":"t_address","label":"mapping(address => bool)","numberOfBytes":"32","value":"t_bool"},"t_mapping(t_address,t_mapping(t_address,t_bool))":{"encoding":"mapping","key":"t_address","label":"mapping(address => mapping(address => bool))","numberOfBytes":"32","value":"t_mapping(t_address,t_bool)"},"t_mapping(t_address,t_mapping(t_address,t_uint256))":{"encoding":"mapping","key":"t_address","label":"mapping(address => mapping(address => uint256))","numberOfBytes":"32","value":"t_mapping(t_address,t_uint256)"},"t_mapping(t_address,t_struct(Bitmap)1288_storage)":{"encoding":"mapping","key":"t_address","label":"mapping(address => struct LibBitmap.Bitmap)","numberOfBytes":"32","value":"t_struct(Bitmap)1288_storage"},"t_mapping(t_address,t_uint256)":{"encoding":"mapping","key":"t_address","label":"mapping(address => uint256)","numberOfBytes":"32","value":"t_uint256"},"t_mapping(t_uint256,t_address)":{"encoding":"mapping","key":"t_uint256","label":"mapping(uint256 => address)","numberOfBytes":"32","value":"t_address"},"t_mapping(t_uint256,t_uint256)":{"encoding":"mapping","key":"t_uint256","label":"mapping(uint256 => uint256)","numberOfBytes":"32","value":"t_uint256"},"t_string_storage":{"encoding":"bytes","label":"string","numberOfBytes":"32"},"t_struct(Bitmap)1288_storage":{"encoding":"inplace","label":"struct LibBitmap.Bitmap","numberOfBytes":"32","members":[{"astId":1287,"contract":"src/Contract.sol:ERCX","label":"map","offset":0,"slot":"0","type":"t_mapping(t_uint256,t_uint256)"}]},"t_uint256":{"encoding":"inplace","label":"uint256","numberOfBytes":"32"}}},"id":0}