{"abi":[{"type":"function","name":"addExp","inputs":[{"name":"a","type":"uint256","internalType":"uint256"},{"name":"b","type":"uint256","internalType":"uint256"}],"outputs":[{"name":"result","type":"uint256","internalType":"uint256"}],"stateMutability":"pure"},{"type":"function","name":"divExp","inputs":[{"name":"a","type":"uint256","internalType":"uint256"},{"name":"b","type":"uint256","internalType":"uint256"}],"outputs":[{"name":"","type":"uint256","internalType":"uint256"}],"stateMutability":"pure"},{"type":"function","name":"divScalar","inputs":[{"name":"a","type":"uint256","internalType":"uint256"},{"name":"scalar","type":"uint256","internalType":"uint256"}],"outputs":[{"name":"","type":"uint256","internalType":"uint256"}],"stateMutability":"pure"},{"type":"function","name":"divScalarByExp","inputs":[{"name":"scalar","type":"uint256","internalType":"uint256"},{"name":"divisor","type":"uint256","internalType":"uint256"}],"outputs":[{"name":"","type":"uint256","internalType":"uint256"}],"stateMutability":"pure"},{"type":"function","name":"divScalarByExpTruncate","inputs":[{"name":"scalar","type":"uint256","internalType":"uint256"},{"name":"divisor","type":"uint256","internalType":"uint256"}],"outputs":[{"name":"","type":"uint256","internalType":"uint256"}],"stateMutability":"pure"},{"type":"function","name":"getDiv","inputs":[{"name":"num","type":"uint256","internalType":"uint256"},{"name":"denom","type":"uint256","internalType":"uint256"}],"outputs":[{"name":"rational","type":"uint256","internalType":"uint256"}],"stateMutability":"pure"},{"type":"function","name":"getExp","inputs":[{"name":"num","type":"uint256","internalType":"uint256"},{"name":"denom","type":"uint256","internalType":"uint256"}],"outputs":[{"name":"rational","type":"uint256","internalType":"uint256"}],"stateMutability":"pure"},{"type":"function","name":"mulExp","inputs":[{"name":"a","type":"uint256","internalType":"uint256"},{"name":"b","type":"uint256","internalType":"uint256"}],"outputs":[{"name":"","type":"uint256","internalType":"uint256"}],"stateMutability":"pure"},{"type":"function","name":"mulExp3","inputs":[{"name":"a","type":"uint256","internalType":"uint256"},{"name":"b","type":"uint256","internalType":"uint256"},{"name":"c","type":"uint256","internalType":"uint256"}],"outputs":[{"name":"","type":"uint256","internalType":"uint256"}],"stateMutability":"pure"},{"type":"function","name":"mulScalar","inputs":[{"name":"a","type":"uint256","internalType":"uint256"},{"name":"scalar","type":"uint256","internalType":"uint256"}],"outputs":[{"name":"scaled","type":"uint256","internalType":"uint256"}],"stateMutability":"pure"},{"type":"function","name":"mulScalarTruncate","inputs":[{"name":"a","type":"uint256","internalType":"uint256"},{"name":"scalar","type":"uint256","internalType":"uint256"}],"outputs":[{"name":"","type":"uint256","internalType":"uint256"}],"stateMutability":"pure"},{"type":"function","name":"mulScalarTruncateAddUInt","inputs":[{"name":"a","type":"uint256","internalType":"uint256"},{"name":"scalar","type":"uint256","internalType":"uint256"},{"name":"addend","type":"uint256","internalType":"uint256"}],"outputs":[{"name":"","type":"uint256","internalType":"uint256"}],"stateMutability":"pure"},{"type":"function","name":"subExp","inputs":[{"name":"a","type":"uint256","internalType":"uint256"},{"name":"b","type":"uint256","internalType":"uint256"}],"outputs":[{"name":"result","type":"uint256","internalType":"uint256"}],"stateMutability":"pure"},{"type":"function","name":"truncate","inputs":[{"name":"exp","type":"uint256","internalType":"uint256"}],"outputs":[{"name":"","type":"uint256","internalType":"uint256"}],"stateMutability":"pure"}],"bytecode":{"object":"0x608060405234801561001057600080fd5b50610674806100206000396000f3fe608060405234801561001057600080fd5b50600436106100ea5760003560e01c80638de463621161008c578063ba9316b711610066578063ba9316b71461014d578063ce603aad146101bf578063d6079cc6146101d2578063de32abd1146101e5576100ea565b80638de4636214610186578063b4ab15e714610199578063b507f9f9146101ac576100ea565b80634751b79c116100c85780634751b79c1461013a5780635293ff311461014d5780636208fc41146101605780637b94aaac14610173576100ea565b80632985fa31146100ef578063396a98cf146101145780634147da1314610127575b600080fd5b6101026100fd36600461051b565b6101f8565b60405190815260200160405180910390f35b61010261012236600461051b565b61020b565b61010261013536600461051b565b610217565b61010261014836600461051b565b610223565b61010261015b36600461051b565b610235565b61010261016e36600461053c565b610253565b610102610181366004610503565b61027e565b61010261019436600461053c565b610292565b6101026101a736600461051b565b6102af565b6101026101ba36600461051b565b6102c7565b6101026101cd36600461051b565b6102d3565b6101026101e036600461051b565b6102f4565b6101026101f336600461051b565b610301565b6000610204838361033d565b9392505050565b600061020483836103c1565b60006102048383610403565b60006102048383610462565b92915050565b60006102048261024d85670de0b6b3a764000061033d565b90610462565b60008061026085856101f8565b90506102758361026f8361027e565b90610403565b95945050505050565b600061022f82670de0b6b3a7640000610462565b60006102a76102a18585610301565b83610301565b949350505050565b6000806102bc84846101f8565b90506102a78161027e565b60006102048383610235565b6000806102e8670de0b6b3a76400008561033d565b90506102a78184610235565b6000806102bc84846102d3565b60008061030e848461033d565b905060006103298261026f6002670de0b6b3a76400006105d2565b905061027581670de0b6b3a7640000610462565b60008261034c5750600061022f565b600061035883856105f2565b90508261036585836105d2565b146102045760405162461bcd60e51b815260206004820152602160248201527f536166654d6174683a206d756c7469706c69636174696f6e206f766572666c6f6044820152607760f81b60648201526084015b60405180910390fd5b600061020483836040518060400160405280601e81526020017f536166654d6174683a207375627472616374696f6e206f766572666c6f7700008152506104a4565b60008061041083856105ba565b9050838110156102045760405162461bcd60e51b815260206004820152601b60248201527f536166654d6174683a206164646974696f6e206f766572666c6f77000000000060448201526064016103b8565b600061020483836040518060400160405280601a81526020017f536166654d6174683a206469766973696f6e206279207a65726f0000000000008152506104d5565b600081848411156104c85760405162461bcd60e51b81526004016103b89190610567565b5060006102758486610611565b600081836104f65760405162461bcd60e51b81526004016103b89190610567565b50600061027584866105d2565b600060208284031215610514578081fd5b5035919050565b6000806040838503121561052d578081fd5b50508035926020909101359150565b600080600060608486031215610550578081fd5b505081359360208301359350604090920135919050565b6000602080835283518082850152825b8181101561059357858101830151858201604001528201610577565b818111156105a45783604083870101525b50601f01601f1916929092016040019392505050565b600082198211156105cd576105cd610628565b500190565b6000826105ed57634e487b7160e01b81526012600452602481fd5b500490565b600081600019048311821515161561060c5761060c610628565b500290565b60008282101561062357610623610628565b500390565b634e487b7160e01b600052601160045260246000fdfea26469706673582212206e59549adf52f8c72ffd94b19776825d9fda5d692e575b30486ef6636354d9bf64736f6c63430008020033","linkReferences":{}},"methodIdentifiers":{"addExp(uint256,uint256)":"4147da13","divExp(uint256,uint256)":"b507f9f9","divScalar(uint256,uint256)":"4751b79c","divScalarByExp(uint256,uint256)":"ce603aad","divScalarByExpTruncate(uint256,uint256)":"d6079cc6","getDiv(uint256,uint256)":"5293ff31","getExp(uint256,uint256)":"ba9316b7","mulExp(uint256,uint256)":"de32abd1","mulExp3(uint256,uint256,uint256)":"8de46362","mulScalar(uint256,uint256)":"2985fa31","mulScalarTruncate(uint256,uint256)":"b4ab15e7","mulScalarTruncateAddUInt(uint256,uint256,uint256)":"6208fc41","subExp(uint256,uint256)":"396a98cf","truncate(uint256)":"7b94aaac"},"storageLayout":{"storage":[],"types":{}},"id":2}