{"abi":[{"type":"function","name":"RELAY","inputs":[],"outputs":[{"name":"","type":"string","internalType":"string"}],"stateMutability":"view"},{"type":"function","name":"ROLE_MGR","inputs":[],"outputs":[{"name":"","type":"string","internalType":"string"}],"stateMutability":"view"},{"type":"function","name":"SWAP_FAILURE","inputs":[],"outputs":[{"name":"","type":"string","internalType":"string"}],"stateMutability":"view"},{"type":"function","name":"SWAP_SUCCESS","inputs":[],"outputs":[{"name":"","type":"string","internalType":"string"}],"stateMutability":"view"}],"bytecode":{"object":"0x61019a61003a600b82828239805160001a60731461002d57634e487b7160e01b600052600060045260246000fd5b30600052607381538281f3fe73000000000000000000000000000000000000000030146080604052600436106100565760003560e01c8063290d6a7f1461005b57806334bfa7631461009c578063423154c9146100c75780638ac4524f146100eb575b600080fd5b6100866040518060400160405280600c81526020016b535741505f4641494c55524560a01b81525081565b6040516100939190610116565b60405180910390f35b6100866040518060400160405280600c81526020016b535741505f5355434345535360a01b81525081565b6100866040518060400160405280600581526020016452454c415960d81b81525081565b6100866040518060400160405280600c81526020016b2927a622afa6a0a720a3a2a960a11b81525081565b600060208083528351808285015260005b8181101561014357858101830151858201604001528201610127565b506000604082860101526040601f19601f830116850101925050509291505056fea264697066735822122093bd5e16f94cbbad7cbfcc06b6deab2b8b68e9ac3f1322a45660f05f7c8241e464736f6c63430008110033","linkReferences":{}},"methodIdentifiers":{"RELAY()":"423154c9","ROLE_MGR()":"8ac4524f","SWAP_FAILURE()":"290d6a7f","SWAP_SUCCESS()":"34bfa763"},"storageLayout":{"storage":[],"types":{}},"id":11}