{"abi":[{"type":"constructor","inputs":[{"name":"_ef_token","type":"address"}],"stateMutability":"nonpayable"},{"type":"fallback","stateMutability":"payable"},{"type":"function","name":"aave","inputs":[],"outputs":[{"name":"","type":"address"}],"stateMutability":"view"},{"type":"function","name":"asteth","inputs":[],"outputs":[{"name":"","type":"address"}],"stateMutability":"view"},{"type":"function","name":"balancer","inputs":[],"outputs":[{"name":"","type":"address"}],"stateMutability":"view"},{"type":"function","name":"balancer_fee","inputs":[],"outputs":[{"name":"","type":"address"}],"stateMutability":"view"},{"type":"function","name":"block_rate","inputs":[],"outputs":[{"name":"","type":"uint256"}],"stateMutability":"view"},{"type":"function","name":"callWithData","inputs":[{"name":"to","type":"address"},{"name":"data","type":"bytes"},{"name":"amount","type":"uint256"},{"name":"dele","type":"bool"}],"outputs":[],"stateMutability":"payable"},{"type":"function","name":"changeFeeConfig","inputs":[{"name":"_fp","type":"address"},{"name":"_r","type":"uint256"}],"outputs":[],"stateMutability":"nonpayable"},{"type":"function","name":"changeMaxLoanRate","inputs":[{"name":"_new","type":"uint256"}],"outputs":[],"stateMutability":"nonpayable"},{"type":"function","name":"curve_pool","inputs":[],"outputs":[{"name":"","type":"address"}],"stateMutability":"view"},{"type":"function","name":"deposit","inputs":[{"name":"_amount","type":"uint256"}],"outputs":[],"stateMutability":"payable"},{"type":"function","name":"ef_token","inputs":[],"outputs":[{"name":"","type":"address"}],"stateMutability":"view"},{"type":"function","name":"fee_pool","inputs":[],"outputs":[{"name":"","type":"address"}],"stateMutability":"view"},{"type":"function","name":"getCollecteral","inputs":[],"outputs":[{"name":"","type":"uint256"}],"stateMutability":"view"},{"type":"function","name":"getDebt","inputs":[],"outputs":[{"name":"","type":"uint256"}],"stateMutability":"view"},{"type":"function","name":"getFeeParam","inputs":[],"outputs":[{"name":"","type":"uint256"}],"stateMutability":"view"},{"type":"function","name":"getVirtualPrice","inputs":[],"outputs":[{"name":"","type":"uint256"}],"stateMutability":"view"},{"type":"function","name":"getVolume","inputs":[],"outputs":[{"name":"","type":"uint256"}],"stateMutability":"view"},{"type":"function","name":"is_paused","inputs":[],"outputs":[{"name":"","type":"bool"}],"stateMutability":"view"},{"type":"function","name":"last_earn_block","inputs":[],"outputs":[{"name":"","type":"uint256"}],"stateMutability":"view"},{"type":"function","name":"lido","inputs":[],"outputs":[{"name":"","type":"address"}],"stateMutability":"view"},{"type":"function","name":"mlr","inputs":[],"outputs":[{"name":"","type":"uint256"}],"stateMutability":"view"},{"type":"function","name":"owner","inputs":[],"outputs":[{"name":"","type":"address"}],"stateMutability":"view"},{"type":"function","name":"pause","inputs":[],"outputs":[],"stateMutability":"nonpayable"},{"type":"function","name":"raiseActualLTV","inputs":[{"name":"lt","type":"uint256"}],"outputs":[],"stateMutability":"nonpayable"},{"type":"function","name":"ratio_base","inputs":[],"outputs":[{"name":"","type":"uint256"}],"stateMutability":"view"},{"type":"function","name":"receiveFlashLoan","inputs":[{"name":"tokens","type":"address[]"},{"name":"amounts","type":"uint256[]"},{"name":"feeAmounts","type":"uint256[]"},{"name":"userData","type":"bytes"}],"outputs":[],"stateMutability":"payable"},{"type":"function","name":"reduceActualLTV","inputs":[],"outputs":[],"stateMutability":"nonpayable"},{"type":"function","name":"restart","inputs":[],"outputs":[],"stateMutability":"nonpayable"},{"type":"function","name":"transferOwnership","inputs":[{"name":"newOwner","type":"address"}],"outputs":[],"stateMutability":"nonpayable"},{"type":"function","name":"weth","inputs":[],"outputs":[{"name":"","type":"address"}],"stateMutability":"view"},{"type":"function","name":"withdraw","inputs":[{"name":"_amount","type":"uint256"}],"outputs":[],"stateMutability":"nonpayable"},{"type":"event","name":"ActualLTVChanged","inputs":[{"name":"debt_before","type":"uint256","indexed":false},{"name":"collecteral_before","type":"uint256","indexed":false},{"name":"debt_after","type":"uint256","indexed":false},{"name":"collecteral_after","type":"uint256","indexed":false}],"anonymous":false},{"type":"event","name":"CFFDeposit","inputs":[{"name":"from","type":"address","indexed":false},{"name":"eth_amount","type":"uint256","indexed":false},{"name":"ef_amount","type":"uint256","indexed":false},{"name":"virtual_price","type":"uint256","indexed":false}],"anonymous":false},{"type":"event","name":"CFFWithdraw","inputs":[{"name":"from","type":"address","indexed":false},{"name":"eth_amount","type":"uint256","indexed":false},{"name":"ef_amount","type":"uint256","indexed":false},{"name":"virtual_price","type":"uint256","indexed":false}],"anonymous":false},{"type":"event","name":"ChangeFeeConfig","inputs":[{"name":"fee_pool","type":"address","indexed":false},{"name":"block_rate","type":"uint256","indexed":false}],"anonymous":false},{"type":"event","name":"ChangeMaxLoanRate","inputs":[{"name":"old","type":"uint256","indexed":false},{"name":"_new","type":"uint256","indexed":false}],"anonymous":false},{"type":"event","name":"EFEarnReward","inputs":[{"name":"eth_amount","type":"uint256","indexed":false},{"name":"ef_amount","type":"uint256","indexed":false}],"anonymous":false},{"type":"event","name":"EFPause","inputs":[{"name":"eth_amount","type":"uint256","indexed":false},{"name":"virtual_price","type":"uint256","indexed":false}],"anonymous":false},{"type":"event","name":"EFRestart","inputs":[{"name":"eth_amount","type":"uint256","indexed":false},{"name":"virtual_price","type":"uint256","indexed":false}],"anonymous":false},{"type":"event","name":"OwnershipTransferred","inputs":[{"name":"previousOwner","type":"address","indexed":true},{"name":"newOwner","type":"address","indexed":true}],"anonymous":false}],"bytecode":{"object":"0x6080604052600880546001600160a01b0319908116737d2768de32b0b80b7a3454c06bdac94a69ddc7a91790915560098054821673ba12222222228d8ba445958a75a0704d566bf2c8179055600a8054821673ce88686553686da562ce7cea497ce749da109f9f179055600b8054821673ae7ab96520de3a18e5e111b5eaab095312d7fe84179055600c80548216731982b2f5814301d4e9a8b0201555376e62f82428179055600d8054821673dc24316b9ae028f1497c275eb9192a3ea0f67022179055600e805490911673c02aaa39b223fe8d0a0e5c4f27ead9083c756cc2179055348015620000ef57600080fd5b506040516200613f3803806200613f833981810160405260208110156200011557600080fd5b5051600080546001600160a01b031916339081178255604051909182917f8be0079c531659141344cd1fd0a4f28419497f9722a3daafe3b4186f6b6457e0908290a35060018055600480546001600160a01b0319166001600160a01b0392909216919091179055611a5e60025543600555615fa980620001966000396000f3fe6080604052600436106101d85760003560e01c8063647a51dd11610102578063b6b55f2511610095578063eaa8fa8b11610064578063eaa8fa8b1461054f578063f04f270714610564578063f2fde38b1461078e578063f4c35c82146107c1576101d8565b8063b6b55f25146104f3578063c67bbc2414610510578063e25aa5fa14610525578063e563037e1461053a576101d8565b80638456cb59116100d15780638456cb591461048b5780638da5cb5b146104a057806393d597c3146104b55780639d4f8aa9146104ca576101d8565b8063647a51dd146104225780636c6dedbf14610437578063797d198514610461578063819faf7b14610476576101d8565b80632e1a7d4d1161017a578063457d308711610149578063457d3087146103285780634f32c41e1461033d5780635a18aa83146103f85780635bfb62231461040d576101d8565b80632e1a7d4d146102bf5780633f9d4956146102e95780633fc8cef3146102fe5780633fee366214610313576101d8565b806314a6bf0f116101b657806314a6bf0f1461024f5780631ef3755d1461026457806323509a2d146102795780632a7340d7146102aa576101d8565b806305665f79146101da5780630cf5018a146101ef5780630e77527414610228575b005b3480156101e657600080fd5b506101d86107eb565b3480156101fb57600080fd5b506101d86004803603604081101561021257600080fd5b506001600160a01b0381351690602001356112bc565b34801561023457600080fd5b5061023d611370565b60408051918252519081900360200190f35b34801561025b57600080fd5b5061023d611376565b34801561027057600080fd5b506101d86113fc565b34801561028557600080fd5b5061028e6118a6565b604080516001600160a01b039092168252519081900360200190f35b3480156102b657600080fd5b5061023d6118b5565b3480156102cb57600080fd5b506101d8600480360360208110156102e257600080fd5b5035611a3b565b3480156102f557600080fd5b5061028e61233c565b34801561030a57600080fd5b5061028e61234b565b34801561031f57600080fd5b5061028e61235a565b34801561033457600080fd5b5061023d612369565b6101d86004803603608081101561035357600080fd5b6001600160a01b038235169190810190604081016020820135600160201b81111561037d57600080fd5b82018360208201111561038f57600080fd5b803590602001918460018302840111600160201b831117156103b057600080fd5b91908080601f01602080910402602001604051908101604052809392919081815260200183838082843760009201919091525092955050823593505050602001351515612403565b34801561040457600080fd5b5061023d6125f0565b34801561041957600080fd5b5061023d6125f6565b34801561042e57600080fd5b5061028e6125fc565b34801561044357600080fd5b506101d86004803603602081101561045a57600080fd5b503561260b565b34801561046d57600080fd5b5061028e61269f565b34801561048257600080fd5b5061028e6126ae565b34801561049757600080fd5b506101d86126bd565b3480156104ac57600080fd5b5061028e6129de565b3480156104c157600080fd5b5061028e6129ed565b3480156104d657600080fd5b506104df6129fc565b604080519115158252519081900360200190f35b6101d86004803603602081101561050957600080fd5b5035612a0c565b34801561051c57600080fd5b5061023d613485565b34801561053157600080fd5b5061023d6134ee565b34801561054657600080fd5b5061028e6136d8565b34801561055b57600080fd5b5061023d6136e7565b6101d86004803603608081101561057a57600080fd5b810190602081018135600160201b81111561059457600080fd5b8201836020820111156105a657600080fd5b803590602001918460208302840111600160201b831117156105c757600080fd5b9190808060200260200160405190810160405280939291908181526020018383602002808284376000920191909152509295949360208101935035915050600160201b81111561061657600080fd5b82018360208201111561062857600080fd5b803590602001918460208302840111600160201b8311171561064957600080fd5b9190808060200260200160405190810160405280939291908181526020018383602002808284376000920191909152509295949360208101935035915050600160201b81111561069857600080fd5b8201836020820111156106aa57600080fd5b803590602001918460208302840111600160201b831117156106cb57600080fd5b9190808060200260200160405190810160405280939291908181526020018383602002808284376000920191909152509295949360208101935035915050600160201b81111561071a57600080fd5b82018360208201111561072c57600080fd5b803590602001918460018302840111600160201b8311171561074d57600080fd5b91908080601f0160208091040260200160405190810160405280939291908181526020018383808284376000920191909152509295506136ed945050505050565b34801561079a57600080fd5b506101d8600480360360208110156107b157600080fd5b50356001600160a01b03166137e0565b3480156107cd57600080fd5b506101d8600480360360208110156107e457600080fd5b5035613839565b6000546001600160a01b03163314610838576040805162461bcd60e51b81526020600482018190526024820152600080516020615ef5833981519152604482015290519081900360640190fd5b6000610842611376565b9050600061084e612369565b90508073__$a9a8d1961035b53b0764f52bb033fed341$__63d05c78da90916002546040518363ffffffff1660e01b8152600401808381526020018281526020019250505060206040518083038186803b1580156108ab57600080fd5b505af41580156108bf573d6000803e3d6000fd5b505050506040513d60208110156108d557600080fd5b50516040805163682e3c6d60e11b8152600481018590526127106024820152905173__$a9a8d1961035b53b0764f52bb033fed341$__9163d05c78da916044808301926020929190829003018186803b15801561093157600080fd5b505af4158015610945573d6000803e3d6000fd5b505050506040513d602081101561095b57600080fd5b5051116109a3576040805162461bcd60e51b81526020600482015260116024820152706e6f206e65656420746f2072656475636560781b604482015290519081900360640190fd5b60008273__$a9a8d1961035b53b0764f52bb033fed341$__63d05c78da90916127106040518363ffffffff1660e01b8152600401808381526020018281526020019250505060206040518083038186803b158015610a0057600080fd5b505af4158015610a14573d6000803e3d6000fd5b505050506040513d6020811015610a2a57600080fd5b50516002546040805163682e3c6d60e11b81526004810186905260248101929092525173__$a9a8d1961035b53b0764f52bb033fed341$__9263a293d1e8929091849163d05c78da916044808301926020929190829003018186803b158015610a9257600080fd5b505af4158015610aa6573d6000803e3d6000fd5b505050506040513d6020811015610abc57600080fd5b5051604080516001600160e01b031960e086901b16815260048101939093526024830191909152516044808301926020929190829003018186803b158015610b0357600080fd5b505af4158015610b17573d6000803e3d6000fd5b505050506040513d6020811015610b2d57600080fd5b5051600254604080516314527a3d60e31b8152612710600482015260248101929092525173__$a9a8d1961035b53b0764f52bb033fed341$__9263b5931f7c929091849163a293d1e8916044808301926020929190829003018186803b158015610b9657600080fd5b505af4158015610baa573d6000803e3d6000fd5b505050506040513d6020811015610bc057600080fd5b5051604080516001600160e01b031960e086901b16815260048101939093526024830191909152516044808301926020929190829003018186803b158015610c0757600080fd5b505af4158015610c1b573d6000803e3d6000fd5b505050506040513d6020811015610c3157600080fd5b50519050600073__$a9a8d1961035b53b0764f52bb033fed341$__63d05c78da83610c5a611376565b6040518363ffffffff1660e01b8152600401808381526020018281526020019250505060206040518083038186803b158015610c9557600080fd5b505af4158015610ca9573d6000803e3d6000fd5b505050506040513d6020811015610cbf57600080fd5b505173__$a9a8d1961035b53b0764f52bb033fed341$__9063b5931f7c90610ce5612369565b6040518363ffffffff1660e01b8152600401808381526020018281526020019250505060206040518083038186803b158015610d2057600080fd5b505af4158015610d34573d6000803e3d6000fd5b505050506040513d6020811015610d4a57600080fd5b5051604080516001808252818301909252919250606091906020808301908038833950506040805160018082528183019092529293506060929150602080830190803883395050604080518082019091526003815262183c1960e91b6020820152600e54855193945090926001600160a01b0390911691508490600090610dcd57fe5b60200260200101906001600160a01b031690816001600160a01b0316815250508382600081518110610dfb57fe5b602090810291909101810191909152600954604051632e1c224f60e11b815230600482018181526080602484019081528851608485015288516001600160a01b0390951695635c38449e9593948a948a948a94909390926044810192606482019260a490920191898101910280838360005b83811015610e85578181015183820152602001610e6d565b50505050905001848103835286818151815260200191508051906020019060200280838360005b83811015610ec4578181015183820152602001610eac565b50505050905001848103825285818151815260200191508051906020019080838360005b83811015610f00578181015183820152602001610ee8565b50505050905090810190601f168015610f2d5780820380516001836020036101000a031916815260200191505b50975050505050505050600060405180830381600087803b158015610f5157600080fd5b505af1158015610f65573d6000803e3d6000fd5b5050600e54604051600093506001600160a01b0390911691503031908381818185875af1925050503d8060008114610fb9576040519150601f19603f3d011682016040523d82523d6000602084013e610fbe565b606091505b505090508061100a576040805162461bcd60e51b81526020600482015260136024820152721d1c985b9cd9995c88195d1a0819985a5b1959606a1b604482015290519081900360640190fd5b600e5460085460408051636eb1769f60e11b81523060048201526001600160a01b0392831660248201529051919092169163dd62ed3e916044808301926020929190829003018186803b15801561106057600080fd5b505afa158015611074573d6000803e3d6000fd5b505050506040513d602081101561108a57600080fd5b5051156110b557600854600e546110b5916001600160a01b039182169116600063ffffffff61442f16565b600854600e54604080516370a0823160e01b8152306004820152905161114d936001600160a01b039081169316916370a08231916024808301926020929190829003018186803b15801561110857600080fd5b505afa15801561111c573d6000803e3d6000fd5b505050506040513d602081101561113257600080fd5b5051600e546001600160a01b0316919063ffffffff61442f16565b600854600e54604080516370a0823160e01b815230600482015290516001600160a01b039384169363573ade8193169182916370a0823191602480820192602092909190829003018186803b1580156111a557600080fd5b505afa1580156111b9573d6000803e3d6000fd5b505050506040513d60208110156111cf57600080fd5b5051604080516001600160e01b031960e086901b1681526001600160a01b0390931660048401526024830191909152600260448301523060648301525160848083019260209291908290030181600087803b15801561122d57600080fd5b505af1158015611241573d6000803e3d6000fd5b505050506040513d602081101561125757600080fd5b507f932c7ff698d9bf7eebbdbb414fb9c32f81ea05235b305ea8bebc6b2fa8cc40fd90508888611285611376565b61128d612369565b604080519485526020850193909352838301919091526060830152519081900360800190a15050505050505050565b6000546001600160a01b03163314611309576040805162461bcd60e51b81526020600482018190526024820152600080516020615ef5833981519152604482015290519081900360640190fd5b600380546001600160a01b0319166001600160a01b0384811691909117918290556006839055604080519290911682526020820183905280517fb15434860be23de2f119f88edd9245dc58abebceff81db5d3b5780beddc896939281900390910190a15050565b61271081565b60085460408051632fe4a15f60e21b8152306004820152905160009283926001600160a01b039091169163bf92857c9160248082019260c092909190829003018186803b1580156113c657600080fd5b505afa1580156113da573d6000803e3d6000fd5b505050506040513d60c08110156113f057600080fd5b50602001519150505b90565b6000546001600160a01b03163314611449576040805162461bcd60e51b81526020600482018190526024820152600080516020615ef5833981519152604482015290519081900360640190fd5b600e54600160a01b900460ff16611493576040805162461bcd60e51b81526020600482015260096024820152686e6f7420706175736560b81b604482015290519081900360640190fd5b43600555303160006114a36118b5565b9050600060025473__$a9a8d1961035b53b0764f52bb033fed341$__63d05c78da9091856040518363ffffffff1660e01b8152600401808381526020018281526020019250505060206040518083038186803b15801561150257600080fd5b505af4158015611516573d6000803e3d6000fd5b505050506040513d602081101561152c57600080fd5b5051600254604080516314527a3d60e31b81526004810186905260248101929092525173__$a9a8d1961035b53b0764f52bb033fed341$__9263b5931f7c929091849163a293d1e8916044808301926020929190829003018186803b15801561159457600080fd5b505af41580156115a8573d6000803e3d6000fd5b505050506040513d60208110156115be57600080fd5b5051604080516001600160e01b031960e086901b16815260048101939093526024830191909152516044808301926020929190829003018186803b15801561160557600080fd5b505af4158015611619573d6000803e3d6000fd5b505050506040513d602081101561162f57600080fd5b505160408051600180825281830190925291925060609190602080830190803883395050604080516001808252818301909252929350606092915060208083019080388339505060408051808201909152600381526230783160e81b6020820152600e54855193945090926001600160a01b03909116915084906000906116b257fe5b60200260200101906001600160a01b031690816001600160a01b03168152505083826000815181106116e057fe5b602090810291909101810191909152600954604051632e1c224f60e11b815230600482018181526080602484019081528851608485015288516001600160a01b0390951695635c38449e9593948a948a948a94909390926044810192606482019260a490920191898101910280838360005b8381101561176a578181015183820152602001611752565b50505050905001848103835286818151815260200191508051906020019060200280838360005b838110156117a9578181015183820152602001611791565b50505050905001848103825285818151815260200191508051906020019080838360005b838110156117e55781810151838201526020016117cd565b50505050905090810190601f1680156118125780820380516001836020036101000a031916815260200191505b50975050505050505050600060405180830381600087803b15801561183657600080fd5b505af115801561184a573d6000803e3d6000fd5b5050600e805460ff60a01b19169055507fbce92cf02f2a8f9d8c4179bfecba5d1ae92e6db93a0d97aa0e2aa0be24c9ec639050866118866134ee565b6040805192835260208301919091528051918290030190a1505050505050565b600b546001600160a01b031681565b600a546040805163361de11760e21b815290516000926001600160a01b03169163d877845c916004808301926020929190829003018186803b1580156118fa57600080fd5b505afa15801561190e573d6000803e3d6000fd5b505050506040513d602081101561192457600080fd5b505160408051632d64c7df60e21b81526004810192909252655af3107a400060248301525173__$a9a8d1961035b53b0764f52bb033fed341$__9163b5931f7c916044808301926020929190829003018186803b15801561198457600080fd5b505af4158015611998573d6000803e3d6000fd5b505050506040513d60208110156119ae57600080fd5b50516040805163e6cb901360e01b8152600481019290925261271060248301525173__$a9a8d1961035b53b0764f52bb033fed341$__9163e6cb9013916044808301926020929190829003018186803b158015611a0a57600080fd5b505af4158015611a1e573d6000803e3d6000fd5b505050506040513d6020811015611a3457600080fd5b5051905090565b6001805481019081905560048054604080516370a0823160e01b815233938101939093525184926001600160a01b03909216916370a08231916024808301926020929190829003018186803b158015611a9357600080fd5b505afa158015611aa7573d6000803e3d6000fd5b505050506040513d6020811015611abd57600080fd5b50511015611b07576040805162461bcd60e51b81526020600482015260126024820152716e6f7420656e6f7567682062616c616e636560701b604482015290519081900360640190fd5b600e54600160a01b900460ff1615611dbb576040805163682e3c6d60e11b81523031600482015260248101849052905160009173__$a9a8d1961035b53b0764f52bb033fed341$__9163d05c78da91604480820192602092909190829003018186803b158015611b7657600080fd5b505af4158015611b8a573d6000803e3d6000fd5b505050506040513d6020811015611ba057600080fd5b505160048054604080516318160ddd60e01b8152905173__$a9a8d1961035b53b0764f52bb033fed341$__9463b5931f7c9490936001600160a01b0316926318160ddd9281830192602092829003018186803b158015611bff57600080fd5b505afa158015611c13573d6000803e3d6000fd5b505050506040513d6020811015611c2957600080fd5b5051604080516001600160e01b031960e086901b16815260048101939093526024830191909152516044808301926020929190829003018186803b158015611c7057600080fd5b505af4158015611c84573d6000803e3d6000fd5b505050506040513d6020811015611c9a57600080fd5b5051604051909150600090339083908381818185875af1925050503d8060008114611ce1576040519150601f19603f3d011682016040523d82523d6000602084013e611ce6565b606091505b5050905080611d32576040805162461bcd60e51b81526020600482015260136024820152721d1c985b9cd9995c88195d1a0819985a5b1959606a1b604482015290519081900360640190fd5b60048054604080516369e73bff60e11b8152339381019390935260248301879052516001600160a01b039091169163d3ce77fe9160448083019260209291908290030181600087803b158015611d8757600080fd5b505af1158015611d9b573d6000803e3d6000fd5b505050506040513d6020811015611db157600080fd5b506122e292505050565b611dc3614547565b6000611dcd611376565b73__$a9a8d1961035b53b0764f52bb033fed341$__63d05c78da9091856040518363ffffffff1660e01b8152600401808381526020018281526020019250505060206040518083038186803b158015611e2557600080fd5b505af4158015611e39573d6000803e3d6000fd5b505050506040513d6020811015611e4f57600080fd5b505160048054604080516318160ddd60e01b8152905173__$a9a8d1961035b53b0764f52bb033fed341$__9463b5931f7c9490936001600160a01b0316926318160ddd9281830192602092829003018186803b158015611eae57600080fd5b505afa158015611ec2573d6000803e3d6000fd5b505050506040513d6020811015611ed857600080fd5b5051604080516001600160e01b031960e086901b16815260048101939093526024830191909152516044808301926020929190829003018186803b158015611f1f57600080fd5b505af4158015611f33573d6000803e3d6000fd5b505050506040513d6020811015611f4957600080fd5b5051604080516001808252818301909252919250606091906020808301908038833950506040805160018082528183019092529293506060929150602080830190803883395050604080518082019091526003815262183c1960e91b6020820152600e54855193945090926001600160a01b0390911691508490600090611fcc57fe5b60200260200101906001600160a01b031690816001600160a01b0316815250508382600081518110611ffa57fe5b602090810291909101810191909152600954604051632e1c224f60e11b815230600482018181526080602484019081528851608485015288516001600160a01b0390951695635c38449e9593948a948a948a94909390926044810192606482019260a490920191898101910280838360005b8381101561208457818101518382015260200161206c565b50505050905001848103835286818151815260200191508051906020019060200280838360005b838110156120c35781810151838201526020016120ab565b50505050905001848103825285818151815260200191508051906020019080838360005b838110156120ff5781810151838201526020016120e7565b50505050905090810190601f16801561212c5780820380516001836020036101000a031916815260200191505b50975050505050505050600060405180830381600087803b15801561215057600080fd5b505af1158015612164573d6000803e3d6000fd5b50506040513031925060009150339083908381818185875af1925050503d80600081146121ad576040519150601f19603f3d011682016040523d82523d6000602084013e6121b2565b606091505b50509050806121fe576040805162461bcd60e51b81526020600482015260136024820152721d1c985b9cd9995c88195d1a0819985a5b1959606a1b604482015290519081900360640190fd5b60048054604080516369e73bff60e11b81523393810193909352602483018b9052516001600160a01b039091169163d3ce77fe9160448083019260209291908290030181600087803b15801561225357600080fd5b505af1158015612267573d6000803e3d6000fd5b505050506040513d602081101561227d57600080fd5b507f63cb2c43362bdfc2f91eb3273ae0cf086faea513e1bf1faffa880c593e2e3d0f905033838a6122ac6134ee565b604080516001600160a01b0390951685526020850193909352838301919091526060830152519081900360800190a15050505050505b6001548114612338576040805162461bcd60e51b815260206004820152601f60248201527f5265656e7472616e637947756172643a207265656e7472616e742063616c6c00604482015290519081900360640190fd5b5050565b600a546001600160a01b031681565b600e546001600160a01b031681565b600c546001600160a01b031681565b600e54600090600160a01b900460ff1615612386575030316113f9565b60085460408051632fe4a15f60e21b815230600482015290516000926001600160a01b03169163bf92857c9160248083019260c0929190829003018186803b1580156123d157600080fd5b505afa1580156123e5573d6000803e3d6000fd5b505050506040513d60c08110156123fb57600080fd5b505191505090565b6000546001600160a01b03163314612450576040805162461bcd60e51b81526020600482018190526024820152600080516020615ef5833981519152604482015290519081900360640190fd5b60008161250457846001600160a01b031683856040518082805190602001908083835b602083106124925780518252601f199092019160209182019101612473565b6001836020036101000a03801982511681845116808217855250505050505090500191505060006040518083038185875af1925050503d80600081146124f4576040519150601f19603f3d011682016040523d82523d6000602084013e6124f9565b606091505b5050809150506125a9565b846001600160a01b0316846040518082805190602001908083835b6020831061253e5780518252601f19909201916020918201910161251f565b6001836020036101000a038019825116818451168082178552505050505050905001915050600060405180830381855af49150503d806000811461259e576040519150601f19603f3d011682016040523d82523d6000602084013e6125a3565b606091505b50909150505b806125e9576040805162461bcd60e51b815260206004820152600b60248201526a18d85b1b0819985a5b195960aa1b604482015290519081900360640190fd5b5050505050565b60025481565b60055481565b6004546001600160a01b031681565b6000546001600160a01b03163314612658576040805162461bcd60e51b81526020600482018190526024820152600080516020615ef5833981519152604482015290519081900360640190fd5b6002805490829055604080518281526020810184905281517fcfe54c35f4151d56b0231b0663e3c2d4952a14a540e0b8c7b343d692068b3dc8929181900390910190a15050565b6003546001600160a01b031681565b6008546001600160a01b031681565b6000546001600160a01b0316331461270a576040805162461bcd60e51b81526020600482018190526024820152600080516020615ef5833981519152604482015290519081900360640190fd5b600e54600160a01b900460ff1615612752576040805162461bcd60e51b81526020600482015260066024820152651c185d5cd95960d21b604482015290519081900360640190fd5b61275a614547565b6000612764611376565b604080516001808252818301909252919250606091906020808301908038833950506040805160018082528183019092529293506060929150602080830190803883395050604080518082019091526003815262183c1960e91b6020820152600e54855193945090926001600160a01b03909116915084906000906127e557fe5b60200260200101906001600160a01b031690816001600160a01b031681525050838260008151811061281357fe5b602090810291909101810191909152600954604051632e1c224f60e11b815230600482018181526080602484019081528851608485015288516001600160a01b0390951695635c38449e9593948a948a948a94909390926044810192606482019260a490920191898101910280838360005b8381101561289d578181015183820152602001612885565b50505050905001848103835286818151815260200191508051906020019060200280838360005b838110156128dc5781810151838201526020016128c4565b50505050905001848103825285818151815260200191508051906020019080838360005b83811015612918578181015183820152602001612900565b50505050905090810190601f1680156129455780820380516001836020036101000a031916815260200191505b50975050505050505050600060405180830381600087803b15801561296957600080fd5b505af115801561297d573d6000803e3d6000fd5b5050600e805460ff60a01b1916600160a01b179055507fa6128748c4c4710c4e6425ed486f83ba40fcf0b16cf95bf0afbc09563c5a9508905030316129c06134ee565b6040805192835260208301919091528051918290030190a150505050565b6000546001600160a01b031690565b600d546001600160a01b031681565b600e54600160a01b900460ff1681565b60018054810190819055600e54600160a01b900460ff1615612a5e576040805162461bcd60e51b81526020600482015260066024820152651c185d5cd95960d21b604482015290519081900360640190fd5b348214612aa5576040805162461bcd60e51b815260206004820152601060248201526f1a5b98dbdb9cda5cdd08185b5bdd5b9d60821b604482015290519081900360640190fd5b81612aea576040805162461bcd60e51b815260206004820152601060248201526f1d1bdbc81cdb585b1b08185b5bdd5b9d60821b604482015290519081900360640190fd5b612af2614547565b6000612afc613485565b9050633b9aca00811015612b6657662386f26fc10000831015612b66576040805162461bcd60e51b815260206004820152601860248201527f546f6f20736d616c6c20696e697469616c20616d6f756e740000000000000000604482015290519081900360640190fd5b6000612b706118b5565b9050600060025473__$a9a8d1961035b53b0764f52bb033fed341$__63d05c78da9091876040518363ffffffff1660e01b8152600401808381526020018281526020019250505060206040518083038186803b158015612bcf57600080fd5b505af4158015612be3573d6000803e3d6000fd5b505050506040513d6020811015612bf957600080fd5b5051600254604080516314527a3d60e31b81526004810186905260248101929092525173__$a9a8d1961035b53b0764f52bb033fed341$__9263b5931f7c929091849163a293d1e8916044808301926020929190829003018186803b158015612c6157600080fd5b505af4158015612c75573d6000803e3d6000fd5b505050506040513d6020811015612c8b57600080fd5b5051604080516001600160e01b031960e086901b16815260048101939093526024830191909152516044808301926020929190829003018186803b158015612cd257600080fd5b505af4158015612ce6573d6000803e3d6000fd5b505050506040513d6020811015612cfc57600080fd5b5051604080516314527a3d60e31b8152600481018590526127106024820152905191925060009173__$a9a8d1961035b53b0764f52bb033fed341$__9163d05c78da918591849163a293d1e891604480820192602092909190829003018186803b158015612d6957600080fd5b505af4158015612d7d573d6000803e3d6000fd5b505050506040513d6020811015612d9357600080fd5b5051604080516001600160e01b031960e086901b16815260048101939093526024830191909152516044808301926020929190829003018186803b158015612dda57600080fd5b505af4158015612dee573d6000803e3d6000fd5b505050506040513d6020811015612e0457600080fd5b505160408051632d64c7df60e21b8152600481019290925261271060248301525173__$a9a8d1961035b53b0764f52bb033fed341$__9163b5931f7c916044808301926020929190829003018186803b158015612e6057600080fd5b505af4158015612e74573d6000803e3d6000fd5b505050506040513d6020811015612e8a57600080fd5b505160408051600180825281830190925291925060609190602080830190803883395050604080516001808252818301909252929350606092915060208083019080388339505060408051808201909152600381526230783160e81b6020820152600e54855193945090926001600160a01b0390911691508490600090612f0d57fe5b60200260200101906001600160a01b031690816001600160a01b0316815250508482600081518110612f3b57fe5b602090810291909101810191909152600954604051632e1c224f60e11b815230600482018181526080602484019081528851608485015288516001600160a01b0390951695635c38449e9593948a948a948a94909390926044810192606482019260a490920191898101910280838360005b83811015612fc5578181015183820152602001612fad565b50505050905001848103835286818151815260200191508051906020019060200280838360005b83811015613004578181015183820152602001612fec565b50505050905001848103825285818151815260200191508051906020019080838360005b83811015613040578181015183820152602001613028565b50505050905090810190601f16801561306d5780820380516001836020036101000a031916815260200191505b50975050505050505050600060405180830381600087803b15801561309157600080fd5b505af11580156130a5573d6000803e3d6000fd5b505050506000633b9aca0088101561314357604080516314527a3d60e31b8152600481018c905260248101879052905173__$a9a8d1961035b53b0764f52bb033fed341$__9163a293d1e8916044808301926020929190829003018186803b15801561311057600080fd5b505af4158015613124573d6000803e3d6000fd5b505050506040513d602081101561313a57600080fd5b5051905061334a565b604080516314527a3d60e31b8152600481018c905260248101879052905173__$a9a8d1961035b53b0764f52bb033fed341$__9163a293d1e8916044808301926020929190829003018186803b15801561319c57600080fd5b505af41580156131b0573d6000803e3d6000fd5b505050506040513d60208110156131c657600080fd5b505160048054604080516318160ddd60e01b8152905173__$a9a8d1961035b53b0764f52bb033fed341$__9463d05c78da9490936001600160a01b0316926318160ddd9281830192602092829003018186803b15801561322557600080fd5b505afa158015613239573d6000803e3d6000fd5b505050506040513d602081101561324f57600080fd5b5051604080516001600160e01b031960e086901b16815260048101939093526024830191909152516044808301926020929190829003018186803b15801561329657600080fd5b505af41580156132aa573d6000803e3d6000fd5b505050506040513d60208110156132c057600080fd5b505160408051632d64c7df60e21b81526004810192909252602482018a90525173__$a9a8d1961035b53b0764f52bb033fed341$__9163b5931f7c916044808301926020929190829003018186803b15801561331b57600080fd5b505af415801561332f573d6000803e3d6000fd5b505050506040513d602081101561334557600080fd5b505190505b6004805460408051630209fccb60e61b8152339381019390935260248301849052516001600160a01b039091169163827f32c09160448083019260209291908290030181600087803b15801561339f57600080fd5b505af11580156133b3573d6000803e3d6000fd5b505050506040513d60208110156133c957600080fd5b507f405007275853f6b040feb6bd41de0d355501031f20550aa7b4278f89ab83cf359050338b836133f86134ee565b604080516001600160a01b0390951685526020850193909352838301919091526060830152519081900360800190a150505050505050506001548114612338576040805162461bcd60e51b815260206004820152601f60248201527f5265656e7472616e637947756172643a207265656e7472616e742063616c6c00604482015290519081900360640190fd5b600061348f612369565b73__$a9a8d1961035b53b0764f52bb033fed341$__63a293d1e890916134b3611376565b6040518363ffffffff1660e01b8152600401808381526020018281526020019250505060206040518083038186803b158015611a0a57600080fd5b6000600460009054906101000a90046001600160a01b03166001600160a01b03166318160ddd6040518163ffffffff1660e01b815260040160206040518083038186803b15801561353e57600080fd5b505afa158015613552573d6000803e3d6000fd5b505050506040513d602081101561356857600080fd5b5051613576575060006113f9565b61357e613485565b6040805163682e3c6d60e11b81526004810192909252670de0b6b3a764000060248301525173__$a9a8d1961035b53b0764f52bb033fed341$__9163d05c78da916044808301926020929190829003018186803b1580156135de57600080fd5b505af41580156135f2573d6000803e3d6000fd5b505050506040513d602081101561360857600080fd5b505160048054604080516318160ddd60e01b8152905173__$a9a8d1961035b53b0764f52bb033fed341$__9463b5931f7c9490936001600160a01b0316926318160ddd9281830192602092829003018186803b15801561366757600080fd5b505afa15801561367b573d6000803e3d6000fd5b505050506040513d602081101561369157600080fd5b5051604080516001600160e01b031960e086901b16815260048101939093526024830191909152516044808301926020929190829003018186803b158015611a0a57600080fd5b6009546001600160a01b031681565b60065481565b6009546001600160a01b03163314613743576040805162461bcd60e51b81526020600482015260146024820152731bdb9b1e48199b185cda1b1bd85b881d985d5b1d60621b604482015290519081900360640190fd5b60008360008151811061375257fe5b6020026020010151905060008360008151811061376b57fe5b6020026020010151905060405180806230783160e81b81525060030190506040518091039020838051906020012014156137a9576137a9828261503f565b6040805162183c1960e91b815290519081900360030190208351602085012014156137d8576137d88282615537565b505050505050565b6000546001600160a01b0316331461382d576040805162461bcd60e51b81526020600482018190526024820152600080516020615ef5833981519152604482015290519081900360640190fd5b61383681615be8565b50565b6000546001600160a01b03163314613886576040805162461bcd60e51b81526020600482018190526024820152600080516020615ef5833981519152604482015290519081900360640190fd5b6000613890611376565b9050600061389c612369565b90508073__$a9a8d1961035b53b0764f52bb033fed341$__63d05c78da90916002546040518363ffffffff1660e01b8152600401808381526020018281526020019250505060206040518083038186803b1580156138f957600080fd5b505af415801561390d573d6000803e3d6000fd5b505050506040513d602081101561392357600080fd5b50516040805163682e3c6d60e11b8152600481018590526127106024820152905173__$a9a8d1961035b53b0764f52bb033fed341$__9163d05c78da916044808301926020929190829003018186803b15801561397f57600080fd5b505af4158015613993573d6000803e3d6000fd5b505050506040513d60208110156139a957600080fd5b5051106139f0576040805162461bcd60e51b815260206004820152601060248201526f6e6f206e65656420746f20726169736560801b604482015290519081900360640190fd5b60008173__$a9a8d1961035b53b0764f52bb033fed341$__63d05c78da90916002546040518363ffffffff1660e01b8152600401808381526020018281526020019250505060206040518083038186803b158015613a4d57600080fd5b505af4158015613a61573d6000803e3d6000fd5b505050506040513d6020811015613a7757600080fd5b50516040805163682e3c6d60e11b8152600481018690526127106024820152905173__$a9a8d1961035b53b0764f52bb033fed341$__9263a293d1e8929091849163d05c78da916044808301926020929190829003018186803b158015613add57600080fd5b505af4158015613af1573d6000803e3d6000fd5b505050506040513d6020811015613b0757600080fd5b5051604080516001600160e01b031960e086901b16815260048101939093526024830191909152516044808301926020929190829003018186803b158015613b4e57600080fd5b505af4158015613b62573d6000803e3d6000fd5b505050506040513d6020811015613b7857600080fd5b5051600254604080516314527a3d60e31b8152612710600482015260248101929092525173__$a9a8d1961035b53b0764f52bb033fed341$__9263b5931f7c929091849163a293d1e8916044808301926020929190829003018186803b158015613be157600080fd5b505af4158015613bf5573d6000803e3d6000fd5b505050506040513d6020811015613c0b57600080fd5b5051604080516001600160e01b031960e086901b16815260048101939093526024830191909152516044808301926020929190829003018186803b158015613c5257600080fd5b505af4158015613c66573d6000803e3d6000fd5b505050506040513d6020811015613c7c57600080fd5b50516040805163682e3c6d60e11b81526004810185905260248101879052905191925060009173__$a9a8d1961035b53b0764f52bb033fed341$__9163d05c78da916044808301926020929190829003018186803b158015613cdd57600080fd5b505af4158015613cf1573d6000803e3d6000fd5b505050506040513d6020811015613d0757600080fd5b505160408051632d64c7df60e21b8152600481019290925261271060248301525173__$a9a8d1961035b53b0764f52bb033fed341$__9163b5931f7c916044808301926020929190829003018186803b158015613d6357600080fd5b505af4158015613d77573d6000803e3d6000fd5b505050506040513d6020811015613d8d57600080fd5b5051604080516314527a3d60e31b81526004810192909252602482018690525173__$a9a8d1961035b53b0764f52bb033fed341$__9163a293d1e8916044808301926020929190829003018186803b158015613de857600080fd5b505af4158015613dfc573d6000803e3d6000fd5b505050506040513d6020811015613e1257600080fd5b5051604080516314527a3d60e31b81526004810192909252600160248301525173__$a9a8d1961035b53b0764f52bb033fed341$__9163a293d1e8916044808301926020929190829003018186803b158015613e6d57600080fd5b505af4158015613e81573d6000803e3d6000fd5b505050506040513d6020811015613e9757600080fd5b5051905080821115613ea7578091505b600854600e546040805163a415bcad60e01b81526001600160a01b03928316600482015260248101869052600260448201526000606482018190523060848301529151929093169263a415bcad9260a4808301939282900301818387803b158015613f1157600080fd5b505af1158015613f25573d6000803e3d6000fd5b5050600e54604080516370a0823160e01b815230600482015290516001600160a01b039092169350632e1a7d4d925083916370a0823191602480820192602092909190829003018186803b158015613f7c57600080fd5b505afa158015613f90573d6000803e3d6000fd5b505050506040513d6020811015613fa657600080fd5b5051604080516001600160e01b031960e085901b168152600481019290925251602480830192600092919082900301818387803b158015613fe657600080fd5b505af1158015613ffa573d6000803e3d6000fd5b5050600d5460408051635e0d443f60e01b8152600060048201819052600160248301523031604483015291519194506001600160a01b039092169250635e0d443f91606480820192602092909190829003018186803b15801561405c57600080fd5b505afa158015614070573d6000803e3d6000fd5b505050506040513d602081101561408657600080fd5b50519050303181101561410157600b546040805163a1903eab60e01b8152306004820181905291516001600160a01b039093169263a1903eab92319160248082019260009290919082900301818588803b1580156140e357600080fd5b505af11580156140f7573d6000803e3d6000fd5b5050505050614197565b600d5460408051630f7c084960e21b8152600060048201819052600160248301523080316044840152606483019190915291516001600160a01b0390931692633df0212492319160848082019260209290919082900301818588803b15801561416957600080fd5b505af115801561417d573d6000803e3d6000fd5b50505050506040513d602081101561419457600080fd5b50505b50600b5460085460408051636eb1769f60e11b81523060048201526001600160a01b0392831660248201529051919092169163dd62ed3e916044808301926020929190829003018186803b1580156141ee57600080fd5b505afa158015614202573d6000803e3d6000fd5b505050506040513d602081101561421857600080fd5b50511561424357600854600b54614243916001600160a01b039182169116600063ffffffff61442f16565b600854600b54604080516370a0823160e01b815230600482015290516142db936001600160a01b039081169316916370a08231916024808301926020929190829003018186803b15801561429657600080fd5b505afa1580156142aa573d6000803e3d6000fd5b505050506040513d60208110156142c057600080fd5b5051600b546001600160a01b0316919063ffffffff61442f16565b600854600b54604080516370a0823160e01b815230600482015290516001600160a01b039384169363e8eda9df93169182916370a0823191602480820192602092909190829003018186803b15801561433357600080fd5b505afa158015614347573d6000803e3d6000fd5b505050506040513d602081101561435d57600080fd5b5051604080516001600160e01b031960e086901b1681526001600160a01b0390931660048401526024830191909152306044830152600060648301819052905160848084019382900301818387803b1580156143b857600080fd5b505af11580156143cc573d6000803e3d6000fd5b505050507f932c7ff698d9bf7eebbdbb414fb9c32f81ea05235b305ea8bebc6b2fa8cc40fd84846143fb611376565b614403612369565b604080519485526020850193909352838301919091526060830152519081900360800190a15050505050565b8015806144b5575060408051636eb1769f60e11b81523060048201526001600160a01b03848116602483015291519185169163dd62ed3e91604480820192602092909190829003018186803b15801561448757600080fd5b505afa15801561449b573d6000803e3d6000fd5b505050506040513d60208110156144b157600080fd5b5051155b6144f05760405162461bcd60e51b8152600401808060200182810382526036815260200180615f3f6036913960400191505060405180910390fd5b604080516001600160a01b038416602482015260448082018490528251808303909101815260649091019091526020810180516001600160e01b031663095ea7b360e01b179052614542908490615c88565b505050565b6003546001600160a01b031661455c5761503d565b60048054604080516318160ddd60e01b815290516001600160a01b03909216926318160ddd928282019260209290829003018186803b15801561459e57600080fd5b505afa1580156145b2573d6000803e3d6000fd5b505050506040513d60208110156145c857600080fd5b50516145d7574360055561503d565b60004373__$a9a8d1961035b53b0764f52bb033fed341$__63a293d1e890916005546040518363ffffffff1660e01b8152600401808381526020018281526020019250505060206040518083038186803b15801561463457600080fd5b505af4158015614648573d6000803e3d6000fd5b505050506040513d602081101561465e57600080fd5b50516007546006546040805163682e3c6d60e11b8152600481019390935260248301919091525191925060009173__$a9a8d1961035b53b0764f52bb033fed341$__9163d05c78da916044808301926020929190829003018186803b1580156146c657600080fd5b505af41580156146da573d6000803e3d6000fd5b505050506040513d60208110156146f057600080fd5b50516040805163682e3c6d60e11b81526004810192909252602482018490525173__$a9a8d1961035b53b0764f52bb033fed341$__9163d05c78da916044808301926020929190829003018186803b15801561474b57600080fd5b505af415801561475f573d6000803e3d6000fd5b505050506040513d602081101561477557600080fd5b505160408051632d64c7df60e21b81526004810192909252670de0b6b3a764000060248301525173__$a9a8d1961035b53b0764f52bb033fed341$__9163b5931f7c916044808301926020929190829003018186803b1580156147d757600080fd5b505af41580156147eb573d6000803e3d6000fd5b505050506040513d602081101561480157600080fd5b50519050600061480f613485565b73__$a9a8d1961035b53b0764f52bb033fed341$__63d05c78da90916006546040518363ffffffff1660e01b8152600401808381526020018281526020019250505060206040518083038186803b15801561486957600080fd5b505af415801561487d573d6000803e3d6000fd5b505050506040513d602081101561489357600080fd5b50516040805163682e3c6d60e11b81526004810192909252602482018590525173__$a9a8d1961035b53b0764f52bb033fed341$__9163d05c78da916044808301926020929190829003018186803b1580156148ee57600080fd5b505af4158015614902573d6000803e3d6000fd5b505050506040513d602081101561491857600080fd5b505160408051632d64c7df60e21b81526004810192909252670de0b6b3a764000060248301525173__$a9a8d1961035b53b0764f52bb033fed341$__9163b5931f7c916044808301926020929190829003018186803b15801561497a57600080fd5b505af415801561498e573d6000803e3d6000fd5b505050506040513d60208110156149a457600080fd5b505190506000818311614ac2576040805163e6cb901360e01b81526004810185905260248101849052905173__$a9a8d1961035b53b0764f52bb033fed341$__9163e6cb9013916044808301926020929190829003018186803b158015614a0a57600080fd5b505af4158015614a1e573d6000803e3d6000fd5b505050506040513d6020811015614a3457600080fd5b505160408051632d64c7df60e21b81526004810192909252600260248301525173__$a9a8d1961035b53b0764f52bb033fed341$__9163b5931f7c916044808301926020929190829003018186803b158015614a8f57600080fd5b505af4158015614aa3573d6000803e3d6000fd5b505050506040513d6020811015614ab957600080fd5b50519050614ac5565b50805b60048054600354604080516370a0823160e01b81526001600160a01b03928316948101949094525173__$a9a8d1961035b53b0764f52bb033fed341$__9363a293d1e8938693869363d05c78da93869392909216916370a08231916024808301926020929190829003018186803b158015614b3f57600080fd5b505afa158015614b53573d6000803e3d6000fd5b505050506040513d6020811015614b6957600080fd5b5051604080516001600160e01b031960e086901b16815260048101939093526024830191909152516044808301926020929190829003018186803b158015614bb057600080fd5b505af4158015614bc4573d6000803e3d6000fd5b505050506040513d6020811015614bda57600080fd5b505160048054604080516318160ddd60e01b8152905173__$a9a8d1961035b53b0764f52bb033fed341$__9463b5931f7c9490936001600160a01b0316926318160ddd9281830192602092829003018186803b158015614c3957600080fd5b505afa158015614c4d573d6000803e3d6000fd5b505050506040513d6020811015614c6357600080fd5b5051604080516001600160e01b031960e086901b16815260048101939093526024830191909152516044808301926020929190829003018186803b158015614caa57600080fd5b505af4158015614cbe573d6000803e3d6000fd5b505050506040513d6020811015614cd457600080fd5b5051604080516001600160e01b031960e086901b16815260048101939093526024830191909152516044808301926020929190829003018186803b158015614d1b57600080fd5b505af4158015614d2f573d6000803e3d6000fd5b505050506040513d6020811015614d4557600080fd5b505160048054604080516318160ddd60e01b8152905193945060009373__$a9a8d1961035b53b0764f52bb033fed341$__9363d05c78da9387936001600160a01b03909116926318160ddd92828101926020929190829003018186803b158015614dae57600080fd5b505afa158015614dc2573d6000803e3d6000fd5b505050506040513d6020811015614dd857600080fd5b5051604080516001600160e01b031960e086901b16815260048101939093526024830191909152516044808301926020929190829003018186803b158015614e1f57600080fd5b505af4158015614e33573d6000803e3d6000fd5b505050506040513d6020811015614e4957600080fd5b505173__$a9a8d1961035b53b0764f52bb033fed341$__9063b5931f7c90614e6f613485565b73__$a9a8d1961035b53b0764f52bb033fed341$__63a293d1e89091876040518363ffffffff1660e01b8152600401808381526020018281526020019250505060206040518083038186803b158015614ec757600080fd5b505af4158015614edb573d6000803e3d6000fd5b505050506040513d6020811015614ef157600080fd5b5051604080516001600160e01b031960e086901b16815260048101939093526024830191909152516044808301926020929190829003018186803b158015614f3857600080fd5b505af4158015614f4c573d6000803e3d6000fd5b505050506040513d6020811015614f6257600080fd5b50516004805460035460408051630209fccb60e61b81526001600160a01b03928316948101949094526024840185905251939450169163827f32c0916044808201926020929091908290030181600087803b158015614fc057600080fd5b505af1158015614fd4573d6000803e3d6000fd5b505050506040513d6020811015614fea57600080fd5b50614ff59050613485565b60075543600555604080518381526020810183905281517f3bd22241cebd807abdf76d15d461bdc780dbd9d08718f13fb0894ce81c7da43e929181900390910190a150505050505b565b600e5460408051632e1a7d4d60e01b81526004810185905290516001600160a01b0390921691632e1a7d4d9160248082019260009290919082900301818387803b15801561508c57600080fd5b505af11580156150a0573d6000803e3d6000fd5b5050600d5460408051635e0d443f60e01b8152600060048201819052600160248301523031604483015291519194506001600160a01b039092169250635e0d443f91606480820192602092909190829003018186803b15801561510257600080fd5b505afa158015615116573d6000803e3d6000fd5b505050506040513d602081101561512c57600080fd5b5051905030318110156151a757600b546040805163a1903eab60e01b8152306004820181905291516001600160a01b039093169263a1903eab92319160248082019260009290919082900301818588803b15801561518957600080fd5b505af115801561519d573d6000803e3d6000fd5b505050505061523d565b600d5460408051630f7c084960e21b8152600060048201819052600160248301523080316044840152606483019190915291516001600160a01b0390931692633df0212492319160848082019260209290919082900301818588803b15801561520f57600080fd5b505af1158015615223573d6000803e3d6000fd5b50505050506040513d602081101561523a57600080fd5b50505b50600b54604080516370a0823160e01b815230600482015290516000926001600160a01b0316916370a08231916024808301926020929190829003018186803b15801561528957600080fd5b505afa15801561529d573d6000803e3d6000fd5b505050506040513d60208110156152b357600080fd5b5051600b5460085460408051636eb1769f60e11b81523060048201526001600160a01b039283166024820152905193945091169163dd62ed3e91604480820192602092909190829003018186803b15801561530d57600080fd5b505afa158015615321573d6000803e3d6000fd5b505050506040513d602081101561533757600080fd5b50511561536257600854600b54615362916001600160a01b039182169116600063ffffffff61442f16565b600854600b54615385916001600160a01b0391821691168363ffffffff61442f16565b600854600b546040805163e8eda9df60e01b81526001600160a01b039283166004820152602481018590523060448201526000606482018190529151929093169263e8eda9df926084808301939282900301818387803b1580156153e857600080fd5b505af11580156153fc573d6000803e3d6000fd5b5050505060008373__$a9a8d1961035b53b0764f52bb033fed341$__63e6cb90139091856040518363ffffffff1660e01b8152600401808381526020018281526020019250505060206040518083038186803b15801561545b57600080fd5b505af415801561546f573d6000803e3d6000fd5b505050506040513d602081101561548557600080fd5b5051600854600e546040805163a415bcad60e01b81526001600160a01b03928316600482015260248101859052600260448201526000606482018190523060848301529151949550919092169263a415bcad9260a48084019391929182900301818387803b1580156154f657600080fd5b505af115801561550a573d6000803e3d6000fd5b5050600954600e5461553193506001600160a01b039081169250168363ffffffff615e4016565b50505050565b600c54604080516370a0823160e01b8152306004820152905160009273__$a9a8d1961035b53b0764f52bb033fed341$__9263d05c78da9287926001600160a01b0316916370a08231916024808301926020929190829003018186803b1580156155a057600080fd5b505afa1580156155b4573d6000803e3d6000fd5b505050506040513d60208110156155ca57600080fd5b5051604080516001600160e01b031960e086901b16815260048101939093526024830191909152516044808301926020929190829003018186803b15801561561157600080fd5b505af4158015615625573d6000803e3d6000fd5b505050506040513d602081101561563b57600080fd5b505173__$a9a8d1961035b53b0764f52bb033fed341$__9063b5931f7c90615661611376565b6040518363ffffffff1660e01b8152600401808381526020018281526020019250505060206040518083038186803b15801561569c57600080fd5b505af41580156156b0573d6000803e3d6000fd5b505050506040513d60208110156156c657600080fd5b5051600e5460085460408051636eb1769f60e11b81523060048201526001600160a01b039283166024820152905193945091169163dd62ed3e91604480820192602092909190829003018186803b15801561572057600080fd5b505afa158015615734573d6000803e3d6000fd5b505050506040513d602081101561574a57600080fd5b50511561577557600854600e54615775916001600160a01b039182169116600063ffffffff61442f16565b600854600e54615798916001600160a01b0391821691168563ffffffff61442f16565b600854600e546040805163573ade8160e01b81526001600160a01b03928316600482015260248101879052600260448201523060648201529051919092169163573ade819160848083019260209291908290030181600087803b1580156157fe57600080fd5b505af1158015615812573d6000803e3d6000fd5b505050506040513d602081101561582857600080fd5b5050600854600b5460408051631a4ca37b60e21b81526001600160a01b03928316600482015260248101859052306044820152905191909216916369328dec9160648083019260209291908290030181600087803b15801561588957600080fd5b505af115801561589d573d6000803e3d6000fd5b505050506040513d60208110156158b357600080fd5b5050600b54600d5460408051636eb1769f60e11b81523060048201526001600160a01b0392831660248201529051919092169163dd62ed3e916044808301926020929190829003018186803b15801561590b57600080fd5b505afa15801561591f573d6000803e3d6000fd5b505050506040513d602081101561593557600080fd5b50511561596057600d54600b54615960916001600160a01b039182169116600063ffffffff61442f16565b600d54600b54615983916001600160a01b0391821691168363ffffffff61442f16565b600d5460408051630f7c084960e21b815260016004820152600060248201819052604482018590526064820181905291516001600160a01b0390931692633df0212492608480840193602093929083900390910190829087803b1580156159e957600080fd5b505af11580156159fd573d6000803e3d6000fd5b505050506040513d6020811015615a1357600080fd5b5050600e546040805163e6cb901360e01b8152600481018690526024810185905290516000926001600160a01b03169173__$a9a8d1961035b53b0764f52bb033fed341$__9163e6cb901391604480820192602092909190829003018186803b158015615a7f57600080fd5b505af4158015615a93573d6000803e3d6000fd5b505050506040513d6020811015615aa957600080fd5b5051604051600081818185875af1925050503d8060008114615ae7576040519150601f19603f3d011682016040523d82523d6000602084013e615aec565b606091505b5050905080615b38576040805162461bcd60e51b81526020600482015260136024820152721d1c985b9cd9995c88195d1a0819985a5b1959606a1b604482015290519081900360640190fd5b6009546040805163e6cb901360e01b815260048101879052602481018690529051615531926001600160a01b03169173__$a9a8d1961035b53b0764f52bb033fed341$__9163e6cb901391604480820192602092909190829003018186803b158015615ba357600080fd5b505af4158015615bb7573d6000803e3d6000fd5b505050506040513d6020811015615bcd57600080fd5b5051600e546001600160a01b0316919063ffffffff615e4016565b6001600160a01b038116615c2d5760405162461bcd60e51b8152600401808060200182810382526026815260200180615ecf6026913960400191505060405180910390fd5b600080546040516001600160a01b03808516939216917f8be0079c531659141344cd1fd0a4f28419497f9722a3daafe3b4186f6b6457e091a3600080546001600160a01b0319166001600160a01b0392909216919091179055565b615c9a826001600160a01b0316615e92565b615ceb576040805162461bcd60e51b815260206004820152601f60248201527f5361666545524332303a2063616c6c20746f206e6f6e2d636f6e747261637400604482015290519081900360640190fd5b60006060836001600160a01b0316836040518082805190602001908083835b60208310615d295780518252601f199092019160209182019101615d0a565b6001836020036101000a0380198251168184511680821785525050505050509050019150506000604051808303816000865af19150503d8060008114615d8b576040519150601f19603f3d011682016040523d82523d6000602084013e615d90565b606091505b509150915081615de7576040805162461bcd60e51b815260206004820181905260248201527f5361666545524332303a206c6f772d6c6576656c2063616c6c206661696c6564604482015290519081900360640190fd5b80511561553157808060200190516020811015615e0357600080fd5b50516155315760405162461bcd60e51b815260040180806020018281038252602a815260200180615f15602a913960400191505060405180910390fd5b604080516001600160a01b038416602482015260448082018490528251808303909101815260649091019091526020810180516001600160e01b031663a9059cbb60e01b179052614542908490615c88565b6000813f7fc5d2460186f7233c927e7db2dcc703c0e500b653ca82273b7bfad8045d85a4708115801590615ec65750808214155b94935050505056fe4f776e61626c653a206e6577206f776e657220697320746865207a65726f20616464726573734f776e61626c653a2063616c6c6572206973206e6f7420746865206f776e65725361666545524332303a204552433230206f7065726174696f6e20646964206e6f7420737563636565645361666545524332303a20617070726f76652066726f6d206e6f6e2d7a65726f20746f206e6f6e2d7a65726f20616c6c6f77616e6365a265627a7a72305820e9b03ceaf2b5f182319afe39e3da34438e6b1df50d37378bab04672caa6b22bd64736f6c634300050a0032","linkReferences":{"src/Contract.sol":{"SafeMath":[{"start":2537,"length":20},{"start":2702,"length":20},{"start":2878,"length":20},{"start":3045,"length":20},{"start":3305,"length":20},{"start":3535,"length":20},{"start":3673,"length":20},{"start":5698,"length":20},{"start":5863,"length":20},{"start":6881,"length":20},{"start":7015,"length":20},{"start":7378,"length":20},{"start":7502,"length":20},{"start":8037,"length":20},{"start":8189,"length":20},{"start":11535,"length":20},{"start":11700,"length":20},{"start":11963,"length":20},{"start":12221,"length":20},{"start":12909,"length":20},{"start":13049,"length":20},{"start":13172,"length":20},{"start":13432,"length":20},{"start":13863,"length":20},{"start":14139,"length":20},{"start":14262,"length":20},{"start":14903,"length":20},{"start":15068,"length":20},{"start":15243,"length":20},{"start":15408,"length":20},{"start":15668,"length":20},{"start":15930,"length":20},{"start":16064,"length":20},{"start":16197,"length":20},{"start":16330,"length":20},{"start":18290,"length":20},{"start":18467,"length":20},{"start":18600,"length":20},{"start":18740,"length":20},{"start":18855,"length":20},{"start":19019,"length":20},{"start":19159,"length":20},{"start":19303,"length":20},{"start":19436,"length":20},{"start":19589,"length":20},{"start":19848,"length":20},{"start":20217,"length":20},{"start":20451,"length":20},{"start":20487,"length":20},{"start":21915,"length":20},{"start":22251,"length":20},{"start":22485,"length":20},{"start":23515,"length":20},{"start":23807,"length":20}]}}},"methodIdentifiers":{"aave()":"819faf7b","asteth()":"3fee3662","balancer()":"e563037e","balancer_fee()":"3f9d4956","block_rate()":"eaa8fa8b","callWithData(address,bytes,uint256,bool)":"4f32c41e","changeFeeConfig(address,uint256)":"0cf5018a","changeMaxLoanRate(uint256)":"6c6dedbf","curve_pool()":"93d597c3","deposit(uint256)":"b6b55f25","ef_token()":"647a51dd","fee_pool()":"797d1985","getCollecteral()":"457d3087","getDebt()":"14a6bf0f","getFeeParam()":"2a7340d7","getVirtualPrice()":"e25aa5fa","getVolume()":"c67bbc24","is_paused()":"9d4f8aa9","last_earn_block()":"5bfb6223","lido()":"23509a2d","mlr()":"5a18aa83","owner()":"8da5cb5b","pause()":"8456cb59","raiseActualLTV(uint256)":"f4c35c82","ratio_base()":"0e775274","receiveFlashLoan(address[],uint256[],uint256[],bytes)":"f04f2707","reduceActualLTV()":"05665f79","restart()":"1ef3755d","transferOwnership(address)":"f2fde38b","weth()":"3fc8cef3","withdraw(uint256)":"2e1a7d4d"},"storageLayout":{"storage":[],"types":{}},"id":0}