{"abi":[{"type":"constructor","inputs":[{"name":"_name","type":"string","internalType":"string"},{"name":"_symbol","type":"string","internalType":"string"},{"name":"_treasury","type":"address","internalType":"address"},{"name":"_zagabond","type":"address","internalType":"address"},{"name":"_signatureManager","type":"address","internalType":"address"},{"name":"_contracts","type":"address[]","internalType":"address[]"}],"stateMutability":"nonpayable"},{"type":"receive","stateMutability":"payable"},{"type":"function","name":"MAX_SUPPLY","inputs":[],"outputs":[{"name":"","type":"uint256","internalType":"uint256"}],"stateMutability":"view"},{"type":"function","name":"allowance","inputs":[{"name":"owner","type":"address","internalType":"address"},{"name":"spender","type":"address","internalType":"address"}],"outputs":[{"name":"","type":"uint256","internalType":"uint256"}],"stateMutability":"view"},{"type":"function","name":"approve","inputs":[{"name":"spender","type":"address","internalType":"address"},{"name":"amount","type":"uint256","internalType":"uint256"}],"outputs":[{"name":"","type":"bool","internalType":"bool"}],"stateMutability":"nonpayable"},{"type":"function","name":"balanceOf","inputs":[{"name":"account","type":"address","internalType":"address"}],"outputs":[{"name":"","type":"uint256","internalType":"uint256"}],"stateMutability":"view"},{"type":"function","name":"claim","inputs":[{"name":"_contracts","type":"address[]","internalType":"address[]"},{"name":"_amounts","type":"uint256[]","internalType":"uint256[]"},{"name":"_tokenIds","type":"uint256[]","internalType":"uint256[]"},{"name":"_claimAmount","type":"uint256","internalType":"uint256"},{"name":"_endTime","type":"uint256","internalType":"uint256"},{"name":"_signature","type":"bytes","internalType":"bytes"}],"outputs":[],"stateMutability":"nonpayable"},{"type":"function","name":"contractSupports","inputs":[{"name":"","type":"address","internalType":"address"}],"outputs":[{"name":"","type":"bool","internalType":"bool"}],"stateMutability":"view"},{"type":"function","name":"decimals","inputs":[],"outputs":[{"name":"","type":"uint8","internalType":"uint8"}],"stateMutability":"view"},{"type":"function","name":"decreaseAllowance","inputs":[{"name":"spender","type":"address","internalType":"address"},{"name":"subtractedValue","type":"uint256","internalType":"uint256"}],"outputs":[{"name":"","type":"bool","internalType":"bool"}],"stateMutability":"nonpayable"},{"type":"function","name":"finish","inputs":[],"outputs":[],"stateMutability":"nonpayable"},{"type":"function","name":"increaseAllowance","inputs":[{"name":"spender","type":"address","internalType":"address"},{"name":"addedValue","type":"uint256","internalType":"uint256"}],"outputs":[{"name":"","type":"bool","internalType":"bool"}],"stateMutability":"nonpayable"},{"type":"function","name":"name","inputs":[],"outputs":[{"name":"","type":"string","internalType":"string"}],"stateMutability":"view"},{"type":"function","name":"owner","inputs":[],"outputs":[{"name":"","type":"address","internalType":"address"}],"stateMutability":"view"},{"type":"function","name":"pause","inputs":[],"outputs":[],"stateMutability":"nonpayable"},{"type":"function","name":"paused","inputs":[],"outputs":[{"name":"","type":"bool","internalType":"bool"}],"stateMutability":"view"},{"type":"function","name":"renounceOwnership","inputs":[],"outputs":[],"stateMutability":"nonpayable"},{"type":"function","name":"setContractSupports","inputs":[{"name":"_contracts","type":"address[]","internalType":"address[]"},{"name":"_enables","type":"bool[]","internalType":"bool[]"}],"outputs":[],"stateMutability":"nonpayable"},{"type":"function","name":"setSignatureManager","inputs":[{"name":"_signatureManager","type":"address","internalType":"address"}],"outputs":[],"stateMutability":"nonpayable"},{"type":"function","name":"signatureClaimed","inputs":[{"name":"","type":"bytes","internalType":"bytes"}],"outputs":[{"name":"","type":"bool","internalType":"bool"}],"stateMutability":"view"},{"type":"function","name":"signatureManager","inputs":[],"outputs":[{"name":"","type":"address","internalType":"address"}],"stateMutability":"view"},{"type":"function","name":"symbol","inputs":[],"outputs":[{"name":"","type":"string","internalType":"string"}],"stateMutability":"view"},{"type":"function","name":"tokenClaimed","inputs":[{"name":"","type":"address","internalType":"address"},{"name":"","type":"uint256","internalType":"uint256"}],"outputs":[{"name":"","type":"bool","internalType":"bool"}],"stateMutability":"view"},{"type":"function","name":"totalSupply","inputs":[],"outputs":[{"name":"","type":"uint256","internalType":"uint256"}],"stateMutability":"view"},{"type":"function","name":"transfer","inputs":[{"name":"to","type":"address","internalType":"address"},{"name":"amount","type":"uint256","internalType":"uint256"}],"outputs":[{"name":"","type":"bool","internalType":"bool"}],"stateMutability":"nonpayable"},{"type":"function","name":"transferFrom","inputs":[{"name":"from","type":"address","internalType":"address"},{"name":"to","type":"address","internalType":"address"},{"name":"amount","type":"uint256","internalType":"uint256"}],"outputs":[{"name":"","type":"bool","internalType":"bool"}],"stateMutability":"nonpayable"},{"type":"function","name":"transferOwnership","inputs":[{"name":"newOwner","type":"address","internalType":"address"}],"outputs":[],"stateMutability":"nonpayable"},{"type":"function","name":"unpause","inputs":[],"outputs":[],"stateMutability":"nonpayable"},{"type":"function","name":"withdraw","inputs":[{"name":"_receiver","type":"address","internalType":"address"},{"name":"_token","type":"address","internalType":"address"},{"name":"_isETH","type":"bool","internalType":"bool"}],"outputs":[],"stateMutability":"nonpayable"},{"type":"event","name":"Approval","inputs":[{"name":"owner","type":"address","indexed":true,"internalType":"address"},{"name":"spender","type":"address","indexed":true,"internalType":"address"},{"name":"value","type":"uint256","indexed":false,"internalType":"uint256"}],"anonymous":false},{"type":"event","name":"OwnershipTransferred","inputs":[{"name":"previousOwner","type":"address","indexed":true,"internalType":"address"},{"name":"newOwner","type":"address","indexed":true,"internalType":"address"}],"anonymous":false},{"type":"event","name":"Paused","inputs":[{"name":"account","type":"address","indexed":false,"internalType":"address"}],"anonymous":false},{"type":"event","name":"Transfer","inputs":[{"name":"from","type":"address","indexed":true,"internalType":"address"},{"name":"to","type":"address","indexed":true,"internalType":"address"},{"name":"value","type":"uint256","indexed":false,"internalType":"uint256"}],"anonymous":false},{"type":"event","name":"Unpaused","inputs":[{"name":"account","type":"address","indexed":false,"internalType":"address"}],"anonymous":false}],"bytecode":{"object":"0x60806040523480156200001157600080fd5b5060405162004837380380620048378339818101604052810190620000379190620006db565b8585816003908051906020019062000051929190620004e8565b5080600490805190602001906200006a929190620004e8565b5050506000600560006101000a81548160ff021916908315150217905550620000a86200009c6200027260201b60201c565b6200027a60201b60201c565b6001600681905550620000e830620000dc60026b033b2e3c9fd0803ce80000006200034060201b620013901790919060201c565b6200035860201b60201c565b6200013a846200012e60046200011a600a6b033b2e3c9fd0803ce80000006200034060201b620013901790919060201c565b620004c660201b620013a61790919060201c565b6200035860201b60201c565b6200018c836200018060016200016c600a6b033b2e3c9fd0803ce80000006200034060201b620013901790919060201c565b620004c660201b620013a61790919060201c565b6200035860201b60201c565b81600760006101000a81548173ffffffffffffffffffffffffffffffffffffffff021916908373ffffffffffffffffffffffffffffffffffffffff16021790555060005b815181101562000265576001600a6000848481518110620001f657620001f562000b9b565b5b602002602001015173ffffffffffffffffffffffffffffffffffffffff1673ffffffffffffffffffffffffffffffffffffffff16815260200190815260200160002060006101000a81548160ff02191690831515021790555080806200025c9062000ac0565b915050620001d0565b5050505050505062000c66565b600033905090565b6000600560019054906101000a900473ffffffffffffffffffffffffffffffffffffffff16905081600560016101000a81548173ffffffffffffffffffffffffffffffffffffffff021916908373ffffffffffffffffffffffffffffffffffffffff1602179055508173ffffffffffffffffffffffffffffffffffffffff168173ffffffffffffffffffffffffffffffffffffffff167f8be0079c531659141344cd1fd0a4f28419497f9722a3daafe3b4186f6b6457e060405160405180910390a35050565b6000818362000350919062000947565b905092915050565b600073ffffffffffffffffffffffffffffffffffffffff168273ffffffffffffffffffffffffffffffffffffffff161415620003cb576040517f08c379a0000000000000000000000000000000000000000000000000000000008152600401620003c2906200080c565b60405180910390fd5b620003df60008383620004de60201b60201c565b8060026000828254620003f39190620008ea565b92505081905550806000808473ffffffffffffffffffffffffffffffffffffffff1673ffffffffffffffffffffffffffffffffffffffff168152602001908152602001600020600082825401925050819055508173ffffffffffffffffffffffffffffffffffffffff16600073ffffffffffffffffffffffffffffffffffffffff167fddf252ad1be2c89b69c2b068fc378daa952ba7f163c4a11628f55a4df523b3ef83604051620004a691906200082e565b60405180910390a3620004c260008383620004e360201b60201c565b5050565b60008183620004d691906200097f565b905092915050565b505050565b505050565b828054620004f69062000a54565b90600052602060002090601f0160209004810192826200051a576000855562000566565b82601f106200053557805160ff191683800117855562000566565b8280016001018555821562000566579182015b828111156200056557825182559160200191906001019062000548565b5b50905062000575919062000579565b5090565b5b80821115620005945760008160009055506001016200057a565b5090565b6000620005af620005a98462000874565b6200084b565b90508083825260208201905082856020860282011115620005d557620005d462000bfe565b5b60005b85811015620006095781620005ee88826200065e565b845260208401935060208301925050600181019050620005d8565b5050509392505050565b60006200062a6200062484620008a3565b6200084b565b90508281526020810184848401111562000649576200064862000c03565b5b6200065684828562000a1e565b509392505050565b6000815190506200066f8162000c4c565b92915050565b600082601f8301126200068d576200068c62000bf9565b5b81516200069f84826020860162000598565b91505092915050565b600082601f830112620006c057620006bf62000bf9565b5b8151620006d284826020860162000613565b91505092915050565b60008060008060008060c08789031215620006fb57620006fa62000c0d565b5b600087015167ffffffffffffffff8111156200071c576200071b62000c08565b5b6200072a89828a01620006a8565b965050602087015167ffffffffffffffff8111156200074e576200074d62000c08565b5b6200075c89828a01620006a8565b95505060406200076f89828a016200065e565b94505060606200078289828a016200065e565b93505060806200079589828a016200065e565b92505060a087015167ffffffffffffffff811115620007b957620007b862000c08565b5b620007c789828a0162000675565b9150509295509295509295565b6000620007e3601f83620008d9565b9150620007f08262000c23565b602082019050919050565b620008068162000a14565b82525050565b600060208201905081810360008301526200082781620007d4565b9050919050565b6000602082019050620008456000830184620007fb565b92915050565b6000620008576200086a565b905062000865828262000a8a565b919050565b6000604051905090565b600067ffffffffffffffff82111562000892576200089162000bca565b5b602082029050602081019050919050565b600067ffffffffffffffff821115620008c157620008c062000bca565b5b620008cc8262000c12565b9050602081019050919050565b600082825260208201905092915050565b6000620008f78262000a14565b9150620009048362000a14565b9250827fffffffffffffffffffffffffffffffffffffffffffffffffffffffffffffffff038211156200093c576200093b62000b0e565b5b828201905092915050565b6000620009548262000a14565b9150620009618362000a14565b92508262000974576200097362000b3d565b5b828204905092915050565b60006200098c8262000a14565b9150620009998362000a14565b9250817fffffffffffffffffffffffffffffffffffffffffffffffffffffffffffffffff0483118215151615620009d557620009d462000b0e565b5b828202905092915050565b6000620009ed82620009f4565b9050919050565b600073ffffffffffffffffffffffffffffffffffffffff82169050919050565b6000819050919050565b60005b8381101562000a3e57808201518184015260208101905062000a21565b8381111562000a4e576000848401525b50505050565b6000600282049050600182168062000a6d57607f821691505b6020821081141562000a845762000a8362000b6c565b5b50919050565b62000a958262000c12565b810181811067ffffffffffffffff8211171562000ab75762000ab662000bca565b5b80604052505050565b600062000acd8262000a14565b91507fffffffffffffffffffffffffffffffffffffffffffffffffffffffffffffffff82141562000b035762000b0262000b0e565b5b600182019050919050565b7f4e487b7100000000000000000000000000000000000000000000000000000000600052601160045260246000fd5b7f4e487b7100000000000000000000000000000000000000000000000000000000600052601260045260246000fd5b7f4e487b7100000000000000000000000000000000000000000000000000000000600052602260045260246000fd5b7f4e487b7100000000000000000000000000000000000000000000000000000000600052603260045260246000fd5b7f4e487b7100000000000000000000000000000000000000000000000000000000600052604160045260246000fd5b600080fd5b600080fd5b600080fd5b600080fd5b600080fd5b6000601f19601f8301169050919050565b7f45524332303a206d696e7420746f20746865207a65726f206164647265737300600082015250565b62000c5781620009e0565b811462000c6357600080fd5b50565b613bc18062000c766000396000f3fe6080604052600436106101a05760003560e01c806370a08231116100ec578063a457c2d71161008a578063d56b288911610064578063d56b2889146105d5578063dd62ed3e146105ec578063ea3bb66714610629578063f2fde38b14610666576101a7565b8063a457c2d71461051e578063a9059cbb1461055b578063b332a30714610598576101a7565b806387503f85116100c657806387503f85146104625780638da5cb5b1461049f57806390323fd3146104ca57806395d89b41146104f3576101a7565b806370a08231146103f7578063715018a6146104345780638456cb591461044b576101a7565b80633319f3e3116101595780633f4ba83a116101335780633f4ba83a146103635780634b41f34c1461037a5780635c975abb146103a3578063677d28ca146103ce576101a7565b80633319f3e3146102d2578063359c6792146102fb5780633950935114610326576101a7565b806306fdde03146101ac578063095ea7b3146101d757806318160ddd1461021457806323b872dd1461023f578063313ce5671461027c57806332cb6b0c146102a7576101a7565b366101a757005b600080fd5b3480156101b857600080fd5b506101c161068f565b6040516101ce9190612d09565b60405180910390f35b3480156101e357600080fd5b506101fe60048036038101906101f9919061246a565b610721565b60405161020b9190612ca9565b60405180910390f35b34801561022057600080fd5b50610229610744565b604051610236919061302b565b60405180910390f35b34801561024b57600080fd5b5061026660048036038101906102619190612417565b61074e565b6040516102739190612ca9565b60405180910390f35b34801561028857600080fd5b5061029161077d565b60405161029e9190613046565b60405180910390f35b3480156102b357600080fd5b506102bc610786565b6040516102c9919061302b565b60405180910390f35b3480156102de57600080fd5b506102f960048036038101906102f49190612522565b610796565b005b34801561030757600080fd5b50610310610cc5565b60405161031d9190612c65565b60405180910390f35b34801561033257600080fd5b5061034d6004803603810190610348919061246a565b610ceb565b60405161035a9190612ca9565b60405180910390f35b34801561036f57600080fd5b50610378610d22565b005b34801561038657600080fd5b506103a1600480360381019061039c919061232a565b610d3c565b005b3480156103af57600080fd5b506103b8610d88565b6040516103c59190612ca9565b60405180910390f35b3480156103da57600080fd5b506103f560048036038101906103f091906123c4565b610d9f565b005b34801561040357600080fd5b5061041e6004803603810190610419919061232a565b610f15565b60405161042b919061302b565b60405180910390f35b34801561044057600080fd5b50610449610f5d565b005b34801561045757600080fd5b50610460610f71565b005b34801561046e57600080fd5b506104896004803603810190610484919061232a565b610f8b565b6040516104969190612ca9565b60405180910390f35b3480156104ab57600080fd5b506104b4610fab565b6040516104c19190612c65565b60405180910390f35b3480156104d657600080fd5b506104f160048036038101906104ec91906124aa565b610fd5565b005b3480156104ff57600080fd5b506105086110d0565b6040516105159190612d09565b60405180910390f35b34801561052a57600080fd5b506105456004803603810190610540919061246a565b611162565b6040516105529190612ca9565b60405180910390f35b34801561056757600080fd5b50610582600480360381019061057d919061246a565b6111d9565b60405161058f9190612ca9565b60405180910390f35b3480156105a457600080fd5b506105bf60048036038101906105ba919061264c565b6111fc565b6040516105cc9190612ca9565b60405180910390f35b3480156105e157600080fd5b506105ea611232565b005b3480156105f857600080fd5b50610613600480360381019061060e9190612384565b611256565b604051610620919061302b565b60405180910390f35b34801561063557600080fd5b50610650600480360381019061064b919061246a565b6112dd565b60405161065d9190612ca9565b60405180910390f35b34801561067257600080fd5b5061068d6004803603810190610688919061232a565b61130c565b005b60606003805461069e90613355565b80601f01602080910402602001604051908101604052809291908181526020018280546106ca90613355565b80156107175780601f106106ec57610100808354040283529160200191610717565b820191906000526020600020905b8154815290600101906020018083116106fa57829003601f168201915b5050505050905090565b60008061072c6113bc565b90506107398185856113c4565b600191505092915050565b6000600254905090565b6000806107596113bc565b905061076685828561158f565b61077185858561161b565b60019150509392505050565b60006012905090565b6b033b2e3c9fd0803ce800000081565b61079e611893565b6107a66118dd565b84518651146107ea576040517f08c379a00000000000000000000000000000000000000000000000000000000081526004016107e190612deb565b60405180910390fd5b60005b86518110156108af57600a600088838151811061080d5761080c6134eb565b5b602002602001015173ffffffffffffffffffffffffffffffffffffffff1673ffffffffffffffffffffffffffffffffffffffff16815260200190815260200160002060009054906101000a900460ff1661089c576040517f08c379a000000000000000000000000000000000000000000000000000000000815260040161089390612eeb565b60405180910390fd5b80806108a7906133b8565b9150506107ed565b50600080600090505b86518110156108fc578681815181106108d4576108d36134eb565b5b6020026020010151826108e791906131d3565b915080806108f4906133b8565b9150506108b8565b5084518114610940576040517f08c379a000000000000000000000000000000000000000000000000000000000815260040161093790612e4b565b60405180910390fd5b6000338887878760405160200161095b959493929190612bf7565b60405160208183030381529060405280519060200120905061098e836109808361192d565b61196390919063ffffffff16565b73ffffffffffffffffffffffffffffffffffffffff16600760009054906101000a900473ffffffffffffffffffffffffffffffffffffffff1673ffffffffffffffffffffffffffffffffffffffff1614610a1d576040517f08c379a0000000000000000000000000000000000000000000000000000000008152600401610a1490612d8b565b60405180910390fd5b83421115610a60576040517f08c379a0000000000000000000000000000000000000000000000000000000008152600401610a5790612feb565b60405180910390fd5b60008060005b8951811015610c6e57898181518110610a8257610a816134eb565b5b602002602001015182610a9591906131d3565b925060008290505b83811015610c575760008c8381518110610aba57610ab96134eb565b5b6020026020010151905060008b8381518110610ad957610ad86134eb565b5b602002602001015190503373ffffffffffffffffffffffffffffffffffffffff168273ffffffffffffffffffffffffffffffffffffffff16636352211e836040518263ffffffff1660e01b8152600401610b33919061302b565b60206040518083038186803b158015610b4b57600080fd5b505afa158015610b5f573d6000803e3d6000fd5b505050506040513d601f19601f82011682018060405250810190610b839190612357565b73ffffffffffffffffffffffffffffffffffffffff1614610bd9576040517f08c379a0000000000000000000000000000000000000000000000000000000008152600401610bd090612fcb565b60405180910390fd5b6001600860008473ffffffffffffffffffffffffffffffffffffffff1673ffffffffffffffffffffffffffffffffffffffff168152602001908152602001600020600083815260200190815260200160002060006101000a81548160ff02191690831515021790555050508080610c4f906133b8565b915050610a9d565b508291508080610c66906133b8565b915050610a66565b506001600986604051610c819190612c4e565b908152602001604051809103902060006101000a81548160ff021916908315150217905550610cb130338961161b565b50505050610cbd61198a565b505050505050565b600760009054906101000a900473ffffffffffffffffffffffffffffffffffffffff1681565b600080610cf66113bc565b9050610d17818585610d088589611256565b610d1291906131d3565b6113c4565b600191505092915050565b610d2a611994565b610d32611a12565b610d3a611a5b565b565b610d44611994565b80600760006101000a81548173ffffffffffffffffffffffffffffffffffffffff021916908373ffffffffffffffffffffffffffffffffffffffff16021790555050565b6000600560009054906101000a900460ff16905090565b610da7611994565b8015610df9578273ffffffffffffffffffffffffffffffffffffffff166108fc479081150290604051600060405180830381858888f19350505050158015610df3573d6000803e3d6000fd5b50610f10565b8173ffffffffffffffffffffffffffffffffffffffff1663a9059cbb848473ffffffffffffffffffffffffffffffffffffffff166370a08231306040518263ffffffff1660e01b8152600401610e4f9190612c65565b60206040518083038186803b158015610e6757600080fd5b505afa158015610e7b573d6000803e3d6000fd5b505050506040513d601f19601f82011682018060405250810190610e9f9190612695565b6040518363ffffffff1660e01b8152600401610ebc929190612c80565b602060405180830381600087803b158015610ed657600080fd5b505af1158015610eea573d6000803e3d6000fd5b505050506040513d601f19601f82011682018060405250810190610f0e919061261f565b505b505050565b60008060008373ffffffffffffffffffffffffffffffffffffffff1673ffffffffffffffffffffffffffffffffffffffff168152602001908152602001600020549050919050565b610f65611994565b610f6f6000611abe565b565b610f79611994565b610f81611893565b610f89611b84565b565b600a6020528060005260406000206000915054906101000a900460ff1681565b6000600560019054906101000a900473ffffffffffffffffffffffffffffffffffffffff16905090565b610fdd611994565b8051825114611021576040517f08c379a000000000000000000000000000000000000000000000000000000000815260040161101890612f6b565b60405180910390fd5b60005b82518110156110cb578181815181106110405761103f6134eb565b5b6020026020010151600a600085848151811061105f5761105e6134eb565b5b602002602001015173ffffffffffffffffffffffffffffffffffffffff1673ffffffffffffffffffffffffffffffffffffffff16815260200190815260200160002060006101000a81548160ff02191690831515021790555080806110c3906133b8565b915050611024565b505050565b6060600480546110df90613355565b80601f016020809104026020016040519081016040528092919081815260200182805461110b90613355565b80156111585780601f1061112d57610100808354040283529160200191611158565b820191906000526020600020905b81548152906001019060200180831161113b57829003601f168201915b5050505050905090565b60008061116d6113bc565b9050600061117b8286611256565b9050838110156111c0576040517f08c379a00000000000000000000000000000000000000000000000000000000081526004016111b79061300b565b60405180910390fd5b6111cd82868684036113c4565b60019250505092915050565b6000806111e46113bc565b90506111f181858561161b565b600191505092915050565b6009818051602081018201805184825260208301602085012081835280955050505050506000915054906101000a900460ff1681565b61123a611994565b611242611a12565b6112543061124f30610f15565b611be7565b565b6000600160008473ffffffffffffffffffffffffffffffffffffffff1673ffffffffffffffffffffffffffffffffffffffff16815260200190815260200160002060008373ffffffffffffffffffffffffffffffffffffffff1673ffffffffffffffffffffffffffffffffffffffff16815260200190815260200160002054905092915050565b60086020528160005260406000206020528060005260406000206000915091509054906101000a900460ff1681565b611314611994565b600073ffffffffffffffffffffffffffffffffffffffff168173ffffffffffffffffffffffffffffffffffffffff161415611384576040517f08c379a000000000000000000000000000000000000000000000000000000000815260040161137b90612e0b565b60405180910390fd5b61138d81611abe565b50565b6000818361139e9190613229565b905092915050565b600081836113b4919061325a565b905092915050565b600033905090565b600073ffffffffffffffffffffffffffffffffffffffff168373ffffffffffffffffffffffffffffffffffffffff161415611434576040517f08c379a000000000000000000000000000000000000000000000000000000000815260040161142b90612f8b565b60405180910390fd5b600073ffffffffffffffffffffffffffffffffffffffff168273ffffffffffffffffffffffffffffffffffffffff1614156114a4576040517f08c379a000000000000000000000000000000000000000000000000000000000815260040161149b90612e2b565b60405180910390fd5b80600160008573ffffffffffffffffffffffffffffffffffffffff1673ffffffffffffffffffffffffffffffffffffffff16815260200190815260200160002060008473ffffffffffffffffffffffffffffffffffffffff1673ffffffffffffffffffffffffffffffffffffffff168152602001908152602001600020819055508173ffffffffffffffffffffffffffffffffffffffff168373ffffffffffffffffffffffffffffffffffffffff167f8c5be1e5ebec7d5bd14f71427d1e84f3dd0314c0f7b2291e5b200ac8c7c3b92583604051611582919061302b565b60405180910390a3505050565b600061159b8484611256565b90507fffffffffffffffffffffffffffffffffffffffffffffffffffffffffffffffff81146116155781811015611607576040517f08c379a00000000000000000000000000000000000000000000000000000000081526004016115fe90612e6b565b60405180910390fd5b61161484848484036113c4565b5b50505050565b600073ffffffffffffffffffffffffffffffffffffffff168373ffffffffffffffffffffffffffffffffffffffff16141561168b576040517f08c379a000000000000000000000000000000000000000000000000000000000815260040161168290612f4b565b60405180910390fd5b600073ffffffffffffffffffffffffffffffffffffffff168273ffffffffffffffffffffffffffffffffffffffff1614156116fb576040517f08c379a00000000000000000000000000000000000000000000000000000000081526004016116f290612d4b565b60405180910390fd5b611706838383611db5565b60008060008573ffffffffffffffffffffffffffffffffffffffff1673ffffffffffffffffffffffffffffffffffffffff1681526020019081526020016000205490508181101561178c576040517f08c379a000000000000000000000000000000000000000000000000000000000815260040161178390612e8b565b60405180910390fd5b8181036000808673ffffffffffffffffffffffffffffffffffffffff1673ffffffffffffffffffffffffffffffffffffffff16815260200190815260200160002081905550816000808573ffffffffffffffffffffffffffffffffffffffff1673ffffffffffffffffffffffffffffffffffffffff168152602001908152602001600020600082825401925050819055508273ffffffffffffffffffffffffffffffffffffffff168473ffffffffffffffffffffffffffffffffffffffff167fddf252ad1be2c89b69c2b068fc378daa952ba7f163c4a11628f55a4df523b3ef8460405161187a919061302b565b60405180910390a361188d848484611dba565b50505050565b61189b610d88565b156118db576040517f08c379a00000000000000000000000000000000000000000000000000000000081526004016118d290612ecb565b60405180910390fd5b565b60026006541415611923576040517f08c379a000000000000000000000000000000000000000000000000000000000815260040161191a90612fab565b60405180910390fd5b6002600681905550565b60007f19457468657265756d205369676e6564204d6573736167653a0a33320000000060005281601c52603c6000209050919050565b60008060006119728585611dbf565b9150915061197f81611e11565b819250505092915050565b6001600681905550565b61199c6113bc565b73ffffffffffffffffffffffffffffffffffffffff166119ba610fab565b73ffffffffffffffffffffffffffffffffffffffff1614611a10576040517f08c379a0000000000000000000000000000000000000000000000000000000008152600401611a0790612f0b565b60405180910390fd5b565b611a1a610d88565b611a59576040517f08c379a0000000000000000000000000000000000000000000000000000000008152600401611a5090612d6b565b60405180910390fd5b565b611a63611a12565b6000600560006101000a81548160ff0219169083151502179055507f5db9ee0a495bf2e6ff9c91a7834c1ba4fdd244a5e8aa4e537bd38aeae4b073aa611aa76113bc565b604051611ab49190612c65565b60405180910390a1565b6000600560019054906101000a900473ffffffffffffffffffffffffffffffffffffffff16905081600560016101000a81548173ffffffffffffffffffffffffffffffffffffffff021916908373ffffffffffffffffffffffffffffffffffffffff1602179055508173ffffffffffffffffffffffffffffffffffffffff168173ffffffffffffffffffffffffffffffffffffffff167f8be0079c531659141344cd1fd0a4f28419497f9722a3daafe3b4186f6b6457e060405160405180910390a35050565b611b8c611893565b6001600560006101000a81548160ff0219169083151502179055507f62e78cea01bee320cd4e420270b5ea74000d11b0c9f74754ebdbfc544b05a258611bd06113bc565b604051611bdd9190612c65565b60405180910390a1565b600073ffffffffffffffffffffffffffffffffffffffff168273ffffffffffffffffffffffffffffffffffffffff161415611c57576040517f08c379a0000000000000000000000000000000000000000000000000000000008152600401611c4e90612f2b565b60405180910390fd5b611c6382600083611db5565b60008060008473ffffffffffffffffffffffffffffffffffffffff1673ffffffffffffffffffffffffffffffffffffffff16815260200190815260200160002054905081811015611ce9576040517f08c379a0000000000000000000000000000000000000000000000000000000008152600401611ce090612dab565b60405180910390fd5b8181036000808573ffffffffffffffffffffffffffffffffffffffff1673ffffffffffffffffffffffffffffffffffffffff1681526020019081526020016000208190555081600260008282540392505081905550600073ffffffffffffffffffffffffffffffffffffffff168373ffffffffffffffffffffffffffffffffffffffff167fddf252ad1be2c89b69c2b068fc378daa952ba7f163c4a11628f55a4df523b3ef84604051611d9c919061302b565b60405180910390a3611db083600084611dba565b505050565b505050565b505050565b600080604183511415611e015760008060006020860151925060408601519150606086015160001a9050611df587828585611f7f565b94509450505050611e0a565b60006002915091505b9250929050565b60006004811115611e2557611e2461348d565b5b816004811115611e3857611e3761348d565b5b1415611e4357611f7c565b60016004811115611e5757611e5661348d565b5b816004811115611e6a57611e6961348d565b5b1415611eab576040517f08c379a0000000000000000000000000000000000000000000000000000000008152600401611ea290612d2b565b60405180910390fd5b60026004811115611ebf57611ebe61348d565b5b816004811115611ed257611ed161348d565b5b1415611f13576040517f08c379a0000000000000000000000000000000000000000000000000000000008152600401611f0a90612dcb565b60405180910390fd5b60036004811115611f2757611f2661348d565b5b816004811115611f3a57611f3961348d565b5b1415611f7b576040517f08c379a0000000000000000000000000000000000000000000000000000000008152600401611f7290612eab565b60405180910390fd5b5b50565b6000807f7fffffffffffffffffffffffffffffff5d576e7357a4501ddfe92f46681b20a08360001c1115611fba576000600391509150612059565b600060018787878760405160008152602001604052604051611fdf9493929190612cc4565b6020604051602081039080840390855afa158015612001573d6000803e3d6000fd5b505050602060405103519050600073ffffffffffffffffffffffffffffffffffffffff168173ffffffffffffffffffffffffffffffffffffffff16141561205057600060019250925050612059565b80600092509250505b94509492505050565b600061207561207084613086565b613061565b905080838252602082019050828560208602820111156120985761209761354e565b5b60005b858110156120c857816120ae88826121f4565b84526020840193506020830192505060018101905061209b565b5050509392505050565b60006120e56120e0846130b2565b613061565b905080838252602082019050828560208602820111156121085761210761354e565b5b60005b85811015612138578161211e88826122a8565b84526020840193506020830192505060018101905061210b565b5050509392505050565b6000612155612150846130de565b613061565b905080838252602082019050828560208602820111156121785761217761354e565b5b60005b858110156121a8578161218e8882612300565b84526020840193506020830192505060018101905061217b565b5050509392505050565b60006121c56121c08461310a565b613061565b9050828152602081018484840111156121e1576121e0613553565b5b6121ec848285613313565b509392505050565b60008135905061220381613b46565b92915050565b60008151905061221881613b46565b92915050565b600082601f83011261223357612232613549565b5b8135612243848260208601612062565b91505092915050565b600082601f83011261226157612260613549565b5b81356122718482602086016120d2565b91505092915050565b600082601f83011261228f5761228e613549565b5b813561229f848260208601612142565b91505092915050565b6000813590506122b781613b5d565b92915050565b6000815190506122cc81613b5d565b92915050565b600082601f8301126122e7576122e6613549565b5b81356122f78482602086016121b2565b91505092915050565b60008135905061230f81613b74565b92915050565b60008151905061232481613b74565b92915050565b6000602082840312156123405761233f61355d565b5b600061234e848285016121f4565b91505092915050565b60006020828403121561236d5761236c61355d565b5b600061237b84828501612209565b91505092915050565b6000806040838503121561239b5761239a61355d565b5b60006123a9858286016121f4565b92505060206123ba858286016121f4565b9150509250929050565b6000806000606084860312156123dd576123dc61355d565b5b60006123eb868287016121f4565b93505060206123fc868287016121f4565b925050604061240d868287016122a8565b9150509250925092565b6000806000606084860312156124305761242f61355d565b5b600061243e868287016121f4565b935050602061244f868287016121f4565b925050604061246086828701612300565b9150509250925092565b600080604083850312156124815761248061355d565b5b600061248f858286016121f4565b92505060206124a085828601612300565b9150509250929050565b600080604083850312156124c1576124c061355d565b5b600083013567ffffffffffffffff8111156124df576124de613558565b5b6124eb8582860161221e565b925050602083013567ffffffffffffffff81111561250c5761250b613558565b5b6125188582860161224c565b9150509250929050565b60008060008060008060c0878903121561253f5761253e61355d565b5b600087013567ffffffffffffffff81111561255d5761255c613558565b5b61256989828a0161221e565b965050602087013567ffffffffffffffff81111561258a57612589613558565b5b61259689828a0161227a565b955050604087013567ffffffffffffffff8111156125b7576125b6613558565b5b6125c389828a0161227a565b94505060606125d489828a01612300565b93505060806125e589828a01612300565b92505060a087013567ffffffffffffffff81111561260657612605613558565b5b61261289828a016122d2565b9150509295509295509295565b6000602082840312156126355761263461355d565b5b6000612643848285016122bd565b91505092915050565b6000602082840312156126625761266161355d565b5b600082013567ffffffffffffffff8111156126805761267f613558565b5b61268c848285016122d2565b91505092915050565b6000602082840312156126ab576126aa61355d565b5b60006126b984828501612315565b91505092915050565b60006126ce8383612701565b60208301905092915050565b60006126e68383612bc2565b60208301905092915050565b6126fb816132b4565b82525050565b61270a816132b4565b82525050565b61272161271c826132b4565b613401565b82525050565b60006127328261315b565b61273c81856131a1565b93506127478361313b565b8060005b8381101561277857815161275f88826126c2565b975061276a83613187565b92505060018101905061274b565b5085935050505092915050565b600061279082613166565b61279a81856131ac565b93506127a58361314b565b8060005b838110156127d65781516127bd88826126da565b97506127c883613194565b9250506001810190506127a9565b5085935050505092915050565b6127ec816132c6565b82525050565b6127fb816132d2565b82525050565b600061280c82613171565b61281681856131b7565b9350612826818560208601613322565b80840191505092915050565b600061283d8261317c565b61284781856131c2565b9350612857818560208601613322565b61286081613562565b840191505092915050565b60006128786018836131c2565b915061288382613580565b602082019050919050565b600061289b6023836131c2565b91506128a6826135a9565b604082019050919050565b60006128be6014836131c2565b91506128c9826135f8565b602082019050919050565b60006128e16011836131c2565b91506128ec82613621565b602082019050919050565b60006129046022836131c2565b915061290f8261364a565b604082019050919050565b6000612927601f836131c2565b915061293282613699565b602082019050919050565b600061294a6029836131c2565b9150612955826136c2565b604082019050919050565b600061296d6026836131c2565b915061297882613711565b604082019050919050565b60006129906022836131c2565b915061299b82613760565b604082019050919050565b60006129b36025836131c2565b91506129be826137af565b604082019050919050565b60006129d6601d836131c2565b91506129e1826137fe565b602082019050919050565b60006129f96026836131c2565b9150612a0482613827565b604082019050919050565b6000612a1c6022836131c2565b9150612a2782613876565b604082019050919050565b6000612a3f6010836131c2565b9150612a4a826138c5565b602082019050919050565b6000612a626014836131c2565b9150612a6d826138ee565b602082019050919050565b6000612a856020836131c2565b9150612a9082613917565b602082019050919050565b6000612aa86021836131c2565b9150612ab382613940565b604082019050919050565b6000612acb6025836131c2565b9150612ad68261398f565b604082019050919050565b6000612aee602a836131c2565b9150612af9826139de565b604082019050919050565b6000612b116024836131c2565b9150612b1c82613a2d565b604082019050919050565b6000612b34601f836131c2565b9150612b3f82613a7c565b602082019050919050565b6000612b576009836131c2565b9150612b6282613aa5565b602082019050919050565b6000612b7a6011836131c2565b9150612b8582613ace565b602082019050919050565b6000612b9d6025836131c2565b9150612ba882613af7565b604082019050919050565b612bbc816132fc565b82525050565b612bcb816132fc565b82525050565b612be2612bdd826132fc565b613425565b82525050565b612bf181613306565b82525050565b6000612c038288612710565b601482019150612c138287612727565b9150612c1f8286612785565b9150612c2b8285612bd1565b602082019150612c3b8284612bd1565b6020820191508190509695505050505050565b6000612c5a8284612801565b915081905092915050565b6000602082019050612c7a60008301846126f2565b92915050565b6000604082019050612c9560008301856126f2565b612ca26020830184612bb3565b9392505050565b6000602082019050612cbe60008301846127e3565b92915050565b6000608082019050612cd960008301876127f2565b612ce66020830186612be8565b612cf360408301856127f2565b612d0060608301846127f2565b95945050505050565b60006020820190508181036000830152612d238184612832565b905092915050565b60006020820190508181036000830152612d448161286b565b9050919050565b60006020820190508181036000830152612d648161288e565b9050919050565b60006020820190508181036000830152612d84816128b1565b9050919050565b60006020820190508181036000830152612da4816128d4565b9050919050565b60006020820190508181036000830152612dc4816128f7565b9050919050565b60006020820190508181036000830152612de48161291a565b9050919050565b60006020820190508181036000830152612e048161293d565b9050919050565b60006020820190508181036000830152612e2481612960565b9050919050565b60006020820190508181036000830152612e4481612983565b9050919050565b60006020820190508181036000830152612e64816129a6565b9050919050565b60006020820190508181036000830152612e84816129c9565b9050919050565b60006020820190508181036000830152612ea4816129ec565b9050919050565b60006020820190508181036000830152612ec481612a0f565b9050919050565b60006020820190508181036000830152612ee481612a32565b9050919050565b60006020820190508181036000830152612f0481612a55565b9050919050565b60006020820190508181036000830152612f2481612a78565b9050919050565b60006020820190508181036000830152612f4481612a9b565b9050919050565b60006020820190508181036000830152612f6481612abe565b9050919050565b60006020820190508181036000830152612f8481612ae1565b9050919050565b60006020820190508181036000830152612fa481612b04565b9050919050565b60006020820190508181036000830152612fc481612b27565b9050919050565b60006020820190508181036000830152612fe481612b4a565b9050919050565b6000602082019050818103600083015261300481612b6d565b9050919050565b6000602082019050818103600083015261302481612b90565b9050919050565b60006020820190506130406000830184612bb3565b92915050565b600060208201905061305b6000830184612be8565b92915050565b600061306b61307c565b90506130778282613387565b919050565b6000604051905090565b600067ffffffffffffffff8211156130a1576130a061351a565b5b602082029050602081019050919050565b600067ffffffffffffffff8211156130cd576130cc61351a565b5b602082029050602081019050919050565b600067ffffffffffffffff8211156130f9576130f861351a565b5b602082029050602081019050919050565b600067ffffffffffffffff8211156131255761312461351a565b5b61312e82613562565b9050602081019050919050565b6000819050602082019050919050565b6000819050602082019050919050565b600081519050919050565b600081519050919050565b600081519050919050565b600081519050919050565b6000602082019050919050565b6000602082019050919050565b600081905092915050565b600081905092915050565b600081905092915050565b600082825260208201905092915050565b60006131de826132fc565b91506131e9836132fc565b9250827fffffffffffffffffffffffffffffffffffffffffffffffffffffffffffffffff0382111561321e5761321d61342f565b5b828201905092915050565b6000613234826132fc565b915061323f836132fc565b92508261324f5761324e61345e565b5b828204905092915050565b6000613265826132fc565b9150613270836132fc565b9250817fffffffffffffffffffffffffffffffffffffffffffffffffffffffffffffffff04831182151516156132a9576132a861342f565b5b828202905092915050565b60006132bf826132dc565b9050919050565b60008115159050919050565b6000819050919050565b600073ffffffffffffffffffffffffffffffffffffffff82169050919050565b6000819050919050565b600060ff82169050919050565b82818337600083830152505050565b60005b83811015613340578082015181840152602081019050613325565b8381111561334f576000848401525b50505050565b6000600282049050600182168061336d57607f821691505b60208210811415613381576133806134bc565b5b50919050565b61339082613562565b810181811067ffffffffffffffff821117156133af576133ae61351a565b5b80604052505050565b60006133c3826132fc565b91507fffffffffffffffffffffffffffffffffffffffffffffffffffffffffffffffff8214156133f6576133f561342f565b5b600182019050919050565b600061340c82613413565b9050919050565b600061341e82613573565b9050919050565b6000819050919050565b7f4e487b7100000000000000000000000000000000000000000000000000000000600052601160045260246000fd5b7f4e487b7100000000000000000000000000000000000000000000000000000000600052601260045260246000fd5b7f4e487b7100000000000000000000000000000000000000000000000000000000600052602160045260246000fd5b7f4e487b7100000000000000000000000000000000000000000000000000000000600052602260045260246000fd5b7f4e487b7100000000000000000000000000000000000000000000000000000000600052603260045260246000fd5b7f4e487b7100000000000000000000000000000000000000000000000000000000600052604160045260246000fd5b600080fd5b600080fd5b600080fd5b600080fd5b600080fd5b6000601f19601f8301169050919050565b60008160601b9050919050565b7f45434453413a20696e76616c6964207369676e61747572650000000000000000600082015250565b7f45524332303a207472616e7366657220746f20746865207a65726f206164647260008201527f6573730000000000000000000000000000000000000000000000000000000000602082015250565b7f5061757361626c653a206e6f7420706175736564000000000000000000000000600082015250565b7f696e76616c6964207369676e6174757265000000000000000000000000000000600082015250565b7f45524332303a206275726e20616d6f756e7420657863656564732062616c616e60008201527f6365000000000000000000000000000000000000000000000000000000000000602082015250565b7f45434453413a20696e76616c6964207369676e6174757265206c656e67746800600082015250565b7f636f6e747261637473206c656e677468206e6f74206d6174636820616d6f756e60008201527f7473206c656e6774680000000000000000000000000000000000000000000000602082015250565b7f4f776e61626c653a206e6577206f776e657220697320746865207a65726f206160008201527f6464726573730000000000000000000000000000000000000000000000000000602082015250565b7f45524332303a20617070726f766520746f20746865207a65726f20616464726560008201527f7373000000000000000000000000000000000000000000000000000000000000602082015250565b7f746f74616c20616d6f756e74206e6f74206d6174636820746f6b656e4964206c60008201527f656e677468000000000000000000000000000000000000000000000000000000602082015250565b7f45524332303a20696e73756666696369656e7420616c6c6f77616e6365000000600082015250565b7f45524332303a207472616e7366657220616d6f756e742065786365656473206260008201527f616c616e63650000000000000000000000000000000000000000000000000000602082015250565b7f45434453413a20696e76616c6964207369676e6174757265202773272076616c60008201527f7565000000000000000000000000000000000000000000000000000000000000602082015250565b7f5061757361626c653a2070617573656400000000000000000000000000000000600082015250565b7f636f6e7472616374206e6f7420737570706f7274000000000000000000000000600082015250565b7f4f776e61626c653a2063616c6c6572206973206e6f7420746865206f776e6572600082015250565b7f45524332303a206275726e2066726f6d20746865207a65726f2061646472657360008201527f7300000000000000000000000000000000000000000000000000000000000000602082015250565b7f45524332303a207472616e736665722066726f6d20746865207a65726f20616460008201527f6472657373000000000000000000000000000000000000000000000000000000602082015250565b7f636f6e747261637473206c656e677468206e6f74206d61746368205f656e616260008201527f6c6573206c656e67746800000000000000000000000000000000000000000000602082015250565b7f45524332303a20617070726f76652066726f6d20746865207a65726f2061646460008201527f7265737300000000000000000000000000000000000000000000000000000000602082015250565b7f5265656e7472616e637947756172643a207265656e7472616e742063616c6c00600082015250565b7f6e6f74206f776e65720000000000000000000000000000000000000000000000600082015250565b7f7369676e61747572652065787069726564000000000000000000000000000000600082015250565b7f45524332303a2064656372656173656420616c6c6f77616e63652062656c6f7760008201527f207a65726f000000000000000000000000000000000000000000000000000000602082015250565b613b4f816132b4565b8114613b5a57600080fd5b50565b613b66816132c6565b8114613b7157600080fd5b50565b613b7d816132fc565b8114613b8857600080fd5b5056fea2646970667358221220a53bcbb0e4137d795504855e087c028b76e7bae3218b16a7ed872b05eddf030f64736f6c63430008060033","linkReferences":{}},"methodIdentifiers":{"MAX_SUPPLY()":"32cb6b0c","allowance(address,address)":"dd62ed3e","approve(address,uint256)":"095ea7b3","balanceOf(address)":"70a08231","claim(address[],uint256[],uint256[],uint256,uint256,bytes)":"3319f3e3","contractSupports(address)":"87503f85","decimals()":"313ce567","decreaseAllowance(address,uint256)":"a457c2d7","finish()":"d56b2889","increaseAllowance(address,uint256)":"39509351","name()":"06fdde03","owner()":"8da5cb5b","pause()":"8456cb59","paused()":"5c975abb","renounceOwnership()":"715018a6","setContractSupports(address[],bool[])":"90323fd3","setSignatureManager(address)":"4b41f34c","signatureClaimed(bytes)":"b332a307","signatureManager()":"359c6792","symbol()":"95d89b41","tokenClaimed(address,uint256)":"ea3bb667","totalSupply()":"18160ddd","transfer(address,uint256)":"a9059cbb","transferFrom(address,address,uint256)":"23b872dd","transferOwnership(address)":"f2fde38b","unpause()":"3f4ba83a","withdraw(address,address,bool)":"677d28ca"},"storageLayout":{"storage":[{"astId":301,"contract":"src/Bean.sol:Bean","label":"_balances","offset":0,"slot":"0","type":"t_mapping(t_address,t_uint256)"},{"astId":307,"contract":"src/Bean.sol:Bean","label":"_allowances","offset":0,"slot":"1","type":"t_mapping(t_address,t_mapping(t_address,t_uint256))"},{"astId":309,"contract":"src/Bean.sol:Bean","label":"_totalSupply","offset":0,"slot":"2","type":"t_uint256"},{"astId":311,"contract":"src/Bean.sol:Bean","label":"_name","offset":0,"slot":"3","type":"t_string_storage"},{"astId":313,"contract":"src/Bean.sol:Bean","label":"_symbol","offset":0,"slot":"4","type":"t_string_storage"},{"astId":130,"contract":"src/Bean.sol:Bean","label":"_paused","offset":0,"slot":"5","type":"t_bool"},{"astId":7,"contract":"src/Bean.sol:Bean","label":"_owner","offset":1,"slot":"5","type":"t_address"},{"astId":231,"contract":"src/Bean.sol:Bean","label":"_status","offset":0,"slot":"6","type":"t_uint256"},{"astId":3111,"contract":"src/Bean.sol:Bean","label":"signatureManager","offset":0,"slot":"7","type":"t_address"},{"astId":3117,"contract":"src/Bean.sol:Bean","label":"tokenClaimed","offset":0,"slot":"8","type":"t_mapping(t_address,t_mapping(t_uint256,t_bool))"},{"astId":3121,"contract":"src/Bean.sol:Bean","label":"signatureClaimed","offset":0,"slot":"9","type":"t_mapping(t_bytes_memory_ptr,t_bool)"},{"astId":3125,"contract":"src/Bean.sol:Bean","label":"contractSupports","offset":0,"slot":"10","type":"t_mapping(t_address,t_bool)"}],"types":{"t_address":{"encoding":"inplace","label":"address","numberOfBytes":"20"},"t_bool":{"encoding":"inplace","label":"bool","numberOfBytes":"1"},"t_bytes_memory_ptr":{"encoding":"bytes","label":"bytes","numberOfBytes":"32"},"t_mapping(t_address,t_bool)":{"encoding":"mapping","key":"t_address","label":"mapping(address => bool)","numberOfBytes":"32","value":"t_bool"},"t_mapping(t_address,t_mapping(t_address,t_uint256))":{"encoding":"mapping","key":"t_address","label":"mapping(address => mapping(address => uint256))","numberOfBytes":"32","value":"t_mapping(t_address,t_uint256)"},"t_mapping(t_address,t_mapping(t_uint256,t_bool))":{"encoding":"mapping","key":"t_address","label":"mapping(address => mapping(uint256 => bool))","numberOfBytes":"32","value":"t_mapping(t_uint256,t_bool)"},"t_mapping(t_address,t_uint256)":{"encoding":"mapping","key":"t_address","label":"mapping(address => uint256)","numberOfBytes":"32","value":"t_uint256"},"t_mapping(t_bytes_memory_ptr,t_bool)":{"encoding":"mapping","key":"t_bytes_memory_ptr","label":"mapping(bytes => bool)","numberOfBytes":"32","value":"t_bool"},"t_mapping(t_uint256,t_bool)":{"encoding":"mapping","key":"t_uint256","label":"mapping(uint256 => bool)","numberOfBytes":"32","value":"t_bool"},"t_string_storage":{"encoding":"bytes","label":"string","numberOfBytes":"32"},"t_uint256":{"encoding":"inplace","label":"uint256","numberOfBytes":"32"}}},"id":15}