{"abi":[{"type":"constructor","inputs":[{"name":"_owner","type":"address","internalType":"address"},{"name":"_rewardsDistribution","type":"address","internalType":"address"},{"name":"_stakingToken","type":"address","internalType":"address"},{"name":"_rewardsToken","type":"address","internalType":"address"}],"stateMutability":"nonpayable"},{"type":"function","name":"balanceOf","inputs":[{"name":"account","type":"address","internalType":"address"}],"outputs":[{"name":"","type":"uint256","internalType":"uint256"}],"stateMutability":"view"},{"type":"function","name":"earned","inputs":[{"name":"account","type":"address","internalType":"address"}],"outputs":[{"name":"","type":"uint256","internalType":"uint256"}],"stateMutability":"view"},{"type":"function","name":"exit","inputs":[],"outputs":[],"stateMutability":"nonpayable"},{"type":"function","name":"finishFarming","inputs":[],"outputs":[],"stateMutability":"nonpayable"},{"type":"function","name":"getReward","inputs":[],"outputs":[],"stateMutability":"nonpayable"},{"type":"function","name":"getRewardForDuration","inputs":[],"outputs":[{"name":"","type":"uint256","internalType":"uint256"}],"stateMutability":"view"},{"type":"function","name":"lastTimeRewardApplicable","inputs":[],"outputs":[{"name":"","type":"uint256","internalType":"uint256"}],"stateMutability":"view"},{"type":"function","name":"lastUpdateTime","inputs":[],"outputs":[{"name":"","type":"uint256","internalType":"uint256"}],"stateMutability":"view"},{"type":"function","name":"maxEverTotalRewards","inputs":[],"outputs":[{"name":"","type":"uint256","internalType":"uint256"}],"stateMutability":"view"},{"type":"function","name":"notifyRewardAmount","inputs":[{"name":"_reward","type":"uint256","internalType":"uint256"}],"outputs":[],"stateMutability":"nonpayable"},{"type":"function","name":"owner","inputs":[],"outputs":[{"name":"","type":"address","internalType":"address"}],"stateMutability":"view"},{"type":"function","name":"paused","inputs":[],"outputs":[{"name":"","type":"bool","internalType":"bool"}],"stateMutability":"view"},{"type":"function","name":"periodFinish","inputs":[],"outputs":[{"name":"","type":"uint256","internalType":"uint256"}],"stateMutability":"view"},{"type":"function","name":"renounceOwnership","inputs":[],"outputs":[],"stateMutability":"nonpayable"},{"type":"function","name":"rescueToken","inputs":[{"name":"_token","type":"address","internalType":"contract ERC20"},{"name":"_recipient","type":"address","internalType":"address"},{"name":"_amount","type":"uint256","internalType":"uint256"}],"outputs":[],"stateMutability":"nonpayable"},{"type":"function","name":"rewardPerToken","inputs":[],"outputs":[{"name":"","type":"uint256","internalType":"uint256"}],"stateMutability":"view"},{"type":"function","name":"rewardPerTokenStored","inputs":[],"outputs":[{"name":"","type":"uint256","internalType":"uint256"}],"stateMutability":"view"},{"type":"function","name":"rewardRate","inputs":[],"outputs":[{"name":"","type":"uint256","internalType":"uint256"}],"stateMutability":"view"},{"type":"function","name":"rewards","inputs":[{"name":"","type":"address","internalType":"address"}],"outputs":[{"name":"","type":"uint256","internalType":"uint256"}],"stateMutability":"view"},{"type":"function","name":"rewardsDistribution","inputs":[],"outputs":[{"name":"","type":"address","internalType":"address"}],"stateMutability":"view"},{"type":"function","name":"rewardsDuration","inputs":[],"outputs":[{"name":"","type":"uint256","internalType":"uint256"}],"stateMutability":"view"},{"type":"function","name":"rewardsToken","inputs":[],"outputs":[{"name":"","type":"address","internalType":"contract IERC20"}],"stateMutability":"view"},{"type":"function","name":"setPaused","inputs":[{"name":"_paused","type":"bool","internalType":"bool"}],"outputs":[],"stateMutability":"nonpayable"},{"type":"function","name":"setRewardsDistribution","inputs":[{"name":"_rewardsDistribution","type":"address","internalType":"address"}],"outputs":[],"stateMutability":"nonpayable"},{"type":"function","name":"setRewardsDuration","inputs":[{"name":"_rewardsDuration","type":"uint256","internalType":"uint256"}],"outputs":[],"stateMutability":"nonpayable"},{"type":"function","name":"stake","inputs":[{"name":"amount","type":"uint256","internalType":"uint256"}],"outputs":[],"stateMutability":"nonpayable"},{"type":"function","name":"stakingToken","inputs":[],"outputs":[{"name":"","type":"address","internalType":"contract IERC20"}],"stateMutability":"view"},{"type":"function","name":"stopped","inputs":[],"outputs":[{"name":"","type":"bool","internalType":"bool"}],"stateMutability":"view"},{"type":"function","name":"timeData","inputs":[],"outputs":[{"name":"periodFinish","type":"uint32","internalType":"uint32"},{"name":"rewardsDuration","type":"uint32","internalType":"uint32"},{"name":"lastUpdateTime","type":"uint32","internalType":"uint32"},{"name":"totalRewardsSupply","type":"uint96","internalType":"uint96"}],"stateMutability":"view"},{"type":"function","name":"totalSupply","inputs":[],"outputs":[{"name":"","type":"uint256","internalType":"uint256"}],"stateMutability":"view"},{"type":"function","name":"transferOwnership","inputs":[{"name":"newOwner","type":"address","internalType":"address"}],"outputs":[],"stateMutability":"nonpayable"},{"type":"function","name":"userRewardPerTokenPaid","inputs":[{"name":"","type":"address","internalType":"address"}],"outputs":[{"name":"","type":"uint256","internalType":"uint256"}],"stateMutability":"view"},{"type":"function","name":"version","inputs":[],"outputs":[{"name":"","type":"uint256","internalType":"uint256"}],"stateMutability":"pure"},{"type":"function","name":"withdraw","inputs":[{"name":"amount","type":"uint256","internalType":"uint256"}],"outputs":[],"stateMutability":"nonpayable"},{"type":"event","name":"FarmingFinished","inputs":[],"anonymous":false},{"type":"event","name":"OwnershipTransferred","inputs":[{"name":"previousOwner","type":"address","indexed":true,"internalType":"address"},{"name":"newOwner","type":"address","indexed":true,"internalType":"address"}],"anonymous":false},{"type":"event","name":"PauseChanged","inputs":[{"name":"isPaused","type":"bool","indexed":false,"internalType":"bool"}],"anonymous":false},{"type":"event","name":"RewardAdded","inputs":[{"name":"reward","type":"uint256","indexed":false,"internalType":"uint256"}],"anonymous":false},{"type":"event","name":"RewardPaid","inputs":[{"name":"user","type":"address","indexed":true,"internalType":"address"},{"name":"reward","type":"uint256","indexed":false,"internalType":"uint256"}],"anonymous":false},{"type":"event","name":"RewardsDurationUpdated","inputs":[{"name":"newDuration","type":"uint256","indexed":false,"internalType":"uint256"}],"anonymous":false},{"type":"event","name":"Staked","inputs":[{"name":"user","type":"address","indexed":true,"internalType":"address"},{"name":"amount","type":"uint256","indexed":false,"internalType":"uint256"}],"anonymous":false},{"type":"event","name":"Withdrawn","inputs":[{"name":"user","type":"address","indexed":true,"internalType":"address"},{"name":"amount","type":"uint256","indexed":false,"internalType":"uint256"}],"anonymous":false}],"bytecode":{"object":"0x60e060405260006004553480156200001657600080fd5b50604051620035bd380380620035bd833981810160405260808110156200003c57600080fd5b81019080805190602001909291908051906020019092919080519060200190929190805190602001909291905050508360006200007e6200042f60201b60201c565b9050806000806101000a81548173ffffffffffffffffffffffffffffffffffffffff021916908373ffffffffffffffffffffffffffffffffffffffff1602179055508073ffffffffffffffffffffffffffffffffffffffff16600073ffffffffffffffffffffffffffffffffffffffff167f8be0079c531659141344cd1fd0a4f28419497f9722a3daafe3b4186f6b6457e060405160405180910390a3506200012d816200043760201b60201c565b506001600281905550600073ffffffffffffffffffffffffffffffffffffffff166200015e6200063c60201b60201c565b73ffffffffffffffffffffffffffffffffffffffff161415620001e9576040517f08c379a00000000000000000000000000000000000000000000000000000000081526004018080602001828103825260118152602001807f4f776e6572206d7573742062652073657400000000000000000000000000000081525060200191505060405180910390fd5b8073ffffffffffffffffffffffffffffffffffffffff16630579697e6040518163ffffffff1660e01b815260040160206040518083038186803b1580156200023057600080fd5b505afa15801562000245573d6000803e3d6000fd5b505050506040513d60208110156200025c57600080fd5b8101908080519060200190929190505050620002c4576040517f08c379a0000000000000000000000000000000000000000000000000000000008152600401808060200182810382526022815260200180620035756022913960400191505060405180910390fd5b8173ffffffffffffffffffffffffffffffffffffffff1660c08173ffffffffffffffffffffffffffffffffffffffff1660601b815250508073ffffffffffffffffffffffffffffffffffffffff1660a08173ffffffffffffffffffffffffffffffffffffffff1660601b8152505082600160006101000a81548173ffffffffffffffffffffffffffffffffffffffff021916908373ffffffffffffffffffffffffffffffffffffffff16021790555062278d00600a60000160046101000a81548163ffffffff021916908363ffffffff1602179055508073ffffffffffffffffffffffffffffffffffffffff166313e4172c6040518163ffffffff1660e01b815260040160206040518083038186803b158015620003e157600080fd5b505afa158015620003f6573d6000803e3d6000fd5b505050506040513d60208110156200040d57600080fd5b8101908080519060200190929190505050608081815250505050505062000665565b600033905090565b620004476200042f60201b60201c565b73ffffffffffffffffffffffffffffffffffffffff166200046d6200063c60201b60201c565b73ffffffffffffffffffffffffffffffffffffffff1614620004f7576040517f08c379a00000000000000000000000000000000000000000000000000000000081526004018080602001828103825260208152602001807f4f776e61626c653a2063616c6c6572206973206e6f7420746865206f776e657281525060200191505060405180910390fd5b600073ffffffffffffffffffffffffffffffffffffffff168173ffffffffffffffffffffffffffffffffffffffff1614156200057f576040517f08c379a0000000000000000000000000000000000000000000000000000000008152600401808060200182810382526026815260200180620035976026913960400191505060405180910390fd5b8073ffffffffffffffffffffffffffffffffffffffff1660008054906101000a900473ffffffffffffffffffffffffffffffffffffffff1673ffffffffffffffffffffffffffffffffffffffff167f8be0079c531659141344cd1fd0a4f28419497f9722a3daafe3b4186f6b6457e060405160405180910390a3806000806101000a81548173ffffffffffffffffffffffffffffffffffffffff021916908373ffffffffffffffffffffffffffffffffffffffff16021790555050565b60008060009054906101000a900473ffffffffffffffffffffffffffffffffffffffff16905090565b60805160a05160601c60c05160601c612eba620006bb600039806116665280611b595280611bae528061235b5280612bb8525080611a805280611ced528061270a52508061091c52806113045250612eba6000f3fe608060405234801561001057600080fd5b50600436106102055760003560e01c806372f702f31161011a578063c8f33c91116100ad578063df136d651161007c578063df136d6514610725578063e5711e8b14610743578063e9fad8ee146107b1578063ebe2b12b146107bb578063f2fde38b146107d957610205565b8063c8f33c9114610687578063cc1a378f146106a5578063cd3daf9d146106d3578063d1af0c7d146106f157610205565b80638b876347116100e95780638b8763471461057a5780638da5cb5b146105d2578063a0e4395914610606578063a694fc3a1461065957610205565b806372f702f3146104ea57806375f12b211461051e5780637b0a47ee1461053e57806380faa57d1461055c57610205565b80632e1a7d4d1161019d5780633fc6df6e1161016c5780633fc6df6e1461041657806354fd4d501461044a5780635c975abb1461046857806370a0823114610488578063715018a6146104e057610205565b80632e1a7d4d14610392578063386a9525146103c05780633c6b16ab146103de5780633d18b9121461040c57610205565b806318160ddd116101d957806318160ddd1461030857806319762143146103265780631c1f78eb1461036a578063207e11aa1461038857610205565b80628cc2621461020a5780630700037d146102625780630e00f75a146102ba57806316c38b3c146102d8575b600080fd5b61024c6004803603602081101561022057600080fd5b81019080803573ffffffffffffffffffffffffffffffffffffffff16906020019092919050505061081d565b6040518082815260200191505060405180910390f35b6102a46004803603602081101561027857600080fd5b81019080803573ffffffffffffffffffffffffffffffffffffffff169060200190929190505050610902565b6040518082815260200191505060405180910390f35b6102c261091a565b6040518082815260200191505060405180910390f35b610306600480360360208110156102ee57600080fd5b8101908080351515906020019092919050505061093e565b005b610310610a73565b6040518082815260200191505060405180910390f35b6103686004803603602081101561033c57600080fd5b81019080803573ffffffffffffffffffffffffffffffffffffffff169060200190929190505050610a7d565b005b610372610b70565b6040518082815260200191505060405180910390f35b610390610b97565b005b6103be600480360360208110156103a857600080fd5b8101908080359060200190929190505050610ead565b005b6103c8610ebb565b6040518082815260200191505060405180910390f35b61040a600480360360208110156103f457600080fd5b8101908080359060200190929190505050610ede565b005b61041461145f565b005b61041e61146c565b604051808273ffffffffffffffffffffffffffffffffffffffff16815260200191505060405180910390f35b610452611492565b6040518082815260200191505060405180910390f35b61047061149b565b60405180821515815260200191505060405180910390f35b6104ca6004803603602081101561049e57600080fd5b81019080803573ffffffffffffffffffffffffffffffffffffffff1690602001909291905050506114ae565b6040518082815260200191505060405180910390f35b6104e86114f7565b005b6104f2611664565b604051808273ffffffffffffffffffffffffffffffffffffffff16815260200191505060405180910390f35b610526611688565b60405180821515815260200191505060405180910390f35b61054661169b565b6040518082815260200191505060405180910390f35b6105646116a1565b6040518082815260200191505060405180910390f35b6105bc6004803603602081101561059057600080fd5b81019080803573ffffffffffffffffffffffffffffffffffffffff1690602001909291905050506116cd565b6040518082815260200191505060405180910390f35b6105da6116e5565b604051808273ffffffffffffffffffffffffffffffffffffffff16815260200191505060405180910390f35b61060e61170e565b604051808563ffffffff1681526020018463ffffffff1681526020018363ffffffff168152602001826bffffffffffffffffffffffff16815260200194505050505060405180910390f35b6106856004803603602081101561066f57600080fd5b8101908080359060200190929190505050611774565b005b61068f611783565b6040518082815260200191505060405180910390f35b6106d1600480360360208110156106bb57600080fd5b81019080803590602001909291905050506117a6565b005b6106db611a20565b6040518082815260200191505060405180910390f35b6106f9611a7e565b604051808273ffffffffffffffffffffffffffffffffffffffff16815260200191505060405180910390f35b61072d611aa2565b6040518082815260200191505060405180910390f35b6107af6004803603606081101561075957600080fd5b81019080803573ffffffffffffffffffffffffffffffffffffffff169060200190929190803573ffffffffffffffffffffffffffffffffffffffff16906020019092919080359060200190929190505050611aa8565b005b6107b9611e60565b005b6107c3611eb2565b6040518082815260200191505060405180910390f35b61081b600480360360208110156107ef57600080fd5b81019080803573ffffffffffffffffffffffffffffffffffffffff169060200190929190505050611ed5565b005b6000600760008373ffffffffffffffffffffffffffffffffffffffff1673ffffffffffffffffffffffffffffffffffffffff16815260200190815260200160002054670de0b6b3a7640000600660008573ffffffffffffffffffffffffffffffffffffffff1673ffffffffffffffffffffffffffffffffffffffff168152602001908152602001600020546108b0611a20565b03600960008673ffffffffffffffffffffffffffffffffffffffff1673ffffffffffffffffffffffffffffffffffffffff1681526020019081526020016000205402816108f957fe5b04019050919050565b60076020528060005260406000206000915090505481565b7f000000000000000000000000000000000000000000000000000000000000000081565b6109466120c7565b73ffffffffffffffffffffffffffffffffffffffff166109646116e5565b73ffffffffffffffffffffffffffffffffffffffff16146109ed576040517f08c379a00000000000000000000000000000000000000000000000000000000081526004018080602001828103825260208152602001807f4f776e61626c653a2063616c6c6572206973206e6f7420746865206f776e657281525060200191505060405180910390fd5b600360009054906101000a900460ff1615158115151415610a0d57610a70565b80600360006101000a81548160ff0219169083151502179055507f8fb6c181ee25a520cf3dd6565006ef91229fcfe5a989566c2a3b8c115570cec5600360009054906101000a900460ff1660405180821515815260200191505060405180910390a15b50565b6000600854905090565b610a856120c7565b73ffffffffffffffffffffffffffffffffffffffff16610aa36116e5565b73ffffffffffffffffffffffffffffffffffffffff1614610b2c576040517f08c379a00000000000000000000000000000000000000000000000000000000081526004018080602001828103825260208152602001807f4f776e61626c653a2063616c6c6572206973206e6f7420746865206f776e657281525060200191505060405180910390fd5b80600160006101000a81548173ffffffffffffffffffffffffffffffffffffffff021916908373ffffffffffffffffffffffffffffffffffffffff16021790555050565b6000600a60000160049054906101000a900463ffffffff1663ffffffff1660045402905090565b600b60009054906101000a900460ff1615610c1a576040517f08c379a00000000000000000000000000000000000000000000000000000000081526004018080602001828103825260128152602001807f6661726d696e672069732073746f70706564000000000000000000000000000081525060200191505060405180910390fd5b610c226120c7565b73ffffffffffffffffffffffffffffffffffffffff16610c406116e5565b73ffffffffffffffffffffffffffffffffffffffff1614610cc9576040517f08c379a00000000000000000000000000000000000000000000000000000000081526004018080602001828103825260208152602001807f4f776e61626c653a2063616c6c6572206973206e6f7420746865206f776e657281525060200191505060405180910390fd5b610cd1612d70565b600a6040518060800160405290816000820160009054906101000a900463ffffffff1663ffffffff1663ffffffff1681526020016000820160049054906101000a900463ffffffff1663ffffffff1663ffffffff1681526020016000820160089054906101000a900463ffffffff1663ffffffff1663ffffffff16815260200160008201600c9054906101000a90046bffffffffffffffffffffffff166bffffffffffffffffffffffff166bffffffffffffffffffffffff16815250509050806000015163ffffffff164210610df2576040517f08c379a000000000000000000000000000000000000000000000000000000000815260040180806020018281038252602d815260200180612e58602d913960400191505060405180910390fd5b6001600b60006101000a81548160ff021916908315150217905550600060085414610e5a57600042826000015163ffffffff1603905080826020015163ffffffff1603600a60000160046101000a81548163ffffffff021916908363ffffffff160217905550505b42600a60000160006101000a81548163ffffffff021916908363ffffffff1602179055507fb31605747019cb5809dbdb8c268c9c5bb666d39291f8750fa0dd4ac517b1570460405160405180910390a150565b610eb88133336120cf565b50565b6000600a60000160049054906101000a900463ffffffff1663ffffffff16905090565b600b60009054906101000a900460ff1615610f61576040517f08c379a00000000000000000000000000000000000000000000000000000000081526004018080602001828103825260128152602001807f6661726d696e672069732073746f70706564000000000000000000000000000081525060200191505060405180910390fd5b600160009054906101000a900473ffffffffffffffffffffffffffffffffffffffff1673ffffffffffffffffffffffffffffffffffffffff163373ffffffffffffffffffffffffffffffffffffffff1614611024576040517f08c379a00000000000000000000000000000000000000000000000000000000081526004018080602001828103825260208152602001807f43616c6c6572206973206e6f7420526577617264734469737472696275746f7281525060200191505060405180910390fd5b60008061102f611a20565b9050806005819055506110406116a1565b600a60000160086101000a81548163ffffffff021916908363ffffffff160217905550600073ffffffffffffffffffffffffffffffffffffffff168273ffffffffffffffffffffffffffffffffffffffff1614611128576110a08261081d565b600760008473ffffffffffffffffffffffffffffffffffffffff1673ffffffffffffffffffffffffffffffffffffffff1681526020019081526020016000208190555080600660008473ffffffffffffffffffffffffffffffffffffffff1673ffffffffffffffffffffffffffffffffffffffff168152602001908152602001600020819055505b611130612d70565b600a6040518060800160405290816000820160009054906101000a900463ffffffff1663ffffffff1663ffffffff1681526020016000820160049054906101000a900463ffffffff1663ffffffff1663ffffffff1681526020016000820160089054906101000a900463ffffffff1663ffffffff1663ffffffff16815260200160008201600c9054906101000a90046bffffffffffffffffffffffff166bffffffffffffffffffffffff166bffffffffffffffffffffffff168152505090506000816000015163ffffffff16421061121d57816020015163ffffffff16858161121557fe5b049050611252565b600042836000015163ffffffff16039050600060045482029050836020015163ffffffff168188018161124c57fe5b04925050505b60008114156112c9576040517f08c379a00000000000000000000000000000000000000000000000000000000081526004018080602001828103825260128152602001807f696e76616c69642072657761726452617465000000000000000000000000000081525060200191505060405180910390fd5b80600481905550600085600a600001600c9054906101000a90046bffffffffffffffffffffffff166bffffffffffffffffffffffff160190507f0000000000000000000000000000000000000000000000000000000000000000811115611398576040517f08c379a00000000000000000000000000000000000000000000000000000000081526004018080602001828103825260108152602001807f72657761726473206f766572666c6f770000000000000000000000000000000081525060200191505060405180910390fd5b80600a600001600c6101000a8154816bffffffffffffffffffffffff02191690836bffffffffffffffffffffffff16021790555042600a60000160086101000a81548163ffffffff021916908363ffffffff160217905550826020015163ffffffff164201600a60000160006101000a81548163ffffffff021916908363ffffffff1602179055507fde88a922e0d3b88b24e9623efeb464919c6bf9f66857a65e2bfcf2ce87a9433d866040518082815260200191505060405180910390a1505050505050565b61146933336124f4565b50565b600160009054906101000a900473ffffffffffffffffffffffffffffffffffffffff1681565b60006001905090565b600360009054906101000a900460ff1681565b6000600960008373ffffffffffffffffffffffffffffffffffffffff1673ffffffffffffffffffffffffffffffffffffffff168152602001908152602001600020549050919050565b6114ff6120c7565b73ffffffffffffffffffffffffffffffffffffffff1661151d6116e5565b73ffffffffffffffffffffffffffffffffffffffff16146115a6576040517f08c379a00000000000000000000000000000000000000000000000000000000081526004018080602001828103825260208152602001807f4f776e61626c653a2063616c6c6572206973206e6f7420746865206f776e657281525060200191505060405180910390fd5b600073ffffffffffffffffffffffffffffffffffffffff1660008054906101000a900473ffffffffffffffffffffffffffffffffffffffff1673ffffffffffffffffffffffffffffffffffffffff167f8be0079c531659141344cd1fd0a4f28419497f9722a3daafe3b4186f6b6457e060405160405180910390a360008060006101000a81548173ffffffffffffffffffffffffffffffffffffffff021916908373ffffffffffffffffffffffffffffffffffffffff160217905550565b7f000000000000000000000000000000000000000000000000000000000000000081565b600b60009054906101000a900460ff1681565b60045481565b60006116c842600a60000160009054906101000a900463ffffffff1663ffffffff16612810565b905090565b60066020528060005260406000206000915090505481565b60008060009054906101000a900473ffffffffffffffffffffffffffffffffffffffff16905090565b600a8060000160009054906101000a900463ffffffff16908060000160049054906101000a900463ffffffff16908060000160089054906101000a900463ffffffff169080600001600c9054906101000a90046bffffffffffffffffffffffff16905084565b61178033826000612829565b50565b6000600a60000160089054906101000a900463ffffffff1663ffffffff16905090565b600b60009054906101000a900460ff1615611829576040517f08c379a00000000000000000000000000000000000000000000000000000000081526004018080602001828103825260128152602001807f6661726d696e672069732073746f70706564000000000000000000000000000081525060200191505060405180910390fd5b6118316120c7565b73ffffffffffffffffffffffffffffffffffffffff1661184f6116e5565b73ffffffffffffffffffffffffffffffffffffffff16146118d8576040517f08c379a00000000000000000000000000000000000000000000000000000000081526004018080602001828103825260208152602001807f4f776e61626c653a2063616c6c6572206973206e6f7420746865206f776e657281525060200191505060405180910390fd5b600081141561194f576040517f08c379a00000000000000000000000000000000000000000000000000000000081526004018080602001828103825260168152602001807f656d707479205f726577617264734475726174696f6e0000000000000000000081525060200191505060405180910390fd5b600a60000160009054906101000a900463ffffffff1663ffffffff1642116119c2576040517f08c379a000000000000000000000000000000000000000000000000000000000815260040180806020018281038252603d815260200180612db9603d913960400191505060405180910390fd5b80600a60000160046101000a81548163ffffffff021916908363ffffffff1602179055507ffb46ca5a5e06d4540d6387b930a7c978bce0db5f449ec6b3f5d07c6e1d44f2d3816040518082815260200191505060405180910390a150565b6000806008541415611a36576005549050611a7b565b600854670de0b6b3a7640000600454600a60000160089054906101000a900463ffffffff1663ffffffff16611a696116a1565b03020281611a7357fe5b046005540190505b90565b7f000000000000000000000000000000000000000000000000000000000000000081565b60055481565b611ab06120c7565b73ffffffffffffffffffffffffffffffffffffffff16611ace6116e5565b73ffffffffffffffffffffffffffffffffffffffff1614611b57576040517f08c379a00000000000000000000000000000000000000000000000000000000081526004018080602001828103825260208152602001807f4f776e61626c653a2063616c6c6572206973206e6f7420746865206f776e657281525060200191505060405180910390fd5b7f000000000000000000000000000000000000000000000000000000000000000073ffffffffffffffffffffffffffffffffffffffff168373ffffffffffffffffffffffffffffffffffffffff161415611ceb57807f000000000000000000000000000000000000000000000000000000000000000073ffffffffffffffffffffffffffffffffffffffff166370a08231306040518263ffffffff1660e01b8152600401808273ffffffffffffffffffffffffffffffffffffffff16815260200191505060206040518083038186803b158015611c3357600080fd5b505afa158015611c47573d6000803e3d6000fd5b505050506040513d6020811015611c5d57600080fd5b8101908080519060200190929190505050036008541115611ce6576040517f08c379a000000000000000000000000000000000000000000000000000000000815260040180806020018281038252601b8152602001807f616d6f756e7420697320746f6f2062696720746f20726573637565000000000081525060200191505060405180910390fd5b611dae565b7f000000000000000000000000000000000000000000000000000000000000000073ffffffffffffffffffffffffffffffffffffffff168373ffffffffffffffffffffffffffffffffffffffff161415611dad576040517f08c379a000000000000000000000000000000000000000000000000000000000815260040180806020018281038252601f8152602001807f72657761726420746f6b656e2063616e206e6f7420626520726573637565640081525060200191505060405180910390fd5b5b8273ffffffffffffffffffffffffffffffffffffffff1663a9059cbb83836040518363ffffffff1660e01b8152600401808373ffffffffffffffffffffffffffffffffffffffff16815260200182815260200192505050602060405180830381600087803b158015611e1f57600080fd5b505af1158015611e33573d6000803e3d6000fd5b505050506040513d6020811015611e4957600080fd5b810190808051906020019092919050505050505050565b611ea8600960003373ffffffffffffffffffffffffffffffffffffffff1673ffffffffffffffffffffffffffffffffffffffff16815260200190815260200160002054610ead565b611eb061145f565b565b6000600a60000160009054906101000a900463ffffffff1663ffffffff16905090565b611edd6120c7565b73ffffffffffffffffffffffffffffffffffffffff16611efb6116e5565b73ffffffffffffffffffffffffffffffffffffffff1614611f84576040517f08c379a00000000000000000000000000000000000000000000000000000000081526004018080602001828103825260208152602001807f4f776e61626c653a2063616c6c6572206973206e6f7420746865206f776e657281525060200191505060405180910390fd5b600073ffffffffffffffffffffffffffffffffffffffff168173ffffffffffffffffffffffffffffffffffffffff16141561200a576040517f08c379a0000000000000000000000000000000000000000000000000000000008152600401808060200182810382526026815260200180612df66026913960400191505060405180910390fd5b8073ffffffffffffffffffffffffffffffffffffffff1660008054906101000a900473ffffffffffffffffffffffffffffffffffffffff1673ffffffffffffffffffffffffffffffffffffffff167f8be0079c531659141344cd1fd0a4f28419497f9722a3daafe3b4186f6b6457e060405160405180910390a3806000806101000a81548173ffffffffffffffffffffffffffffffffffffffff021916908373ffffffffffffffffffffffffffffffffffffffff16021790555050565b600033905090565b600280541415612147576040517f08c379a000000000000000000000000000000000000000000000000000000000815260040180806020018281038252601f8152602001807f5265656e7472616e637947756172643a207265656e7472616e742063616c6c0081525060200191505060405180910390fd5b60028081905550816000612159611a20565b90508060058190555061216a6116a1565b600a60000160086101000a81548163ffffffff021916908363ffffffff160217905550600073ffffffffffffffffffffffffffffffffffffffff168273ffffffffffffffffffffffffffffffffffffffff1614612252576121ca8261081d565b600760008473ffffffffffffffffffffffffffffffffffffffff1673ffffffffffffffffffffffffffffffffffffffff1681526020019081526020016000208190555080600660008473ffffffffffffffffffffffffffffffffffffffff1673ffffffffffffffffffffffffffffffffffffffff168152602001908152602001600020819055505b60008514156122c9576040517f08c379a00000000000000000000000000000000000000000000000000000000081526004018080602001828103825260118152602001807f43616e6e6f74207769746864726177203000000000000000000000000000000081525060200191505060405180910390fd5b846008540360088190555084600960008673ffffffffffffffffffffffffffffffffffffffff1673ffffffffffffffffffffffffffffffffffffffff1681526020019081526020016000205403600960008673ffffffffffffffffffffffffffffffffffffffff1673ffffffffffffffffffffffffffffffffffffffff168152602001908152602001600020819055507f000000000000000000000000000000000000000000000000000000000000000073ffffffffffffffffffffffffffffffffffffffff1663a9059cbb84876040518363ffffffff1660e01b8152600401808373ffffffffffffffffffffffffffffffffffffffff16815260200182815260200192505050602060405180830381600087803b1580156123ea57600080fd5b505af11580156123fe573d6000803e3d6000fd5b505050506040513d602081101561241457600080fd5b8101908080519060200190929190505050612497576040517f08c379a00000000000000000000000000000000000000000000000000000000081526004018080602001828103825260158152602001807f746f6b656e207472616e73666572206661696c6564000000000000000000000081525060200191505060405180910390fd5b8373ffffffffffffffffffffffffffffffffffffffff167f7084f5476618d8e60b11ef0d7d3f06914655adb8793e28ff7f018d4c76d505d5866040518082815260200191505060405180910390a250506001600281905550505050565b600060028054141561256e576040517f08c379a000000000000000000000000000000000000000000000000000000000815260040180806020018281038252601f8152602001807f5265656e7472616e637947756172643a207265656e7472616e742063616c6c0081525060200191505060405180910390fd5b60028081905550826000612580611a20565b9050806005819055506125916116a1565b600a60000160086101000a81548163ffffffff021916908363ffffffff160217905550600073ffffffffffffffffffffffffffffffffffffffff168273ffffffffffffffffffffffffffffffffffffffff1614612679576125f18261081d565b600760008473ffffffffffffffffffffffffffffffffffffffff1673ffffffffffffffffffffffffffffffffffffffff1681526020019081526020016000208190555080600660008473ffffffffffffffffffffffffffffffffffffffff1673ffffffffffffffffffffffffffffffffffffffff168152602001908152602001600020819055505b600760008673ffffffffffffffffffffffffffffffffffffffff1673ffffffffffffffffffffffffffffffffffffffff16815260200190815260200160002054925060008314612800576000600760008773ffffffffffffffffffffffffffffffffffffffff1673ffffffffffffffffffffffffffffffffffffffff168152602001908152602001600020819055507f000000000000000000000000000000000000000000000000000000000000000073ffffffffffffffffffffffffffffffffffffffff166340c10f1985856040518363ffffffff1660e01b8152600401808373ffffffffffffffffffffffffffffffffffffffff16815260200182815260200192505050600060405180830381600087803b15801561279957600080fd5b505af11580156127ad573d6000803e3d6000fd5b505050508473ffffffffffffffffffffffffffffffffffffffff167fe2403640ba68fed3a2f88b7557551d1993f84b99bb10ff833f0cf8db0c5e0486846040518082815260200191505060405180910390a25b5050600160028190555092915050565b600081831061281f5781612821565b825b905092915050565b6002805414156128a1576040517f08c379a000000000000000000000000000000000000000000000000000000000815260040180806020018281038252601f8152602001807f5265656e7472616e637947756172643a207265656e7472616e742063616c6c0081525060200191505060405180910390fd5b60028081905550600360009054906101000a900460ff161561290e576040517f08c379a000000000000000000000000000000000000000000000000000000000815260040180806020018281038252603c815260200180612e1c603c913960400191505060405180910390fd5b826000612919611a20565b90508060058190555061292a6116a1565b600a60000160086101000a81548163ffffffff021916908363ffffffff160217905550600073ffffffffffffffffffffffffffffffffffffffff168273ffffffffffffffffffffffffffffffffffffffff1614612a125761298a8261081d565b600760008473ffffffffffffffffffffffffffffffffffffffff1673ffffffffffffffffffffffffffffffffffffffff1681526020019081526020016000208190555080600660008473ffffffffffffffffffffffffffffffffffffffff1673ffffffffffffffffffffffffffffffffffffffff168152602001908152602001600020819055505b6000600a60000160009054906101000a900463ffffffff1663ffffffff161415612aa4576040517f08c379a000000000000000000000000000000000000000000000000000000000815260040180806020018281038252601c8152602001807f5374616b6520706572696f64206e6f742073746172746564207965740000000081525060200191505060405180910390fd5b6000841415612b1b576040517f08c379a000000000000000000000000000000000000000000000000000000000815260040180806020018281038252600e8152602001807f43616e6e6f74207374616b65203000000000000000000000000000000000000081525060200191505060405180910390fd5b836008540160088190555083600960008773ffffffffffffffffffffffffffffffffffffffff1673ffffffffffffffffffffffffffffffffffffffff1681526020019081526020016000205401600960008773ffffffffffffffffffffffffffffffffffffffff1673ffffffffffffffffffffffffffffffffffffffff168152602001908152602001600020819055508215612bb657612d13565b7f000000000000000000000000000000000000000000000000000000000000000073ffffffffffffffffffffffffffffffffffffffff166323b872dd8630876040518463ffffffff1660e01b8152600401808473ffffffffffffffffffffffffffffffffffffffff1681526020018373ffffffffffffffffffffffffffffffffffffffff1681526020018281526020019350505050602060405180830381600087803b158015612c6557600080fd5b505af1158015612c79573d6000803e3d6000fd5b505050506040513d6020811015612c8f57600080fd5b8101908080519060200190929190505050612d12576040517f08c379a00000000000000000000000000000000000000000000000000000000081526004018080602001828103825260158152602001807f746f6b656e207472616e73666572206661696c6564000000000000000000000081525060200191505060405180910390fd5b5b8473ffffffffffffffffffffffffffffffffffffffff167f9e71bc8eea02a63969f509818f2dafb9254532904319f9dbda79b67bd34a5f3d856040518082815260200191505060405180910390a250506001600281905550505050565b6040518060800160405280600063ffffffff168152602001600063ffffffff168152602001600063ffffffff16815260200160006bffffffffffffffffffffffff168152509056fe50726576696f757320706572696f64206d75737420626520636f6d706c657465206265666f7265206368616e67696e6720746865206475726174696f6e4f776e61626c653a206e6577206f776e657220697320746865207a65726f20616464726573735468697320616374696f6e2063616e6e6f7420626520706572666f726d6564207768696c652074686520636f6e74726163742069732070617573656463616e27742073746f70206966206e6f742073746172746564206f7220616c72656164792066696e6973686564a264697066735822122057c848b4d26a0a6f9e5571d51011dc4f9b666f3ee3c5e0d605749c24c476125e64736f6c6343000705003372657761726473546f6b656e206d757374206265204f6e44656d616e64546f6b656e4f776e61626c653a206e6577206f776e657220697320746865207a65726f2061646472657373","linkReferences":{}},"methodIdentifiers":{"balanceOf(address)":"70a08231","earned(address)":"008cc262","exit()":"e9fad8ee","finishFarming()":"207e11aa","getReward()":"3d18b912","getRewardForDuration()":"1c1f78eb","lastTimeRewardApplicable()":"80faa57d","lastUpdateTime()":"c8f33c91","maxEverTotalRewards()":"0e00f75a","notifyRewardAmount(uint256)":"3c6b16ab","owner()":"8da5cb5b","paused()":"5c975abb","periodFinish()":"ebe2b12b","renounceOwnership()":"715018a6","rescueToken(address,address,uint256)":"e5711e8b","rewardPerToken()":"cd3daf9d","rewardPerTokenStored()":"df136d65","rewardRate()":"7b0a47ee","rewards(address)":"0700037d","rewardsDistribution()":"3fc6df6e","rewardsDuration()":"386a9525","rewardsToken()":"d1af0c7d","setPaused(bool)":"16c38b3c","setRewardsDistribution(address)":"19762143","setRewardsDuration(uint256)":"cc1a378f","stake(uint256)":"a694fc3a","stakingToken()":"72f702f3","stopped()":"75f12b21","timeData()":"a0e43959","totalSupply()":"18160ddd","transferOwnership(address)":"f2fde38b","userRewardPerTokenPaid(address)":"8b876347","version()":"54fd4d50","withdraw(uint256)":"2e1a7d4d"},"storageLayout":{"storage":[{"astId":7,"contract":"src/staking/StakingRewards.sol:StakingRewards","label":"_owner","offset":0,"slot":"0","type":"t_address"},{"astId":2069,"contract":"src/staking/StakingRewards.sol:StakingRewards","label":"rewardsDistribution","offset":0,"slot":"1","type":"t_address"},{"astId":1661,"contract":"src/staking/StakingRewards.sol:StakingRewards","label":"_status","offset":0,"slot":"2","type":"t_uint256"},{"astId":2009,"contract":"src/staking/StakingRewards.sol:StakingRewards","label":"paused","offset":0,"slot":"3","type":"t_bool"},{"astId":2139,"contract":"src/staking/StakingRewards.sol:StakingRewards","label":"rewardRate","offset":0,"slot":"4","type":"t_uint256"},{"astId":2141,"contract":"src/staking/StakingRewards.sol:StakingRewards","label":"rewardPerTokenStored","offset":0,"slot":"5","type":"t_uint256"},{"astId":2145,"contract":"src/staking/StakingRewards.sol:StakingRewards","label":"userRewardPerTokenPaid","offset":0,"slot":"6","type":"t_mapping(t_address,t_uint256)"},{"astId":2149,"contract":"src/staking/StakingRewards.sol:StakingRewards","label":"rewards","offset":0,"slot":"7","type":"t_mapping(t_address,t_uint256)"},{"astId":2151,"contract":"src/staking/StakingRewards.sol:StakingRewards","label":"_totalSupply","offset":0,"slot":"8","type":"t_uint256"},{"astId":2155,"contract":"src/staking/StakingRewards.sol:StakingRewards","label":"_balances","offset":0,"slot":"9","type":"t_mapping(t_address,t_uint256)"},{"astId":2157,"contract":"src/staking/StakingRewards.sol:StakingRewards","label":"timeData","offset":0,"slot":"10","type":"t_struct(Times)2130_storage"},{"astId":2159,"contract":"src/staking/StakingRewards.sol:StakingRewards","label":"stopped","offset":0,"slot":"11","type":"t_bool"}],"types":{"t_address":{"encoding":"inplace","label":"address","numberOfBytes":"20"},"t_bool":{"encoding":"inplace","label":"bool","numberOfBytes":"1"},"t_mapping(t_address,t_uint256)":{"encoding":"mapping","key":"t_address","label":"mapping(address => uint256)","numberOfBytes":"32","value":"t_uint256"},"t_struct(Times)2130_storage":{"encoding":"inplace","label":"struct StakingRewards.Times","numberOfBytes":"32","members":[{"astId":2123,"contract":"src/staking/StakingRewards.sol:StakingRewards","label":"periodFinish","offset":0,"slot":"0","type":"t_uint32"},{"astId":2125,"contract":"src/staking/StakingRewards.sol:StakingRewards","label":"rewardsDuration","offset":4,"slot":"0","type":"t_uint32"},{"astId":2127,"contract":"src/staking/StakingRewards.sol:StakingRewards","label":"lastUpdateTime","offset":8,"slot":"0","type":"t_uint32"},{"astId":2129,"contract":"src/staking/StakingRewards.sol:StakingRewards","label":"totalRewardsSupply","offset":12,"slot":"0","type":"t_uint96"}]},"t_uint256":{"encoding":"inplace","label":"uint256","numberOfBytes":"32"},"t_uint32":{"encoding":"inplace","label":"uint32","numberOfBytes":"4"},"t_uint96":{"encoding":"inplace","label":"uint96","numberOfBytes":"12"}}},"id":16}