{"abi":[{"type":"constructor","inputs":[],"stateMutability":"nonpayable"},{"type":"function","name":"_acceptAdmin","inputs":[],"outputs":[{"name":"","type":"uint256","internalType":"uint256"}],"stateMutability":"nonpayable"},{"type":"function","name":"_addReserves","inputs":[{"name":"addAmount","type":"uint256","internalType":"uint256"}],"outputs":[{"name":"","type":"uint256","internalType":"uint256"}],"stateMutability":"nonpayable"},{"type":"function","name":"_becomeImplementation","inputs":[{"name":"data","type":"bytes","internalType":"bytes"}],"outputs":[],"stateMutability":"nonpayable"},{"type":"function","name":"_reduceReserves","inputs":[{"name":"reduceAmount","type":"uint256","internalType":"uint256"}],"outputs":[{"name":"","type":"uint256","internalType":"uint256"}],"stateMutability":"nonpayable"},{"type":"function","name":"_resignImplementation","inputs":[],"outputs":[],"stateMutability":"nonpayable"},{"type":"function","name":"_setComptroller","inputs":[{"name":"newComptroller","type":"address","internalType":"contract ComptrollerInterface"}],"outputs":[{"name":"","type":"uint256","internalType":"uint256"}],"stateMutability":"nonpayable"},{"type":"function","name":"_setInitialExchangeRate","inputs":[{"name":"_newInitialExchangeRateMantissa","type":"uint256","internalType":"uint256"}],"outputs":[],"stateMutability":"nonpayable"},{"type":"function","name":"_setInterestRateModel","inputs":[{"name":"newInterestRateModel","type":"address","internalType":"contract InterestRateModel"}],"outputs":[{"name":"","type":"uint256","internalType":"uint256"}],"stateMutability":"nonpayable"},{"type":"function","name":"_setPendingAdmin","inputs":[{"name":"newPendingAdmin","type":"address","internalType":"address payable"}],"outputs":[{"name":"","type":"uint256","internalType":"uint256"}],"stateMutability":"nonpayable"},{"type":"function","name":"_setProtocolSeizeShare","inputs":[{"name":"newProtocolSeizeShareMantissa","type":"uint256","internalType":"uint256"}],"outputs":[{"name":"","type":"uint256","internalType":"uint256"}],"stateMutability":"nonpayable"},{"type":"function","name":"_setReserveFactor","inputs":[{"name":"newReserveFactorMantissa","type":"uint256","internalType":"uint256"}],"outputs":[{"name":"","type":"uint256","internalType":"uint256"}],"stateMutability":"nonpayable"},{"type":"function","name":"accrualBlockNumber","inputs":[],"outputs":[{"name":"","type":"uint256","internalType":"uint256"}],"stateMutability":"view"},{"type":"function","name":"accrueInterest","inputs":[],"outputs":[{"name":"","type":"uint256","internalType":"uint256"}],"stateMutability":"nonpayable"},{"type":"function","name":"admin","inputs":[],"outputs":[{"name":"","type":"address","internalType":"address payable"}],"stateMutability":"view"},{"type":"function","name":"allowance","inputs":[{"name":"owner","type":"address","internalType":"address"},{"name":"spender","type":"address","internalType":"address"}],"outputs":[{"name":"","type":"uint256","internalType":"uint256"}],"stateMutability":"view"},{"type":"function","name":"approve","inputs":[{"name":"spender","type":"address","internalType":"address"},{"name":"amount","type":"uint256","internalType":"uint256"}],"outputs":[{"name":"","type":"bool","internalType":"bool"}],"stateMutability":"nonpayable"},{"type":"function","name":"balanceOf","inputs":[{"name":"owner","type":"address","internalType":"address"}],"outputs":[{"name":"","type":"uint256","internalType":"uint256"}],"stateMutability":"view"},{"type":"function","name":"balanceOfUnderlying","inputs":[{"name":"owner","type":"address","internalType":"address"}],"outputs":[{"name":"","type":"uint256","internalType":"uint256"}],"stateMutability":"view"},{"type":"function","name":"borrow","inputs":[{"name":"borrowAmount","type":"uint256","internalType":"uint256"}],"outputs":[{"name":"","type":"uint256","internalType":"uint256"}],"stateMutability":"nonpayable"},{"type":"function","name":"borrowBalanceCurrent","inputs":[{"name":"account","type":"address","internalType":"address"}],"outputs":[{"name":"","type":"uint256","internalType":"uint256"}],"stateMutability":"nonpayable"},{"type":"function","name":"borrowBalanceStored","inputs":[{"name":"account","type":"address","internalType":"address"}],"outputs":[{"name":"","type":"uint256","internalType":"uint256"}],"stateMutability":"view"},{"type":"function","name":"borrowIndex","inputs":[],"outputs":[{"name":"","type":"uint256","internalType":"uint256"}],"stateMutability":"view"},{"type":"function","name":"borrowRatePerBlock","inputs":[],"outputs":[{"name":"","type":"uint256","internalType":"uint256"}],"stateMutability":"view"},{"type":"function","name":"comptroller","inputs":[],"outputs":[{"name":"","type":"address","internalType":"contract ComptrollerInterface"}],"stateMutability":"view"},{"type":"function","name":"decimals","inputs":[],"outputs":[{"name":"","type":"uint8","internalType":"uint8"}],"stateMutability":"view"},{"type":"function","name":"exchangeRateCurrent","inputs":[],"outputs":[{"name":"","type":"uint256","internalType":"uint256"}],"stateMutability":"view"},{"type":"function","name":"exchangeRateStored","inputs":[],"outputs":[{"name":"","type":"uint256","internalType":"uint256"}],"stateMutability":"view"},{"type":"function","name":"getAccountSnapshot","inputs":[{"name":"account","type":"address","internalType":"address"}],"outputs":[{"name":"","type":"uint256","internalType":"uint256"},{"name":"","type":"uint256","internalType":"uint256"},{"name":"","type":"uint256","internalType":"uint256"},{"name":"","type":"uint256","internalType":"uint256"}],"stateMutability":"view"},{"type":"function","name":"getCash","inputs":[],"outputs":[{"name":"","type":"uint256","internalType":"uint256"}],"stateMutability":"view"},{"type":"function","name":"implementation","inputs":[],"outputs":[{"name":"","type":"address","internalType":"address"}],"stateMutability":"view"},{"type":"function","name":"initialize","inputs":[{"name":"underlying_","type":"address","internalType":"address"},{"name":"comptroller_","type":"address","internalType":"contract ComptrollerInterface"},{"name":"interestRateModel_","type":"address","internalType":"contract InterestRateModel"},{"name":"initialExchangeRateMantissa_","type":"uint256","internalType":"uint256"},{"name":"name_","type":"string","internalType":"string"},{"name":"symbol_","type":"string","internalType":"string"},{"name":"decimals_","type":"uint8","internalType":"uint8"}],"outputs":[],"stateMutability":"nonpayable"},{"type":"function","name":"initialize","inputs":[{"name":"comptroller_","type":"address","internalType":"contract ComptrollerInterface"},{"name":"interestRateModel_","type":"address","internalType":"contract InterestRateModel"},{"name":"initialExchangeRateMantissa_","type":"uint256","internalType":"uint256"},{"name":"name_","type":"string","internalType":"string"},{"name":"symbol_","type":"string","internalType":"string"},{"name":"decimals_","type":"uint8","internalType":"uint8"}],"outputs":[],"stateMutability":"nonpayable"},{"type":"function","name":"interestRateModel","inputs":[],"outputs":[{"name":"","type":"address","internalType":"contract InterestRateModel"}],"stateMutability":"view"},{"type":"function","name":"isCToken","inputs":[],"outputs":[{"name":"","type":"bool","internalType":"bool"}],"stateMutability":"view"},{"type":"function","name":"liquidateBorrow","inputs":[{"name":"borrower","type":"address","internalType":"address"},{"name":"repayAmount","type":"uint256","internalType":"uint256"},{"name":"cTokenCollateral","type":"address","internalType":"contract CTokenInterface"}],"outputs":[{"name":"","type":"uint256","internalType":"uint256"}],"stateMutability":"nonpayable"},{"type":"function","name":"mint","inputs":[{"name":"mintAmount","type":"uint256","internalType":"uint256"},{"name":"enterMarket","type":"bool","internalType":"bool"}],"outputs":[{"name":"","type":"uint256","internalType":"uint256"}],"stateMutability":"nonpayable"},{"type":"function","name":"name","inputs":[],"outputs":[{"name":"","type":"string","internalType":"string"}],"stateMutability":"view"},{"type":"function","name":"pendingAdmin","inputs":[],"outputs":[{"name":"","type":"address","internalType":"address payable"}],"stateMutability":"view"},{"type":"function","name":"protocolSeizeShareMantissa","inputs":[],"outputs":[{"name":"","type":"uint256","internalType":"uint256"}],"stateMutability":"view"},{"type":"function","name":"redeem","inputs":[{"name":"redeemTokens","type":"uint256","internalType":"uint256"}],"outputs":[{"name":"","type":"uint256","internalType":"uint256"}],"stateMutability":"nonpayable"},{"type":"function","name":"redeemUnderlying","inputs":[{"name":"redeemAmount","type":"uint256","internalType":"uint256"}],"outputs":[{"name":"","type":"uint256","internalType":"uint256"}],"stateMutability":"nonpayable"},{"type":"function","name":"repayBorrow","inputs":[{"name":"repayAmount","type":"uint256","internalType":"uint256"}],"outputs":[{"name":"","type":"uint256","internalType":"uint256"}],"stateMutability":"nonpayable"},{"type":"function","name":"repayBorrowBehalf","inputs":[{"name":"borrower","type":"address","internalType":"address"},{"name":"repayAmount","type":"uint256","internalType":"uint256"}],"outputs":[{"name":"","type":"uint256","internalType":"uint256"}],"stateMutability":"nonpayable"},{"type":"function","name":"reserveFactorMantissa","inputs":[],"outputs":[{"name":"","type":"uint256","internalType":"uint256"}],"stateMutability":"view"},{"type":"function","name":"seize","inputs":[{"name":"liquidator","type":"address","internalType":"address"},{"name":"borrower","type":"address","internalType":"address"},{"name":"seizeTokens","type":"uint256","internalType":"uint256"}],"outputs":[{"name":"","type":"uint256","internalType":"uint256"}],"stateMutability":"nonpayable"},{"type":"function","name":"supplyRatePerBlock","inputs":[],"outputs":[{"name":"","type":"uint256","internalType":"uint256"}],"stateMutability":"view"},{"type":"function","name":"symbol","inputs":[],"outputs":[{"name":"","type":"string","internalType":"string"}],"stateMutability":"view"},{"type":"function","name":"totalBorrows","inputs":[],"outputs":[{"name":"","type":"uint256","internalType":"uint256"}],"stateMutability":"view"},{"type":"function","name":"totalBorrowsCurrent","inputs":[],"outputs":[{"name":"","type":"uint256","internalType":"uint256"}],"stateMutability":"nonpayable"},{"type":"function","name":"totalReserves","inputs":[],"outputs":[{"name":"","type":"uint256","internalType":"uint256"}],"stateMutability":"view"},{"type":"function","name":"totalSupply","inputs":[],"outputs":[{"name":"","type":"uint256","internalType":"uint256"}],"stateMutability":"view"},{"type":"function","name":"transfer","inputs":[{"name":"dst","type":"address","internalType":"address"},{"name":"amount","type":"uint256","internalType":"uint256"}],"outputs":[{"name":"","type":"bool","internalType":"bool"}],"stateMutability":"nonpayable"},{"type":"function","name":"transferFrom","inputs":[{"name":"src","type":"address","internalType":"address"},{"name":"dst","type":"address","internalType":"address"},{"name":"amount","type":"uint256","internalType":"uint256"}],"outputs":[{"name":"","type":"bool","internalType":"bool"}],"stateMutability":"nonpayable"},{"type":"function","name":"underlying","inputs":[],"outputs":[{"name":"","type":"address","internalType":"address"}],"stateMutability":"view"},{"type":"event","name":"AccrueInterest","inputs":[{"name":"cashPrior","type":"uint256","indexed":false,"internalType":"uint256"},{"name":"interestAccumulated","type":"uint256","indexed":false,"internalType":"uint256"},{"name":"borrowIndex","type":"uint256","indexed":false,"internalType":"uint256"},{"name":"totalBorrows","type":"uint256","indexed":false,"internalType":"uint256"}],"anonymous":false},{"type":"event","name":"Approval","inputs":[{"name":"owner","type":"address","indexed":true,"internalType":"address"},{"name":"spender","type":"address","indexed":true,"internalType":"address"},{"name":"amount","type":"uint256","indexed":false,"internalType":"uint256"}],"anonymous":false},{"type":"event","name":"Borrow","inputs":[{"name":"borrower","type":"address","indexed":false,"internalType":"address"},{"name":"borrowAmount","type":"uint256","indexed":false,"internalType":"uint256"},{"name":"accountBorrows","type":"uint256","indexed":false,"internalType":"uint256"},{"name":"totalBorrows","type":"uint256","indexed":false,"internalType":"uint256"}],"anonymous":false},{"type":"event","name":"Failure","inputs":[{"name":"error","type":"uint256","indexed":false,"internalType":"uint256"},{"name":"info","type":"uint256","indexed":false,"internalType":"uint256"},{"name":"detail","type":"uint256","indexed":false,"internalType":"uint256"}],"anonymous":false},{"type":"event","name":"LiquidateBorrow","inputs":[{"name":"liquidator","type":"address","indexed":false,"internalType":"address"},{"name":"borrower","type":"address","indexed":false,"internalType":"address"},{"name":"repayAmount","type":"uint256","indexed":false,"internalType":"uint256"},{"name":"cTokenCollateral","type":"address","indexed":false,"internalType":"address"},{"name":"seizeTokens","type":"uint256","indexed":false,"internalType":"uint256"}],"anonymous":false},{"type":"event","name":"Mint","inputs":[{"name":"minter","type":"address","indexed":false,"internalType":"address"},{"name":"mintAmount","type":"uint256","indexed":false,"internalType":"uint256"},{"name":"mintTokens","type":"uint256","indexed":false,"internalType":"uint256"}],"anonymous":false},{"type":"event","name":"NewAdmin","inputs":[{"name":"oldAdmin","type":"address","indexed":false,"internalType":"address"},{"name":"newAdmin","type":"address","indexed":false,"internalType":"address"}],"anonymous":false},{"type":"event","name":"NewComptroller","inputs":[{"name":"oldComptroller","type":"address","indexed":false,"internalType":"contract ComptrollerInterface"},{"name":"newComptroller","type":"address","indexed":false,"internalType":"contract ComptrollerInterface"}],"anonymous":false},{"type":"event","name":"NewMarketInterestRateModel","inputs":[{"name":"oldInterestRateModel","type":"address","indexed":false,"internalType":"contract InterestRateModel"},{"name":"newInterestRateModel","type":"address","indexed":false,"internalType":"contract InterestRateModel"}],"anonymous":false},{"type":"event","name":"NewPendingAdmin","inputs":[{"name":"oldPendingAdmin","type":"address","indexed":false,"internalType":"address"},{"name":"newPendingAdmin","type":"address","indexed":false,"internalType":"address"}],"anonymous":false},{"type":"event","name":"NewProtocolSeizeShare","inputs":[{"name":"oldProtocolSeizeShareMantissa","type":"uint256","indexed":false,"internalType":"uint256"},{"name":"newProtocolSeizeShareMantissa","type":"uint256","indexed":false,"internalType":"uint256"}],"anonymous":false},{"type":"event","name":"NewReserveFactor","inputs":[{"name":"oldReserveFactorMantissa","type":"uint256","indexed":false,"internalType":"uint256"},{"name":"newReserveFactorMantissa","type":"uint256","indexed":false,"internalType":"uint256"}],"anonymous":false},{"type":"event","name":"Redeem","inputs":[{"name":"redeemer","type":"address","indexed":false,"internalType":"address"},{"name":"redeemAmount","type":"uint256","indexed":false,"internalType":"uint256"},{"name":"redeemTokens","type":"uint256","indexed":false,"internalType":"uint256"}],"anonymous":false},{"type":"event","name":"RepayBorrow","inputs":[{"name":"payer","type":"address","indexed":false,"internalType":"address"},{"name":"borrower","type":"address","indexed":false,"internalType":"address"},{"name":"repayAmount","type":"uint256","indexed":false,"internalType":"uint256"},{"name":"accountBorrows","type":"uint256","indexed":false,"internalType":"uint256"},{"name":"totalBorrows","type":"uint256","indexed":false,"internalType":"uint256"}],"anonymous":false},{"type":"event","name":"ReservesAdded","inputs":[{"name":"benefactor","type":"address","indexed":false,"internalType":"address"},{"name":"addAmount","type":"uint256","indexed":false,"internalType":"uint256"},{"name":"newTotalReserves","type":"uint256","indexed":false,"internalType":"uint256"}],"anonymous":false},{"type":"event","name":"ReservesReduced","inputs":[{"name":"admin","type":"address","indexed":false,"internalType":"address"},{"name":"reduceAmount","type":"uint256","indexed":false,"internalType":"uint256"},{"name":"newTotalReserves","type":"uint256","indexed":false,"internalType":"uint256"}],"anonymous":false},{"type":"event","name":"Transfer","inputs":[{"name":"from","type":"address","indexed":true,"internalType":"address"},{"name":"to","type":"address","indexed":true,"internalType":"address"},{"name":"amount","type":"uint256","indexed":false,"internalType":"uint256"}],"anonymous":false}],"bytecode":{"object":"0x6080604052666379da05b6000060115534801561001b57600080fd5b50615a86806200002c6000396000f3fe608060405234801561001057600080fd5b50600436106103425760003560e01c806370a08231116101b8578063b71d1a0c11610104578063f2b3abbd116100a2578063f851a4401161007c578063f851a44014610bcd578063f8f9da2814610bd5578063fca7820b14610bdd578063fe9c44ae14610bfa57610342565b8063f2b3abbd14610b69578063f3fdb15a14610b8f578063f5e3c46214610b9757610342565b8063c5ebeaec116100de578063c5ebeaec14610af9578063db006a7514610b16578063dd62ed3e14610b33578063e9c714f214610b6157610342565b8063b71d1a0c14610a7f578063bd6d894d14610aa5578063c37f68e214610aad57610342565b806395dd919311610171578063a9059cbb1161014b578063a9059cbb14610a0d578063aa5af0fd14610a39578063ae9d70b014610a41578063b2a02ff114610a4957610342565b806395dd91931461089157806399d8c1b4146108b7578063a6afed9514610a0557610342565b806370a082311461081957806373acee981461083f5780638303084614610847578063852a12e3146108645780638f840ddd1461088157806395d89b411461088957610342565b80633af9e669116102925780635c60da1b116102305780636752e7021161020a5780636752e702146107dc57806367f68fac146107e45780636c540baf146108095780636f307dc31461081157610342565b80635c60da1b146107af5780635fe3b567146107b7578063601a0bf1146107bf57610342565b80634576b5db1161026c5780634576b5db146106c057806347bd3718146106e65780634b3ac1c2146106ee57806356e677281461070b57610342565b80633af9e669146106755780633b1d21a21461069b5780633e941010146106a357610342565b806318160ddd116102ff57806323b872dd116102d957806323b872dd146105d15780632608f818146106075780632678224714610633578063313ce5671461065757610342565b806318160ddd1461046b578063182df0f5146104735780631a31d4651461047b57610342565b806306fdde0314610347578063095ea7b3146103c45780630e75270214610404578063153ab50514610433578063173b99041461043d57806317bfdfbc14610445575b600080fd5b61034f610c02565b6040805160208082528351818301528351919283929083019185019080838360005b83811015610389578181015183820152602001610371565b50505050905090810190601f1680156103b65780820380516001836020036101000a031916815260200191505b509250505060405180910390f35b6103f0600480360360408110156103da57600080fd5b506001600160a01b038135169060200135610c8f565b604080519115158252519081900360200190f35b6104216004803603602081101561041a57600080fd5b5035610cfc565b60408051918252519081900360200190f35b61043b610d12565b005b610421610d62565b6104216004803603602081101561045b57600080fd5b50356001600160a01b0316610d68565b610421610e28565b610421610e2e565b61043b600480360360e081101561049157600080fd5b6001600160a01b03823581169260208101358216926040820135909216916060820135919081019060a081016080820135600160201b8111156104d357600080fd5b8201836020820111156104e557600080fd5b803590602001918460018302840111600160201b8311171561050657600080fd5b91908080601f0160208091040260200160405190810160405280939291908181526020018383808284376000920191909152509295949360208101935035915050600160201b81111561055857600080fd5b82018360208201111561056a57600080fd5b803590602001918460018302840111600160201b8311171561058b57600080fd5b91908080601f0160208091040260200160405190810160405280939291908181526020018383808284376000920191909152509295505050903560ff169150610e919050565b6103f0600480360360608110156105e757600080fd5b506001600160a01b03813581169160208101359091169060400135610f30565b6104216004803603604081101561061d57600080fd5b506001600160a01b038135169060200135610fa2565b61063b610fb8565b604080516001600160a01b039092168252519081900360200190f35b61065f610fc7565b6040805160ff9092168252519081900360200190f35b6104216004803603602081101561068b57600080fd5b50356001600160a01b0316610fd0565b61042161100b565b610421600480360360208110156106b957600080fd5b503561101a565b610421600480360360208110156106d657600080fd5b50356001600160a01b0316611025565b61042161117a565b61043b6004803603602081101561070457600080fd5b5035611180565b61043b6004803603602081101561072157600080fd5b810190602081018135600160201b81111561073b57600080fd5b82018360208201111561074d57600080fd5b803590602001918460018302840111600160201b8311171561076e57600080fd5b91908080601f0160208091040260200160405190810160405280939291908181526020018383808284376000920191909152509295506111d3945050505050565b61063b611224565b61063b611233565b610421600480360360208110156107d557600080fd5b5035611242565b6104216112dd565b610421600480360360408110156107fa57600080fd5b508035906020013515156112e3565b6104216114ab565b61063b6114b1565b6104216004803603602081101561082f57600080fd5b50356001600160a01b03166114c0565b6104216114db565b6104216004803603602081101561085d57600080fd5b5035611591565b6104216004803603602081101561087a57600080fd5b503561167f565b61042161168a565b61034f611690565b610421600480360360208110156108a757600080fd5b50356001600160a01b03166116e8565b61043b600480360360c08110156108cd57600080fd5b6001600160a01b03823581169260208101359091169160408201359190810190608081016060820135600160201b81111561090757600080fd5b82018360208201111561091957600080fd5b803590602001918460018302840111600160201b8311171561093a57600080fd5b91908080601f0160208091040260200160405190810160405280939291908181526020018383808284376000920191909152509295949360208101935035915050600160201b81111561098c57600080fd5b82018360208201111561099e57600080fd5b803590602001918460018302840111600160201b831117156109bf57600080fd5b91908080601f0160208091040260200160405190810160405280939291908181526020018383808284376000920191909152509295505050903560ff1691506117459050565b61042161192c565b6103f060048036036040811015610a2357600080fd5b506001600160a01b038135169060200135611c84565b610421611cf5565b610421611cfb565b61042160048036036060811015610a5f57600080fd5b506001600160a01b03813581169160208101359091169060400135611d9a565b61042160048036036020811015610a9557600080fd5b50356001600160a01b0316611e0b565b610421611e97565b610ad360048036036020811015610ac357600080fd5b50356001600160a01b0316612099565b604080519485526020850193909352838301919091526060830152519081900360800190f35b61042160048036036020811015610b0f57600080fd5b503561212e565b61042160048036036020811015610b2c57600080fd5b5035612139565b61042160048036036040811015610b4957600080fd5b506001600160a01b0381358116916020013516612144565b61042161216f565b61042160048036036020811015610b7f57600080fd5b50356001600160a01b0316612272565b61063b6122ac565b61042160048036036060811015610bad57600080fd5b506001600160a01b038135811691602081013591604090910135166122bb565b61063b6122d3565b6104216122e7565b61042160048036036020811015610bf357600080fd5b503561234b565b6103f06123c9565b60018054604080516020600284861615610100026000190190941693909304601f81018490048402820184019092528181529291830182828015610c875780601f10610c5c57610100808354040283529160200191610c87565b820191906000526020600020905b815481529060010190602001808311610c6a57829003601f168201915b505050505081565b336000818152600f602090815260408083206001600160a01b03871680855290835281842086905581518681529151939493909284927f8c5be1e5ebec7d5bd14f71427d1e84f3dd0314c0f7b2291e5b200ac8c7c3b925929081900390910190a360019150505b92915050565b600080610d08836123ce565b509150505b919050565b60035461010090046001600160a01b03163314610d605760405162461bcd60e51b815260040180806020018281038252602d8152602001806157f4602d913960400191505060405180910390fd5b565b60085481565b6000805460ff16610dad576040805162461bcd60e51b815260206004820152600a6024820152691c994b595b9d195c995960b21b604482015290519081900360640190fd5b6000805460ff19168155610dbf61192c565b14610e0a576040805162461bcd60e51b81526020600482015260166024820152751858d8dc9d59481a5b9d195c995cdd0819985a5b195960521b604482015290519081900360640190fd5b610e13826116e8565b90505b6000805460ff19166001179055919050565b600d5481565b6000806000610e3b612477565b90925090506000826003811115610e4e57fe5b14610e8a5760405162461bcd60e51b81526004018080602001828103825260358152602001806159706035913960400191505060405180910390fd5b9150505b90565b610e9f868686868686611745565b601280546001600160a01b0319166001600160a01b038981169190911791829055604080516318160ddd60e01b8152905192909116916318160ddd91600480820192602092909190829003018186803b158015610efb57600080fd5b505afa158015610f0f573d6000803e3d6000fd5b505050506040513d6020811015610f2557600080fd5b505050505050505050565b6000805460ff16610f75576040805162461bcd60e51b815260206004820152600a6024820152691c994b595b9d195c995960b21b604482015290519081900360640190fd5b6000805460ff19168155610f8b33868686612526565b1490506000805460ff191660011790559392505050565b600080610faf8484612836565b50949350505050565b6004546001600160a01b031681565b60035460ff1681565b6000610cf6610fdd611e97565b6001600160a01b0384166000908152600e602052604090205490670de0b6b3a764000063ffffffff6128e116565b60006110156128fc565b905090565b6000610cf68261297c565b60035460009061010090046001600160a01b031633146110525761104b6001603f612a10565b9050610d0d565b60055460408051623f1ee960e11b815290516001600160a01b0392831692851691627e3dd2916004808301926020929190829003018186803b15801561109757600080fd5b505afa1580156110ab573d6000803e3d6000fd5b505050506040513d60208110156110c157600080fd5b5051611114576040805162461bcd60e51b815260206004820152601c60248201527f6d61726b6572206d6574686f642072657475726e65642066616c736500000000604482015290519081900360640190fd5b600580546001600160a01b0319166001600160a01b03858116918217909255604080519284168352602083019190915280517f7ac369dbd14fa5ea3f473ed67cc9d598964a77501540ba6751eb0b3decf5870d9281900390910190a160005b9392505050565b600b5481565b60035461010090046001600160a01b031633146111ce5760405162461bcd60e51b815260040180806020018281038252602f81526020018061584c602f913960400191505060405180910390fd5b600755565b60035461010090046001600160a01b031633146112215760405162461bcd60e51b815260040180806020018281038252602d815260200180615a25602d913960400191505060405180910390fd5b50565b6013546001600160a01b031681565b6005546001600160a01b031681565b6000805460ff16611287576040805162461bcd60e51b815260206004820152600a6024820152691c994b595b9d195c995960b21b604482015290519081900360640190fd5b6000805460ff1916815561129961192c565b905080156112bf576112b78160108111156112b057fe5b6030612a10565b915050610e16565b6112c883612a76565b9150506000805460ff19166001179055919050565b60115481565b6000806112ef84612ba9565b5090508015801561130257506001831515145b156111735760408051600180825281830190925260609160208083019080388339019050509050308160008151811061133757fe5b6001600160a01b039283166020918202929092018101919091526005546040805163effd86f560e01b8152336024820181905260048201928352865160448301528651939095169463effd86f59487949193928392606490910191868101910280838360005b838110156113b557818101518382015260200161139d565b505050509050019350505050600060405180830381600087803b1580156113db57600080fd5b505af11580156113ef573d6000803e3d6000fd5b505050506040513d6000823e601f3d908101601f19168201604052602081101561141857600080fd5b8101908080516040519392919084600160201b82111561143757600080fd5b90830190602082018581111561144c57600080fd5b82518660208202830111600160201b8211171561146857600080fd5b82525081516020918201928201910280838360005b8381101561149557818101518382015260200161147d565b5050505090500160405250505050509392505050565b60095481565b6012546001600160a01b031681565b6001600160a01b03166000908152600e602052604090205490565b6000805460ff16611520576040805162461bcd60e51b815260206004820152600a6024820152691c994b595b9d195c995960b21b604482015290519081900360640190fd5b6000805460ff1916815561153261192c565b1461157d576040805162461bcd60e51b81526020600482015260166024820152751858d8dc9d59481a5b9d195c995cdd0819985a5b195960521b604482015290519081900360640190fd5b50600b546000805460ff1916600117905590565b60035460009061010090046001600160a01b031633146115ee576040805162461bcd60e51b815260206004820152601360248201527221b0b63632b91034b9903737ba1020b236b4b760691b604482015290519081900360640190fd5b670de0b6b3a76400008211156116355760405162461bcd60e51b81526004018080602001828103825260238152602001806157386023913960400191505060405180910390fd5b6011805490839055604080518281526020810185905281517ff5815f353a60e815cce7553e4f60c533a59d26b1b5504ea4b6db8d60da3e4da2929181900390910190a16000611173565b6000610cf682612c2a565b600c5481565b6002805460408051602060018416156101000260001901909316849004601f81018490048402820184019092528181529291830182828015610c875780601f10610c5c57610100808354040283529160200191610c87565b60008060006116f684612cab565b9092509050600082600381111561170957fe5b146111735760405162461bcd60e51b815260040180806020018281038252603781526020018061587b6037913960400191505060405180910390fd5b60035461010090046001600160a01b031633146117935760405162461bcd60e51b815260040180806020018281038252602481526020018061575b6024913960400191505060405180910390fd5b6009541580156117a35750600a54155b6117de5760405162461bcd60e51b815260040180806020018281038252602381526020018061577f6023913960400191505060405180910390fd5b60078490558361181f5760405162461bcd60e51b81526004018080602001828103825260308152602001806157a26030913960400191505060405180910390fd5b600061182a87611025565b9050801561187f576040805162461bcd60e51b815260206004820152601a60248201527f73657474696e6720636f6d7074726f6c6c6572206661696c6564000000000000604482015290519081900360640190fd5b611887612d5f565b600955670de0b6b3a7640000600a5561189f86612d63565b905080156118de5760405162461bcd60e51b81526004018080602001828103825260228152602001806157d26022913960400191505060405180910390fd5b83516118f1906001906020870190615592565b508251611905906002906020860190615592565b50506003805460ff90921660ff199283161790556000805490911660011790555050505050565b600080611937612d5f565b6009549091508082141561195057600092505050610e8e565b600061195a6128fc565b600b54600c54600a54600654604080516315f2405360e01b815260048101879052602481018690526044810185905290519596509394929391926000926001600160a01b03909216916315f24053916064808301926020929190829003018186803b1580156119c857600080fd5b505afa1580156119dc573d6000803e3d6000fd5b505050506040513d60208110156119f257600080fd5b5051905065048c27395000811115611a51576040805162461bcd60e51b815260206004820152601c60248201527f626f72726f772072617465206973206162737572646c79206869676800000000604482015290519081900360640190fd5b600080611a5e8989612ed8565b90925090506000826003811115611a7157fe5b14611ac3576040805162461bcd60e51b815260206004820152601f60248201527f636f756c64206e6f742063616c63756c61746520626c6f636b2064656c746100604482015290519081900360640190fd5b611acb615610565b600080600080611ae960405180602001604052808a81525087612efe565b90975094506000876003811115611afc57fe5b14611b2e57611b1960096006896003811115611b1457fe5b612f66565b9e505050505050505050505050505050610e8e565b611b38858c612fcc565b90975093506000876003811115611b4b57fe5b14611b6357611b1960096001896003811115611b1457fe5b611b6d848c61301f565b90975092506000876003811115611b8057fe5b14611b9857611b1960096004896003811115611b1457fe5b611bb36040518060200160405280600854815250858c613045565b90975091506000876003811115611bc657fe5b14611bde57611b1960096005896003811115611b1457fe5b611be9858a8b613045565b90975090506000876003811115611bfc57fe5b14611c1457611b1960096003896003811115611b1457fe5b60098e9055600a819055600b839055600c829055604080518d8152602081018690528082018390526060810185905290517f4dec04e750ca11537cabcd8a9eab06494de08da3735bc8871cd41250e190bc049181900360800190a160009e50505050505050505050505050505090565b6000805460ff16611cc9576040805162461bcd60e51b815260206004820152600a6024820152691c994b595b9d195c995960b21b604482015290519081900360640190fd5b6000805460ff19168155611cdf33338686612526565b1490506000805460ff1916600117905592915050565b600a5481565b6006546000906001600160a01b031663b8168816611d176128fc565b600b54600c546008546040518563ffffffff1660e01b81526004018085815260200184815260200183815260200182815260200194505050505060206040518083038186803b158015611d6957600080fd5b505afa158015611d7d573d6000803e3d6000fd5b505050506040513d6020811015611d9357600080fd5b5051905090565b6000805460ff16611ddf576040805162461bcd60e51b815260206004820152600a6024820152691c994b595b9d195c995960b21b604482015290519081900360640190fd5b6000805460ff19169055611df5338585856130a1565b90506000805460ff191660011790559392505050565b60035460009061010090046001600160a01b03163314611e315761104b60016045612a10565b600480546001600160a01b038481166001600160a01b0319831681179093556040805191909216808252602082019390935281517fca4f2f25d0898edd99413412fb94012f9e54ec8142f9b093e7720646a95b16a9929181900390910190a16000611173565b60095460009043811415611eb557611ead610e2e565b915050610e8e565b601254604080516370a0823160e01b815230600482015290516000926001600160a01b0316916370a08231916024808301926020929190829003018186803b158015611f0057600080fd5b505afa158015611f14573d6000803e3d6000fd5b505050506040513d6020811015611f2a57600080fd5b5051600b54600c54600654604080516315f2405360e01b81526004810186905260248101859052604481018490529051949550929391926000926001600160a01b03909216916315f2405391606480820192602092909190829003018186803b158015611f9657600080fd5b505afa158015611faa573d6000803e3d6000fd5b505050506040513d6020811015611fc057600080fd5b5051905065048c2739500081111561200f576040805162461bcd60e51b815260206004820152600d60248201526c0a482a88abea89e9ebe90928e9609b1b604482015290519081900360640190fd5b600061202f43879003830285670de0b6b3a764000063ffffffff6128e116565b905060008361205383670de0b6b3a76400006008546128e19092919063ffffffff16565b600d54910191508286019080156120875761208288830184900382670de0b6b3a764000063ffffffff61347616565b61208b565b6007545b995050505050505050505090565b6001600160a01b0381166000908152600e60205260408120548190819081908180806120c489612cab565b9350905060008160038111156120d657fe5b146120f45760095b9750600096508695508594506121279350505050565b6120fc612477565b92509050600081600381111561210e57fe5b1461211a5760096120de565b5060009650919450925090505b9193509193565b6000610cf682613498565b6000610cf682613517565b6001600160a01b039182166000908152600f6020908152604080832093909416825291909152205490565b6004546000906001600160a01b03163314158061218a575033155b156121a25761219b60016000612a10565b9050610e8e565b60038054600480546001600160a01b03818116610100818102610100600160a81b0319871617968790556001600160a01b031990931690935560408051948390048216808652929095041660208401528351909391927ff9ffabca9c8276e99321725bcb43fb076a6c66a54b7f21c4e8146d8519b417dc92908290030190a1600454604080516001600160a01b038085168252909216602083015280517fca4f2f25d0898edd99413412fb94012f9e54ec8142f9b093e7720646a95b16a99281900390910190a160009250505090565b60008061227d61192c565b905080156122a35761229b81601081111561229457fe5b6040612a10565b915050610d0d565b61117383612d63565b6006546001600160a01b031681565b6000806122c9858585613591565b5095945050505050565b60035461010090046001600160a01b031681565b6006546000906001600160a01b03166315f240536123036128fc565b600b54600c546040518463ffffffff1660e01b815260040180848152602001838152602001828152602001935050505060206040518083038186803b158015611d6957600080fd5b6000805460ff16612390576040805162461bcd60e51b815260206004820152600a6024820152691c994b595b9d195c995960b21b604482015290519081900360640190fd5b6000805460ff191681556123a261192c565b905080156123c0576112b78160108111156123b957fe5b6046612a10565b6112c8836136c3565b600181565b60008054819060ff16612415576040805162461bcd60e51b815260206004820152600a6024820152691c994b595b9d195c995960b21b604482015290519081900360640190fd5b6000805460ff1916815561242761192c565b905080156124525761244581601081111561243e57fe5b6036612a10565b9250600091506124639050565b61245d33338661376b565b92509250505b6000805460ff191660011790559092909150565b600d5460009081908061249257505060075460009150612522565b600061249c6128fc565b905060006124a8615610565b60006124b984600b54600c54613b50565b9350905060008160038111156124cb57fe5b146124e0579550600094506125229350505050565b6124ea8386613b8e565b9250905060008160038111156124fc57fe5b14612511579550600094506125229350505050565b505160009550935061252292505050565b9091565b600554604080516317b9b84b60e31b81523060048201526001600160a01b03868116602483015285811660448301526064820185905291516000938493169163bdcdc25891608480830192602092919082900301818787803b15801561258b57600080fd5b505af115801561259f573d6000803e3d6000fd5b505050506040513d60208110156125b557600080fd5b5051905080156125d4576125cc6003604a83612f66565b91505061282e565b836001600160a01b0316856001600160a01b031614156125fa576125cc6002604b612a10565b60006001600160a01b0387811690871614156126195750600019612641565b506001600160a01b038086166000908152600f60209081526040808320938a16835292905220545b6000806000806126518589612ed8565b9094509250600084600381111561266457fe5b14612682576126756009604b612a10565b965050505050505061282e565b6001600160a01b038a166000908152600e60205260409020546126a59089612ed8565b909450915060008460038111156126b857fe5b146126c9576126756009604c612a10565b6001600160a01b0389166000908152600e60205260409020546126ec908961301f565b909450905060008460038111156126ff57fe5b14612710576126756009604d612a10565b6001600160a01b03808b166000908152600e6020526040808220859055918b168152208190556000198514612768576001600160a01b03808b166000908152600f60209081526040808320938f168352929052208390555b886001600160a01b03168a6001600160a01b03166000805160206158ec8339815191528a6040518082815260200191505060405180910390a36005546040805163352b4a3f60e11b81523060048201526001600160a01b038d811660248301528c81166044830152606482018c905291519190921691636a56947e91608480830192600092919082900301818387803b15801561280457600080fd5b505af1158015612818573d6000803e3d6000fd5b5060009250612825915050565b96505050505050505b949350505050565b60008054819060ff1661287d576040805162461bcd60e51b815260206004820152600a6024820152691c994b595b9d195c995960b21b604482015290519081900360640190fd5b6000805460ff1916815561288f61192c565b905080156128ba576128ad8160108111156128a657fe5b6035612a10565b9250600091506128cb9050565b6128c533868661376b565b92509250505b6000805460ff1916600117905590939092509050565b82820283158482048414176128f557600080fd5b0492915050565b601254604080516370a0823160e01b815230600482015290516000926001600160a01b03169182916370a0823191602480820192602092909190829003018186803b15801561294a57600080fd5b505afa15801561295e573d6000803e3d6000fd5b505050506040513d602081101561297457600080fd5b505191505090565b6000805460ff166129c1576040805162461bcd60e51b815260206004820152600a6024820152691c994b595b9d195c995960b21b604482015290519081900360640190fd5b6000805460ff191681556129d361192c565b905080156129f1576112b78160108111156129ea57fe5b604e612a10565b6129fa83613c3e565b509150506000805460ff19166001179055919050565b60007f45b96fe442630264581b197e84bbada861235052c5a1aadfff9ea4e40a969aa0836010811115612a3f57fe5b836050811115612a4b57fe5b604080519283526020830191909152600082820152519081900360600190a182601081111561117357fe5b600354600090819061010090046001600160a01b03163314612a9e5761229b60016031612a10565b612aa6612d5f565b60095414612aba5761229b600a6033612a10565b82612ac36128fc565b1015612ad55761229b600e6032612a10565b600c54831115612aeb5761229b60026034612a10565b50600c5482810390811115612b315760405162461bcd60e51b8152600401808060200182810382526024815260200180615a016024913960400191505060405180910390fd5b600c819055600354612b519061010090046001600160a01b031684613d26565b600354604080516101009092046001600160a01b0316825260208201859052818101839052517f3bad0c59cf2f06e7314077049f48a93578cd16f5ef92329f1dab1420a99c177e916060908290030190a16000611173565b60008054819060ff16612bf0576040805162461bcd60e51b815260206004820152600a6024820152691c994b595b9d195c995960b21b604482015290519081900360640190fd5b6000805460ff19168155612c0261192c565b90508015612c2057612445816010811115612c1957fe5b601e612a10565b61245d3385613e1d565b6000805460ff16612c6f576040805162461bcd60e51b815260206004820152600a6024820152691c994b595b9d195c995960b21b604482015290519081900360640190fd5b6000805460ff19168155612c8161192c565b90508015612c9f576112b7816010811115612c9857fe5b6027612a10565b6112c83360008561427c565b6001600160a01b038116600090815260106020526040812080548291829182918291612ce2575060009450849350612d5a92505050565b612cf28160000154600a54614743565b90945092506000846003811115612d0557fe5b14612d1a575091935060009250612d5a915050565b612d28838260010154614782565b90945091506000846003811115612d3b57fe5b14612d50575091935060009250612d5a915050565b5060009450925050505b915091565b4390565b600354600090819061010090046001600160a01b03163314612d8b5761229b60016042612a10565b612d93612d5f565b60095414612da75761229b600a6041612a10565b600660009054906101000a90046001600160a01b03169050826001600160a01b0316632191f92a6040518163ffffffff1660e01b815260040160206040518083038186803b158015612df857600080fd5b505afa158015612e0c573d6000803e3d6000fd5b505050506040513d6020811015612e2257600080fd5b5051612e75576040805162461bcd60e51b815260206004820152601c60248201527f6d61726b6572206d6574686f642072657475726e65642066616c736500000000604482015290519081900360640190fd5b600680546001600160a01b0319166001600160a01b03858116918217909255604080519284168352602083019190915280517fedffc32e068c7c95dfd4bdfd5c4d939a084d6b11c4199eac8436ed234d72f9269281900390910190a16000611173565b600080838311612eef575060009050818303612ef7565b506003905060005b9250929050565b6000612f08615610565b600080612f19866000015186614743565b90925090506000826003811115612f2c57fe5b14612f4b57506040805160208101909152600081529092509050612ef7565b60408051602081019091529081526000969095509350505050565b60007f45b96fe442630264581b197e84bbada861235052c5a1aadfff9ea4e40a969aa0846010811115612f9557fe5b846050811115612fa157fe5b604080519283526020830191909152818101859052519081900360600190a183601081111561282e57fe5b6000806000612fd9615610565b612fe38686612efe565b90925090506000826003811115612ff657fe5b146130075750915060009050612ef7565b6000613012826147ad565b9350935050509250929050565b60008083830184811061303757600092509050612ef7565b506002915060009050612ef7565b6000806000613052615610565b61305c8787612efe565b9092509050600082600381111561306f57fe5b146130805750915060009050613099565b61309261308c826147ad565b8661301f565b9350935050505b935093915050565b6005546040805163d02f735160e01b81523060048201526001600160a01b038781166024830152868116604483015285811660648301526084820185905291516000938493169163d02f73519160a480830192602092919082900301818787803b15801561310e57600080fd5b505af1158015613122573d6000803e3d6000fd5b505050506040513d602081101561313857600080fd5b50519050801561314f576125cc6003601b83612f66565b846001600160a01b0316846001600160a01b03161415613175576125cc6006601c612a10565b61317d615623565b6001600160a01b0385166000908152600e60205260409020546131a09085612ed8565b60208301819052828260038111156131b457fe5b60038111156131bf57fe5b90525060009050815160038111156131d357fe5b146131f8576131ef6009601a83600001516003811115611b1457fe5b9250505061282e565b6132128460405180602001604052806011548152506147bc565b608082018190526132249085906147e4565b6060820152613231612477565b60c083018190528282600381111561324557fe5b600381111561325057fe5b905250600090508151600381111561326457fe5b146132b6576040805162461bcd60e51b815260206004820152601860248201527f65786368616e67652072617465206d617468206572726f720000000000000000604482015290519081900360640190fd5b6132d660405180602001604052808360c00151815250826080015161481e565b60a08201819052600c546132e99161483d565b60e0820152600d54608082015161330091906147e4565b6101008201526001600160a01b0386166000908152600e6020526040902054606082015161332e919061301f565b604083018190528282600381111561334257fe5b600381111561334d57fe5b905250600090508151600381111561336157fe5b1461337d576131ef6009601983600001516003811115611b1457fe5b60e0810151600c55610100810151600d556020808201516001600160a01b038088166000818152600e855260408082209490945583860151928b168082529084902092909255606085015183519081529251919390926000805160206158ec833981519152929081900390910190a36080810151604080519182525130916001600160a01b038816916000805160206158ec8339815191529181900360200190a360a081015160e082015160408051308152602081019390935282810191909152517fa91e67c5ea634cd43a12c5a482724b03de01e85ca68702a53d0c2f45cb7c1dc59181900360600190a16000979650505050505050565b82810282151584158583048414171661348e57600080fd5b9190910492915050565b6000805460ff166134dd576040805162461bcd60e51b815260206004820152600a6024820152691c994b595b9d195c995960b21b604482015290519081900360640190fd5b6000805460ff191681556134ef61192c565b9050801561350d576112b781601081111561350657fe5b6008612a10565b6112c83384614873565b6000805460ff1661355c576040805162461bcd60e51b815260206004820152600a6024820152691c994b595b9d195c995960b21b604482015290519081900360640190fd5b6000805460ff1916815561356e61192c565b90508015613585576112b7816010811115612c9857fe5b6112c83384600061427c565b60008054819060ff166135d8576040805162461bcd60e51b815260206004820152600a6024820152691c994b595b9d195c995960b21b604482015290519081900360640190fd5b6000805460ff191681556135ea61192c565b905080156136155761360881601081111561360157fe5b600f612a10565b9250600091506136ac9050565b836001600160a01b031663a6afed956040518163ffffffff1660e01b8152600401602060405180830381600087803b15801561365057600080fd5b505af1158015613664573d6000803e3d6000fd5b505050506040513d602081101561367a57600080fd5b50519050801561369a5761360881601081111561369357fe5b6010612a10565b6136a633878787614b81565b92509250505b6000805460ff191660011790559094909350915050565b60035460009061010090046001600160a01b031633146136e95761104b60016047612a10565b6136f1612d5f565b600954146137055761104b600a6048612a10565b670de0b6b3a76400008211156137215761104b60026049612a10565b6008805490839055604080518281526020810185905281517faaa68312e2ea9d50e16af5068410ab56e1a1fd06037b1a35664812c30f821460929181900390910190a16000611173565b60055460408051631200453160e11b81523060048201526001600160a01b0386811660248301528581166044830152606482018590529151600093849384939116916324008a629160848082019260209290919082900301818787803b1580156137d457600080fd5b505af11580156137e8573d6000803e3d6000fd5b505050506040513d60208110156137fe57600080fd5b505190508015613822576138156003603883612f66565b9250600091506130999050565b61382a612d5f565b6009541461383e57613815600a6039612a10565b613846615670565b6001600160a01b038616600090815260106020526040902060010154606082015261387086612cab565b608083018190526020830182600381111561388757fe5b600381111561389257fe5b90525060009050816020015160038111156138a957fe5b146138d3576138c56009603783602001516003811115611b1457fe5b935060009250613099915050565b6000198514156138ec57608081015160408201526138f4565b604081018590525b613902878260400151615104565b60e08201819052608082015161391791612ed8565b60a083018190526020830182600381111561392e57fe5b600381111561393957fe5b905250600090508160200151600381111561395057fe5b1461398c5760405162461bcd60e51b815260040180806020018281038252603a8152602001806158b2603a913960400191505060405180910390fd5b61399c600b548260e00151612ed8565b60c08301819052602083018260038111156139b357fe5b60038111156139be57fe5b90525060009050816020015160038111156139d557fe5b14613a115760405162461bcd60e51b815260040180806020018281038252603181526020018061590c6031913960400191505060405180910390fd5b60a080820180516001600160a01b03808a16600081815260106020908152604091829020948555600a5460019095019490945560c0870151600b81905560e088015195518251948f16855294840192909252828101949094526060820192909252608081019190915290517f1a2a22cb034d26d1854bdc6666a5b91fe25efbbb5dcad3b0355478d6f5c362a1929181900390910190a160055460e0820151606083015160408051631ededc9160e01b81523060048201526001600160a01b038c811660248301528b8116604483015260648201949094526084810192909252519190921691631ededc919160a480830192600092919082900301818387803b158015613b1c57600080fd5b505af1158015613b30573d6000803e3d6000fd5b5060009250613b3d915050565b8160e00151935093505050935093915050565b600080600080613b60878761301f565b90925090506000826003811115613b7357fe5b14613b845750915060009050613099565b6130928186612ed8565b6000613b98615610565b600080613bad86670de0b6b3a7640000614743565b90925090506000826003811115613bc057fe5b14613bdf57506040805160208101909152600081529092509050612ef7565b600080613bec8388614782565b90925090506000826003811115613bff57fe5b14613c2157506040805160208101909152600081529094509250612ef7915050565b604080516020810190915290815260009890975095505050505050565b600080600080613c4c612d5f565b60095414613c6b57613c60600a604f612a10565b93509150612d5a9050565b613c753386615104565b905080600c54019150600c54821015613cd5576040805162461bcd60e51b815260206004820181905260248201527f61646420726573657276657320756e6578706563746564206f766572666c6f77604482015290519081900360640190fd5b600c829055604080513381526020810183905280820184905290517fa91e67c5ea634cd43a12c5a482724b03de01e85ca68702a53d0c2f45cb7c1dc59181900360600190a160009350915050915091565b6012546040805163a9059cbb60e01b81526001600160a01b0385811660048301526024820185905291519190921691829163a9059cbb9160448082019260009290919082900301818387803b158015613d7e57600080fd5b505af1158015613d92573d6000803e3d6000fd5b5050505060003d60008114613dae5760208114613db857600080fd5b6000199150613dc4565b60206000803e60005191505b5080613e17576040805162461bcd60e51b815260206004820152601960248201527f544f4b454e5f5452414e534645525f4f55545f4641494c454400000000000000604482015290519081900360640190fd5b50505050565b60055460408051634ef4c3e160e01b81523060048201526001600160a01b03858116602483015260448201859052915160009384938493911691634ef4c3e19160648082019260209290919082900301818787803b158015613e7e57600080fd5b505af1158015613e92573d6000803e3d6000fd5b505050506040513d6020811015613ea857600080fd5b505190508015613ecc57613ebf6003601f83612f66565b925060009150612ef79050565b613ed4612d5f565b60095414613ee857613ebf600a6022612a10565b613ef06156b6565b613ef8612477565b6040830181905260208301826003811115613f0f57fe5b6003811115613f1a57fe5b9052506000905081602001516003811115613f3157fe5b14613f5b57613f4d6009602183602001516003811115611b1457fe5b935060009250612ef7915050565b613f658686615104565b60c0820181905260408051602081018252908301518152613f86919061534e565b6060830181905260208301826003811115613f9d57fe5b6003811115613fa857fe5b9052506000905081602001516003811115613fbf57fe5b14614011576040805162461bcd60e51b815260206004820181905260248201527f4d494e545f45584348414e47455f43414c43554c4154494f4e5f4641494c4544604482015290519081900360640190fd5b614021600d54826060015161301f565b608083018190526020830182600381111561403857fe5b600381111561404357fe5b905250600090508160200151600381111561405a57fe5b146140965760405162461bcd60e51b81526004018080602001828103825260288152602001806159a56028913960400191505060405180910390fd5b6001600160a01b0386166000908152600e602052604090205460608201516140be919061301f565b60a08301819052602083018260038111156140d557fe5b60038111156140e057fe5b90525060009050816020015160038111156140f757fe5b146141335760405162461bcd60e51b815260040180806020018281038252602b815260200180615821602b913960400191505060405180910390fd5b6080810151600d5560a08101516001600160a01b0387166000818152600e60209081526040918290209390935560c084015160608086015183519485529484019190915282820193909352517f4c209b5fc8ad50758f13e2e1088ba56a560dff690a1c6fef26394f4c03821c4f929181900390910190a1606081015160408051918252516001600160a01b0388169130916000805160206158ec8339815191529181900360200190a360055460c08201516060830151604080516341c728b960e01b81523060048201526001600160a01b038b81166024830152604482019490945260648101929092525191909216916341c728b991608480830192600092919082900301818387803b15801561424957600080fd5b505af115801561425d573d6000803e3d6000fd5b506000925061426a915050565b8160c001519350935050509250929050565b6000821580614289575081155b6142c45760405162461bcd60e51b81526004018080602001828103825260348152602001806159cd6034913960400191505060405180910390fd5b6142cc6156b6565b6142d4612477565b60408301819052602083018260038111156142eb57fe5b60038111156142f657fe5b905250600090508160200151600381111561430d57fe5b14614331576143296009602b83602001516003811115611b1457fe5b915050611173565b83156143b25760608101849052604080516020810182529082015181526143589085612fcc565b608083018190526020830182600381111561436f57fe5b600381111561437a57fe5b905250600090508160200151600381111561439157fe5b146143ad576143296009602983602001516003811115611b1457fe5b61442b565b6143ce836040518060200160405280846040015181525061534e565b60608301819052602083018260038111156143e557fe5b60038111156143f057fe5b905250600090508160200151600381111561440757fe5b14614423576143296009602a83602001516003811115611b1457fe5b608081018390525b60055460608201516040805163eabe7d9160e01b81523060048201526001600160a01b03898116602483015260448201939093529051600093929092169163eabe7d919160648082019260209290919082900301818787803b15801561449057600080fd5b505af11580156144a4573d6000803e3d6000fd5b505050506040513d60208110156144ba57600080fd5b5051905080156144da576144d16003602883612f66565b92505050611173565b6144e2612d5f565b600954146144f6576144d1600a602c612a10565b614506600d548360600151612ed8565b60a084018190526020840182600381111561451d57fe5b600381111561452857fe5b905250600090508260200151600381111561453f57fe5b1461455b576144d16009602e84602001516003811115611b1457fe5b6001600160a01b0386166000908152600e602052604090205460608301516145839190612ed8565b60c084018190526020840182600381111561459a57fe5b60038111156145a557fe5b90525060009050826020015160038111156145bc57fe5b146145d8576144d16009602d84602001516003811115611b1457fe5b81608001516145e56128fc565b10156145f7576144d1600e602f612a10565b614605868360800151613d26565b60a0820151600d5560c08201516001600160a01b0387166000818152600e60209081526040918290209390935560608501518151908152905130936000805160206158ec833981519152928290030190a36080820151606080840151604080516001600160a01b038b168152602081019490945283810191909152517fe5b754fb1abb7f01b499791d0b820ae3b6af3424ac1c59768edb53f4ec31a9299281900390910190a160055460808301516060840151604080516351dff98960e01b81523060048201526001600160a01b038b81166024830152604482019490945260648101929092525191909216916351dff98991608480830192600092919082900301818387803b15801561471857600080fd5b505af115801561472c573d6000803e3d6000fd5b5060009250614739915050565b9695505050505050565b6000808361475657506000905080612ef7565b8383028385828161476357fe5b041461477757506002915060009050612ef7565b600092509050612ef7565b600080826147965750600190506000612ef7565b60008385816147a157fe5b04915091509250929050565b51670de0b6b3a7640000900490565b6000670de0b6b3a76400006147d5848460000151615365565b816147dc57fe5b049392505050565b60006111738383604051806040016040528060158152602001747375627472616374696f6e20756e646572666c6f7760581b8152506153a7565b6000614828615610565b614832848461543e565b905061282e816147ad565b60006111738383604051806040016040528060118152602001706164646974696f6e206f766572666c6f7760781b815250615468565b6005546040805163368f515360e21b81523060048201526001600160a01b0385811660248301526044820185905291516000938493169163da3d454c91606480830192602092919082900301818787803b1580156148d057600080fd5b505af11580156148e4573d6000803e3d6000fd5b505050506040513d60208110156148fa57600080fd5b505190508015614919576149116003600e83612f66565b915050610cf6565b614921612d5f565b6009541461493457614911600a80612a10565b8261493d6128fc565b101561494f57614911600e6009612a10565b6149576156f4565b61496085612cab565b602083018190528282600381111561497457fe5b600381111561497f57fe5b905250600090508151600381111561499357fe5b146149b8576149af6009600783600001516003811115611b1457fe5b92505050610cf6565b6149c681602001518561301f565b60408301819052828260038111156149da57fe5b60038111156149e557fe5b90525060009050815160038111156149f957fe5b14614a15576149af6009600c83600001516003811115611b1457fe5b614a21600b548561301f565b6060830181905282826003811115614a3557fe5b6003811115614a4057fe5b9052506000905081516003811115614a5457fe5b14614a70576149af6009600b83600001516003811115611b1457fe5b614a7a8585613d26565b604080820180516001600160a01b03881660008181526010602090815290859020928355600a54600190930192909255606080860151600b81905593518551928352928201899052818501929092529081019190915290517f13ed6866d4e1ee6da46f845c46d7e54120883d75c5ea9a2dacc1c4ca8984ab809181900360800190a160055460408051635c77860560e01b81523060048201526001600160a01b0388811660248301526044820188905291519190921691635c77860591606480830192600092919082900301818387803b158015614b5757600080fd5b505af1158015614b6b573d6000803e3d6000fd5b5060009250614b78915050565b95945050505050565b60055460408051632fe3f38f60e11b81523060048201526001600160a01b0384811660248301528781166044830152868116606483015260848201869052915160009384938493911691635fc7e71e9160a48082019260209290919082900301818787803b158015614bf257600080fd5b505af1158015614c06573d6000803e3d6000fd5b505050506040513d6020811015614c1c57600080fd5b505190508015614c4057614c336003601283612f66565b9250600091506150fb9050565b614c48612d5f565b60095414614c5c57614c33600a6016612a10565b614c64612d5f565b846001600160a01b0316636c540baf6040518163ffffffff1660e01b815260040160206040518083038186803b158015614c9d57600080fd5b505afa158015614cb1573d6000803e3d6000fd5b505050506040513d6020811015614cc757600080fd5b505114614cda57614c33600a6011612a10565b866001600160a01b0316866001600160a01b03161415614d0057614c3360066017612a10565b84614d1157614c3360076015612a10565b600019851415614d2757614c3360076014612a10565b600080614d3589898961376b565b90925090508115614d6557614d56826010811115614d4f57fe5b6018612a10565b9450600093506150fb92505050565b6005546040805163c488847b60e01b81523060048201526001600160a01b038981166024830152604482018590528251600094859492169263c488847b926064808301939192829003018186803b158015614dbf57600080fd5b505afa158015614dd3573d6000803e3d6000fd5b505050506040513d6040811015614de957600080fd5b50805160209091015190925090508115614e345760405162461bcd60e51b815260040180806020018281038252603381526020018061593d6033913960400191505060405180910390fd5b80886001600160a01b03166370a082318c6040518263ffffffff1660e01b815260040180826001600160a01b03166001600160a01b0316815260200191505060206040518083038186803b158015614e8b57600080fd5b505afa158015614e9f573d6000803e3d6000fd5b505050506040513d6020811015614eb557600080fd5b50511015614f0a576040805162461bcd60e51b815260206004820152601860248201527f4c49515549444154455f5345495a455f544f4f5f4d5543480000000000000000604482015290519081900360640190fd5b60006001600160a01b038916301415614f3057614f29308d8d856130a1565b9050614fba565b6040805163b2a02ff160e01b81526001600160a01b038e811660048301528d81166024830152604482018590529151918b169163b2a02ff1916064808201926020929091908290030181600087803b158015614f8b57600080fd5b505af1158015614f9f573d6000803e3d6000fd5b505050506040513d6020811015614fb557600080fd5b505190505b8015615004576040805162461bcd60e51b81526020600482015260146024820152731d1bdad95b881cd95a5e9d5c994819985a5b195960621b604482015290519081900360640190fd5b604080516001600160a01b03808f168252808e1660208301528183018790528b1660608201526080810184905290517f298637f684da70674f26509b10f07ec2fbc77a335ab1e7d6215a4b2484d8bb529181900360a00190a1600554604080516347ef3b3b60e01b81523060048201526001600160a01b038c811660248301528f811660448301528e811660648301526084820188905260a48201869052915191909216916347ef3b3b9160c480830192600092919082900301818387803b1580156150cf57600080fd5b505af11580156150e3573d6000803e3d6000fd5b50600092506150f0915050565b975092955050505050505b94509492505050565b601254604080516370a0823160e01b815230600482015290516000926001600160a01b031691839183916370a08231916024808301926020929190829003018186803b15801561515357600080fd5b505afa158015615167573d6000803e3d6000fd5b505050506040513d602081101561517d57600080fd5b5051604080516323b872dd60e01b81526001600160a01b038881166004830152306024830152604482018890529151929350908416916323b872dd9160648082019260009290919082900301818387803b1580156151da57600080fd5b505af11580156151ee573d6000803e3d6000fd5b5050505060003d6000811461520a576020811461521457600080fd5b6000199150615220565b60206000803e60005191505b5080615273576040805162461bcd60e51b815260206004820152601860248201527f544f4b454e5f5452414e534645525f494e5f4641494c45440000000000000000604482015290519081900360640190fd5b601254604080516370a0823160e01b815230600482015290516000926001600160a01b0316916370a08231916024808301926020929190829003018186803b1580156152be57600080fd5b505afa1580156152d2573d6000803e3d6000fd5b505050506040513d60208110156152e857600080fd5b5051905082811015615341576040805162461bcd60e51b815260206004820152601a60248201527f544f4b454e5f5452414e534645525f494e5f4f564552464c4f57000000000000604482015290519081900360640190fd5b9190910395945050505050565b600080600061535b615610565b612fe386866154bd565b600061117383836040518060400160405280601781526020017f6d756c7469706c69636174696f6e206f766572666c6f7700000000000000000081525061551c565b600081848411156154365760405162461bcd60e51b81526004018080602001828103825283818151815260200191508051906020019080838360005b838110156153fb5781810151838201526020016153e3565b50505050905090810190601f1680156154285780820380516001836020036101000a031916815260200191505b509250505060405180910390fd5b505050900390565b615446615610565b604051806020016040528061545f856000015185615365565b90529392505050565b60008383018285821015610faf5760405162461bcd60e51b81526020600482018181528351602484015283519092839260449091019190850190808383600083156153fb5781810151838201526020016153e3565b60006154c7615610565b6000806154dc670de0b6b3a764000087614743565b909250905060008260038111156154ef57fe5b1461550e57506040805160208101909152600081529092509050612ef7565b613012818660000151613b8e565b6000831580615529575082155b1561553657506000611173565b8383028385828161554357fe5b04148390610faf5760405162461bcd60e51b81526020600482018181528351602484015283519092839260449091019190850190808383600083156153fb5781810151838201526020016153e3565b828054600181600116156101000203166002900490600052602060002090601f016020900481019282601f106155d357805160ff1916838001178555615600565b82800160010185558215615600579182015b828111156156005782518255916020019190600101906155e5565b5061560c92915061571d565b5090565b6040518060200160405280600081525090565b604080516101208101909152806000815260200160008152602001600081526020016000815260200160008152602001600081526020016000815260200160008152602001600081525090565b6040805161010081019091528060008152602001600081526020016000815260200160008152602001600081526020016000815260200160008152602001600081525090565b6040805160e0810190915280600081526020016000815260200160008152602001600081526020016000815260200160008152602001600081525090565b604080516080810190915280600081526020016000815260200160008152602001600081525090565b610e8e91905b8082111561560c576000815560010161572356fe50726f746f636f6c207365697a65207368617265206d757374206265203c20313030256f6e6c792061646d696e206d617920696e697469616c697a6520746865206d61726b65746d61726b6574206d6179206f6e6c7920626520696e697469616c697a6564206f6e6365696e697469616c2065786368616e67652072617465206d7573742062652067726561746572207468616e207a65726f2e73657474696e6720696e7465726573742072617465206d6f64656c206661696c65646f6e6c79207468652061646d696e206d61792063616c6c205f72657369676e496d706c656d656e746174696f6e4d494e545f4e45575f4143434f554e545f42414c414e43455f43414c43554c4154494f4e5f4641494c45446f6e6c79207468652061646d696e206d61792063616c6c205f736574496e697469616c45786368616e676552617465626f72726f7742616c616e636553746f7265643a20626f72726f7742616c616e636553746f726564496e7465726e616c206661696c656452455041595f424f52524f575f4e45575f4143434f554e545f424f52524f575f42414c414e43455f43414c43554c4154494f4e5f4641494c4544ddf252ad1be2c89b69c2b068fc378daa952ba7f163c4a11628f55a4df523b3ef52455041595f424f52524f575f4e45575f544f54414c5f42414c414e43455f43414c43554c4154494f4e5f4641494c45444c49515549444154455f434f4d5054524f4c4c45525f43414c43554c4154455f414d4f554e545f5345495a455f4641494c454465786368616e67655261746553746f7265643a2065786368616e67655261746553746f726564496e7465726e616c206661696c65644d494e545f4e45575f544f54414c5f535550504c595f43414c43554c4154494f4e5f4641494c45446f6e65206f662072656465656d546f6b656e73496e206f722072656465656d416d6f756e74496e206d757374206265207a65726f72656475636520726573657276657320756e657870656374656420756e646572666c6f776f6e6c79207468652061646d696e206d61792063616c6c205f6265636f6d65496d706c656d656e746174696f6ea265627a7a7231582087c4859fe104d94005e153422e25b69018d63a0ce9fdecaa8e2acaffc6141dd864736f6c63430005100032","linkReferences":{}},"methodIdentifiers":{"_acceptAdmin()":"e9c714f2","_addReserves(uint256)":"3e941010","_becomeImplementation(bytes)":"56e67728","_reduceReserves(uint256)":"601a0bf1","_resignImplementation()":"153ab505","_setComptroller(address)":"4576b5db","_setInitialExchangeRate(uint256)":"4b3ac1c2","_setInterestRateModel(address)":"f2b3abbd","_setPendingAdmin(address)":"b71d1a0c","_setProtocolSeizeShare(uint256)":"83030846","_setReserveFactor(uint256)":"fca7820b","accrualBlockNumber()":"6c540baf","accrueInterest()":"a6afed95","admin()":"f851a440","allowance(address,address)":"dd62ed3e","approve(address,uint256)":"095ea7b3","balanceOf(address)":"70a08231","balanceOfUnderlying(address)":"3af9e669","borrow(uint256)":"c5ebeaec","borrowBalanceCurrent(address)":"17bfdfbc","borrowBalanceStored(address)":"95dd9193","borrowIndex()":"aa5af0fd","borrowRatePerBlock()":"f8f9da28","comptroller()":"5fe3b567","decimals()":"313ce567","exchangeRateCurrent()":"bd6d894d","exchangeRateStored()":"182df0f5","getAccountSnapshot(address)":"c37f68e2","getCash()":"3b1d21a2","implementation()":"5c60da1b","initialize(address,address,address,uint256,string,string,uint8)":"1a31d465","initialize(address,address,uint256,string,string,uint8)":"99d8c1b4","interestRateModel()":"f3fdb15a","isCToken()":"fe9c44ae","liquidateBorrow(address,uint256,address)":"f5e3c462","mint(uint256,bool)":"67f68fac","name()":"06fdde03","pendingAdmin()":"26782247","protocolSeizeShareMantissa()":"6752e702","redeem(uint256)":"db006a75","redeemUnderlying(uint256)":"852a12e3","repayBorrow(uint256)":"0e752702","repayBorrowBehalf(address,uint256)":"2608f818","reserveFactorMantissa()":"173b9904","seize(address,address,uint256)":"b2a02ff1","supplyRatePerBlock()":"ae9d70b0","symbol()":"95d89b41","totalBorrows()":"47bd3718","totalBorrowsCurrent()":"73acee98","totalReserves()":"8f840ddd","totalSupply()":"18160ddd","transfer(address,uint256)":"a9059cbb","transferFrom(address,address,uint256)":"23b872dd","underlying()":"6f307dc3"},"storageLayout":{"storage":[{"astId":2091,"contract":"src/CToken/CErc20Delegate.sol:CErc20Delegate","label":"_notEntered","offset":0,"slot":"0","type":"t_bool"},{"astId":2093,"contract":"src/CToken/CErc20Delegate.sol:CErc20Delegate","label":"name","offset":0,"slot":"1","type":"t_string_storage"},{"astId":2095,"contract":"src/CToken/CErc20Delegate.sol:CErc20Delegate","label":"symbol","offset":0,"slot":"2","type":"t_string_storage"},{"astId":2097,"contract":"src/CToken/CErc20Delegate.sol:CErc20Delegate","label":"decimals","offset":0,"slot":"3","type":"t_uint8"},{"astId":2105,"contract":"src/CToken/CErc20Delegate.sol:CErc20Delegate","label":"admin","offset":1,"slot":"3","type":"t_address_payable"},{"astId":2107,"contract":"src/CToken/CErc20Delegate.sol:CErc20Delegate","label":"pendingAdmin","offset":0,"slot":"4","type":"t_address_payable"},{"astId":2109,"contract":"src/CToken/CErc20Delegate.sol:CErc20Delegate","label":"comptroller","offset":0,"slot":"5","type":"t_contract(ComptrollerInterface)2759"},{"astId":2111,"contract":"src/CToken/CErc20Delegate.sol:CErc20Delegate","label":"interestRateModel","offset":0,"slot":"6","type":"t_contract(InterestRateModel)2089"},{"astId":2113,"contract":"src/CToken/CErc20Delegate.sol:CErc20Delegate","label":"initialExchangeRateMantissa","offset":0,"slot":"7","type":"t_uint256"},{"astId":2115,"contract":"src/CToken/CErc20Delegate.sol:CErc20Delegate","label":"reserveFactorMantissa","offset":0,"slot":"8","type":"t_uint256"},{"astId":2117,"contract":"src/CToken/CErc20Delegate.sol:CErc20Delegate","label":"accrualBlockNumber","offset":0,"slot":"9","type":"t_uint256"},{"astId":2119,"contract":"src/CToken/CErc20Delegate.sol:CErc20Delegate","label":"borrowIndex","offset":0,"slot":"10","type":"t_uint256"},{"astId":2121,"contract":"src/CToken/CErc20Delegate.sol:CErc20Delegate","label":"totalBorrows","offset":0,"slot":"11","type":"t_uint256"},{"astId":2123,"contract":"src/CToken/CErc20Delegate.sol:CErc20Delegate","label":"totalReserves","offset":0,"slot":"12","type":"t_uint256"},{"astId":2125,"contract":"src/CToken/CErc20Delegate.sol:CErc20Delegate","label":"totalSupply","offset":0,"slot":"13","type":"t_uint256"},{"astId":2129,"contract":"src/CToken/CErc20Delegate.sol:CErc20Delegate","label":"accountTokens","offset":0,"slot":"14","type":"t_mapping(t_address,t_uint256)"},{"astId":2135,"contract":"src/CToken/CErc20Delegate.sol:CErc20Delegate","label":"transferAllowances","offset":0,"slot":"15","type":"t_mapping(t_address,t_mapping(t_address,t_uint256))"},{"astId":2144,"contract":"src/CToken/CErc20Delegate.sol:CErc20Delegate","label":"accountBorrows","offset":0,"slot":"16","type":"t_mapping(t_address,t_struct(BorrowSnapshot)2140_storage)"},{"astId":2147,"contract":"src/CToken/CErc20Delegate.sol:CErc20Delegate","label":"protocolSeizeShareMantissa","offset":0,"slot":"17","type":"t_uint256"},{"astId":2452,"contract":"src/CToken/CErc20Delegate.sol:CErc20Delegate","label":"underlying","offset":0,"slot":"18","type":"t_address"},{"astId":2522,"contract":"src/CToken/CErc20Delegate.sol:CErc20Delegate","label":"implementation","offset":0,"slot":"19","type":"t_address"}],"types":{"t_address":{"encoding":"inplace","label":"address","numberOfBytes":"20"},"t_address_payable":{"encoding":"inplace","label":"address payable","numberOfBytes":"20"},"t_bool":{"encoding":"inplace","label":"bool","numberOfBytes":"1"},"t_contract(ComptrollerInterface)2759":{"encoding":"inplace","label":"contract ComptrollerInterface","numberOfBytes":"20"},"t_contract(InterestRateModel)2089":{"encoding":"inplace","label":"contract InterestRateModel","numberOfBytes":"20"},"t_mapping(t_address,t_mapping(t_address,t_uint256))":{"encoding":"mapping","key":"t_address","label":"mapping(address => mapping(address => uint256))","numberOfBytes":"32","value":"t_mapping(t_address,t_uint256)"},"t_mapping(t_address,t_struct(BorrowSnapshot)2140_storage)":{"encoding":"mapping","key":"t_address","label":"mapping(address => struct CTokenStorage.BorrowSnapshot)","numberOfBytes":"32","value":"t_struct(BorrowSnapshot)2140_storage"},"t_mapping(t_address,t_uint256)":{"encoding":"mapping","key":"t_address","label":"mapping(address => uint256)","numberOfBytes":"32","value":"t_uint256"},"t_string_storage":{"encoding":"bytes","label":"string","numberOfBytes":"32"},"t_struct(BorrowSnapshot)2140_storage":{"encoding":"inplace","label":"struct CTokenStorage.BorrowSnapshot","numberOfBytes":"64","members":[{"astId":2137,"contract":"src/CToken/CErc20Delegate.sol:CErc20Delegate","label":"principal","offset":0,"slot":"0","type":"t_uint256"},{"astId":2139,"contract":"src/CToken/CErc20Delegate.sol:CErc20Delegate","label":"interestIndex","offset":0,"slot":"1","type":"t_uint256"}]},"t_uint256":{"encoding":"inplace","label":"uint256","numberOfBytes":"32"},"t_uint8":{"encoding":"inplace","label":"uint8","numberOfBytes":"1"}}},"id":1}