{"abi":[{"type":"receive","stateMutability":"payable"},{"type":"function","name":"addRelays","inputs":[{"name":"relays","type":"address[]","internalType":"address[]"}],"outputs":[],"stateMutability":"nonpayable"},{"type":"function","name":"adminMultiSig","inputs":[],"outputs":[{"name":"","type":"address","internalType":"address"}],"stateMutability":"view"},{"type":"function","name":"arbitrumGasOracle","inputs":[],"outputs":[{"name":"","type":"address","internalType":"address"}],"stateMutability":"view"},{"type":"function","name":"communityVault","inputs":[],"outputs":[{"name":"","type":"address","internalType":"address"}],"stateMutability":"view"},{"type":"function","name":"configure","inputs":[{"name":"config","type":"tuple","internalType":"struct DexibleStorage.DexibleConfig","components":[{"name":"revshareSplitRatio","type":"uint8","internalType":"uint8"},{"name":"stdBpsRate","type":"uint16","internalType":"uint16"},{"name":"minBpsRate","type":"uint16","internalType":"uint16"},{"name":"adminMultiSig","type":"address","internalType":"address"},{"name":"communityVault","type":"address","internalType":"address"},{"name":"treasury","type":"address","internalType":"address"},{"name":"dxblToken","type":"address","internalType":"address"},{"name":"arbGasOracle","type":"address","internalType":"address"},{"name":"stdGasAdjustment","type":"address","internalType":"address"},{"name":"minFeeUSD","type":"uint112","internalType":"uint112"},{"name":"initialRelays","type":"address[]","internalType":"address[]"}]}],"outputs":[],"stateMutability":"nonpayable"},{"type":"function","name":"dxblToken","inputs":[],"outputs":[{"name":"","type":"address","internalType":"address"}],"stateMutability":"view"},{"type":"function","name":"fill","inputs":[{"name":"request","type":"tuple","internalType":"struct SwapTypes.SwapRequest","components":[{"name":"executionRequest","type":"tuple","internalType":"struct ExecutionTypes.ExecutionRequest","components":[{"name":"requester","type":"address","internalType":"address"},{"name":"fee","type":"tuple","internalType":"struct ExecutionTypes.FeeDetails","components":[{"name":"feeToken","type":"address","internalType":"contract IERC20"},{"name":"affiliate","type":"address","internalType":"address"},{"name":"affiliatePortion","type":"uint256","internalType":"uint256"}]}]},{"name":"tokenIn","type":"tuple","internalType":"struct TokenTypes.TokenAmount","components":[{"name":"amount","type":"uint112","internalType":"uint112"},{"name":"token","type":"address","internalType":"contract IERC20"}]},{"name":"tokenOut","type":"tuple","internalType":"struct TokenTypes.TokenAmount","components":[{"name":"amount","type":"uint112","internalType":"uint112"},{"name":"token","type":"address","internalType":"contract IERC20"}]},{"name":"routes","type":"tuple[]","internalType":"struct SwapTypes.RouterRequest[]","components":[{"name":"router","type":"address","internalType":"address"},{"name":"spender","type":"address","internalType":"address"},{"name":"routeAmount","type":"tuple","internalType":"struct TokenTypes.TokenAmount","components":[{"name":"amount","type":"uint112","internalType":"uint112"},{"name":"token","type":"address","internalType":"contract IERC20"}]},{"name":"routerData","type":"bytes","internalType":"bytes"}]}]},{"name":"meta","type":"tuple","internalType":"struct SwapHandler.SwapMeta","components":[{"name":"feeIsInput","type":"bool","internalType":"bool"},{"name":"isSelfSwap","type":"bool","internalType":"bool"},{"name":"preSwapVault","type":"address","internalType":"address"},{"name":"startGas","type":"uint256","internalType":"uint256"},{"name":"toProtocol","type":"uint256","internalType":"uint256"},{"name":"toRevshare","type":"uint256","internalType":"uint256"},{"name":"outToTrader","type":"uint256","internalType":"uint256"},{"name":"outAmount","type":"uint256","internalType":"uint256"},{"name":"bpsAmount","type":"uint256","internalType":"uint256"},{"name":"gasAmount","type":"uint256","internalType":"uint256"},{"name":"nativeGasAmount","type":"uint256","internalType":"uint256"},{"name":"preDXBLBalance","type":"uint256","internalType":"uint256"},{"name":"inputAmountDue","type":"uint256","internalType":"uint256"}]}],"outputs":[{"name":"","type":"tuple","internalType":"struct SwapHandler.SwapMeta","components":[{"name":"feeIsInput","type":"bool","internalType":"bool"},{"name":"isSelfSwap","type":"bool","internalType":"bool"},{"name":"preSwapVault","type":"address","internalType":"address"},{"name":"startGas","type":"uint256","internalType":"uint256"},{"name":"toProtocol","type":"uint256","internalType":"uint256"},{"name":"toRevshare","type":"uint256","internalType":"uint256"},{"name":"outToTrader","type":"uint256","internalType":"uint256"},{"name":"outAmount","type":"uint256","internalType":"uint256"},{"name":"bpsAmount","type":"uint256","internalType":"uint256"},{"name":"gasAmount","type":"uint256","internalType":"uint256"},{"name":"nativeGasAmount","type":"uint256","internalType":"uint256"},{"name":"preDXBLBalance","type":"uint256","internalType":"uint256"},{"name":"inputAmountDue","type":"uint256","internalType":"uint256"}]}],"stateMutability":"nonpayable"},{"type":"function","name":"initialize","inputs":[{"name":"config","type":"tuple","internalType":"struct DexibleStorage.DexibleConfig","components":[{"name":"revshareSplitRatio","type":"uint8","internalType":"uint8"},{"name":"stdBpsRate","type":"uint16","internalType":"uint16"},{"name":"minBpsRate","type":"uint16","internalType":"uint16"},{"name":"adminMultiSig","type":"address","internalType":"address"},{"name":"communityVault","type":"address","internalType":"address"},{"name":"treasury","type":"address","internalType":"address"},{"name":"dxblToken","type":"address","internalType":"address"},{"name":"arbGasOracle","type":"address","internalType":"address"},{"name":"stdGasAdjustment","type":"address","internalType":"address"},{"name":"minFeeUSD","type":"uint112","internalType":"uint112"},{"name":"initialRelays","type":"address[]","internalType":"address[]"}]}],"outputs":[],"stateMutability":"nonpayable"},{"type":"function","name":"minBpsRate","inputs":[],"outputs":[{"name":"","type":"uint16","internalType":"uint16"}],"stateMutability":"view"},{"type":"function","name":"minFeeUSD","inputs":[],"outputs":[{"name":"","type":"uint112","internalType":"uint112"}],"stateMutability":"view"},{"type":"function","name":"pause","inputs":[],"outputs":[],"stateMutability":"nonpayable"},{"type":"function","name":"removeRelay","inputs":[{"name":"relay","type":"address","internalType":"address"}],"outputs":[],"stateMutability":"nonpayable"},{"type":"function","name":"resume","inputs":[],"outputs":[],"stateMutability":"nonpayable"},{"type":"function","name":"revshareSplitRatio","inputs":[],"outputs":[{"name":"","type":"uint8","internalType":"uint8"}],"stateMutability":"view"},{"type":"function","name":"selfSwap","inputs":[{"name":"request","type":"tuple","internalType":"struct SwapTypes.SelfSwap","components":[{"name":"feeToken","type":"address","internalType":"contract IERC20"},{"name":"tokenIn","type":"tuple","internalType":"struct TokenTypes.TokenAmount","components":[{"name":"amount","type":"uint112","internalType":"uint112"},{"name":"token","type":"address","internalType":"contract IERC20"}]},{"name":"tokenOut","type":"tuple","internalType":"struct TokenTypes.TokenAmount","components":[{"name":"amount","type":"uint112","internalType":"uint112"},{"name":"token","type":"address","internalType":"contract IERC20"}]},{"name":"routes","type":"tuple[]","internalType":"struct SwapTypes.RouterRequest[]","components":[{"name":"router","type":"address","internalType":"address"},{"name":"spender","type":"address","internalType":"address"},{"name":"routeAmount","type":"tuple","internalType":"struct TokenTypes.TokenAmount","components":[{"name":"amount","type":"uint112","internalType":"uint112"},{"name":"token","type":"address","internalType":"contract IERC20"}]},{"name":"routerData","type":"bytes","internalType":"bytes"}]}]}],"outputs":[],"stateMutability":"nonpayable"},{"type":"function","name":"setArbitrumGasOracle","inputs":[{"name":"oracle","type":"address","internalType":"contract IArbitrumGasOracle"}],"outputs":[],"stateMutability":"nonpayable"},{"type":"function","name":"setCommunityVault","inputs":[{"name":"vault","type":"address","internalType":"contract ICommunityVault"}],"outputs":[],"stateMutability":"nonpayable"},{"type":"function","name":"setMinBpsRate","inputs":[{"name":"bps","type":"uint16","internalType":"uint16"}],"outputs":[],"stateMutability":"nonpayable"},{"type":"function","name":"setMinFeeUSD","inputs":[{"name":"minFee","type":"uint112","internalType":"uint112"}],"outputs":[],"stateMutability":"nonpayable"},{"type":"function","name":"setRevshareSplitRatio","inputs":[{"name":"bps","type":"uint8","internalType":"uint8"}],"outputs":[],"stateMutability":"nonpayable"},{"type":"function","name":"setStdBpsRate","inputs":[{"name":"bps","type":"uint16","internalType":"uint16"}],"outputs":[],"stateMutability":"nonpayable"},{"type":"function","name":"setStdGasAdjustmentContract","inputs":[{"name":"con","type":"address","internalType":"address"}],"outputs":[],"stateMutability":"nonpayable"},{"type":"function","name":"setTreasury","inputs":[{"name":"t","type":"address","internalType":"address"}],"outputs":[],"stateMutability":"nonpayable"},{"type":"function","name":"stdBpsRate","inputs":[],"outputs":[{"name":"","type":"uint16","internalType":"uint16"}],"stateMutability":"view"},{"type":"function","name":"stdGasAdjustmentContract","inputs":[],"outputs":[{"name":"","type":"address","internalType":"address"}],"stateMutability":"view"},{"type":"function","name":"swap","inputs":[{"name":"request","type":"tuple","internalType":"struct SwapTypes.SwapRequest","components":[{"name":"executionRequest","type":"tuple","internalType":"struct ExecutionTypes.ExecutionRequest","components":[{"name":"requester","type":"address","internalType":"address"},{"name":"fee","type":"tuple","internalType":"struct ExecutionTypes.FeeDetails","components":[{"name":"feeToken","type":"address","internalType":"contract IERC20"},{"name":"affiliate","type":"address","internalType":"address"},{"name":"affiliatePortion","type":"uint256","internalType":"uint256"}]}]},{"name":"tokenIn","type":"tuple","internalType":"struct TokenTypes.TokenAmount","components":[{"name":"amount","type":"uint112","internalType":"uint112"},{"name":"token","type":"address","internalType":"contract IERC20"}]},{"name":"tokenOut","type":"tuple","internalType":"struct TokenTypes.TokenAmount","components":[{"name":"amount","type":"uint112","internalType":"uint112"},{"name":"token","type":"address","internalType":"contract IERC20"}]},{"name":"routes","type":"tuple[]","internalType":"struct SwapTypes.RouterRequest[]","components":[{"name":"router","type":"address","internalType":"address"},{"name":"spender","type":"address","internalType":"address"},{"name":"routeAmount","type":"tuple","internalType":"struct TokenTypes.TokenAmount","components":[{"name":"amount","type":"uint112","internalType":"uint112"},{"name":"token","type":"address","internalType":"contract IERC20"}]},{"name":"routerData","type":"bytes","internalType":"bytes"}]}]}],"outputs":[],"stateMutability":"nonpayable"},{"type":"function","name":"treasury","inputs":[],"outputs":[{"name":"","type":"address","internalType":"address"}],"stateMutability":"view"},{"type":"function","name":"withdraw","inputs":[{"name":"amount","type":"uint256","internalType":"uint256"}],"outputs":[],"stateMutability":"nonpayable"},{"type":"event","name":"AffiliatePaid","inputs":[{"name":"affiliate","type":"address","indexed":true,"internalType":"address"},{"name":"token","type":"address","indexed":false,"internalType":"address"},{"name":"amount","type":"uint256","indexed":false,"internalType":"uint256"}],"anonymous":false},{"type":"event","name":"ArbGasOracleChanged","inputs":[{"name":"newVault","type":"address","indexed":false,"internalType":"address"}],"anonymous":false},{"type":"event","name":"ChangedBpsRates","inputs":[{"name":"stdRate","type":"uint32","indexed":false,"internalType":"uint32"},{"name":"minRate","type":"uint32","indexed":false,"internalType":"uint32"}],"anonymous":false},{"type":"event","name":"ChangedRevshareSplit","inputs":[{"name":"split","type":"uint8","indexed":false,"internalType":"uint8"}],"anonymous":false},{"type":"event","name":"ChangedRevshareVault","inputs":[{"name":"old","type":"address","indexed":true,"internalType":"address"},{"name":"newRevshare","type":"address","indexed":true,"internalType":"address"}],"anonymous":false},{"type":"event","name":"ConfigChanged","inputs":[{"name":"config","type":"tuple","indexed":false,"internalType":"struct DexibleStorage.DexibleConfig","components":[{"name":"revshareSplitRatio","type":"uint8","internalType":"uint8"},{"name":"stdBpsRate","type":"uint16","internalType":"uint16"},{"name":"minBpsRate","type":"uint16","internalType":"uint16"},{"name":"adminMultiSig","type":"address","internalType":"address"},{"name":"communityVault","type":"address","internalType":"address"},{"name":"treasury","type":"address","internalType":"address"},{"name":"dxblToken","type":"address","internalType":"address"},{"name":"arbGasOracle","type":"address","internalType":"address"},{"name":"stdGasAdjustment","type":"address","internalType":"address"},{"name":"minFeeUSD","type":"uint112","internalType":"uint112"},{"name":"initialRelays","type":"address[]","internalType":"address[]"}]}],"anonymous":false},{"type":"event","name":"InsufficientGasFunds","inputs":[{"name":"relay","type":"address","indexed":true,"internalType":"address"},{"name":"amount","type":"uint256","indexed":false,"internalType":"uint256"}],"anonymous":false},{"type":"event","name":"MinBpsChanged","inputs":[{"name":"newRate","type":"uint16","indexed":false,"internalType":"uint16"}],"anonymous":false},{"type":"event","name":"MinFeeChanged","inputs":[{"name":"newMin","type":"uint112","indexed":false,"internalType":"uint112"}],"anonymous":false},{"type":"event","name":"PaidGasFunds","inputs":[{"name":"relay","type":"address","indexed":true,"internalType":"address"},{"name":"amount","type":"uint256","indexed":false,"internalType":"uint256"}],"anonymous":false},{"type":"event","name":"Paused","inputs":[],"anonymous":false},{"type":"event","name":"ReceivedFunds","inputs":[{"name":"from","type":"address","indexed":false,"internalType":"address"},{"name":"amount","type":"uint256","indexed":false,"internalType":"uint256"}],"anonymous":false},{"type":"event","name":"RelayAdded","inputs":[{"name":"relay","type":"address","indexed":false,"internalType":"address"}],"anonymous":false},{"type":"event","name":"RelayRemoved","inputs":[{"name":"relay","type":"address","indexed":false,"internalType":"address"}],"anonymous":false},{"type":"event","name":"Resumed","inputs":[],"anonymous":false},{"type":"event","name":"SplitRatioChanged","inputs":[{"name":"newRate","type":"uint8","indexed":false,"internalType":"uint8"}],"anonymous":false},{"type":"event","name":"StdBpsChanged","inputs":[{"name":"newRate","type":"uint16","indexed":false,"internalType":"uint16"}],"anonymous":false},{"type":"event","name":"StdGasAdjustmentChanged","inputs":[{"name":"newContract","type":"address","indexed":false,"internalType":"address"}],"anonymous":false},{"type":"event","name":"SwapFailed","inputs":[{"name":"trader","type":"address","indexed":true,"internalType":"address"},{"name":"feeToken","type":"address","indexed":false,"internalType":"address"},{"name":"gasFeePaid","type":"uint256","indexed":false,"internalType":"uint256"}],"anonymous":false},{"type":"event","name":"SwapSuccess","inputs":[{"name":"trader","type":"address","indexed":true,"internalType":"address"},{"name":"affiliate","type":"address","indexed":true,"internalType":"address"},{"name":"inputAmount","type":"uint256","indexed":false,"internalType":"uint256"},{"name":"outputAmount","type":"uint256","indexed":false,"internalType":"uint256"},{"name":"feeToken","type":"address","indexed":false,"internalType":"address"},{"name":"gasFee","type":"uint256","indexed":false,"internalType":"uint256"},{"name":"affiliateFee","type":"uint256","indexed":false,"internalType":"uint256"},{"name":"dexibleFee","type":"uint256","indexed":false,"internalType":"uint256"}],"anonymous":false},{"type":"event","name":"TreasuryChanged","inputs":[{"name":"newTreasury","type":"address","indexed":false,"internalType":"address"}],"anonymous":false},{"type":"event","name":"VaultChanged","inputs":[{"name":"newVault","type":"address","indexed":false,"internalType":"address"}],"anonymous":false},{"type":"event","name":"WithdrewETH","inputs":[{"name":"admin","type":"address","indexed":true,"internalType":"address"},{"name":"amount","type":"uint256","indexed":false,"internalType":"uint256"}],"anonymous":false}],"bytecode":{"object":"0x608060405234801561001057600080fd5b5061482b806100206000396000f3fe60806040526004361061017b5760003560e01c806376a13636116100cc578063cd151e9a1161007a578063cd151e9a14610454578063d8544cf314610474578063dd81eb9814610494578063e287aec7146104a9578063ec71a08c146104be578063f0f44260146104de578063f3390c3a146104fe57600080fd5b806376a1363614610395578063805ecef8146103aa5780638456cb59146103ca5780638c47ea8e146103df578063b024d616146103ff578063bb4712341461041f578063c3d718a41461043457600080fd5b806345c6a8741161012957806345c6a874146102b55780634e0bb8cc146102d757806352ac86161461030457806353e978681461032b5780635d745b8f14610340578063602dd0261461036057806361d027b31461038057600080fd5b8063046f7da2146101c05780631725d82f146101d757806324b40c92146101f75780632e1a7d4d146102175780633564209b14610237578063370fb45b1461026d57806340d925b11461029557600080fd5b366101bb577f5741979df5f3e491501da74d3b0a83dd2496ab1f34929865b3e190a8ad75859a33346040516101b192919061352e565b60405180910390a1005b600080fd5b3480156101cc57600080fd5b506101d561051e565b005b3480156101e357600080fd5b506101d56101f2366004613566565b61059e565b34801561020357600080fd5b506101d5610212366004613595565b610626565b34801561022357600080fd5b506101d56102323660046135b0565b6106ae565b34801561024357600080fd5b506102576102523660046136f0565b610776565b604051610264919061388a565b60405180910390f35b34801561027957600080fd5b50610282610bb9565b60405161ffff9091168152602001610264565b3480156102a157600080fd5b506101d56102b0366004613899565b610bd4565b3480156102c157600080fd5b506102ca610ce8565b604051610264919061390d565b3480156102e357600080fd5b506102ec610d04565b6040516001600160701b039091168152602001610264565b34801561031057600080fd5b50610319610d24565b60405160ff9091168152602001610264565b34801561033757600080fd5b506102ca610d3c565b34801561034c57600080fd5b506101d561035b366004613595565b610d58565b34801561036c57600080fd5b506101d561037b366004613921565b610ddd565b34801561038c57600080fd5b506102ca610fdb565b3480156103a157600080fd5b506102ca610ff7565b3480156103b657600080fd5b506101d56103c5366004613955565b611013565b3480156103d657600080fd5b506101d56110f1565b3480156103eb57600080fd5b506101d56103fa366004613989565b611168565b34801561040b57600080fd5b506101d561041a3660046139a4565b6111f9565b34801561042b57600080fd5b5061028261182e565b34801561044057600080fd5b506101d561044f3660046139df565b611848565b34801561046057600080fd5b506101d561046f366004613955565b611a14565b34801561048057600080fd5b506101d561048f366004613955565b611aa6565b3480156104a057600080fd5b506102ca611b6f565b3480156104b557600080fd5b506102ca611b8b565b3480156104ca57600080fd5b506101d56104d93660046139a4565b611ba7565b3480156104ea57600080fd5b506101d56104f9366004613955565b611bb3565b34801561050a57600080fd5b506101d5610519366004613955565b611c40565b610526611ccd565b600301546001600160a01b0316331461055a5760405162461bcd60e51b815260040161055190613a19565b60405180910390fd5b6000610564611ccd565b805460ff19169115159190911790556040517f62451d457bc659158be6e6247f56ec1df424a5c7597f71c20c2bc44e0965c8f990600090a1565b6105a6611ccd565b600301546001600160a01b031633146105d15760405162461bcd60e51b815260040161055190613a19565b806105da611ccd565b805461ff00191661010060ff9384160217905560405190821681527fc08e3d70cd07fcbefc6065b4c1de14af045aef558d499e3d132d6b9aa13fdc4c906020015b60405180910390a150565b61062e611ccd565b600301546001600160a01b031633146106595760405162461bcd60e51b815260040161055190613a19565b80610662611ccd565b805465ffff000000001916600160201b61ffff9384160217905560405190821681527f0cc243ac5a88993148aefaa9f320f7d51555727982cb97b5502e4de3a296ff509060200161061b565b6106b6611ccd565b600301546001600160a01b031633146106e15760405162461bcd60e51b815260040161055190613a19565b6040513390819083156108fc029084906000818181858888f1935050505061073d5760405162461bcd60e51b815260206004820152600f60248201526e151c985b9cd9995c8819985a5b1959608a1b6044820152606401610551565b60405182815233907faa21a47bc8f0df1a253be34a945b1d0a8f458e4da029c0ab59c1fee1e488c0669060200160405180910390a25050565b6107ee604051806101a0016040528060001515815260200160001515815260200160006001600160a01b03168152602001600081526020016000815260200160008152602001600081526020016000815260200160008152602001600081526020016000815260200160008152602001600081525090565b33301461083d5760405162461bcd60e51b815260206004820152601d60248201527f4f6e6c7920616c6c6f77656420617320696e7465726e616c2063616c6c0000006044820152606401610551565b6108478383611cf1565b610858610100840160e08501613955565b6001600160a01b03166370a08231306040518263ffffffff1660e01b8152600401610883919061390d565b602060405180830381865afa1580156108a0573d6000803e3d6000fd5b505050506040513d601f19601f820116820180604052508101906108c49190613a3f565b60e083015260005b6108da610100850185613a58565b9050811015610a2c57366108f2610100860186613a58565b8381811061090257610902613aa8565b90506020028101906109149190613abe565b90506109626109296040830160208401613955565b6109396060840160408501613989565b6001600160701b03166109526080850160608601613955565b6001600160a01b03169190611fab565b60006109716020830183613955565b6001600160a01b03166109876080840184613ade565b604051610995929190613b24565b6000604051808303816000865af19150503d80600081146109d2576040519150601f19603f3d011682016040523d82523d6000602084013e6109d7565b606091505b5050905080610a195760405162461bcd60e51b815260206004820152600e60248201526d04661696c656420746f20737761760941b6044820152606401610551565b505080610a2590613b4a565b90506108cc565b506000610a40610100850160e08601613955565b6001600160a01b03166370a08231306040518263ffffffff1660e01b8152600401610a6b919061390d565b602060405180830381865afa158015610a88573d6000803e3d6000fd5b505050506040513d601f19601f82011682018060405250810190610aac9190613a3f565b9050808360e001511015610ad35760e0830151610ac99082613b63565b60e0840152610adb565b600060e08401525b604080518082019091526008815267115e1c1958dd195960c21b6020820152610b4290610b0e60e0870160c08801613989565b6001600160701b031660405180604001604052806008815260200167149958d95a5d995960c21b8152508660e001516120e6565b610b5260e0850160c08601613989565b6001600160701b03168360e001511015610bae5760405162461bcd60e51b815260206004820152601d60248201527f496e73756666696369656e74206f75747075742067656e6572617465640000006044820152606401610551565b829150505b92915050565b6000610bc3611ccd565b54600160201b900461ffff16919050565b610bdc611ccd565b600301546001600160a01b03163314610c075760405162461bcd60e51b815260040161055190613a19565b6000610c11611ccd565b905060005b82811015610ce2576001826007016000868685818110610c3857610c38613aa8565b9050602002016020810190610c4d9190613955565b6001600160a01b031681526020810191909152604001600020805460ff19169115159190911790557f6e5d136f0d49e354d8ec938c011b6f6a8838e033fd8a740421ee9f914bad24c3848483818110610ca857610ca8613aa8565b9050602002016020810190610cbd9190613955565b604051610cca919061390d565b60405180910390a1610cdb81613b4a565b9050610c16565b50505050565b6000610cf2611ccd565b600301546001600160a01b0316919050565b6000610d0e611ccd565b54600160301b90046001600160701b0316919050565b6000610d2e611ccd565b54610100900460ff16919050565b6000610d46611ccd565b600101546001600160a01b0316919050565b610d60611ccd565b600301546001600160a01b03163314610d8b5760405162461bcd60e51b815260040161055190613a19565b80610d94611ccd565b805463ffff000019166201000061ffff9384160217905560405190821681527f3c690423f2b4874693fa467d54b9a22ce2469d86d3ea9a48aabb8479ee5fde9d9060200161061b565b6000610de7611ccd565b33600090815260078201602052604090205490915060ff16610e4b5760405162461bcd60e51b815260206004820152601a60248201527f4f6e6c792072656c617920616c6c6f77656420746f2063616c6c0000000000006044820152606401610551565b610e53611ccd565b5460ff1615610e745760405162461bcd60e51b815260040161055190613b76565b60005a604080516101a081018252600080825260208201819052929350908101610e9c611ccd565b60010160009054906101000a90046001600160a01b03166001600160a01b031681526020018381526020016000815260200160008152602001600081526020016000815260200160008152602001600081526020016000815260200160008152602001600081525090506000306001600160a01b0316633564209b620138805a610f269190613b63565b87856040518463ffffffff1660e01b8152600401610f45929190613d4a565b6101a06040518083038160008887f193505050508015610f82575060408051601f3d908101601f19168201909252610f7f91810190613e1b565b60015b610fba57610fb26040518060400160405280600b81526020016a14ddd85c0819985a5b195960aa1b81525061212f565b506000610fc1565b9150600190505b610fd4610fcd86614071565b8383612172565b5050505050565b6000610fe5611ccd565b600201546001600160a01b0316919050565b6000611001611ccd565b600501546001600160a01b0316919050565b61101b611ccd565b600301546001600160a01b031633146110465760405162461bcd60e51b815260040161055190613a19565b6001600160a01b0381166110975760405162461bcd60e51b8152602060048201526018602482015277496e76616c696420636f6e7472616374206164647265737360401b6044820152606401610551565b806110a0611ccd565b60060180546001600160a01b0319166001600160a01b03929092169190911790556040517f7c5e06ac32af28fcb1cef744c62ae47a0d95cbdbd806942cf2232ee81e4cff9d9061061b90839061390d565b6110f9611ccd565b600301546001600160a01b031633146111245760405162461bcd60e51b815260040161055190613a19565b600161112e611ccd565b805460ff19169115159190911790556040517f9e87fac88ff661f02d44f95383c817fece4bce600a3dab7a54406878b965e75290600090a1565b611170611ccd565b600301546001600160a01b0316331461119b5760405162461bcd60e51b815260040161055190613a19565b806111a4611ccd565b8054600160301b600160a01b031916600160301b6001600160701b039384160217905560405190821681527f835b0e394b56439e2901706b3c67fcb1abcd7219c10b4010eb396ab636218ffc9060200161061b565b6000611203611ccd565b60038101549091506001600160a01b0316156112455760038101546001600160a01b031633146112455760405162461bcd60e51b815260040161055190613a19565b600061125760a0840160808501613955565b6001600160a01b0316036112ad5760405162461bcd60e51b815260206004820152601e60248201527f496e76616c696420436f6d6d756e6974795661756c74206164647265737300006044820152606401610551565b60006112bf60c0840160a08501613955565b6001600160a01b0316036113085760405162461bcd60e51b815260206004820152601060248201526f496e76616c696420747265617375727960801b6044820152606401610551565b600061131a60e0840160c08501613955565b6001600160a01b0316036113705760405162461bcd60e51b815260206004820152601a60248201527f496e76616c6964204458424c20746f6b656e20616464726573730000000000006044820152606401610551565b600061137f6020840184613566565b60ff16116113cf5760405162461bcd60e51b815260206004820152601c60248201527f496e76616c69642072657673686172652073706c697420726174696f000000006044820152606401610551565b60006113e16040840160208501613595565b61ffff161161143e5760405162461bcd60e51b8152602060048201526024808201527f4d7573742070726f766964652061207374616e646172642062707320666565206044820152637261746560e01b6064820152608401610551565b60006114506060840160408501613595565b61ffff161161149a5760405162461bcd60e51b81526020600482015260166024820152751b5a5b909c1cd4985d19481a5cc81c995c5d5a5c995960521b6044820152606401610551565b6114aa6040830160208401613595565b61ffff166114be6060840160408501613595565b61ffff161061151a5760405162461bcd60e51b815260206004820152602260248201527f4d696e206270732072617465206d757374206265206c657373207468616e20736044820152611d1960f21b6064820152608401610551565b600061152e61012084016101008501613955565b6001600160a01b0316036115845760405162461bcd60e51b815260206004820181905260248201527f496e76616c69642073746447617341646a7573746d656e7420616464726573736044820152606401610551565b6115946080830160608401613955565b6003820180546001600160a01b0319166001600160a01b03929092169190911790556115c36020830183613566565b815460ff919091166101000261ff00199091161781556115e960a0830160808401613955565b6001820180546001600160a01b0319166001600160a01b039290921691909117905561161b60c0830160a08401613955565b6002820180546001600160a01b0319166001600160a01b039290921691909117905561164d60e0830160c08401613955565b6004820180546001600160a01b0319166001600160a01b039290921691909117905561167f6040830160208401613595565b815461ffff91909116620100000263ffff0000199091161781556116a96060830160408401613595565b815461ffff91909116600160201b0265ffff00000000199091161781556116d861014083016101208401613989565b81546001600160701b0391909116600160301b02600160301b600160a01b031990911617815561170f610100830160e08401613955565b6005820180546001600160a01b0319166001600160a01b039290921691909117905561174361012083016101008401613955565b6006820180546001600160a01b0319166001600160a01b039290921691909117905560005b611776610140840184613a58565b90508110156117f2576001600783016000611795610140870187613a58565b858181106117a5576117a5613aa8565b90506020020160208101906117ba9190613955565b6001600160a01b031681526020810191909152604001600020805460ff19169115159190911790556117eb81613b4a565b9050611768565b507f512abcac106cff38b137525ac01b49274efb0f265cf8e8e76ac46dfbec8e77388260405161182291906141a6565b60405180910390a15050565b6000611838611ccd565b5462010000900461ffff16919050565b611850611ccd565b5460ff16156118715760405162461bcd60e51b815260040161055190613b76565b6040805160c081018252336080820190815282516060810190935260009282919060a0830190806118a56020890189613955565b6001600160a01b0316815260200160006001600160a01b0316815260200160008152508152508152602001836020018036038101906118e491906142e5565b81526020016118fb368590038501606086016142e5565b815260200161190d60a0850185613a58565b61191691614301565b9052604080516101a08101825260008082526001602083015292935090810161193d611ccd565b600101546001600160a01b031681526000602082018190526040808301829052606083018290526080830182905260a0830182905260c0830182905260e08301829052610100830182905261012083018290526101409092015251633564209b60e01b81529091503090633564209b906119bd9085908590600401614409565b6101a0604051808303816000875af11580156119dd573d6000803e3d6000fd5b505050506040513d601f19601f82011682018060405250810190611a019190613e1b565b9050611a0f82826001612172565b505050565b611a1c611ccd565b600301546001600160a01b03163314611a475760405162461bcd60e51b815260040161055190613a19565b6000611a51611ccd565b6001600160a01b038316600090815260078201602052604090819020805460ff19169055519091507f38dc67ab9b9813fcdcb7c44191cecd71547e9ab9b1939493cdd6a903965d5ffa9061182290849061390d565b611aae611ccd565b600101546001600160a01b03163314611b155760405162461bcd60e51b8152602060048201526024808201527f4f6e6c79207661756c742063616e206578656375746520746869732066756e636044820152633a34b7b760e11b6064820152608401610551565b80611b1e611ccd565b60010180546001600160a01b0319166001600160a01b03929092169190911790556040517fa49691f0dd6477ccef49962612a236d252e3a31c3be8b61fa6abeff3e74a75729061061b90839061390d565b6000611b79611ccd565b600401546001600160a01b0316919050565b6000611b95611ccd565b600601546001600160a01b0316919050565b611bb0816111f9565b50565b611bbb611ccd565b600301546001600160a01b03163314611be65760405162461bcd60e51b815260040161055190613a19565b80611bef611ccd565b60020180546001600160a01b0319166001600160a01b03929092169190911790556040517fc714d22a2f08b695f81e7c707058db484aa5b4d6b4c9fd64beb10fe85832f6089061061b90839061390d565b611c48611ccd565b600301546001600160a01b03163314611c735760405162461bcd60e51b815260040161055190613a19565b80611c7c611ccd565b60050180546001600160a01b0319166001600160a01b03929092169190911790556040517fa6185880f040ba1584f7e109a3be5b1c01a3d3855eb518cc0ff6f12b5ba5e70b9061061b90839061390d565b7f949817a987a8e038ef345d3c9d4fd28e49d8e4e09456e57c05a8b2ce2e62866c90565b6000611d036040840160208501613955565b90506000611d0f611ccd565b6001810154604051630ba408e360e31b81529192506001600160a01b031690635d20471890611d4290859060040161390d565b602060405180830381865afa158015611d5f573d6000803e3d6000fd5b505050506040513d601f19601f82011682018060405250810190611d8391906144a3565b611dca5760405162461bcd60e51b8152602060048201526018602482015277119959481d1bdad95b881a5cc81b9bdd08185b1b1bddd95960421b6044820152606401610551565b611dda60c0850160a08601613955565b6001600160a01b0316826001600160a01b03161480611e1a5750611e05610100850160e08601613955565b6001600160a01b0316826001600160a01b0316145b611e765760405162461bcd60e51b815260206004820152602760248201527f46656520746f6b656e206d75737420626520696e707574206f72206f757470756044820152663a103a37b5b2b760c91b6064820152608401610551565b60048101546001600160a01b03166370a08231611e966020870187613955565b6040518263ffffffff1660e01b8152600401611eb2919061390d565b602060405180830381865afa158015611ecf573d6000803e3d6000fd5b505050506040513d601f19601f82011682018060405250810190611ef39190613a3f565b610160840152611f096040850160208601613955565b6001600160a01b0316611f2260c0860160a08701613955565b6001600160a01b0316148352610ce2611f3e6020860186613955565b30611f4d610100880188613a58565b6000818110611f5e57611f5e613aa8565b9050602002810190611f709190613abe565b611f81906060810190604001613989565b6001600160701b0316611f9a60c0890160a08a01613955565b6001600160a01b031692919061219f565b8015806120255750604051636eb1769f60e11b81523060048201526001600160a01b03838116602483015284169063dd62ed3e90604401602060405180830381865afa158015611fff573d6000803e3d6000fd5b505050506040513d601f19601f820116820180604052508101906120239190613a3f565b155b6120905760405162461bcd60e51b815260206004820152603660248201527f5361666545524332303a20617070726f76652066726f6d206e6f6e2d7a65726f60448201527520746f206e6f6e2d7a65726f20616c6c6f77616e636560501b6064820152608401610551565b611a0f8363095ea7b360e01b84846040516024016120af92919061352e565b60408051601f198184030181529190526020810180516001600160e01b03166001600160e01b0319909316929092179091526121c0565b610ce28484848460405160240161210094939291906144c0565b60408051601f198184030181529190526020810180516001600160e01b031663c67ea9d160e01b179052612292565b611bb08160405160240161214391906144fd565b60408051601f198184030181529190526020810180516001600160e01b031663104c13eb60e21b179052612292565b80156121875761218283836122b3565b612191565b61219183836122d4565b611a0f826101400151612424565b610ce2846323b872dd60e01b8585856040516024016120af93929190614510565b6000612215826040518060400160405280602081526020017f5361666545524332303a206c6f772d6c6576656c2063616c6c206661696c6564815250856001600160a01b03166124d09092919063ffffffff16565b805190915015611a0f578080602001905181019061223391906144a3565b611a0f5760405162461bcd60e51b815260206004820152602a60248201527f5361666545524332303a204552433230206f7065726174696f6e20646964206e6044820152691bdd081cdd58d8d9595960b21b6064820152608401610551565b80516a636f6e736f6c652e6c6f67602083016000808483855afa5050505050565b6122c68282600001518360e001516124e9565b6122d0828261258d565b5050565b60006122de611ccd565b905060008260000151156123cf5760005a84606001510390506123196040518060600160405280602981526020016147cd60299139826125a1565b6123248160006125e6565b6101408501819052600184015486516020015151604051633931f45d60e01b81526001600160a01b039092169350633931f45d926123649260040161352e565b602060405180830381865afa158015612381573d6000803e3d6000fd5b505050506040513d601f19601f820116820180604052508101906123a59190613a3f565b845180516002850154602090920151519293506123cf926001600160a01b0390811692168461219f565b83518051602090910151516040516001600160a01b03909216917f6930176329c33f663176f0f242132119497db425bb44d32f9ffef8683d10b0c09161241691859061352e565b60405180910390a250505050565b8060000361242f5750565b804710156124705760405181815233907f4c0d6a438f19dfe41befe161c0bfdfca9f674028133bbaf37749b2d12f8f0dda906020015b60405180910390a250565b604051339082156108fc029083906000818181858888f1935050505015801561249d573d6000803e3d6000fd5b5060405181815233907f91d09af90b128f3fb2907042440a531bca49791232cd8f59e1c629d96247d05790602001612465565b60606124df84846000856127f2565b90505b9392505050565b60006124f3611ccd565b90506000831561251257506020840151516001600160701b0316612515565b50815b600182015485518051602090910151516040516302ac425360e61b81526001600160a01b039093169263ab1094c0926125549290918690600401614510565b600060405180830381600087803b15801561256e57600080fd5b505af1158015612582573d6000803e3d6000fd5b505050505050505050565b61259782826128cf565b6122d08282612ae1565b6122d082826040516024016125b7929190614534565b60408051601f198184030181529190526020810180516001600160e01b0316632d839cb360e21b179052612292565b6000806125f1611ccd565b60068101549091506000906001600160a01b0316635197093485612639576040518060400160405280600c81526020016b535741505f4641494c55524560a01b81525061265f565b6040518060400160405280600c81526020016b535741505f5355434345535360a01b8152505b6040518263ffffffff1660e01b815260040161267b91906144fd565b602060405180830381865afa158015612698573d6000803e3d6000fd5b505050506040513d601f19601f820116820180604052508101906126bc9190613a3f565b90506126c88186614556565b94504661a4b019810161275457600583015460405163852b66a560e01b8152366004820152602481018890526001600160a01b039091169063852b66a590604401602060405180830381865afa158015612726573d6000803e3d6000fd5b505050506040513d601f19601f8201168201806040525081019061274a9190613a3f565b9350505050610bb3565b600a81036127de576040516324ca470760e11b8152600f602160991b01906349948e0e90612789906000903690600401614569565b602060405180830381865afa1580156127a6573d6000803e3d6000fd5b505050506040513d601f19601f820116820180604052508101906127ca9190613a3f565b6127d4873a61457d565b61274a9190614556565b6127e8863a61457d565b9695505050505050565b6060824710156128535760405162461bcd60e51b815260206004820152602660248201527f416464726573733a20696e73756666696369656e742062616c616e636520666f6044820152651c8818d85b1b60d21b6064820152608401610551565b600080866001600160a01b0316858760405161286f9190614594565b60006040518083038185875af1925050503d80600081146128ac576040519150601f19603f3d011682016040523d82523d6000602084013e6128b1565b606091505b50915091506128c28783838761300c565b925050505b949350505050565b60006128d9611ccd565b60e083015160c0840181905283516101608501519293506128fb928692613085565b61010083015282516020015151600090612914906131bc565b905082610100015181111561292c5761010083018190525b8154610100848101516064926129479260ff9104169061457d565b61295191906145a6565b60a084018190526101008401516129689190613b63565b84516020015160400151106129bf5760405162461bcd60e51b815260206004820152601f60248201527f4d697363616c63756c6174656420616666696c6961746520706f7274696f6e006044820152606401610551565b8351602001516040015160a08401516101008501516129de9190613b63565b6129e89190613b63565b608084018190528451602001516040015160a0850151600092612a0a91614556565b612a149190614556565b8451909150612ad257808460e001511015612ab857612a4b6040518060600160405280602f815260200161476f602f91398261333a565b612a816040518060400160405280601081526020016f01027baba383aba1030b6b7bab73a1d160851b8152508660e0015161333a565b604051602001612a929291906145c8565b60408051601f198184030181529082905262461bcd60e51b8252610551916004016144fd565b808460e00151612ac89190613b63565b60c0850152610fd4565b61018084018190525050505050565b6000612aeb611ccd565b90508160200151612cb85760005a6060840151604085015160018501549290910392506001600160a01b03918216911614801590612b2b575062030d4081115b15612b375762030d3f19015b612b5960405180606001604052806029815260200161474660299139826125a1565b612b648160016125e6565b6101408401819052600183015485516020015151604051633931f45d60e01b81526001600160a01b039092169350633931f45d92612ba49260040161352e565b602060405180830381865afa158015612bc1573d6000803e3d6000fd5b505050506040513d601f19601f82011682018060405250810190612be59190613a3f565b6101208301819052608083018051612bfe908390614556565b9052508151612c9c578161012001518260c0015111612c7d57612c3e6040518060600160405280602f815260200161479e602f913983610120015161333a565b612a81604051806040016040528060198152602001780102a3930b232b91037baba383aba10383937b1b2b2b2399d1603d1b8152508460c0015161333a565b8161012001518260c001818151612c949190613b63565b905250612cb8565b8161012001518261018001818151612cb49190614556565b9052505b82516020015151825115612e645760008361018001518560600151600081518110612ce557612ce5613aa8565b602002602001015160400151600001516001600160701b0316612d089190614556565b6020860151519091506001600160701b0316811115612d8257612d436040518060600160405280603e8152602001614708603e91398261333a565b612a816040518060400160405280600c81526020016b01026b0bc1034b7383aba1d160a51b8152508760200151600001516001600160701b031661333a565b84515160028401546080860151612da9926001600160a01b0386811693919291169061219f565b845151600184015460a0860151612dd0926001600160a01b0386811693919291169061219f565b8451602001516040015115612e5e578451805160209182015191820151604090920151612e08926001600160a01b038616929161219f565b84516020908101519081015160409182015191516001600160a01b03909116917f1fd11cde99de9e2e6d2bc710c225ae2e03d1e8eece69b0c552c7ae2bb3499a7091612e5591869161352e565b60405180910390a25b50612f33565b60028201546080840151612e86916001600160a01b038481169291169061336e565b600182015460a0840151612ea8916001600160a01b038481169291169061336e565b8351602001516040015115612f3357835160209081015190810151604090910151612edd916001600160a01b0384169161336e565b83516020908101519081015160409182015191516001600160a01b03909116917f1fd11cde99de9e2e6d2bc710c225ae2e03d1e8eece69b0c552c7ae2bb3499a7091612f2a91859161352e565b60405180910390a25b83515160c0840151604086015160200151612f59926001600160a01b039091169161336e565b83516020808201519081015191516040808801515160c088015184516101208a0151958401516101008b015194516001600160a01b039889169896909616967f37d5b664bdbba33c8c4138fa893bae32fef34e9a60d60d7cba0cb46eadb7675196612ffe96919291906001600160701b0396909616865260208601949094526001600160a01b039290921660408501526060840152608083015260a082015260c00190565b60405180910390a350505050565b6060831561307b578251600003613074576001600160a01b0385163b6130745760405162461bcd60e51b815260206004820152601d60248201527f416464726573733a2063616c6c20746f206e6f6e2d636f6e74726163740000006044820152606401610551565b50816128c7565b6128c7838361338d565b600080613090611ccd565b60048101546040805160c08101825289516020908101518101516001600160a01b03908116151583528b5151811691830191909152939450929091169163a015b639918101886130e057866130f0565b60208a0151516001600160701b03165b81526020808201899052855461ffff6201000082048116604080860191909152600160201b909204811660609485015281516001600160e01b031960e088901b168152855115156004820152928501516001600160a01b0316602484015290840151604483015291830151606482015260808301518216608482015260a0909201511660a482015260c401602060405180830381865afa158015613198573d6000803e3d6000fd5b505050506040513d601f19601f820116820180604052508101906127e89190613a3f565b6000806131c7611ccd565b8054909150600160301b90046001600160701b03166000036131ec5750600092915050565b600181015460405163ce25cb4d60e01b81526000916001600160a01b03169063ce25cb4d9061321f90879060040161390d565b602060405180830381865afa15801561323c573d6000803e3d6000fd5b505050506040513d601f19601f820116820180604052508101906132609190613a3f565b90506000846001600160a01b031663313ce5676040518163ffffffff1660e01b8152600401602060405180830381865afa1580156132a2573d6000803e3d6000fd5b505050506040513d601f19601f820116820180604052508101906132c691906145f7565b905060006c0c9f2c9cd04674edea400000008260ff166012036132ea576001613308565b670de0b6b3a76400006132fe84600a6146f8565b61330891906145a6565b85546133249190600160301b90046001600160701b031661457d565b61332e919061457d565b90506127e883826145a6565b606082613346836133b7565b6040516020016133579291906145c8565b604051602081830303815290604052905092915050565b611a0f8363a9059cbb60e01b84846040516024016120af92919061352e565b81511561339d5781518083602001fd5b8060405162461bcd60e51b815260040161055191906144fd565b606060006133c483613449565b60010190506000816001600160401b038111156133e3576133e36135e2565b6040519080825280601f01601f19166020018201604052801561340d576020820181803683370190505b5090508181016020015b600019016f181899199a1a9b1b9c1cb0b131b232b360811b600a86061a8153600a850494508461341757509392505050565b60008072184f03e93ff9f4daa797ed6e38ed64bf6a1f0160401b83106134885772184f03e93ff9f4daa797ed6e38ed64bf6a1f0160401b830492506040015b6d04ee2d6d415b85acef810000000083106134b4576d04ee2d6d415b85acef8100000000830492506020015b662386f26fc1000083106134d257662386f26fc10000830492506010015b6305f5e10083106134ea576305f5e100830492506008015b61271083106134fe57612710830492506004015b60648310613510576064830492506002015b600a8310610bb35760010192915050565b6001600160a01b03169052565b6001600160a01b03929092168252602082015260400190565b60ff81168114611bb057600080fd5b803561356181613547565b919050565b60006020828403121561357857600080fd5b81356124e281613547565b803561ffff8116811461356157600080fd5b6000602082840312156135a757600080fd5b6124e282613583565b6000602082840312156135c257600080fd5b5035919050565b600061012082840312156135dc57600080fd5b50919050565b634e487b7160e01b600052604160045260246000fd5b6040516101a081016001600160401b038111828210171561361b5761361b6135e2565b60405290565b604080519081016001600160401b038111828210171561361b5761361b6135e2565b604051608081016001600160401b038111828210171561361b5761361b6135e2565b604051606081016001600160401b038111828210171561361b5761361b6135e2565b604051601f8201601f191681016001600160401b03811182821017156136af576136af6135e2565b604052919050565b8015158114611bb057600080fd5b8035613561816136b7565b6001600160a01b0381168114611bb057600080fd5b8035613561816136d0565b6000808284036101c081121561370557600080fd5b83356001600160401b0381111561371b57600080fd5b613727868287016135c9565b9350506101a080601f198301121561373e57600080fd5b6137466135f8565b9150613754602086016136c5565b8252613762604086016136c5565b6020830152613773606086016136e5565b60408301526080850135606083015260a0850135608083015260c085013560a083015260e085013560c08301526101008086013560e0840152610120808701358285015261014091508187013581850152506101608087013582850152610180915081870135818501525081860135818401525050809150509250929050565b805115158252602081015161380c602084018215159052565b50604081015161381f6040840182613521565b50606081810151908301526080808201519083015260a0808201519083015260c0808201519083015260e08082015190830152610100808201519083015261012080820151908301526101408082015190830152610160808201519083015261018090810151910152565b6101a08101610bb382846137f3565b600080602083850312156138ac57600080fd5b82356001600160401b03808211156138c357600080fd5b818501915085601f8301126138d757600080fd5b8135818111156138e657600080fd5b8660208260051b85010111156138fb57600080fd5b60209290920196919550909350505050565b6001600160a01b0391909116815260200190565b60006020828403121561393357600080fd5b81356001600160401b0381111561394957600080fd5b6128c7848285016135c9565b60006020828403121561396757600080fd5b81356124e2816136d0565b80356001600160701b038116811461356157600080fd5b60006020828403121561399b57600080fd5b6124e282613972565b6000602082840312156139b657600080fd5b81356001600160401b038111156139cc57600080fd5b820161016081850312156124e257600080fd5b6000602082840312156139f157600080fd5b81356001600160401b03811115613a0757600080fd5b820160c081850312156124e257600080fd5b6020808252600c908201526b155b985d5d1a1bdc9a5e995960a21b604082015260600190565b600060208284031215613a5157600080fd5b5051919050565b6000808335601e19843603018112613a6f57600080fd5b8301803591506001600160401b03821115613a8957600080fd5b6020019150600581901b3603821315613aa157600080fd5b9250929050565b634e487b7160e01b600052603260045260246000fd5b60008235609e19833603018112613ad457600080fd5b9190910192915050565b6000808335601e19843603018112613af557600080fd5b8301803591506001600160401b03821115613b0f57600080fd5b602001915036819003821315613aa157600080fd5b8183823760009101908152919050565b634e487b7160e01b600052601160045260246000fd5b600060018201613b5c57613b5c613b34565b5060010190565b81810381811115610bb357610bb3613b34565b6020808252601e908201527f436f6e7472616374206f7065726174696f6e7320617265207061757365640000604082015260600190565b6001600160701b03613bbe82613972565b1682526020810135613bcf816136d0565b6001600160a01b03166020929092019190915250565b6000808335601e19843603018112613bfc57600080fd5b83016020810192503590506001600160401b03811115613c1b57600080fd5b8060051b3603821315613aa157600080fd5b81835281816020850137506000828201602090810191909152601f909101601f19169091010190565b81835260006020808501808196508560051b810191508460005b87811015613d3d5782840389528135609e19883603018112613c9157600080fd5b870160a08135613ca0816136d0565b6001600160a01b0390811687528288013590613cbb826136d0565b16868801526040613cd0818801848301613bad565b50608080830135601e19843603018112613ce957600080fd5b9092018781019290356001600160401b03811115613d0657600080fd5b803603841315613d1557600080fd5b8282890152613d278389018286613c2d565b9c89019c97505050928601925050600101613c70565b5091979650505050505050565b60006101c08083528435613d5d816136d0565b6001600160a01b0381811692850192909252602086013591613d7e836136d0565b9182166101e0850152604086013591613d96836136d0565b91909116610200840152506060840135610220830152613dbd610240830160808601613bad565b613dce610280830160c08601613bad565b613ddc610100850185613be5565b6101206102c0850152613df46102e085018284613c56565b925050506124e260208301846137f3565b8051613561816136b7565b8051613561816136d0565b60006101a08284031215613e2e57600080fd5b613e366135f8565b613e3f83613e05565b8152613e4d60208401613e05565b6020820152613e5e60408401613e10565b6040820152606083810151908201526080808401519082015260a0808401519082015260c0808401519082015260e080840151908201526101008084015190820152610120808401519082015261014080840151908201526101608084015190820152610180928301519281019290925250919050565b600060408284031215613ee757600080fd5b613eef613621565b9050613efa82613972565b81526020820135613f0a816136d0565b602082015292915050565b60006001600160401b0380841115613f2f57613f2f6135e2565b8360051b6020613f40818301613687565b86815293509084019080840187831115613f5957600080fd5b855b8381101561404557803585811115613f735760008081fd5b870160a0818b031215613f865760008081fd5b613f8e613643565b8135613f99816136d0565b815281850135613fa8816136d0565b818601526040613fba8c848301613ed5565b90820152608082013587811115613fd15760008081fd5b808301925050601f8b81840112613fe85760008081fd5b823588811115613ffa57613ffa6135e2565b61400b818301601f19168801613687565b91508082528c878286010111156140225760008081fd5b808785018884013760009082018701526060820152835250908201908201613f5b565b50505050509392505050565b600082601f83011261406257600080fd5b6124e283833560208501613f15565b600081360361012081121561408557600080fd5b61408d613643565b608082121561409b57600080fd5b6140a3613621565b84356140ae816136d0565b81526060601f19840112156140c257600080fd5b6140ca613665565b925060208501356140da816136d0565b835260408501356140ea816136d0565b8060208501525060608501356040840152826020820152808252506141123660808601613ed5565b60208201526141243660c08601613ed5565b604082015261010084013591506001600160401b0382111561414557600080fd5b61415136838601614051565b60608201529392505050565b8183526000602080850194508260005b8581101561419b578135614180816136d0565b6001600160a01b03168752958201959082019060010161416d565b509495945050505050565b602081526141c1602082016141ba84613556565b60ff169052565b60006141cf60208401613583565b61ffff81166040840152506141e660408401613583565b61ffff81166060840152506141fd606084016136e5565b61420a6080840182613521565b50614217608084016136e5565b61422460a0840182613521565b5061423160a084016136e5565b61423e60c0840182613521565b5061424b60c084016136e5565b61425860e0840182613521565b5061426560e084016136e5565b61010061427481850183613521565b61427f8186016136e5565b91505061012061429181850183613521565b61429c818601613972565b9150506101406142b6818501836001600160701b03169052565b6142c281860186613be5565b61016086810152925090506142dc6101808501838361415d565b95945050505050565b6000604082840312156142f757600080fd5b6124e28383613ed5565b60006124e2368484613f15565b80516001600160701b031682526020908101516001600160a01b0316910152565b60005b8381101561434a578181015183820152602001614332565b50506000910152565b6000815180845261436b81602086016020860161432f565b601f01601f19169290920160200192915050565b600081518084526020808501808196508360051b8101915082860160005b85811015613d3d578284038952815180516001600160a01b03908116865286820151168686015260408082015160a091906143da8289018261430e565b5050606082015191508060808701526143f581870183614353565b9a87019a955050509084019060010161439d565b6101c0808252835180516001600160a01b0390811692840192909252602090810151805183166101e08501528082015190921661020084015260409091015161022083015283015160009061446261024084018261430e565b50604084015161447661028084018261430e565b5060608401516101206102c08401526144936102e084018261437f565b9150506124e260208301846137f3565b6000602082840312156144b557600080fd5b81516124e2816136b7565b6080815260006144d36080830187614353565b85602084015282810360408401526144eb8186614353565b91505082606083015295945050505050565b6020815260006124e26020830184614353565b6001600160a01b039384168152919092166020820152604081019190915260600190565b6040815260006145476040830185614353565b90508260208301529392505050565b80820180821115610bb357610bb3613b34565b6020815260006124df602083018486613c2d565b8082028115828204841417610bb357610bb3613b34565b60008251613ad481846020870161432f565b6000826145c357634e487b7160e01b600052601260045260246000fd5b500490565b600083516145da81846020880161432f565b8351908301906145ee81836020880161432f565b01949350505050565b60006020828403121561460957600080fd5b81516124e281613547565b600181815b8085111561464f57816000190482111561463557614635613b34565b8085161561464257918102915b93841c9390800290614619565b509250929050565b60008261466657506001610bb3565b8161467357506000610bb3565b81600181146146895760028114614693576146af565b6001915050610bb3565b60ff8411156146a4576146a4613b34565b50506001821b610bb3565b5060208310610133831016604e8410600b84101617156146d2575081810a610bb3565b6146dc8383614614565b80600019048211156146f0576146f0613b34565b029392505050565b60006124e260ff84168361465756fe417474656d707420746f207370656e64206d6f726520696e707574207468616e20616e7469636970617465642e20546f74616c2072657175697265643a20457374696d6174656420676173207573656420666f722074726164657220676173207061796d656e74496e73756666696369656e74206f757470757420746f207061792062707320666565732e2052657175697265643a20496e73756666696369656e74206f757470757420746f207061792067617320666565732e2052657175697265643a20457374696d6174656420676173207573656420666f72206661696c656420676173207061796d656e74a2646970667358221220f278d6d6521e1e98ca0b26d1fae1a99b40c66b34d2e44091d65128b091f41d7064736f6c63430008110033","linkReferences":{}},"methodIdentifiers":{"addRelays(address[])":"40d925b1","adminMultiSig()":"45c6a874","arbitrumGasOracle()":"76a13636","communityVault()":"53e97868","configure((uint8,uint16,uint16,address,address,address,address,address,address,uint112,address[]))":"b024d616","dxblToken()":"dd81eb98","fill(((address,(address,address,uint256)),(uint112,address),(uint112,address),(address,address,(uint112,address),bytes)[]),(bool,bool,address,uint256,uint256,uint256,uint256,uint256,uint256,uint256,uint256,uint256,uint256))":"3564209b","initialize((uint8,uint16,uint16,address,address,address,address,address,address,uint112,address[]))":"ec71a08c","minBpsRate()":"370fb45b","minFeeUSD()":"4e0bb8cc","pause()":"8456cb59","removeRelay(address)":"cd151e9a","resume()":"046f7da2","revshareSplitRatio()":"52ac8616","selfSwap((address,(uint112,address),(uint112,address),(address,address,(uint112,address),bytes)[]))":"c3d718a4","setArbitrumGasOracle(address)":"f3390c3a","setCommunityVault(address)":"d8544cf3","setMinBpsRate(uint16)":"24b40c92","setMinFeeUSD(uint112)":"8c47ea8e","setRevshareSplitRatio(uint8)":"1725d82f","setStdBpsRate(uint16)":"5d745b8f","setStdGasAdjustmentContract(address)":"805ecef8","setTreasury(address)":"f0f44260","stdBpsRate()":"bb471234","stdGasAdjustmentContract()":"e287aec7","swap(((address,(address,address,uint256)),(uint112,address),(uint112,address),(address,address,(uint112,address),bytes)[]))":"602dd026","treasury()":"61d027b3","withdraw(uint256)":"2e1a7d4d"},"storageLayout":{"storage":[],"types":{}},"id":14}