{"abi":[{"type":"receive","stateMutability":"payable"},{"type":"function","name":"ETH","inputs":[],"outputs":[{"name":"","type":"address","internalType":"address"}],"stateMutability":"view"},{"type":"function","name":"OPTION_BUNNY_XLP_0150","inputs":[],"outputs":[{"name":"","type":"uint256","internalType":"uint256"}],"stateMutability":"view"},{"type":"function","name":"OPTION_QUBIT_BNB_0050","inputs":[],"outputs":[{"name":"","type":"uint256","internalType":"uint256"}],"stateMutability":"view"},{"type":"function","name":"OPTION_QUBIT_BNB_0100","inputs":[],"outputs":[{"name":"","type":"uint256","internalType":"uint256"}],"stateMutability":"view"},{"type":"function","name":"OPTION_QUBIT_BNB_NONE","inputs":[],"outputs":[{"name":"","type":"uint256","internalType":"uint256"}],"stateMutability":"view"},{"type":"function","name":"_bridgeAddress","inputs":[],"outputs":[{"name":"","type":"address","internalType":"address"}],"stateMutability":"view"},{"type":"function","name":"burnList","inputs":[{"name":"","type":"address","internalType":"address"}],"outputs":[{"name":"","type":"bool","internalType":"bool"}],"stateMutability":"view"},{"type":"function","name":"contractWhitelist","inputs":[{"name":"","type":"address","internalType":"address"}],"outputs":[{"name":"","type":"bool","internalType":"bool"}],"stateMutability":"view"},{"type":"function","name":"delegators","inputs":[{"name":"","type":"uint256","internalType":"uint256"}],"outputs":[{"name":"","type":"address","internalType":"address"}],"stateMutability":"view"},{"type":"function","name":"deposit","inputs":[{"name":"resourceID","type":"bytes32","internalType":"bytes32"},{"name":"depositer","type":"address","internalType":"address"},{"name":"data","type":"bytes","internalType":"bytes"}],"outputs":[],"stateMutability":"nonpayable"},{"type":"function","name":"depositETH","inputs":[{"name":"resourceID","type":"bytes32","internalType":"bytes32"},{"name":"depositer","type":"address","internalType":"address"},{"name":"data","type":"bytes","internalType":"bytes"}],"outputs":[],"stateMutability":"payable"},{"type":"function","name":"executeProposal","inputs":[{"name":"resourceID","type":"bytes32","internalType":"bytes32"},{"name":"data","type":"bytes","internalType":"bytes"}],"outputs":[],"stateMutability":"nonpayable"},{"type":"function","name":"initialize","inputs":[{"name":"bridgeAddress","type":"address","internalType":"address"}],"outputs":[],"stateMutability":"nonpayable"},{"type":"function","name":"minAmounts","inputs":[{"name":"","type":"bytes32","internalType":"bytes32"},{"name":"","type":"uint256","internalType":"uint256"}],"outputs":[{"name":"","type":"uint256","internalType":"uint256"}],"stateMutability":"view"},{"type":"function","name":"owner","inputs":[],"outputs":[{"name":"","type":"address","internalType":"address"}],"stateMutability":"view"},{"type":"function","name":"renounceOwnership","inputs":[],"outputs":[],"stateMutability":"nonpayable"},{"type":"function","name":"resourceIDToTokenContractAddress","inputs":[{"name":"","type":"bytes32","internalType":"bytes32"}],"outputs":[{"name":"","type":"address","internalType":"address"}],"stateMutability":"view"},{"type":"function","name":"setBurnable","inputs":[{"name":"contractAddress","type":"address","internalType":"address"}],"outputs":[],"stateMutability":"nonpayable"},{"type":"function","name":"setDelegator","inputs":[{"name":"option","type":"uint256","internalType":"uint256"},{"name":"newDelegator","type":"address","internalType":"address"}],"outputs":[],"stateMutability":"nonpayable"},{"type":"function","name":"setMinDepositAmount","inputs":[{"name":"resourceID","type":"bytes32","internalType":"bytes32"},{"name":"option","type":"uint256","internalType":"uint256"},{"name":"minAmount","type":"uint256","internalType":"uint256"}],"outputs":[],"stateMutability":"nonpayable"},{"type":"function","name":"setResource","inputs":[{"name":"resourceID","type":"bytes32","internalType":"bytes32"},{"name":"contractAddress","type":"address","internalType":"address"}],"outputs":[],"stateMutability":"nonpayable"},{"type":"function","name":"setWithdrawalFee","inputs":[{"name":"resourceID","type":"bytes32","internalType":"bytes32"},{"name":"withdrawalFee","type":"uint256","internalType":"uint256"}],"outputs":[],"stateMutability":"nonpayable"},{"type":"function","name":"tokenContractAddressToResourceID","inputs":[{"name":"","type":"address","internalType":"address"}],"outputs":[{"name":"","type":"bytes32","internalType":"bytes32"}],"stateMutability":"view"},{"type":"function","name":"transferOwnership","inputs":[{"name":"newOwner","type":"address","internalType":"address"}],"outputs":[],"stateMutability":"nonpayable"},{"type":"function","name":"withdraw","inputs":[{"name":"tokenAddress","type":"address","internalType":"address"},{"name":"recipient","type":"address","internalType":"address"},{"name":"amount","type":"uint256","internalType":"uint256"}],"outputs":[],"stateMutability":"nonpayable"},{"type":"function","name":"withdrawalFees","inputs":[{"name":"","type":"bytes32","internalType":"bytes32"}],"outputs":[{"name":"","type":"uint256","internalType":"uint256"}],"stateMutability":"view"},{"type":"event","name":"OwnershipTransferred","inputs":[{"name":"previousOwner","type":"address","indexed":true,"internalType":"address"},{"name":"newOwner","type":"address","indexed":true,"internalType":"address"}],"anonymous":false}],"bytecode":{"object":"0x608060405234801561001057600080fd5b50611961806100206000396000f3fe6080604052600436106101855760003560e01c8063aa52df9f116100d1578063ca0d9fc41161008a578063e0a45ff311610064578063e0a45ff314610434578063e1de99d314610449578063e248cff21461045e578063f2fde38b1461047e5761018c565b8063ca0d9fc4146103ec578063d9caed1214610401578063d9f56b7f146104215761018c565b8063aa52df9f14610337578063b07e54bb14610357578063b1a83e4214610377578063b54ce96f1461038c578063b8fa3736146103ac578063c4d66de8146103cc5761018c565b80635be612c71161013e5780638322fff2116101185780638322fff2146102cd5780638da5cb5b146102e257806393dc415d146102f7578063a31bee72146103175761018c565b80635be612c714610278578063715018a6146102985780637885413f146102ad5761018c565b806307b7ed9914610191578063318c136e146101b357806335d0d5dc146101de57806345198585146101fe5780634c999f5e1461022b578063560a0b8e146102585761018c565b3661018c57005b600080fd5b34801561019d57600080fd5b506101b16101ac366004611387565b61049e565b005b3480156101bf57600080fd5b506101c861052d565b6040516101d591906115b2565b60405180910390f35b3480156101ea57600080fd5b506101c86101f936600461140a565b61053c565b34801561020a57600080fd5b5061021e61021936600461140a565b610557565b6040516101d59190611637565b34801561023757600080fd5b5061024b610246366004611387565b610569565b6040516101d5919061162c565b34801561026457600080fd5b5061024b610273366004611387565b61057e565b34801561028457600080fd5b506101c861029336600461140a565b610593565b3480156102a457600080fd5b506101b16105ae565b3480156102b957600080fd5b5061021e6102c83660046114f5565b610637565b3480156102d957600080fd5b506101c8610654565b3480156102ee57600080fd5b506101c8610659565b34801561030357600080fd5b5061021e610312366004611387565b610668565b34801561032357600080fd5b506101b16103323660046114f5565b61067a565b34801561034357600080fd5b506101b1610352366004611516565b6106cb565b34801561036357600080fd5b506101b1610372366004611451565b610726565b34801561038357600080fd5b5061021e6108b7565b34801561039857600080fd5b506101b16103a7366004611422565b6108bc565b3480156103b857600080fd5b506101b16103c7366004611422565b610929565b3480156103d857600080fd5b506101b16103e7366004611387565b6109a3565b3480156103f857600080fd5b5061021e610a4a565b34801561040d57600080fd5b506101b161041c3660046113aa565b610a4f565b6101b161042f366004611451565b610aaf565b34801561044057600080fd5b5061021e610b78565b34801561045557600080fd5b5061021e610b7d565b34801561046a57600080fd5b506101b16104793660046114ab565b610b82565b34801561048a57600080fd5b506101b1610499366004611387565b610de2565b6065546001600160a01b031633146104d15760405162461bcd60e51b81526004016104c890611872565b60405180910390fd5b6001600160a01b03811660009081526069602052604090205460ff166105095760405162461bcd60e51b81526004016104c8906118c3565b6001600160a01b03166000908152606860205260409020805460ff19166001179055565b6065546001600160a01b031681565b6066602052600090815260409020546001600160a01b031681565b606b6020526000908152604090205481565b60696020526000908152604090205460ff1681565b60686020526000908152604090205460ff1681565b606a602052600090815260409020546001600160a01b031681565b6105b6610ea3565b6001600160a01b03166105c7610659565b6001600160a01b0316146105ed5760405162461bcd60e51b81526004016104c890611769565b6033546040516000916001600160a01b0316907f8be0079c531659141344cd1fd0a4f28419497f9722a3daafe3b4186f6b6457e0908390a3603380546001600160a01b0319169055565b606c60209081526000928352604080842090915290825290205481565b600081565b6033546001600160a01b031690565b60676020526000908152604090205481565b610682610ea3565b6001600160a01b0316610693610659565b6001600160a01b0316146106b95760405162461bcd60e51b81526004016104c890611769565b6000918252606b602052604090912055565b6106d3610ea3565b6001600160a01b03166106e4610659565b6001600160a01b03161461070a5760405162461bcd60e51b81526004016104c890611769565b6000928352606c60209081526040808520938552929052912055565b6065546001600160a01b031633146107505760405162461bcd60e51b81526004016104c890611872565b60008061075f838501856114f5565b6000888152606660209081526040808320546001600160a01b03168084526069909252909120549294509092509060ff166107ac5760405162461bcd60e51b81526004016104c8906117c8565b6001600160a01b03811660009081526068602052604090205460ff1615610860576000878152606b60205260409020548210156107fb5760405162461bcd60e51b81526004016104c89061183b565b60405163079cc67960e41b81526001600160a01b038216906379cc6790906108299089908690600401611613565b600060405180830381600087803b15801561084357600080fd5b505af1158015610857573d6000803e3d6000fd5b505050506108ae565b6000878152606c602090815260408083208684529091529020548210156108995760405162461bcd60e51b81526004016104c8906116bd565b6108ae6001600160a01b038216873085610ea7565b50505050505050565b606481565b6108c4610ea3565b6001600160a01b03166108d5610659565b6001600160a01b0316146108fb5760405162461bcd60e51b81526004016104c890611769565b6000918252606a602052604090912080546001600160a01b0319166001600160a01b03909216919091179055565b6065546001600160a01b031633146109535760405162461bcd60e51b81526004016104c890611872565b600082815260666020908152604080832080546001600160a01b039095166001600160a01b031990951685179055928252606781528282209390935560699092529020805460ff19166001179055565b600054610100900460ff16806109bc57506109bc610f98565b806109ca575060005460ff16155b6109e65760405162461bcd60e51b81526004016104c8906116f4565b600054610100900460ff16158015610a11576000805460ff1961ff0019909116610100171660011790555b610a19610fa9565b606580546001600160a01b0319166001600160a01b0384161790558015610a46576000805461ff00191690555b5050565b60d781565b6065546001600160a01b03163314610a795760405162461bcd60e51b81526004016104c890611872565b6001600160a01b038316610a9657610a91828261103c565b610aaa565b610aaa6001600160a01b03841683836110c9565b505050565b6065546001600160a01b03163314610ad95760405162461bcd60e51b81526004016104c890611872565b600080610ae8838501856114f5565b9092509050348114610af957600080fd5b6000868152606660209081526040808320546001600160a01b031680845260699092529091205460ff16610b3f5760405162461bcd60e51b81526004016104c8906117c8565b6000878152606c602090815260408083208684529091529020548210156108ae5760405162461bcd60e51b81526004016104c8906116bd565b606981565b606e81565b6065546001600160a01b03163314610bac5760405162461bcd60e51b81526004016104c890611872565b60008080610bbc84860186611541565b6000898152606660209081526040808320546001600160a01b031680845260699092529091205493965091945092509060ff16610c0b5760405162461bcd60e51b81526004016104c8906117c8565b6001600160a01b03811660009081526068602052604090205460ff1615610d79576000848152606a60205260409020546001600160a01b031680610cae576040516340c10f1960e01b81526001600160a01b038316906340c10f1990610c779086908890600401611613565b600060405180830381600087803b158015610c9157600080fd5b505af1158015610ca5573d6000803e3d6000fd5b50505050610d73565b6040516340c10f1960e01b81526001600160a01b038316906340c10f1990610cdc9084908890600401611613565b600060405180830381600087803b158015610cf657600080fd5b505af1158015610d0a573d6000803e3d6000fd5b5050604051633118000d60e11b81526001600160a01b0384169250636230001a9150610d4090859087908a908a906004016115ea565b600060405180830381600087803b158015610d5a57600080fd5b505af1158015610d6e573d6000803e3d6000fd5b505050505b506108ae565b6001600160a01b038116610db1576000878152606b6020526040902054610dac908390610da79086906111b7565b61103c565b6108ae565b6000878152606b60205260409020546108ae908390610dd19086906111b7565b6001600160a01b03841691906110c9565b610dea610ea3565b6001600160a01b0316610dfb610659565b6001600160a01b031614610e215760405162461bcd60e51b81526004016104c890611769565b6001600160a01b038116610e475760405162461bcd60e51b81526004016104c890611640565b6033546040516001600160a01b038084169216907f8be0079c531659141344cd1fd0a4f28419497f9722a3daafe3b4186f6b6457e090600090a3603380546001600160a01b0319166001600160a01b0392909216919091179055565b3390565b60006060856001600160a01b03166323b872dd868686604051602401610ecf939291906115c6565b6040516020818303038152906040529060e01b6020820180516001600160e01b038381831617835250505050604051610f089190611579565b6000604051808303816000865af19150503d8060008114610f45576040519150601f19603f3d011682016040523d82523d6000602084013e610f4a565b606091505b5091509150818015610f74575080511580610f74575080806020019051810190610f7491906113ea565b610f905760405162461bcd60e51b81526004016104c890611810565b505050505050565b6000610fa3306111df565b15905090565b600054610100900460ff1680610fc25750610fc2610f98565b80610fd0575060005460ff16155b610fec5760405162461bcd60e51b81526004016104c8906116f4565b600054610100900460ff16158015611017576000805460ff1961ff0019909116610100171660011790555b61101f6111e5565b611027611266565b8015611039576000805461ff00191690555b50565b604080516000808252602082019092526001600160a01b0384169083906040516110669190611579565b60006040518083038185875af1925050503d80600081146110a3576040519150601f19603f3d011682016040523d82523d6000602084013e6110a8565b606091505b5050905080610aaa5760405162461bcd60e51b81526004016104c89061179e565b60006060846001600160a01b031663a9059cbb85856040516024016110ef929190611613565b6040516020818303038152906040529060e01b6020820180516001600160e01b0383818316178352505050506040516111289190611579565b6000604051808303816000865af19150503d8060008114611165576040519150601f19603f3d011682016040523d82523d6000602084013e61116a565b606091505b509150915081801561119457508051158061119457508080602001905181019061119491906113ea565b6111b05760405162461bcd60e51b81526004016104c890611742565b5050505050565b6000828211156111d95760405162461bcd60e51b81526004016104c890611686565b50900390565b3b151590565b600054610100900460ff16806111fe57506111fe610f98565b8061120c575060005460ff16155b6112285760405162461bcd60e51b81526004016104c8906116f4565b600054610100900460ff16158015611027576000805460ff1961ff0019909116610100171660011790558015611039576000805461ff001916905550565b600054610100900460ff168061127f575061127f610f98565b8061128d575060005460ff16155b6112a95760405162461bcd60e51b81526004016104c8906116f4565b600054610100900460ff161580156112d4576000805460ff1961ff0019909116610100171660011790555b60006112de610ea3565b603380546001600160a01b0319166001600160a01b038316908117909155604051919250906000907f8be0079c531659141344cd1fd0a4f28419497f9722a3daafe3b4186f6b6457e0908290a3508015611039576000805461ff001916905550565b60008083601f840112611351578182fd5b50813567ffffffffffffffff811115611368578182fd5b60208301915083602082850101111561138057600080fd5b9250929050565b600060208284031215611398578081fd5b81356113a381611916565b9392505050565b6000806000606084860312156113be578182fd5b83356113c981611916565b925060208401356113d981611916565b929592945050506040919091013590565b6000602082840312156113fb578081fd5b815180151581146113a3578182fd5b60006020828403121561141b578081fd5b5035919050565b60008060408385031215611434578182fd5b82359150602083013561144681611916565b809150509250929050565b60008060008060608587031215611466578081fd5b84359350602085013561147881611916565b9250604085013567ffffffffffffffff811115611493578182fd5b61149f87828801611340565b95989497509550505050565b6000806000604084860312156114bf578283fd5b83359250602084013567ffffffffffffffff8111156114dc578283fd5b6114e886828701611340565b9497909650939450505050565b60008060408385031215611507578182fd5b50508035926020909101359150565b60008060006060848603121561152a578283fd5b505081359360208301359350604090920135919050565b600080600060608486031215611555578283fd5b8335925060208401359150604084013561156e81611916565b809150509250925092565b60008251815b81811015611599576020818601810151858301520161157f565b818111156115a75782828501525b509190910192915050565b6001600160a01b0391909116815260200190565b6001600160a01b039384168152919092166020820152604081019190915260600190565b6001600160a01b0394851681529290931660208301526040820152606081019190915260800190565b6001600160a01b03929092168252602082015260400190565b901515815260200190565b90815260200190565b60208082526026908201527f4f776e61626c653a206e6577206f776e657220697320746865207a65726f206160408201526564647265737360d01b606082015260800190565b6020808252601e908201527f536166654d6174683a207375627472616374696f6e206f766572666c6f770000604082015260600190565b60208082526018908201527f6c657373207468616e206d696e696d756d20616d6f756e740000000000000000604082015260600190565b6020808252602e908201527f496e697469616c697a61626c653a20636f6e747261637420697320616c72656160408201526d191e481a5b9a5d1a585b1a5e995960921b606082015260800190565b6020808252600d908201526c10b9b0b332aa3930b739b332b960991b604082015260600190565b6020808252818101527f4f776e61626c653a2063616c6c6572206973206e6f7420746865206f776e6572604082015260600190565b60208082526010908201526f042e6c2cccaa8e4c2dce6cccae48aa8960831b604082015260600190565b60208082526028908201527f70726f766964656420746f6b656e41646472657373206973206e6f74207768696040820152671d195b1a5cdd195960c21b606082015260800190565b60208082526011908201527021736166655472616e7366657246726f6d60781b604082015260600190565b60208082526018908201527f6c657373207468616e207769746864726177616c206665650000000000000000604082015260600190565b60208082526031908201527f5142726964676548616e646c65723a2063616c6c6572206973206e6f742074686040820152701948189c9a5919d94818dbdb9d1c9858dd607a1b606082015260800190565b60208082526033908201527f5142726964676548616e646c65723a20636f6e74726163742061646472657373604082015272081a5cc81b9bdd081dda1a5d195b1a5cdd1959606a1b606082015260800190565b6001600160a01b038116811461103957600080fdfea2646970667358221220df407bbc22a54ae297938a455353023096279bc91de954b7bb5aeb9aa5c50c8c64736f6c634300060c0033","linkReferences":{}},"methodIdentifiers":{"ETH()":"8322fff2","OPTION_BUNNY_XLP_0150()":"ca0d9fc4","OPTION_QUBIT_BNB_0050()":"e0a45ff3","OPTION_QUBIT_BNB_0100()":"e1de99d3","OPTION_QUBIT_BNB_NONE()":"b1a83e42","_bridgeAddress()":"318c136e","burnList(address)":"560a0b8e","contractWhitelist(address)":"4c999f5e","delegators(uint256)":"5be612c7","deposit(bytes32,address,bytes)":"b07e54bb","depositETH(bytes32,address,bytes)":"d9f56b7f","executeProposal(bytes32,bytes)":"e248cff2","initialize(address)":"c4d66de8","minAmounts(bytes32,uint256)":"7885413f","owner()":"8da5cb5b","renounceOwnership()":"715018a6","resourceIDToTokenContractAddress(bytes32)":"35d0d5dc","setBurnable(address)":"07b7ed99","setDelegator(uint256,address)":"b54ce96f","setMinDepositAmount(bytes32,uint256,uint256)":"aa52df9f","setResource(bytes32,address)":"b8fa3736","setWithdrawalFee(bytes32,uint256)":"a31bee72","tokenContractAddressToResourceID(address)":"93dc415d","transferOwnership(address)":"f2fde38b","withdraw(address,address,uint256)":"d9caed12","withdrawalFees(bytes32)":"45198585"},"storageLayout":{"storage":[{"astId":137,"contract":"src/bridge/QBridgeHandler.sol:QBridgeHandler","label":"_initialized","offset":0,"slot":"0","type":"t_bool"},{"astId":140,"contract":"src/bridge/QBridgeHandler.sol:QBridgeHandler","label":"_initializing","offset":1,"slot":"0","type":"t_bool"},{"astId":484,"contract":"src/bridge/QBridgeHandler.sol:QBridgeHandler","label":"__gap","offset":0,"slot":"1","type":"t_array(t_uint256)50_storage"},{"astId":10,"contract":"src/bridge/QBridgeHandler.sol:QBridgeHandler","label":"_owner","offset":0,"slot":"51","type":"t_address"},{"astId":129,"contract":"src/bridge/QBridgeHandler.sol:QBridgeHandler","label":"__gap","offset":0,"slot":"52","type":"t_array(t_uint256)49_storage"},{"astId":977,"contract":"src/bridge/QBridgeHandler.sol:QBridgeHandler","label":"_bridgeAddress","offset":0,"slot":"101","type":"t_address"},{"astId":981,"contract":"src/bridge/QBridgeHandler.sol:QBridgeHandler","label":"resourceIDToTokenContractAddress","offset":0,"slot":"102","type":"t_mapping(t_bytes32,t_address)"},{"astId":985,"contract":"src/bridge/QBridgeHandler.sol:QBridgeHandler","label":"tokenContractAddressToResourceID","offset":0,"slot":"103","type":"t_mapping(t_address,t_bytes32)"},{"astId":989,"contract":"src/bridge/QBridgeHandler.sol:QBridgeHandler","label":"burnList","offset":0,"slot":"104","type":"t_mapping(t_address,t_bool)"},{"astId":993,"contract":"src/bridge/QBridgeHandler.sol:QBridgeHandler","label":"contractWhitelist","offset":0,"slot":"105","type":"t_mapping(t_address,t_bool)"},{"astId":997,"contract":"src/bridge/QBridgeHandler.sol:QBridgeHandler","label":"delegators","offset":0,"slot":"106","type":"t_mapping(t_uint256,t_address)"},{"astId":1001,"contract":"src/bridge/QBridgeHandler.sol:QBridgeHandler","label":"withdrawalFees","offset":0,"slot":"107","type":"t_mapping(t_bytes32,t_uint256)"},{"astId":1007,"contract":"src/bridge/QBridgeHandler.sol:QBridgeHandler","label":"minAmounts","offset":0,"slot":"108","type":"t_mapping(t_bytes32,t_mapping(t_uint256,t_uint256))"}],"types":{"t_address":{"encoding":"inplace","label":"address","numberOfBytes":"20"},"t_array(t_uint256)49_storage":{"encoding":"inplace","label":"uint256[49]","numberOfBytes":"1568","base":"t_uint256"},"t_array(t_uint256)50_storage":{"encoding":"inplace","label":"uint256[50]","numberOfBytes":"1600","base":"t_uint256"},"t_bool":{"encoding":"inplace","label":"bool","numberOfBytes":"1"},"t_bytes32":{"encoding":"inplace","label":"bytes32","numberOfBytes":"32"},"t_mapping(t_address,t_bool)":{"encoding":"mapping","key":"t_address","label":"mapping(address => bool)","numberOfBytes":"32","value":"t_bool"},"t_mapping(t_address,t_bytes32)":{"encoding":"mapping","key":"t_address","label":"mapping(address => bytes32)","numberOfBytes":"32","value":"t_bytes32"},"t_mapping(t_bytes32,t_address)":{"encoding":"mapping","key":"t_bytes32","label":"mapping(bytes32 => address)","numberOfBytes":"32","value":"t_address"},"t_mapping(t_bytes32,t_mapping(t_uint256,t_uint256))":{"encoding":"mapping","key":"t_bytes32","label":"mapping(bytes32 => mapping(uint256 => uint256))","numberOfBytes":"32","value":"t_mapping(t_uint256,t_uint256)"},"t_mapping(t_bytes32,t_uint256)":{"encoding":"mapping","key":"t_bytes32","label":"mapping(bytes32 => uint256)","numberOfBytes":"32","value":"t_uint256"},"t_mapping(t_uint256,t_address)":{"encoding":"mapping","key":"t_uint256","label":"mapping(uint256 => address)","numberOfBytes":"32","value":"t_address"},"t_mapping(t_uint256,t_uint256)":{"encoding":"mapping","key":"t_uint256","label":"mapping(uint256 => uint256)","numberOfBytes":"32","value":"t_uint256"},"t_uint256":{"encoding":"inplace","label":"uint256","numberOfBytes":"32"}}},"id":6}