{"abi":[{"type":"constructor","inputs":[{"name":"_sushi","type":"address","internalType":"contract IERC20"}],"stateMutability":"nonpayable"},{"type":"function","name":"allowance","inputs":[{"name":"owner","type":"address","internalType":"address"},{"name":"spender","type":"address","internalType":"address"}],"outputs":[{"name":"","type":"uint256","internalType":"uint256"}],"stateMutability":"view"},{"type":"function","name":"approve","inputs":[{"name":"spender","type":"address","internalType":"address"},{"name":"amount","type":"uint256","internalType":"uint256"}],"outputs":[{"name":"","type":"bool","internalType":"bool"}],"stateMutability":"nonpayable"},{"type":"function","name":"balanceOf","inputs":[{"name":"account","type":"address","internalType":"address"}],"outputs":[{"name":"","type":"uint256","internalType":"uint256"}],"stateMutability":"view"},{"type":"function","name":"decimals","inputs":[],"outputs":[{"name":"","type":"uint8","internalType":"uint8"}],"stateMutability":"view"},{"type":"function","name":"decreaseAllowance","inputs":[{"name":"spender","type":"address","internalType":"address"},{"name":"subtractedValue","type":"uint256","internalType":"uint256"}],"outputs":[{"name":"","type":"bool","internalType":"bool"}],"stateMutability":"nonpayable"},{"type":"function","name":"enter","inputs":[{"name":"_amount","type":"uint256","internalType":"uint256"}],"outputs":[],"stateMutability":"nonpayable"},{"type":"function","name":"increaseAllowance","inputs":[{"name":"spender","type":"address","internalType":"address"},{"name":"addedValue","type":"uint256","internalType":"uint256"}],"outputs":[{"name":"","type":"bool","internalType":"bool"}],"stateMutability":"nonpayable"},{"type":"function","name":"leave","inputs":[{"name":"_share","type":"uint256","internalType":"uint256"}],"outputs":[],"stateMutability":"nonpayable"},{"type":"function","name":"name","inputs":[],"outputs":[{"name":"","type":"string","internalType":"string"}],"stateMutability":"view"},{"type":"function","name":"sushi","inputs":[],"outputs":[{"name":"","type":"address","internalType":"contract IERC20"}],"stateMutability":"view"},{"type":"function","name":"symbol","inputs":[],"outputs":[{"name":"","type":"string","internalType":"string"}],"stateMutability":"view"},{"type":"function","name":"totalSupply","inputs":[],"outputs":[{"name":"","type":"uint256","internalType":"uint256"}],"stateMutability":"view"},{"type":"function","name":"transfer","inputs":[{"name":"recipient","type":"address","internalType":"address"},{"name":"amount","type":"uint256","internalType":"uint256"}],"outputs":[{"name":"","type":"bool","internalType":"bool"}],"stateMutability":"nonpayable"},{"type":"function","name":"transferFrom","inputs":[{"name":"sender","type":"address","internalType":"address"},{"name":"recipient","type":"address","internalType":"address"},{"name":"amount","type":"uint256","internalType":"uint256"}],"outputs":[{"name":"","type":"bool","internalType":"bool"}],"stateMutability":"nonpayable"},{"type":"event","name":"Approval","inputs":[{"name":"owner","type":"address","indexed":true,"internalType":"address"},{"name":"spender","type":"address","indexed":true,"internalType":"address"},{"name":"value","type":"uint256","indexed":false,"internalType":"uint256"}],"anonymous":false},{"type":"event","name":"Transfer","inputs":[{"name":"from","type":"address","indexed":true,"internalType":"address"},{"name":"to","type":"address","indexed":true,"internalType":"address"},{"name":"value","type":"uint256","indexed":false,"internalType":"uint256"}],"anonymous":false}],"bytecode":{"object":"0x608060405234801561001057600080fd5b5060405162001219380380620012198339818101604052602081101561003557600080fd5b5051604080518082018252600b81526a0dc6060c840eed2e8d040b60ab1b602082810191825283518085019094526005845264161b8c0c1960da1b908401528151919291610085916003916100d2565b5080516100999060049060208401906100d2565b5050600580546001600160a01b0390931661010002610100600160a81b031960ff19909416601217939093169290921790915550610165565b828054600181600116156101000203166002900490600052602060002090601f016020900481019282601f1061011357805160ff1916838001178555610140565b82800160010185558215610140579182015b82811115610140578251825591602001919060010190610125565b5061014c929150610150565b5090565b5b8082111561014c5760008155600101610151565b6110a480620001756000396000f3fe608060405234801561001057600080fd5b50600436106100ea5760003560e01c806367dfd4c91161008c578063a457c2d711610066578063a457c2d7146102b7578063a59f3e0c146102e3578063a9059cbb14610300578063dd62ed3e1461032c576100ea565b806367dfd4c91461026a57806370a082311461028957806395d89b41146102af576100ea565b806318160ddd116100c857806318160ddd146101d057806323b872dd146101ea578063313ce56714610220578063395093511461023e576100ea565b806306fdde03146100ef578063095ea7b31461016c5780630a087903146101ac575b600080fd5b6100f761035a565b6040805160208082528351818301528351919283929083019185019080838360005b83811015610131578181015183820152602001610119565b50505050905090810190601f16801561015e5780820380516001836020036101000a031916815260200191505b509250505060405180910390f35b6101986004803603604081101561018257600080fd5b506001600160a01b0381351690602001356103f0565b604080519115158252519081900360200190f35b6101b461040e565b604080516001600160a01b039092168252519081900360200190f35b6101d8610422565b60408051918252519081900360200190f35b6101986004803603606081101561020057600080fd5b506001600160a01b03813581169160208101359091169060400135610428565b6102286104af565b6040805160ff9092168252519081900360200190f35b6101986004803603604081101561025457600080fd5b506001600160a01b0381351690602001356104b8565b6102876004803603602081101561028057600080fd5b5035610506565b005b6101d86004803603602081101561029f57600080fd5b50356001600160a01b031661064b565b6100f7610666565b610198600480360360408110156102cd57600080fd5b506001600160a01b0381351690602001356106c7565b610287600480360360208110156102f957600080fd5b503561072f565b6101986004803603604081101561031657600080fd5b506001600160a01b038135169060200135610854565b6101d86004803603604081101561034257600080fd5b506001600160a01b0381358116916020013516610868565b60038054604080516020601f60026000196101006001881615020190951694909404938401819004810282018101909252828152606093909290918301828280156103e65780601f106103bb576101008083540402835291602001916103e6565b820191906000526020600020905b8154815290600101906020018083116103c957829003601f168201915b5050505050905090565b60006104046103fd610893565b8484610897565b5060015b92915050565b60055461010090046001600160a01b031681565b60025490565b6000610435848484610983565b6104a584610441610893565b6104a085604051806060016040528060288152602001610fb8602891396001600160a01b038a1660009081526001602052604081209061047f610893565b6001600160a01b031681526020810191909152604001600020549190610ade565b610897565b5060019392505050565b60055460ff1690565b60006104046104c5610893565b846104a085600160006104d6610893565b6001600160a01b03908116825260208083019390935260409182016000908120918c168152925290205490610b75565b6000610510610422565b905060006105b6826105b0600560019054906101000a90046001600160a01b03166001600160a01b03166370a08231306040518263ffffffff1660e01b815260040180826001600160a01b0316815260200191505060206040518083038186803b15801561057d57600080fd5b505afa158015610591573d6000803e3d6000fd5b505050506040513d60208110156105a757600080fd5b50518690610bd6565b90610c2f565b90506105c23384610c71565b6005546040805163a9059cbb60e01b81523360048201526024810184905290516101009092046001600160a01b03169163a9059cbb916044808201926020929091908290030181600087803b15801561061a57600080fd5b505af115801561062e573d6000803e3d6000fd5b505050506040513d602081101561064457600080fd5b5050505050565b6001600160a01b031660009081526020819052604090205490565b60048054604080516020601f60026000196101006001881615020190951694909404938401819004810282018101909252828152606093909290918301828280156103e65780601f106103bb576101008083540402835291602001916103e6565b60006104046106d4610893565b846104a08560405180606001604052806025815260200161104a60259139600160006106fe610893565b6001600160a01b03908116825260208083019390935260409182016000908120918d16815292529020549190610ade565b600554604080516370a0823160e01b8152306004820152905160009261010090046001600160a01b0316916370a08231916024808301926020929190829003018186803b15801561077f57600080fd5b505afa158015610793573d6000803e3d6000fd5b505050506040513d60208110156107a957600080fd5b5051905060006107b7610422565b90508015806107c4575081155b156107d8576107d33384610d6d565b6107f6565b60006107e8836105b08685610bd6565b90506107f43382610d6d565b505b600554604080516323b872dd60e01b81523360048201523060248201526044810186905290516101009092046001600160a01b0316916323b872dd916064808201926020929091908290030181600087803b15801561061a57600080fd5b6000610404610861610893565b8484610983565b6001600160a01b03918216600090815260016020908152604080832093909416825291909152205490565b3390565b6001600160a01b0383166108dc5760405162461bcd60e51b81526004018080602001828103825260248152602001806110266024913960400191505060405180910390fd5b6001600160a01b0382166109215760405162461bcd60e51b8152600401808060200182810382526022815260200180610f4f6022913960400191505060405180910390fd5b6001600160a01b03808416600081815260016020908152604080832094871680845294825291829020859055815185815291517f8c5be1e5ebec7d5bd14f71427d1e84f3dd0314c0f7b2291e5b200ac8c7c3b9259281900390910190a3505050565b6001600160a01b0383166109c85760405162461bcd60e51b81526004018080602001828103825260258152602001806110016025913960400191505060405180910390fd5b6001600160a01b038216610a0d5760405162461bcd60e51b8152600401808060200182810382526023815260200180610f0a6023913960400191505060405180910390fd5b610a18838383610e5d565b610a5581604051806060016040528060268152602001610f71602691396001600160a01b0386166000908152602081905260409020549190610ade565b6001600160a01b038085166000908152602081905260408082209390935590841681522054610a849082610b75565b6001600160a01b038084166000818152602081815260409182902094909455805185815290519193928716927fddf252ad1be2c89b69c2b068fc378daa952ba7f163c4a11628f55a4df523b3ef92918290030190a3505050565b60008184841115610b6d5760405162461bcd60e51b81526004018080602001828103825283818151815260200191508051906020019080838360005b83811015610b32578181015183820152602001610b1a565b50505050905090810190601f168015610b5f5780820380516001836020036101000a031916815260200191505b509250505060405180910390fd5b505050900390565b600082820183811015610bcf576040805162461bcd60e51b815260206004820152601b60248201527f536166654d6174683a206164646974696f6e206f766572666c6f770000000000604482015290519081900360640190fd5b9392505050565b600082610be557506000610408565b82820282848281610bf257fe5b0414610bcf5760405162461bcd60e51b8152600401808060200182810382526021815260200180610f976021913960400191505060405180910390fd5b6000610bcf83836040518060400160405280601a81526020017f536166654d6174683a206469766973696f6e206279207a65726f000000000000815250610e62565b6001600160a01b038216610cb65760405162461bcd60e51b8152600401808060200182810382526021815260200180610fe06021913960400191505060405180910390fd5b610cc282600083610e5d565b610cff81604051806060016040528060228152602001610f2d602291396001600160a01b0385166000908152602081905260409020549190610ade565b6001600160a01b038316600090815260208190526040902055600254610d259082610ec7565b6002556040805182815290516000916001600160a01b038516917fddf252ad1be2c89b69c2b068fc378daa952ba7f163c4a11628f55a4df523b3ef9181900360200190a35050565b6001600160a01b038216610dc8576040805162461bcd60e51b815260206004820152601f60248201527f45524332303a206d696e7420746f20746865207a65726f206164647265737300604482015290519081900360640190fd5b610dd460008383610e5d565b600254610de19082610b75565b6002556001600160a01b038216600090815260208190526040902054610e079082610b75565b6001600160a01b0383166000818152602081815260408083209490945583518581529351929391927fddf252ad1be2c89b69c2b068fc378daa952ba7f163c4a11628f55a4df523b3ef9281900390910190a35050565b505050565b60008183610eb15760405162461bcd60e51b8152602060048201818152835160248401528351909283926044909101919085019080838360008315610b32578181015183820152602001610b1a565b506000838581610ebd57fe5b0495945050505050565b6000610bcf83836040518060400160405280601e81526020017f536166654d6174683a207375627472616374696f6e206f766572666c6f770000815250610ade56fe45524332303a207472616e7366657220746f20746865207a65726f206164647265737345524332303a206275726e20616d6f756e7420657863656564732062616c616e636545524332303a20617070726f766520746f20746865207a65726f206164647265737345524332303a207472616e7366657220616d6f756e7420657863656564732062616c616e6365536166654d6174683a206d756c7469706c69636174696f6e206f766572666c6f7745524332303a207472616e7366657220616d6f756e74206578636565647320616c6c6f77616e636545524332303a206275726e2066726f6d20746865207a65726f206164647265737345524332303a207472616e736665722066726f6d20746865207a65726f206164647265737345524332303a20617070726f76652066726f6d20746865207a65726f206164647265737345524332303a2064656372656173656420616c6c6f77616e63652062656c6f77207a65726fa2646970667358221220265f59033f0c066d4ba37cc0c7aca158c80500953a0db4df67d8be445a5abcf064736f6c634300060c0033","linkReferences":{}},"methodIdentifiers":{"allowance(address,address)":"dd62ed3e","approve(address,uint256)":"095ea7b3","balanceOf(address)":"70a08231","decimals()":"313ce567","decreaseAllowance(address,uint256)":"a457c2d7","enter(uint256)":"a59f3e0c","increaseAllowance(address,uint256)":"39509351","leave(uint256)":"67dfd4c9","name()":"06fdde03","sushi()":"0a087903","symbol()":"95d89b41","totalSupply()":"18160ddd","transfer(address,uint256)":"a9059cbb","transferFrom(address,address,uint256)":"23b872dd"},"storageLayout":{"storage":[{"astId":513,"contract":"src/Contract.sol:SushiBar","label":"_balances","offset":0,"slot":"0","type":"t_mapping(t_address,t_uint256)"},{"astId":519,"contract":"src/Contract.sol:SushiBar","label":"_allowances","offset":0,"slot":"1","type":"t_mapping(t_address,t_mapping(t_address,t_uint256))"},{"astId":521,"contract":"src/Contract.sol:SushiBar","label":"_totalSupply","offset":0,"slot":"2","type":"t_uint256"},{"astId":523,"contract":"src/Contract.sol:SushiBar","label":"_name","offset":0,"slot":"3","type":"t_string_storage"},{"astId":525,"contract":"src/Contract.sol:SushiBar","label":"_symbol","offset":0,"slot":"4","type":"t_string_storage"},{"astId":527,"contract":"src/Contract.sol:SushiBar","label":"_decimals","offset":0,"slot":"5","type":"t_uint8"},{"astId":1009,"contract":"src/Contract.sol:SushiBar","label":"sushi","offset":1,"slot":"5","type":"t_contract(IERC20)77"}],"types":{"t_address":{"encoding":"inplace","label":"address","numberOfBytes":"20"},"t_contract(IERC20)77":{"encoding":"inplace","label":"contract IERC20","numberOfBytes":"20"},"t_mapping(t_address,t_mapping(t_address,t_uint256))":{"encoding":"mapping","key":"t_address","label":"mapping(address => mapping(address => uint256))","numberOfBytes":"32","value":"t_mapping(t_address,t_uint256)"},"t_mapping(t_address,t_uint256)":{"encoding":"mapping","key":"t_address","label":"mapping(address => uint256)","numberOfBytes":"32","value":"t_uint256"},"t_string_storage":{"encoding":"bytes","label":"string","numberOfBytes":"32"},"t_uint256":{"encoding":"inplace","label":"uint256","numberOfBytes":"32"},"t_uint8":{"encoding":"inplace","label":"uint8","numberOfBytes":"1"}}},"id":0}