{"abi":[{"type":"function","name":"allowance","inputs":[{"name":"owner","type":"address","internalType":"address"},{"name":"spender","type":"address","internalType":"address"}],"outputs":[{"name":"","type":"uint256","internalType":"uint256"}],"stateMutability":"view"},{"type":"function","name":"approve","inputs":[{"name":"spender","type":"address","internalType":"address"},{"name":"amount","type":"uint256","internalType":"uint256"}],"outputs":[{"name":"","type":"bool","internalType":"bool"}],"stateMutability":"nonpayable"},{"type":"function","name":"balanceOf","inputs":[{"name":"account","type":"address","internalType":"address"}],"outputs":[{"name":"","type":"uint256","internalType":"uint256"}],"stateMutability":"view"},{"type":"function","name":"burn","inputs":[{"name":"amount","type":"uint256","internalType":"uint256"}],"outputs":[{"name":"","type":"bool","internalType":"bool"}],"stateMutability":"nonpayable"},{"type":"function","name":"burnFrom","inputs":[{"name":"account","type":"address","internalType":"address"},{"name":"amount","type":"uint256","internalType":"uint256"}],"outputs":[],"stateMutability":"nonpayable"},{"type":"function","name":"decimals","inputs":[],"outputs":[{"name":"","type":"uint8","internalType":"uint8"}],"stateMutability":"view"},{"type":"function","name":"decreaseAllowance","inputs":[{"name":"spender","type":"address","internalType":"address"},{"name":"subtractedValue","type":"uint256","internalType":"uint256"}],"outputs":[{"name":"","type":"bool","internalType":"bool"}],"stateMutability":"nonpayable"},{"type":"function","name":"getOwner","inputs":[],"outputs":[{"name":"","type":"address","internalType":"address"}],"stateMutability":"view"},{"type":"function","name":"increaseAllowance","inputs":[{"name":"spender","type":"address","internalType":"address"},{"name":"addedValue","type":"uint256","internalType":"uint256"}],"outputs":[{"name":"","type":"bool","internalType":"bool"}],"stateMutability":"nonpayable"},{"type":"function","name":"initialize","inputs":[{"name":"name","type":"string","internalType":"string"},{"name":"symbol","type":"string","internalType":"string"},{"name":"decimals","type":"uint8","internalType":"uint8"}],"outputs":[],"stateMutability":"nonpayable"},{"type":"function","name":"isMinter","inputs":[{"name":"account","type":"address","internalType":"address"}],"outputs":[{"name":"","type":"bool","internalType":"bool"}],"stateMutability":"view"},{"type":"function","name":"mint","inputs":[{"name":"_to","type":"address","internalType":"address"},{"name":"_amount","type":"uint256","internalType":"uint256"}],"outputs":[],"stateMutability":"nonpayable"},{"type":"function","name":"name","inputs":[],"outputs":[{"name":"","type":"string","internalType":"string"}],"stateMutability":"view"},{"type":"function","name":"owner","inputs":[],"outputs":[{"name":"","type":"address","internalType":"address"}],"stateMutability":"view"},{"type":"function","name":"renounceOwnership","inputs":[],"outputs":[],"stateMutability":"nonpayable"},{"type":"function","name":"setMinter","inputs":[{"name":"minter","type":"address","internalType":"address"},{"name":"canMint","type":"bool","internalType":"bool"}],"outputs":[],"stateMutability":"nonpayable"},{"type":"function","name":"symbol","inputs":[],"outputs":[{"name":"","type":"string","internalType":"string"}],"stateMutability":"view"},{"type":"function","name":"totalSupply","inputs":[],"outputs":[{"name":"","type":"uint256","internalType":"uint256"}],"stateMutability":"view"},{"type":"function","name":"transfer","inputs":[{"name":"recipient","type":"address","internalType":"address"},{"name":"amount","type":"uint256","internalType":"uint256"}],"outputs":[{"name":"","type":"bool","internalType":"bool"}],"stateMutability":"nonpayable"},{"type":"function","name":"transferFrom","inputs":[{"name":"sender","type":"address","internalType":"address"},{"name":"recipient","type":"address","internalType":"address"},{"name":"amount","type":"uint256","internalType":"uint256"}],"outputs":[{"name":"","type":"bool","internalType":"bool"}],"stateMutability":"nonpayable"},{"type":"function","name":"transferOwnership","inputs":[{"name":"newOwner","type":"address","internalType":"address"}],"outputs":[],"stateMutability":"nonpayable"},{"type":"event","name":"Approval","inputs":[{"name":"owner","type":"address","indexed":true,"internalType":"address"},{"name":"spender","type":"address","indexed":true,"internalType":"address"},{"name":"value","type":"uint256","indexed":false,"internalType":"uint256"}],"anonymous":false},{"type":"event","name":"OwnershipTransferred","inputs":[{"name":"previousOwner","type":"address","indexed":true,"internalType":"address"},{"name":"newOwner","type":"address","indexed":true,"internalType":"address"}],"anonymous":false},{"type":"event","name":"Transfer","inputs":[{"name":"from","type":"address","indexed":true,"internalType":"address"},{"name":"to","type":"address","indexed":true,"internalType":"address"},{"name":"value","type":"uint256","indexed":false,"internalType":"uint256"}],"anonymous":false}],"bytecode":{"object":"0x608060405234801561001057600080fd5b50611817806100206000396000f3fe608060405234801561001057600080fd5b50600436106101375760003560e01c8063715018a6116100b8578063a457c2d71161007c578063a457c2d71461049e578063a9059cbb146104ca578063aa271e1a146104f6578063cf456ae71461051c578063dd62ed3e1461054a578063f2fde38b1461057857610137565b8063715018a61461043657806379cc67901461043e578063893d20e81461046a5780638da5cb5b1461048e57806395d89b411461049657610137565b8063313ce567116100ff578063313ce5671461037d578063395093511461039b57806340c10f19146103c757806342966c68146103f357806370a082311461041057610137565b806306fdde031461013c578063095ea7b3146101b95780631624f6c6146101f957806318160ddd1461032d57806323b872dd14610347575b600080fd5b61014461059e565b6040805160208082528351818301528351919283929083019185019080838360005b8381101561017e578181015183820152602001610166565b50505050905090810190601f1680156101ab5780820380516001836020036101000a031916815260200191505b509250505060405180910390f35b6101e5600480360360408110156101cf57600080fd5b506001600160a01b038135169060200135610634565b604080519115158252519081900360200190f35b61032b6004803603606081101561020f57600080fd5b81019060208101813564010000000081111561022a57600080fd5b82018360208201111561023c57600080fd5b8035906020019184600183028401116401000000008311171561025e57600080fd5b91908080601f01602080910402602001604051908101604052809392919081815260200183838082843760009201919091525092959493602081019350359150506401000000008111156102b157600080fd5b8201836020820111156102c357600080fd5b803590602001918460018302840111640100000000831117156102e557600080fd5b91908080601f0160208091040260200160405190810160405280939291908181526020018383808284376000920191909152509295505050903560ff1691506106519050565b005b610335610701565b60408051918252519081900360200190f35b6101e56004803603606081101561035d57600080fd5b506001600160a01b03813581169160208101359091169060400135610707565b61038561078e565b6040805160ff9092168252519081900360200190f35b6101e5600480360360408110156103b157600080fd5b506001600160a01b038135169060200135610797565b61032b600480360360408110156103dd57600080fd5b506001600160a01b0381351690602001356107e5565b6101e56004803603602081101561040957600080fd5b5035610837565b6103356004803603602081101561042657600080fd5b50356001600160a01b0316610852565b61032b61086d565b61032b6004803603604081101561045457600080fd5b506001600160a01b03813516906020013561092b565b6104726109c2565b604080516001600160a01b039092168252519081900360200190f35b6104726109d1565b6101446109e0565b6101e5600480360360408110156104b457600080fd5b506001600160a01b038135169060200135610a41565b6101e5600480360360408110156104e057600080fd5b506001600160a01b038135169060200135610aa9565b6101e56004803603602081101561050c57600080fd5b50356001600160a01b0316610abd565b61032b6004803603604081101561053257600080fd5b506001600160a01b0381351690602001351515610adb565b6103356004803603604081101561056057600080fd5b506001600160a01b0381358116916020013516610b7a565b61032b6004803603602081101561058e57600080fd5b50356001600160a01b0316610ba5565b60688054604080516020601f600260001961010060018816150201909516949094049384018190048102820181019092528281526060939092909183018282801561062a5780601f106105ff5761010080835404028352916020019161062a565b820191906000526020600020905b81548152906001019060200180831161060d57829003601f168201915b5050505050905090565b6000610648610641610cba565b8484610cbe565b50600192915050565b600054610100900460ff168061066a575061066a610daa565b80610678575060005460ff16155b6106b35760405162461bcd60e51b815260040180806020018281038252602e815260200180611697602e913960400191505060405180910390fd5b600054610100900460ff161580156106de576000805460ff1961ff0019909116610100171660011790555b6106e9848484610dbb565b80156106fb576000805461ff00191690555b50505050565b60675490565b6000610714848484610e9e565b61078484610720610cba565b61077f8560405180606001604052806028815260200161166f602891396001600160a01b038a1660009081526066602052604081209061075e610cba565b6001600160a01b031681526020810191909152604001600020549190610ff0565b610cbe565b5060019392505050565b606a5460ff1690565b60006106486107a4610cba565b8461077f85606660006107b5610cba565b6001600160a01b03908116825260208083019390935260409182016000908120918c168152925290205490611087565b6107ee33610abd565b6108295760405162461bcd60e51b81526004018080602001828103825260268152602001806117546026913960400191505060405180910390fd5b61083382826110e8565b5050565b600061084a610844610cba565b836111ce565b506001919050565b6001600160a01b031660009081526065602052604090205490565b610875610cba565b6001600160a01b03166108866109d1565b6001600160a01b0316146108e1576040805162461bcd60e51b815260206004820181905260248201527f4f776e61626c653a2063616c6c6572206973206e6f7420746865206f776e6572604482015290519081900360640190fd5b6033546040516000916001600160a01b0316907f8be0079c531659141344cd1fd0a4f28419497f9722a3daafe3b4186f6b6457e0908390a3603380546001600160a01b0319169055565b61093433610abd565b61096f5760405162461bcd60e51b81526004018080602001828103825260268152602001806117546026913960400191505060405180910390fd5b600061099f8260405180606001604052806024815260200161179c602491396109988633610b7a565b9190610ff0565b90506109b3836109ad610cba565b83610cbe565b6109bd83836111ce565b505050565b60006109cc6109d1565b905090565b6033546001600160a01b031690565b60698054604080516020601f600260001961010060018816150201909516949094049384018190048102820181019092528281526060939092909183018282801561062a5780601f106105ff5761010080835404028352916020019161062a565b6000610648610a4e610cba565b8461077f8560405180606001604052806025815260200161170e6025913960666000610a78610cba565b6001600160a01b03908116825260208083019390935260409182016000908120918d16815292529020549190610ff0565b6000610648610ab6610cba565b8484610e9e565b6001600160a01b03166000908152609d602052604090205460ff1690565b610ae3610cba565b6001600160a01b0316610af46109d1565b6001600160a01b031614610b4f576040805162461bcd60e51b815260206004820181905260248201527f4f776e61626c653a2063616c6c6572206973206e6f7420746865206f776e6572604482015290519081900360640190fd5b6001600160a01b03919091166000908152609d60205260409020805460ff1916911515919091179055565b6001600160a01b03918216600090815260666020908152604080832093909416825291909152205490565b610bad610cba565b6001600160a01b0316610bbe6109d1565b6001600160a01b031614610c19576040805162461bcd60e51b815260206004820181905260248201527f4f776e61626c653a2063616c6c6572206973206e6f7420746865206f776e6572604482015290519081900360640190fd5b6001600160a01b038116610c5e5760405162461bcd60e51b81526004018080602001828103825260268152602001806116496026913960400191505060405180910390fd5b6033546040516001600160a01b038084169216907f8be0079c531659141344cd1fd0a4f28419497f9722a3daafe3b4186f6b6457e090600090a3603380546001600160a01b0319166001600160a01b0392909216919091179055565b3390565b6001600160a01b038316610d035760405162461bcd60e51b81526004018080602001828103825260248152602001806116256024913960400191505060405180910390fd5b6001600160a01b038216610d485760405162461bcd60e51b81526004018080602001828103825260228152602001806117c06022913960400191505060405180910390fd5b6001600160a01b03808416600081815260666020908152604080832094871680845294825291829020859055815185815291517f8c5be1e5ebec7d5bd14f71427d1e84f3dd0314c0f7b2291e5b200ac8c7c3b9259281900390910190a3505050565b6000610db5306112be565b15905090565b600054610100900460ff1680610dd45750610dd4610daa565b80610de2575060005460ff16155b610e1d5760405162461bcd60e51b815260040180806020018281038252602e815260200180611697602e913960400191505060405180910390fd5b600054610100900460ff16158015610e48576000805460ff1961ff0019909116610100171660011790555b610e506112c4565b8351610e6390606890602087019061156c565b508251610e7790606990602086019061156c565b50606a805460ff191660ff841617905580156106fb576000805461ff001916905550505050565b6001600160a01b038316610ee35760405162461bcd60e51b81526004018080602001828103825260258152602001806116006025913960400191505060405180910390fd5b6001600160a01b038216610f285760405162461bcd60e51b81526004018080602001828103825260238152602001806116eb6023913960400191505060405180910390fd5b610f65816040518060600160405280602681526020016116c5602691396001600160a01b0386166000908152606560205260409020549190610ff0565b6001600160a01b038085166000908152606560205260408082209390935590841681522054610f949082611087565b6001600160a01b0380841660008181526065602090815260409182902094909455805185815290519193928716927fddf252ad1be2c89b69c2b068fc378daa952ba7f163c4a11628f55a4df523b3ef92918290030190a3505050565b6000818484111561107f5760405162461bcd60e51b81526004018080602001828103825283818151815260200191508051906020019080838360005b8381101561104457818101518382015260200161102c565b50505050905090810190601f1680156110715780820380516001836020036101000a031916815260200191505b509250505060405180910390fd5b505050900390565b6000828201838110156110e1576040805162461bcd60e51b815260206004820152601b60248201527f536166654d6174683a206164646974696f6e206f766572666c6f770000000000604482015290519081900360640190fd5b9392505050565b6001600160a01b038216611143576040805162461bcd60e51b815260206004820152601f60248201527f42455032303a206d696e7420746f20746865207a65726f206164647265737300604482015290519081900360640190fd5b6067546111509082611087565b6067556001600160a01b0382166000908152606560205260409020546111769082611087565b6001600160a01b03831660008181526065602090815260408083209490945583518581529351929391927fddf252ad1be2c89b69c2b068fc378daa952ba7f163c4a11628f55a4df523b3ef9281900390910190a35050565b6001600160a01b0382166112135760405162461bcd60e51b81526004018080602001828103825260218152602001806117336021913960400191505060405180910390fd5b6112508160405180606001604052806022815260200161177a602291396001600160a01b0385166000908152606560205260409020549190610ff0565b6001600160a01b0383166000908152606560205260409020556067546112769082611376565b6067556040805182815290516000916001600160a01b038516917fddf252ad1be2c89b69c2b068fc378daa952ba7f163c4a11628f55a4df523b3ef9181900360200190a35050565b3b151590565b600054610100900460ff16806112dd57506112dd610daa565b806112eb575060005460ff16155b6113265760405162461bcd60e51b815260040180806020018281038252602e815260200180611697602e913960400191505060405180910390fd5b600054610100900460ff16158015611351576000805460ff1961ff0019909116610100171660011790555b6113596113d3565b611361611473565b8015611373576000805461ff00191690555b50565b6000828211156113cd576040805162461bcd60e51b815260206004820152601e60248201527f536166654d6174683a207375627472616374696f6e206f766572666c6f770000604482015290519081900360640190fd5b50900390565b600054610100900460ff16806113ec57506113ec610daa565b806113fa575060005460ff16155b6114355760405162461bcd60e51b815260040180806020018281038252602e815260200180611697602e913960400191505060405180910390fd5b600054610100900460ff16158015611361576000805460ff1961ff0019909116610100171660011790558015611373576000805461ff001916905550565b600054610100900460ff168061148c575061148c610daa565b8061149a575060005460ff16155b6114d55760405162461bcd60e51b815260040180806020018281038252602e815260200180611697602e913960400191505060405180910390fd5b600054610100900460ff16158015611500576000805460ff1961ff0019909116610100171660011790555b600061150a610cba565b603380546001600160a01b0319166001600160a01b038316908117909155604051919250906000907f8be0079c531659141344cd1fd0a4f28419497f9722a3daafe3b4186f6b6457e0908290a3508015611373576000805461ff001916905550565b828054600181600116156101000203166002900490600052602060002090601f016020900481019282601f106115ad57805160ff19168380011785556115da565b828001600101855582156115da579182015b828111156115da5782518255916020019190600101906115bf565b506115e69291506115ea565b5090565b5b808211156115e657600081556001016115eb56fe42455032303a207472616e736665722066726f6d20746865207a65726f206164647265737342455032303a20617070726f76652066726f6d20746865207a65726f20616464726573734f776e61626c653a206e6577206f776e657220697320746865207a65726f206164647265737342455032303a207472616e7366657220616d6f756e74206578636565647320616c6c6f77616e6365496e697469616c697a61626c653a20636f6e747261637420697320616c726561647920696e697469616c697a656442455032303a207472616e7366657220616d6f756e7420657863656564732062616c616e636542455032303a207472616e7366657220746f20746865207a65726f206164647265737342455032303a2064656372656173656420616c6c6f77616e63652062656c6f77207a65726f42455032303a206275726e2066726f6d20746865207a65726f206164647265737351427269646765546f6b656e3a2063616c6c6572206973206e6f7420746865206d696e74657242455032303a206275726e20616d6f756e7420657863656564732062616c616e636542455032303a206275726e20616d6f756e74206578636565647320616c6c6f77616e636542455032303a20617070726f766520746f20746865207a65726f2061646472657373a26469706673582212203250db0044f19a29be76b993cdab5d360d767a42e8b38e64f14276e06803a45364736f6c634300060c0033","linkReferences":{}},"methodIdentifiers":{"allowance(address,address)":"dd62ed3e","approve(address,uint256)":"095ea7b3","balanceOf(address)":"70a08231","burn(uint256)":"42966c68","burnFrom(address,uint256)":"79cc6790","decimals()":"313ce567","decreaseAllowance(address,uint256)":"a457c2d7","getOwner()":"893d20e8","increaseAllowance(address,uint256)":"39509351","initialize(string,string,uint8)":"1624f6c6","isMinter(address)":"aa271e1a","mint(address,uint256)":"40c10f19","name()":"06fdde03","owner()":"8da5cb5b","renounceOwnership()":"715018a6","setMinter(address,bool)":"cf456ae7","symbol()":"95d89b41","totalSupply()":"18160ddd","transfer(address,uint256)":"a9059cbb","transferFrom(address,address,uint256)":"23b872dd","transferOwnership(address)":"f2fde38b"},"storageLayout":{"storage":[{"astId":137,"contract":"src/bridge/QBridgeToken.sol:QBridgeToken","label":"_initialized","offset":0,"slot":"0","type":"t_bool"},{"astId":140,"contract":"src/bridge/QBridgeToken.sol:QBridgeToken","label":"_initializing","offset":1,"slot":"0","type":"t_bool"},{"astId":484,"contract":"src/bridge/QBridgeToken.sol:QBridgeToken","label":"__gap","offset":0,"slot":"1","type":"t_array(t_uint256)50_storage"},{"astId":10,"contract":"src/bridge/QBridgeToken.sol:QBridgeToken","label":"_owner","offset":0,"slot":"51","type":"t_address"},{"astId":129,"contract":"src/bridge/QBridgeToken.sol:QBridgeToken","label":"__gap","offset":0,"slot":"52","type":"t_array(t_uint256)49_storage"},{"astId":1659,"contract":"src/bridge/QBridgeToken.sol:QBridgeToken","label":"_balances","offset":0,"slot":"101","type":"t_mapping(t_address,t_uint256)"},{"astId":1665,"contract":"src/bridge/QBridgeToken.sol:QBridgeToken","label":"_allowances","offset":0,"slot":"102","type":"t_mapping(t_address,t_mapping(t_address,t_uint256))"},{"astId":1667,"contract":"src/bridge/QBridgeToken.sol:QBridgeToken","label":"_totalSupply","offset":0,"slot":"103","type":"t_uint256"},{"astId":1669,"contract":"src/bridge/QBridgeToken.sol:QBridgeToken","label":"_name","offset":0,"slot":"104","type":"t_string_storage"},{"astId":1671,"contract":"src/bridge/QBridgeToken.sol:QBridgeToken","label":"_symbol","offset":0,"slot":"105","type":"t_string_storage"},{"astId":1673,"contract":"src/bridge/QBridgeToken.sol:QBridgeToken","label":"_decimals","offset":0,"slot":"106","type":"t_uint8"},{"astId":1677,"contract":"src/bridge/QBridgeToken.sol:QBridgeToken","label":"__gap","offset":0,"slot":"107","type":"t_array(t_uint256)50_storage"},{"astId":1465,"contract":"src/bridge/QBridgeToken.sol:QBridgeToken","label":"_minters","offset":0,"slot":"157","type":"t_mapping(t_address,t_bool)"}],"types":{"t_address":{"encoding":"inplace","label":"address","numberOfBytes":"20"},"t_array(t_uint256)49_storage":{"encoding":"inplace","label":"uint256[49]","numberOfBytes":"1568","base":"t_uint256"},"t_array(t_uint256)50_storage":{"encoding":"inplace","label":"uint256[50]","numberOfBytes":"1600","base":"t_uint256"},"t_bool":{"encoding":"inplace","label":"bool","numberOfBytes":"1"},"t_mapping(t_address,t_bool)":{"encoding":"mapping","key":"t_address","label":"mapping(address => bool)","numberOfBytes":"32","value":"t_bool"},"t_mapping(t_address,t_mapping(t_address,t_uint256))":{"encoding":"mapping","key":"t_address","label":"mapping(address => mapping(address => uint256))","numberOfBytes":"32","value":"t_mapping(t_address,t_uint256)"},"t_mapping(t_address,t_uint256)":{"encoding":"mapping","key":"t_address","label":"mapping(address => uint256)","numberOfBytes":"32","value":"t_uint256"},"t_string_storage":{"encoding":"bytes","label":"string","numberOfBytes":"32"},"t_uint256":{"encoding":"inplace","label":"uint256","numberOfBytes":"32"},"t_uint8":{"encoding":"inplace","label":"uint8","numberOfBytes":"1"}}},"id":7}