{"abi":[{"type":"function","name":"check","inputs":[],"outputs":[],"stateMutability":"nonpayable"},{"type":"function","name":"get","inputs":[],"outputs":[{"name":"","type":"bool","internalType":"bool"},{"name":"","type":"uint256","internalType":"uint256"}],"stateMutability":"view"},{"type":"function","name":"latestAnswer","inputs":[],"outputs":[{"name":"rate","type":"int256","internalType":"int256"}],"stateMutability":"view"},{"type":"function","name":"peek","inputs":[],"outputs":[{"name":"","type":"bool","internalType":"bool"},{"name":"","type":"int256","internalType":"int256"}],"stateMutability":"view"}],"bytecode":{"object":"0x608060405234801561001057600080fd5b50610617806100206000396000f3fe608060405234801561001057600080fd5b506004361061004c5760003560e01c806350d25bcd1461005157806359e02dd71461006c5780636d4ce63c1461006c578063919840ad1461008b575b600080fd5b610059610095565b6040519081526020015b60405180910390f35b6100746100a4565b604080519215158352602083019190915201610063565b6100936100b9565b005b600061009f6101f2565b905090565b60008060016100b16101f2565b915091509091565b604080516001808252818301909252600091816020015b6040805160a0810182526000808252602080830182905292820181905260608201819052608082015282526000199092019101816100d0579050509050600181600081518110610122576101226103cf565b602002602001015160000190600381111561013f5761013f6103e5565b90816003811115610152576101526103e5565b81525050308160008151811061016a5761016a6103cf565b60209081029190910101516001600160a01b039091166060909101526040516303a38fa160e21b815273ba12222222228d8ba445958a75a0704d566bf2c890630e8e3e84906101bd9084906004016103fb565b600060405180830381600087803b1580156101d757600080fd5b505af11580156101eb573d6000803e3d6000fd5b5050505050565b60008060007386392dc19c0b719886221c78ab11eb8cf5c528126001600160a01b031663feaf968c6040518163ffffffff1660e01b815260040160a060405180830381865afa158015610249573d6000803e3d6000fd5b505050506040513d601f19601f8201168201806040525081019061026d91906104b5565b509350509250506201518042610283919061051b565b81116040518060400160405280600381526020016206262760eb1b815250906102c85760405162461bcd60e51b81526004016102bf9190610532565b60405180910390fd5b5060408051808201909152600381526206262760eb1b6020820152600083136103045760405162461bcd60e51b81526004016102bf9190610532565b50600061031983670de0b6b3a76400006103b7565b9050670de0b6b3a7640000817332296969ef14eb0c6d29669c550d4a04491302306001600160a01b031663679aefce6040518163ffffffff1660e01b8152600401602060405180830381865afa158015610377573d6000803e3d6000fd5b505050506040513d601f19601f8201168201806040525081019061039b9190610587565b6103a591906105a0565b6103af91906105bf565b935050505090565b60008183106103c657816103c8565b825b9392505050565b634e487b7160e01b600052603260045260246000fd5b634e487b7160e01b600052602160045260246000fd5b60208082528251828201819052600091906040908185019086840185805b838110156104885782518051600480821061044157634e487b7160e01b855260218152602485fd5b508652808801516001600160a01b03908116898801528782015188880152606080830151821690880152608091820151169086015260a09094019391860191600101610419565b509298975050505050505050565b805169ffffffffffffffffffff811681146104b057600080fd5b919050565b600080600080600060a086880312156104cd57600080fd5b6104d686610496565b94506020860151935060408601519250606086015191506104f960808701610496565b90509295509295909350565b634e487b7160e01b600052601160045260246000fd5b60008282101561052d5761052d610505565b500390565b600060208083528351808285015260005b8181101561055f57858101830151858201604001528201610543565b81811115610571576000604083870101525b50601f01601f1916929092016040019392505050565b60006020828403121561059957600080fd5b5051919050565b60008160001904831182151516156105ba576105ba610505565b500290565b6000826105dc57634e487b7160e01b600052601260045260246000fd5b50049056fea2646970667358221220ebed2df41bab30143e5af875015c595c94642bd73daf2e209899934cfc37998664736f6c634300080a0033","linkReferences":{}},"methodIdentifiers":{"check()":"919840ad","get()":"6d4ce63c","latestAnswer()":"50d25bcd","peek()":"59e02dd7"},"storageLayout":{"storage":[],"types":{}},"id":13}