{"abi":[{"type":"function","name":"admin","inputs":[],"outputs":[{"name":"","type":"address","internalType":"address"}],"stateMutability":"view"},{"type":"function","name":"collateralStates","inputs":[{"name":"","type":"address","internalType":"address"}],"outputs":[{"name":"isListed","type":"bool","internalType":"bool"},{"name":"collateralFactor","type":"uint256","internalType":"uint256"},{"name":"liquidateFactor","type":"uint256","internalType":"uint256"},{"name":"isSupportAllPools","type":"bool","internalType":"bool"}],"stateMutability":"view"},{"type":"function","name":"liquidityMining","inputs":[],"outputs":[{"name":"","type":"address","internalType":"contract ILiquidityMining"}],"stateMutability":"view"},{"type":"function","name":"oracle","inputs":[],"outputs":[{"name":"","type":"address","internalType":"contract IOracle"}],"stateMutability":"view"},{"type":"function","name":"orderDebtStates","inputs":[{"name":"","type":"uint256","internalType":"uint256"}],"outputs":[{"name":"","type":"address","internalType":"address"}],"stateMutability":"view"},{"type":"function","name":"pendingAdmin","inputs":[],"outputs":[{"name":"","type":"address","internalType":"address"}],"stateMutability":"view"},{"type":"function","name":"poolStates","inputs":[{"name":"","type":"address","internalType":"address"}],"outputs":[{"name":"isListed","type":"bool","internalType":"bool"},{"name":"borrowCap","type":"uint256","internalType":"uint256"},{"name":"supplyCap","type":"uint256","internalType":"uint256"}],"stateMutability":"view"},{"type":"function","name":"xNFT","inputs":[],"outputs":[{"name":"","type":"address","internalType":"contract IXNFT"}],"stateMutability":"view"},{"type":"function","name":"xTokenPausedMap","inputs":[{"name":"","type":"address","internalType":"address"},{"name":"","type":"uint256","internalType":"uint256"}],"outputs":[{"name":"","type":"bool","internalType":"bool"}],"stateMutability":"view"}],"bytecode":{"object":"0x608060405234801561001057600080fd5b506102e0806100206000396000f3fe608060405234801561001057600080fd5b50600436106100935760003560e01c80637dc0d1d0116100665780637dc0d1d01461016457806385b2d53514610177578063de5222841461018a578063f19d6dac146101db578063f851a4401461021957610093565b8063100aff8b1461009857806326782247146100c85780633b297291146100db57806361086e4314610104575b600080fd5b6005546100ab906001600160a01b031681565b6040516001600160a01b0390911681526020015b60405180910390f35b6001546100ab906001600160a01b031681565b6100ab6100e9366004610292565b6004602052600090815260409020546001600160a01b031681565b610140610112366004610248565b6003602081905260009182526040909120805460018201546002830154929093015460ff9182169392911684565b604080519415158552602085019390935291830152151560608201526080016100bf565b6006546100ab906001600160a01b031681565b6007546100ab906001600160a01b031681565b6101be610198366004610248565b600260208190526000918252604090912080546001820154919092015460ff9092169183565b6040805193151584526020840192909252908201526060016100bf565b6102096101e9366004610269565b600860209081526000928352604080842090915290825290205460ff1681565b60405190151581526020016100bf565b6000546100ab906001600160a01b031681565b80356001600160a01b038116811461024357600080fd5b919050565b600060208284031215610259578081fd5b6102628261022c565b9392505050565b6000806040838503121561027b578081fd5b6102848361022c565b946020939093013593505050565b6000602082840312156102a3578081fd5b503591905056fea264697066735822122074e6f925f01575a9dafb0a8f64f783c7f302406068665dee618b00499adff42d64736f6c63430008020033","linkReferences":{}},"methodIdentifiers":{"admin()":"f851a440","collateralStates(address)":"61086e43","liquidityMining()":"85b2d535","oracle()":"7dc0d1d0","orderDebtStates(uint256)":"3b297291","pendingAdmin()":"26782247","poolStates(address)":"de522284","xNFT()":"100aff8b","xTokenPausedMap(address,uint256)":"f19d6dac"},"storageLayout":{"storage":[{"astId":1883,"contract":"src/P2ControllerStorage.sol:P2ControllerStorage","label":"admin","offset":0,"slot":"0","type":"t_address"},{"astId":1885,"contract":"src/P2ControllerStorage.sol:P2ControllerStorage","label":"pendingAdmin","offset":0,"slot":"1","type":"t_address"},{"astId":1887,"contract":"src/P2ControllerStorage.sol:P2ControllerStorage","label":"_notEntered","offset":20,"slot":"1","type":"t_bool"},{"astId":1899,"contract":"src/P2ControllerStorage.sol:P2ControllerStorage","label":"poolStates","offset":0,"slot":"2","type":"t_mapping(t_address,t_struct(PoolState)1894_storage)"},{"astId":1917,"contract":"src/P2ControllerStorage.sol:P2ControllerStorage","label":"collateralStates","offset":0,"slot":"3","type":"t_mapping(t_address,t_struct(CollateralState)1912_storage)"},{"astId":1921,"contract":"src/P2ControllerStorage.sol:P2ControllerStorage","label":"orderDebtStates","offset":0,"slot":"4","type":"t_mapping(t_uint256,t_address)"},{"astId":1924,"contract":"src/P2ControllerStorage.sol:P2ControllerStorage","label":"xNFT","offset":0,"slot":"5","type":"t_contract(IXNFT)2343"},{"astId":1927,"contract":"src/P2ControllerStorage.sol:P2ControllerStorage","label":"oracle","offset":0,"slot":"6","type":"t_contract(IOracle)2106"},{"astId":1930,"contract":"src/P2ControllerStorage.sol:P2ControllerStorage","label":"liquidityMining","offset":0,"slot":"7","type":"t_contract(ILiquidityMining)2092"},{"astId":1942,"contract":"src/P2ControllerStorage.sol:P2ControllerStorage","label":"xTokenPausedMap","offset":0,"slot":"8","type":"t_mapping(t_address,t_mapping(t_uint256,t_bool))"}],"types":{"t_address":{"encoding":"inplace","label":"address","numberOfBytes":"20"},"t_bool":{"encoding":"inplace","label":"bool","numberOfBytes":"1"},"t_contract(ILiquidityMining)2092":{"encoding":"inplace","label":"contract ILiquidityMining","numberOfBytes":"20"},"t_contract(IOracle)2106":{"encoding":"inplace","label":"contract IOracle","numberOfBytes":"20"},"t_contract(IXNFT)2343":{"encoding":"inplace","label":"contract IXNFT","numberOfBytes":"20"},"t_mapping(t_address,t_bool)":{"encoding":"mapping","key":"t_address","label":"mapping(address => bool)","numberOfBytes":"32","value":"t_bool"},"t_mapping(t_address,t_mapping(t_uint256,t_bool))":{"encoding":"mapping","key":"t_address","label":"mapping(address => mapping(uint256 => bool))","numberOfBytes":"32","value":"t_mapping(t_uint256,t_bool)"},"t_mapping(t_address,t_struct(CollateralState)1912_storage)":{"encoding":"mapping","key":"t_address","label":"mapping(address => struct P2ControllerStorage.CollateralState)","numberOfBytes":"32","value":"t_struct(CollateralState)1912_storage"},"t_mapping(t_address,t_struct(PoolState)1894_storage)":{"encoding":"mapping","key":"t_address","label":"mapping(address => struct P2ControllerStorage.PoolState)","numberOfBytes":"32","value":"t_struct(PoolState)1894_storage"},"t_mapping(t_uint256,t_address)":{"encoding":"mapping","key":"t_uint256","label":"mapping(uint256 => address)","numberOfBytes":"32","value":"t_address"},"t_mapping(t_uint256,t_bool)":{"encoding":"mapping","key":"t_uint256","label":"mapping(uint256 => bool)","numberOfBytes":"32","value":"t_bool"},"t_struct(CollateralState)1912_storage":{"encoding":"inplace","label":"struct P2ControllerStorage.CollateralState","numberOfBytes":"160","members":[{"astId":1901,"contract":"src/P2ControllerStorage.sol:P2ControllerStorage","label":"isListed","offset":0,"slot":"0","type":"t_bool"},{"astId":1903,"contract":"src/P2ControllerStorage.sol:P2ControllerStorage","label":"collateralFactor","offset":0,"slot":"1","type":"t_uint256"},{"astId":1905,"contract":"src/P2ControllerStorage.sol:P2ControllerStorage","label":"liquidateFactor","offset":0,"slot":"2","type":"t_uint256"},{"astId":1907,"contract":"src/P2ControllerStorage.sol:P2ControllerStorage","label":"isSupportAllPools","offset":0,"slot":"3","type":"t_bool"},{"astId":1911,"contract":"src/P2ControllerStorage.sol:P2ControllerStorage","label":"supportPools","offset":0,"slot":"4","type":"t_mapping(t_address,t_bool)"}]},"t_struct(PoolState)1894_storage":{"encoding":"inplace","label":"struct P2ControllerStorage.PoolState","numberOfBytes":"96","members":[{"astId":1889,"contract":"src/P2ControllerStorage.sol:P2ControllerStorage","label":"isListed","offset":0,"slot":"0","type":"t_bool"},{"astId":1891,"contract":"src/P2ControllerStorage.sol:P2ControllerStorage","label":"borrowCap","offset":0,"slot":"1","type":"t_uint256"},{"astId":1893,"contract":"src/P2ControllerStorage.sol:P2ControllerStorage","label":"supplyCap","offset":0,"slot":"2","type":"t_uint256"}]},"t_uint256":{"encoding":"inplace","label":"uint256","numberOfBytes":"32"}}},"id":4}