{"abi":[{"type":"function","name":"underlying","inputs":[],"outputs":[{"name":"","type":"address","internalType":"address"}],"stateMutability":"view"}],"bytecode":{"object":"0x6080604052348015600f57600080fd5b5060938061001e6000396000f3fe6080604052348015600f57600080fd5b506004361060285760003560e01c80636f307dc314602d575b600080fd5b6033604f565b604080516001600160a01b039092168252519081900360200190f35b6000546001600160a01b03168156fea265627a7a72315820ed94bc20d244b2811e47a1f8ee99af8bf0ee50e07735f0f7e9c0b51f258a52ae64736f6c63430005100032","linkReferences":{}},"methodIdentifiers":{"underlying()":"6f307dc3"},"storageLayout":{"storage":[{"astId":2452,"contract":"src/CToken/CToken.sol:CErc20Storage","label":"underlying","offset":0,"slot":"0","type":"t_address"}],"types":{"t_address":{"encoding":"inplace","label":"address","numberOfBytes":"20"}}},"id":2}