{"abi":[{"type":"function","name":"accrualBlockNumber","inputs":[],"outputs":[{"name":"","type":"uint256","internalType":"uint256"}],"stateMutability":"view"},{"type":"function","name":"admin","inputs":[],"outputs":[{"name":"","type":"address","internalType":"address payable"}],"stateMutability":"view"},{"type":"function","name":"borrowIndex","inputs":[],"outputs":[{"name":"","type":"uint256","internalType":"uint256"}],"stateMutability":"view"},{"type":"function","name":"comptroller","inputs":[],"outputs":[{"name":"","type":"address","internalType":"contract ComptrollerInterface"}],"stateMutability":"view"},{"type":"function","name":"decimals","inputs":[],"outputs":[{"name":"","type":"uint8","internalType":"uint8"}],"stateMutability":"view"},{"type":"function","name":"interestRateModel","inputs":[],"outputs":[{"name":"","type":"address","internalType":"contract InterestRateModel"}],"stateMutability":"view"},{"type":"function","name":"name","inputs":[],"outputs":[{"name":"","type":"string","internalType":"string"}],"stateMutability":"view"},{"type":"function","name":"pendingAdmin","inputs":[],"outputs":[{"name":"","type":"address","internalType":"address payable"}],"stateMutability":"view"},{"type":"function","name":"protocolSeizeShareMantissa","inputs":[],"outputs":[{"name":"","type":"uint256","internalType":"uint256"}],"stateMutability":"view"},{"type":"function","name":"reserveFactorMantissa","inputs":[],"outputs":[{"name":"","type":"uint256","internalType":"uint256"}],"stateMutability":"view"},{"type":"function","name":"symbol","inputs":[],"outputs":[{"name":"","type":"string","internalType":"string"}],"stateMutability":"view"},{"type":"function","name":"totalBorrows","inputs":[],"outputs":[{"name":"","type":"uint256","internalType":"uint256"}],"stateMutability":"view"},{"type":"function","name":"totalReserves","inputs":[],"outputs":[{"name":"","type":"uint256","internalType":"uint256"}],"stateMutability":"view"},{"type":"function","name":"totalSupply","inputs":[],"outputs":[{"name":"","type":"uint256","internalType":"uint256"}],"stateMutability":"view"}],"bytecode":{"object":"0x6080604052666379da05b6000060115534801561001b57600080fd5b506103a68061002b6000396000f3fe608060405234801561001057600080fd5b50600436106100ea5760003560e01c80636752e7021161008c57806395d89b411161006657806395d89b41146101f8578063aa5af0fd14610200578063f3fdb15a14610208578063f851a44014610210576100ea565b80636752e702146101e05780636c540baf146101e85780638f840ddd146101f0576100ea565b806326782247116100c8578063267822471461018e578063313ce567146101b257806347bd3718146101d05780635fe3b567146101d8576100ea565b806306fdde03146100ef578063173b99041461016c57806318160ddd14610186575b600080fd5b6100f7610218565b6040805160208082528351818301528351919283929083019185019080838360005b83811015610131578181015183820152602001610119565b50505050905090810190601f16801561015e5780820380516001836020036101000a031916815260200191505b509250505060405180910390f35b6101746102a5565b60408051918252519081900360200190f35b6101746102ab565b6101966102b1565b604080516001600160a01b039092168252519081900360200190f35b6101ba6102c0565b6040805160ff9092168252519081900360200190f35b6101746102c9565b6101966102cf565b6101746102de565b6101746102e4565b6101746102ea565b6100f76102f0565b610174610348565b61019661034e565b61019661035d565b60018054604080516020600284861615610100026000190190941693909304601f8101849004840282018401909252818152929183018282801561029d5780601f106102725761010080835404028352916020019161029d565b820191906000526020600020905b81548152906001019060200180831161028057829003601f168201915b505050505081565b60085481565b600d5481565b6004546001600160a01b031681565b60035460ff1681565b600b5481565b6005546001600160a01b031681565b60115481565b60095481565b600c5481565b6002805460408051602060018416156101000260001901909316849004601f8101849004840282018401909252818152929183018282801561029d5780601f106102725761010080835404028352916020019161029d565b600a5481565b6006546001600160a01b031681565b60035461010090046001600160a01b03168156fea265627a7a723158201fd951704a61a6f5e574a86b4b929d6f78045e89163a70e1ab839b2bf395ad5f64736f6c63430005100032","linkReferences":{}},"methodIdentifiers":{"accrualBlockNumber()":"6c540baf","admin()":"f851a440","borrowIndex()":"aa5af0fd","comptroller()":"5fe3b567","decimals()":"313ce567","interestRateModel()":"f3fdb15a","name()":"06fdde03","pendingAdmin()":"26782247","protocolSeizeShareMantissa()":"6752e702","reserveFactorMantissa()":"173b9904","symbol()":"95d89b41","totalBorrows()":"47bd3718","totalReserves()":"8f840ddd","totalSupply()":"18160ddd"},"storageLayout":{"storage":[{"astId":2091,"contract":"src/CToken/CToken.sol:CTokenStorage","label":"_notEntered","offset":0,"slot":"0","type":"t_bool"},{"astId":2093,"contract":"src/CToken/CToken.sol:CTokenStorage","label":"name","offset":0,"slot":"1","type":"t_string_storage"},{"astId":2095,"contract":"src/CToken/CToken.sol:CTokenStorage","label":"symbol","offset":0,"slot":"2","type":"t_string_storage"},{"astId":2097,"contract":"src/CToken/CToken.sol:CTokenStorage","label":"decimals","offset":0,"slot":"3","type":"t_uint8"},{"astId":2105,"contract":"src/CToken/CToken.sol:CTokenStorage","label":"admin","offset":1,"slot":"3","type":"t_address_payable"},{"astId":2107,"contract":"src/CToken/CToken.sol:CTokenStorage","label":"pendingAdmin","offset":0,"slot":"4","type":"t_address_payable"},{"astId":2109,"contract":"src/CToken/CToken.sol:CTokenStorage","label":"comptroller","offset":0,"slot":"5","type":"t_contract(ComptrollerInterface)2759"},{"astId":2111,"contract":"src/CToken/CToken.sol:CTokenStorage","label":"interestRateModel","offset":0,"slot":"6","type":"t_contract(InterestRateModel)2089"},{"astId":2113,"contract":"src/CToken/CToken.sol:CTokenStorage","label":"initialExchangeRateMantissa","offset":0,"slot":"7","type":"t_uint256"},{"astId":2115,"contract":"src/CToken/CToken.sol:CTokenStorage","label":"reserveFactorMantissa","offset":0,"slot":"8","type":"t_uint256"},{"astId":2117,"contract":"src/CToken/CToken.sol:CTokenStorage","label":"accrualBlockNumber","offset":0,"slot":"9","type":"t_uint256"},{"astId":2119,"contract":"src/CToken/CToken.sol:CTokenStorage","label":"borrowIndex","offset":0,"slot":"10","type":"t_uint256"},{"astId":2121,"contract":"src/CToken/CToken.sol:CTokenStorage","label":"totalBorrows","offset":0,"slot":"11","type":"t_uint256"},{"astId":2123,"contract":"src/CToken/CToken.sol:CTokenStorage","label":"totalReserves","offset":0,"slot":"12","type":"t_uint256"},{"astId":2125,"contract":"src/CToken/CToken.sol:CTokenStorage","label":"totalSupply","offset":0,"slot":"13","type":"t_uint256"},{"astId":2129,"contract":"src/CToken/CToken.sol:CTokenStorage","label":"accountTokens","offset":0,"slot":"14","type":"t_mapping(t_address,t_uint256)"},{"astId":2135,"contract":"src/CToken/CToken.sol:CTokenStorage","label":"transferAllowances","offset":0,"slot":"15","type":"t_mapping(t_address,t_mapping(t_address,t_uint256))"},{"astId":2144,"contract":"src/CToken/CToken.sol:CTokenStorage","label":"accountBorrows","offset":0,"slot":"16","type":"t_mapping(t_address,t_struct(BorrowSnapshot)2140_storage)"},{"astId":2147,"contract":"src/CToken/CToken.sol:CTokenStorage","label":"protocolSeizeShareMantissa","offset":0,"slot":"17","type":"t_uint256"}],"types":{"t_address":{"encoding":"inplace","label":"address","numberOfBytes":"20"},"t_address_payable":{"encoding":"inplace","label":"address payable","numberOfBytes":"20"},"t_bool":{"encoding":"inplace","label":"bool","numberOfBytes":"1"},"t_contract(ComptrollerInterface)2759":{"encoding":"inplace","label":"contract ComptrollerInterface","numberOfBytes":"20"},"t_contract(InterestRateModel)2089":{"encoding":"inplace","label":"contract InterestRateModel","numberOfBytes":"20"},"t_mapping(t_address,t_mapping(t_address,t_uint256))":{"encoding":"mapping","key":"t_address","label":"mapping(address => mapping(address => uint256))","numberOfBytes":"32","value":"t_mapping(t_address,t_uint256)"},"t_mapping(t_address,t_struct(BorrowSnapshot)2140_storage)":{"encoding":"mapping","key":"t_address","label":"mapping(address => struct CTokenStorage.BorrowSnapshot)","numberOfBytes":"32","value":"t_struct(BorrowSnapshot)2140_storage"},"t_mapping(t_address,t_uint256)":{"encoding":"mapping","key":"t_address","label":"mapping(address => uint256)","numberOfBytes":"32","value":"t_uint256"},"t_string_storage":{"encoding":"bytes","label":"string","numberOfBytes":"32"},"t_struct(BorrowSnapshot)2140_storage":{"encoding":"inplace","label":"struct CTokenStorage.BorrowSnapshot","numberOfBytes":"64","members":[{"astId":2137,"contract":"src/CToken/CToken.sol:CTokenStorage","label":"principal","offset":0,"slot":"0","type":"t_uint256"},{"astId":2139,"contract":"src/CToken/CToken.sol:CTokenStorage","label":"interestIndex","offset":0,"slot":"1","type":"t_uint256"}]},"t_uint256":{"encoding":"inplace","label":"uint256","numberOfBytes":"32"},"t_uint8":{"encoding":"inplace","label":"uint8","numberOfBytes":"1"}}},"id":2}