{"abi":[{"type":"function","name":"curve","inputs":[],"outputs":[{"name":"","type":"address"}],"stateMutability":"view"}],"bytecode":{"object":"0x6080604052348015600f57600080fd5b5060938061001e6000396000f3fe6080604052348015600f57600080fd5b506004361060285760003560e01c80637165485d14602d575b600080fd5b6033604f565b604080516001600160a01b039092168252519081900360200190f35b6000546001600160a01b03168156fea265627a7a72305820da32334d07763d10a275ea442d7fc9a1dce922006335da13e79bc3a9ec484cbe64736f6c634300050a0032","linkReferences":{}},"methodIdentifiers":{"curve()":"7165485d"},"storageLayout":{"storage":[],"types":{}},"id":0}