{"abi":[{"type":"constructor","inputs":[{"name":"_from_bank","type":"address"},{"name":"_to_bank","type":"address"},{"name":"_min_amount","type":"uint256"}],"stateMutability":"nonpayable"},{"type":"function","name":"changeMinimumAmount","inputs":[{"name":"_new_amount","type":"uint256"}],"outputs":[],"stateMutability":"nonpayable"},{"type":"function","name":"curve","inputs":[],"outputs":[{"name":"","type":"address"}],"stateMutability":"view"},{"type":"function","name":"doExchange","inputs":[{"name":"amount","type":"uint256"}],"outputs":[{"name":"","type":"bool"}],"stateMutability":"nonpayable"},{"type":"function","name":"from_bank","inputs":[],"outputs":[{"name":"","type":"address"}],"stateMutability":"view"},{"type":"function","name":"minimum_amount","inputs":[],"outputs":[{"name":"","type":"uint256"}],"stateMutability":"view"},{"type":"function","name":"note","inputs":[],"outputs":[{"name":"","type":"string"}],"stateMutability":"view"},{"type":"function","name":"owner","inputs":[],"outputs":[{"name":"","type":"address"}],"stateMutability":"view"},{"type":"function","name":"to_bank","inputs":[],"outputs":[{"name":"","type":"address"}],"stateMutability":"view"},{"type":"function","name":"transferOwnership","inputs":[{"name":"newOwner","type":"address"}],"outputs":[],"stateMutability":"nonpayable"},{"type":"function","name":"usdc","inputs":[],"outputs":[{"name":"","type":"address"}],"stateMutability":"view"},{"type":"function","name":"usdt","inputs":[],"outputs":[{"name":"","type":"address"}],"stateMutability":"view"},{"type":"event","name":"MinimumAmountChanged","inputs":[{"name":"old","type":"uint256","indexed":false},{"name":"_new","type":"uint256","indexed":false}],"anonymous":false},{"type":"event","name":"OwnershipTransferred","inputs":[{"name":"previousOwner","type":"address","indexed":true},{"name":"newOwner","type":"address","indexed":true}],"anonymous":false}],"bytecode":{"object":"0x60806040523480156200001157600080fd5b50604051620010db380380620010db833981810160405260608110156200003757600080fd5b5080516020820151604092830151600080546001600160a01b0319163390811782559451939492939192918291907f8be0079c531659141344cd1fd0a4f28419497f9722a3daafe3b4186f6b6457e0908290a3506040805180820190915260158082527f4f6e6c7920666f72205553444320746f205553445400000000000000000000006020909201918252620000d191600191620003e0565b50600480546001600160a01b038086166001600160a01b03199283161780845560058054878416941693909317909255604080517ffc0c546a00000000000000000000000000000000000000000000000000000000815290516000946060949093169263fc0c546a928082019287929091829003018186803b1580156200015757600080fd5b505afa1580156200016c573d6000803e3d6000fd5b505050506040513d6000823e601f3d908101601f1916820160409081528110156200019657600080fd5b815160208301805191939283019291640100000000811115620001b857600080fd5b82016020810184811115620001cc57600080fd5b8151640100000000811182820187101715620001e757600080fd5b5050600380546001600160a01b0319166001600160a01b0387811691909117909155600554604080517ffc0c546a0000000000000000000000000000000000000000000000000000000081529051979950929750169463fc0c546a945060048083019450600093509091829003018186803b1580156200026657600080fd5b505afa1580156200027b573d6000803e3d6000fd5b505050506040513d6000823e601f3d908101601f191682016040908152811015620002a557600080fd5b815160208301805191939283019291640100000000811115620002c757600080fd5b82016020810184811115620002db57600080fd5b8151640100000000811182820187101715620002f657600080fd5b5050600280546001600160a01b0319166001600160a01b0387161790556006889055604080517f7165485d000000000000000000000000000000000000000000000000000000008152905195975090955073bbc81d23ea2c3ec7e56d39296f0cbb648873a5d394859450637165485d935060048083019350602092829003018186803b1580156200038657600080fd5b505afa1580156200039b573d6000803e3d6000fd5b505050506040513d6020811015620003b257600080fd5b5051600780546001600160a01b0319166001600160a01b039092169190911790555062000485945050505050565b828054600181600116156101000203166002900490600052602060002090601f016020900481019282601f106200042357805160ff191683800117855562000453565b8280016001018555821562000453579182015b828111156200045357825182559160200191906001019062000436565b506200046192915062000465565b5090565b6200048291905b808211156200046157600081556001016200046c565b90565b610c4680620004956000396000f3fe608060405234801561001057600080fd5b50600436106100a95760003560e01c806376b171231161007157806376b171231461016757806377eab3e31461016f5780638da5cb5b1461018e578063a9a67eb914610196578063f2fde38b146101b0578063fcb5d44d146101d6576100a9565b806326d111f5146100ae5780632f48ab7d1461012b5780633e413bee1461014f57806349a76d0a146101575780637165485d1461015f575b600080fd5b6100b6610207565b6040805160208082528351818301528351919283929083019185019080838360005b838110156100f05781810151838201526020016100d8565b50505050905090810190601f16801561011d5780820380516001836020036101000a031916815260200191505b509250505060405180910390f35b610133610294565b604080516001600160a01b039092168252519081900360200190f35b6101336102a3565b6101336102b2565b6101336102c1565b6101336102d0565b61018c6004803603602081101561018557600080fd5b50356102df565b005b6101336103cb565b61019e6103da565b60408051918252519081900360200190f35b61018c600480360360208110156101c657600080fd5b50356001600160a01b03166103e0565b6101f3600480360360208110156101ec57600080fd5b503561044b565b604080519115158252519081900360200190f35b60018054604080516020600284861615610100026000190190941693909304601f8101849004840282018401909252818152929183018282801561028c5780601f106102615761010080835404028352916020019161028c565b820191906000526020600020905b81548152906001019060200180831161026f57829003601f168201915b505050505081565b6002546001600160a01b031681565b6003546001600160a01b031681565b6005546001600160a01b031681565b6007546001600160a01b031681565b6004546001600160a01b031681565b6000546001600160a01b0316331461033e576040805162461bcd60e51b815260206004820181905260248201527f4f776e61626c653a2063616c6c6572206973206e6f7420746865206f776e6572604482015290519081900360640190fd5b60008111610384576040805162461bcd60e51b815260206004820152600e60248201526d1a5b9d985b1a5908185b5bdd5b9d60921b604482015290519081900360640190fd5b6006805490829055604080518281526020810184905281517f64c7ab733067301a7955b68805043628d2a52867fe9b42dcbe3a5d90aeba8be7929181900390910190a15050565b6000546001600160a01b031690565b60065481565b6000546001600160a01b0316331461043f576040805162461bcd60e51b815260206004820181905260248201527f4f776e61626c653a2063616c6c6572206973206e6f7420746865206f776e6572604482015290519081900360640190fd5b6104488161078b565b50565b6000600654821015610495576040805162461bcd60e51b815260206004820152600e60248201526d1a5b9d985b1a5908185b5bdd5b9d60921b604482015290519081900360640190fd5b60048054604080516316d3df1560e31b815290516001600160a01b039092169263b69ef8a89282820192602092908290030181600087803b1580156104d957600080fd5b505af11580156104ed573d6000803e3d6000fd5b505050506040513d602081101561050357600080fd5b505182111561054b576040805162461bcd60e51b815260206004820152600f60248201526e1d1bdbc81b5d58da08185b5bdd5b9d608a1b604482015290519081900360640190fd5b600480546040805163219e412d60e21b8152309381019390935260248301859052516001600160a01b039091169163867904b49160448083019260209291908290030181600087803b1580156105a057600080fd5b505af11580156105b4573d6000803e3d6000fd5b505050506040513d60208110156105ca57600080fd5b5050600354604080516370a0823160e01b815230600482015290516000926001600160a01b0316916370a08231916024808301926020929190829003018186803b15801561061757600080fd5b505afa15801561062b573d6000803e3d6000fd5b505050506040513d602081101561064157600080fd5b5051600754600354919250610669916001600160a01b0390811691168363ffffffff61082b16565b60075460408051635320bf6b60e11b815260016004820152600260248201526044810184905260006064820181905291516001600160a01b039093169263a6417ed69260848084019391929182900301818387803b1580156106ca57600080fd5b505af11580156106de573d6000803e3d6000fd5b5050600254604080516370a0823160e01b81523060048201529051600094506001600160a01b0390921692506370a08231916024808301926020929190829003018186803b15801561072f57600080fd5b505afa158015610743573d6000803e3d6000fd5b505050506040513d602081101561075957600080fd5b5051600554600254919250610781916001600160a01b0390811691168363ffffffff61094316565b5060019392505050565b6001600160a01b0381166107d05760405162461bcd60e51b8152600401808060200182810382526026815260200180610b8c6026913960400191505060405180910390fd5b600080546040516001600160a01b03808516939216917f8be0079c531659141344cd1fd0a4f28419497f9722a3daafe3b4186f6b6457e091a3600080546001600160a01b0319166001600160a01b0392909216919091179055565b8015806108b1575060408051636eb1769f60e11b81523060048201526001600160a01b03848116602483015291519185169163dd62ed3e91604480820192602092909190829003018186803b15801561088357600080fd5b505afa158015610897573d6000803e3d6000fd5b505050506040513d60208110156108ad57600080fd5b5051155b6108ec5760405162461bcd60e51b8152600401808060200182810382526036815260200180610bdc6036913960400191505060405180910390fd5b604080516001600160a01b038416602482015260448082018490528251808303909101815260649091019091526020810180516001600160e01b031663095ea7b360e01b17905261093e908490610991565b505050565b604080516001600160a01b038416602482015260448082018490528251808303909101815260649091019091526020810180516001600160e01b031663a9059cbb60e01b17905261093e9084905b6109a3826001600160a01b0316610b4f565b6109f4576040805162461bcd60e51b815260206004820152601f60248201527f5361666545524332303a2063616c6c20746f206e6f6e2d636f6e747261637400604482015290519081900360640190fd5b60006060836001600160a01b0316836040518082805190602001908083835b60208310610a325780518252601f199092019160209182019101610a13565b6001836020036101000a0380198251168184511680821785525050505050509050019150506000604051808303816000865af19150503d8060008114610a94576040519150601f19603f3d011682016040523d82523d6000602084013e610a99565b606091505b509150915081610af0576040805162461bcd60e51b815260206004820181905260248201527f5361666545524332303a206c6f772d6c6576656c2063616c6c206661696c6564604482015290519081900360640190fd5b805115610b4957808060200190516020811015610b0c57600080fd5b5051610b495760405162461bcd60e51b815260040180806020018281038252602a815260200180610bb2602a913960400191505060405180910390fd5b50505050565b6000813f7fc5d2460186f7233c927e7db2dcc703c0e500b653ca82273b7bfad8045d85a4708115801590610b835750808214155b94935050505056fe4f776e61626c653a206e6577206f776e657220697320746865207a65726f20616464726573735361666545524332303a204552433230206f7065726174696f6e20646964206e6f7420737563636565645361666545524332303a20617070726f76652066726f6d206e6f6e2d7a65726f20746f206e6f6e2d7a65726f20616c6c6f77616e6365a265627a7a723058207990e6c872b90d8adebe4920c0743d7f1a94efad03bc3cf682a598dee9bab7ee64736f6c634300050a0032","linkReferences":{}},"methodIdentifiers":{"changeMinimumAmount(uint256)":"77eab3e3","curve()":"7165485d","doExchange(uint256)":"fcb5d44d","from_bank()":"76b17123","minimum_amount()":"a9a67eb9","note()":"26d111f5","owner()":"8da5cb5b","to_bank()":"49a76d0a","transferOwnership(address)":"f2fde38b","usdc()":"3e413bee","usdt()":"2f48ab7d"},"storageLayout":{"storage":[],"types":{}},"id":0}